{
  "contractName": "nexyohub",
  "abi": [
    {
      "inputs": [
        {
          "internalType": "string",
          "name": "_name",
          "type": "string"
        }
      ],
      "stateMutability": "nonpayable",
      "type": "constructor"
    },
    {
      "anonymous": false,
      "inputs": [
        {
          "indexed": true,
          "internalType": "address",
          "name": "_owner",
          "type": "address"
        },
        {
          "indexed": true,
          "internalType": "address",
          "name": "_approved",
          "type": "address"
        },
        {
          "indexed": true,
          "internalType": "uint256",
          "name": "_tokenId",
          "type": "uint256"
        }
      ],
      "name": "Approval",
      "type": "event"
    },
    {
      "anonymous": false,
      "inputs": [
        {
          "indexed": true,
          "internalType": "address",
          "name": "_owner",
          "type": "address"
        },
        {
          "indexed": true,
          "internalType": "address",
          "name": "_operator",
          "type": "address"
        },
        {
          "indexed": false,
          "internalType": "bool",
          "name": "_approved",
          "type": "bool"
        }
      ],
      "name": "ApprovalForAll",
      "type": "event"
    },
    {
      "anonymous": false,
      "inputs": [
        {
          "indexed": true,
          "internalType": "address",
          "name": "_from",
          "type": "address"
        },
        {
          "indexed": true,
          "internalType": "address",
          "name": "_to",
          "type": "address"
        },
        {
          "indexed": true,
          "internalType": "uint256",
          "name": "_tokenId",
          "type": "uint256"
        }
      ],
      "name": "Transfer",
      "type": "event"
    },
    {
      "anonymous": false,
      "inputs": [
        {
          "indexed": false,
          "internalType": "address",
          "name": "thisContract",
          "type": "address"
        },
        {
          "indexed": false,
          "internalType": "uint256",
          "name": "myMoney",
          "type": "uint256"
        }
      ],
      "name": "contracttookmymoney",
      "type": "event"
    },
    {
      "inputs": [
        {
          "internalType": "uint256",
          "name": "",
          "type": "uint256"
        }
      ],
      "name": "owners",
      "outputs": [
        {
          "internalType": "address",
          "name": "",
          "type": "address"
        }
      ],
      "stateMutability": "view",
      "type": "function",
      "constant": true
    },
    {
      "inputs": [
        {
          "internalType": "uint256",
          "name": "",
          "type": "uint256"
        }
      ],
      "name": "pointers",
      "outputs": [
        {
          "internalType": "string",
          "name": "",
          "type": "string"
        }
      ],
      "stateMutability": "view",
      "type": "function",
      "constant": true
    },
    {
      "inputs": [
        {
          "internalType": "uint256",
          "name": "",
          "type": "uint256"
        }
      ],
      "name": "prices",
      "outputs": [
        {
          "internalType": "uint256",
          "name": "",
          "type": "uint256"
        }
      ],
      "stateMutability": "view",
      "type": "function",
      "constant": true
    },
    {
      "inputs": [
        {
          "internalType": "uint256",
          "name": "",
          "type": "uint256"
        }
      ],
      "name": "sellable",
      "outputs": [
        {
          "internalType": "bool",
          "name": "",
          "type": "bool"
        }
      ],
      "stateMutability": "view",
      "type": "function",
      "constant": true
    },
    {
      "stateMutability": "payable",
      "type": "receive",
      "payable": true
    },
    {
      "inputs": [
        {
          "internalType": "string",
          "name": "pointer",
          "type": "string"
        }
      ],
      "name": "makePointer",
      "outputs": [],
      "stateMutability": "nonpayable",
      "type": "function"
    },
    {
      "inputs": [
        {
          "internalType": "string",
          "name": "pointer",
          "type": "string"
        }
      ],
      "name": "revokePointer",
      "outputs": [],
      "stateMutability": "nonpayable",
      "type": "function"
    },
    {
      "inputs": [
        {
          "internalType": "address",
          "name": "newowner",
          "type": "address"
        },
        {
          "internalType": "string",
          "name": "pointer",
          "type": "string"
        }
      ],
      "name": "mint_to",
      "outputs": [],
      "stateMutability": "nonpayable",
      "type": "function"
    },
    {
      "inputs": [
        {
          "internalType": "string",
          "name": "pointer",
          "type": "string"
        }
      ],
      "name": "mint",
      "outputs": [],
      "stateMutability": "nonpayable",
      "type": "function"
    },
    {
      "inputs": [
        {
          "internalType": "uint256",
          "name": "cost",
          "type": "uint256"
        },
        {
          "internalType": "uint256",
          "name": "token",
          "type": "uint256"
        }
      ],
      "name": "setPrice",
      "outputs": [],
      "stateMutability": "nonpayable",
      "type": "function"
    },
    {
      "inputs": [
        {
          "internalType": "address",
          "name": "_from",
          "type": "address"
        },
        {
          "internalType": "address",
          "name": "_to",
          "type": "address"
        },
        {
          "internalType": "uint256",
          "name": "_tokenId",
          "type": "uint256"
        }
      ],
      "name": "transferFrom",
      "outputs": [],
      "stateMutability": "payable",
      "type": "function",
      "payable": true
    },
    {
      "inputs": [
        {
          "internalType": "address",
          "name": "_from",
          "type": "address"
        },
        {
          "internalType": "address",
          "name": "_to",
          "type": "address"
        },
        {
          "internalType": "uint256",
          "name": "_tokenId",
          "type": "uint256"
        }
      ],
      "name": "redoOwnerShipArraypub",
      "outputs": [],
      "stateMutability": "nonpayable",
      "type": "function"
    },
    {
      "inputs": [
        {
          "internalType": "uint256",
          "name": "_tokenid",
          "type": "uint256"
        }
      ],
      "name": "buy",
      "outputs": [],
      "stateMutability": "payable",
      "type": "function",
      "payable": true
    },
    {
      "inputs": [],
      "name": "buyableTokens",
      "outputs": [
        {
          "internalType": "uint256[]",
          "name": "",
          "type": "uint256[]"
        }
      ],
      "stateMutability": "view",
      "type": "function",
      "constant": true
    },
    {
      "inputs": [],
      "name": "balance",
      "outputs": [
        {
          "internalType": "uint256",
          "name": "",
          "type": "uint256"
        }
      ],
      "stateMutability": "view",
      "type": "function",
      "constant": true
    },
    {
      "inputs": [
        {
          "internalType": "address",
          "name": "sender",
          "type": "address"
        }
      ],
      "name": "myTokens",
      "outputs": [
        {
          "internalType": "uint256[]",
          "name": "",
          "type": "uint256[]"
        }
      ],
      "stateMutability": "view",
      "type": "function",
      "constant": true
    },
    {
      "inputs": [],
      "name": "useablePointers",
      "outputs": [
        {
          "internalType": "string[]",
          "name": "",
          "type": "string[]"
        }
      ],
      "stateMutability": "view",
      "type": "function",
      "constant": true
    },
    {
      "inputs": [
        {
          "internalType": "uint256",
          "name": "token",
          "type": "uint256"
        }
      ],
      "name": "price",
      "outputs": [
        {
          "internalType": "uint256",
          "name": "",
          "type": "uint256"
        }
      ],
      "stateMutability": "view",
      "type": "function",
      "constant": true
    },
    {
      "inputs": [
        {
          "internalType": "uint256",
          "name": "_tokenId",
          "type": "uint256"
        }
      ],
      "name": "ownerOf",
      "outputs": [
        {
          "internalType": "address",
          "name": "",
          "type": "address"
        }
      ],
      "stateMutability": "view",
      "type": "function",
      "constant": true
    },
    {
      "inputs": [
        {
          "internalType": "uint256",
          "name": "_tokenId",
          "type": "uint256"
        }
      ],
      "name": "pointerOf",
      "outputs": [
        {
          "internalType": "string",
          "name": "",
          "type": "string"
        }
      ],
      "stateMutability": "view",
      "type": "function",
      "constant": true
    },
    {
      "inputs": [
        {
          "internalType": "address",
          "name": "dataowner",
          "type": "address"
        }
      ],
      "name": "addDataOwner",
      "outputs": [],
      "stateMutability": "nonpayable",
      "type": "function"
    },
    {
      "inputs": [],
      "name": "whoisOwner",
      "outputs": [
        {
          "internalType": "address",
          "name": "",
          "type": "address"
        }
      ],
      "stateMutability": "view",
      "type": "function",
      "constant": true
    },
    {
      "inputs": [
        {
          "internalType": "string",
          "name": "pointer",
          "type": "string"
        }
      ],
      "name": "isPointerthere",
      "outputs": [
        {
          "internalType": "bool",
          "name": "",
          "type": "bool"
        }
      ],
      "stateMutability": "view",
      "type": "function",
      "constant": true
    },
    {
      "inputs": [
        {
          "internalType": "address",
          "name": "dataowner",
          "type": "address"
        }
      ],
      "name": "isDataOwnerthere",
      "outputs": [
        {
          "internalType": "bool",
          "name": "",
          "type": "bool"
        }
      ],
      "stateMutability": "view",
      "type": "function",
      "constant": true
    },
    {
      "inputs": [],
      "name": "nextNFTid",
      "outputs": [
        {
          "internalType": "uint256",
          "name": "",
          "type": "uint256"
        }
      ],
      "stateMutability": "view",
      "type": "function",
      "constant": true
    },
    {
      "inputs": [],
      "name": "returnContractName",
      "outputs": [
        {
          "internalType": "string",
          "name": "",
          "type": "string"
        }
      ],
      "stateMutability": "view",
      "type": "function",
      "constant": true
    },
    {
      "inputs": [],
      "name": "returnAddress",
      "outputs": [
        {
          "internalType": "address",
          "name": "",
          "type": "address"
        }
      ],
      "stateMutability": "view",
      "type": "function",
      "constant": true
    },
    {
      "inputs": [],
      "name": "returnSign",
      "outputs": [
        {
          "internalType": "string",
          "name": "",
          "type": "string"
        }
      ],
      "stateMutability": "view",
      "type": "function",
      "constant": true
    },
    {
      "inputs": [],
      "name": "terminate",
      "outputs": [],
      "stateMutability": "nonpayable",
      "type": "function"
    }
  ],
  "bytecode": "0x60806040526801bc16d674ec8000006000556000600c556000600d556000600e55670de0b6b3a76400006010553480156200003957600080fd5b506040516200389f3803806200389f83398181016040528101906200005f9190620002e7565b6000543373ffffffffffffffffffffffffffffffffffffffff16311015620000be576040517f08c379a0000000000000000000000000000000000000000000000000000000008152600401620000b5906200036e565b60405180910390fd5b8060099080519060200190620000d6929190620001c5565b506040518060400160405280600581526020017f4e584e4654000000000000000000000000000000000000000000000000000000815250600a908051906020019062000124929190620001c5565b5033600b60006101000a81548173ffffffffffffffffffffffffffffffffffffffff021916908373ffffffffffffffffffffffffffffffffffffffff1602179055506001600260003073ffffffffffffffffffffffffffffffffffffffff1673ffffffffffffffffffffffffffffffffffffffff16815260200190815260200160002060006101000a81548160ff02191690831515021790555050620004d2565b828054620001d3906200043e565b90600052602060002090601f016020900481019282620001f7576000855562000243565b82601f106200021257805160ff191683800117855562000243565b8280016001018555821562000243579182015b828111156200024257825182559160200191906001019062000225565b5b50905062000252919062000256565b5090565b5b808211156200027157600081600090555060010162000257565b5090565b60006200028c6200028684620003c4565b62000390565b905082815260208101848484011115620002a557600080fd5b620002b284828562000408565b509392505050565b600082601f830112620002cc57600080fd5b8151620002de84826020860162000275565b91505092915050565b600060208284031215620002fa57600080fd5b600082015167ffffffffffffffff8111156200031557600080fd5b6200032384828501620002ba565b91505092915050565b60006200033b601d83620003f7565b91507f506c656173652070726f76696465207375666669656e742046756e64730000006000830152602082019050919050565b6000602082019050818103600083015262000389816200032c565b9050919050565b6000604051905081810181811067ffffffffffffffff82111715620003ba57620003b9620004a3565b5b8060405250919050565b600067ffffffffffffffff821115620003e257620003e1620004a3565b5b601f19601f8301169050602081019050919050565b600082825260208201905092915050565b60005b83811015620004285780820151818401526020810190506200040b565b8381111562000438576000848401525b50505050565b600060028204905060018216806200045757607f821691505b602082108114156200046e576200046d62000474565b5b50919050565b7f4e487b7100000000000000000000000000000000000000000000000000000000600052602260045260246000fd5b7f4e487b7100000000000000000000000000000000000000000000000000000000600052604160045260246000fd5b6133bd80620004e26000396000f3fe6080604052600436106101bb5760003560e01c80637d817835116100ec578063d85d3d271161008a578063e285497b11610064578063e285497b1461065a578063f1e6368014610697578063f7d97577146106c2578063ff7be29e146106eb576101fb565b8063d85d3d27146105d8578063d96a094a14610601578063dc1df3f61461061d576101fb565b8063b3142005116100c6578063b3142005146104f6578063b69ef8a814610533578063b6ab43e61461055e578063bc31c1c11461059b576101fb565b80637d81783514610479578063943640c3146104a2578063a1dd6912146104cd576101fb565b806323b872dd11610159578063305f16f411610133578063305f16f4146103a957806345912d97146103d45780636352211e146104115780637ce4d23a1461044e576101fb565b806323b872dd1461032557806326a49e37146103415780632eae62dc1461037e576101fb565b80630c08bf88116101955780630c08bf881461029157806314feb3cb146102a8578063218f7d6e146102d357806321f17295146102fc576101fb565b8063025e7c271461020057806305875f951461023d578063090d438814610268576101fb565b366101fb577f4e2ced4d2c3ee1a077c8c313167e6d86b8fe49c37f9d00e5ed1f37265d50be6a30346040516101f1929190612d78565b60405180910390a1005b600080fd5b34801561020c57600080fd5b5061022760048036038101906102229190612739565b610728565b6040516102349190612d5d565b60405180910390f35b34801561024957600080fd5b5061025261075b565b60405161025f9190612dc3565b60405180910390f35b34801561027457600080fd5b5061028f600480360381019061028a919061262c565b610a36565b005b34801561029d57600080fd5b506102a6610b7d565b005b3480156102b457600080fd5b506102bd610ca4565b6040516102ca9190612e00565b60405180910390f35b3480156102df57600080fd5b506102fa60048036038101906102f591906126f8565b610d36565b005b34801561030857600080fd5b50610323600480360381019061031e91906126f8565b610fad565b005b61033f600480360381019061033a9190612655565b61113b565b005b34801561034d57600080fd5b5061036860048036038101906103639190612739565b611336565b6040516103759190612f82565b60405180910390f35b34801561038a57600080fd5b50610393611353565b6040516103a09190612d5d565b60405180910390f35b3480156103b557600080fd5b506103be61137d565b6040516103cb9190612e00565b60405180910390f35b3480156103e057600080fd5b506103fb60048036038101906103f69190612739565b61140f565b6040516104089190612e00565b60405180910390f35b34801561041d57600080fd5b5061043860048036038101906104339190612739565b6114b4565b6040516104459190612d5d565b60405180910390f35b34801561045a57600080fd5b506104636114f1565b6040516104709190612da1565b60405180910390f35b34801561048557600080fd5b506104a0600480360381019061049b91906126a4565b6116f3565b005b3480156104ae57600080fd5b506104b7611907565b6040516104c49190612d5d565b60405180910390f35b3480156104d957600080fd5b506104f460048036038101906104ef9190612655565b61190f565b005b34801561050257600080fd5b5061051d6004803603810190610518919061262c565b61191f565b60405161052a9190612de5565b60405180910390f35b34801561053f57600080fd5b5061054861197c565b6040516105559190612f82565b60405180910390f35b34801561056a57600080fd5b5061058560048036038101906105809190612739565b6119cb565b6040516105929190612e00565b60405180910390f35b3480156105a757600080fd5b506105c260048036038101906105bd9190612739565b611a6b565b6040516105cf9190612f82565b60405180910390f35b3480156105e457600080fd5b506105ff60048036038101906105fa91906126f8565b611a83565b005b61061b60048036038101906106169190612739565b611d70565b005b34801561062957600080fd5b50610644600480360381019061063f919061262c565b611e1f565b6040516106519190612dc3565b60405180910390f35b34801561066657600080fd5b50610681600480360381019061067c91906126f8565b611ebb565b60405161068e9190612de5565b60405180910390f35b3480156106a357600080fd5b506106ac611ef5565b6040516106b99190612f82565b60405180910390f35b3480156106ce57600080fd5b506106e960048036038101906106e49190612762565b611eff565b005b3480156106f757600080fd5b50610712600480360381019061070d9190612739565b611fc9565b60405161071f9190612de5565b60405180910390f35b60036020528060005260406000206000915054906101000a900473ffffffffffffffffffffffffffffffffffffffff1681565b6060806000600760003073ffffffffffffffffffffffffffffffffffffffff1673ffffffffffffffffffffffffffffffffffffffff1681526020019081526020016000208054806020026020016040519081016040528092919081815260200182805480156107e957602002820191906000526020600020905b8154815260200190600101908083116107d5575b5050505050915081519050600080600090505b82811015610893576001151560066000868481518110610845577f4e487b7100000000000000000000000000000000000000000000000000000000600052603260045260246000fd5b6020026020010151815260200190815260200160002060009054906101000a900460ff161515141561088057818061087c90613272565b9250505b808061088b90613272565b9150506107fc565b5060008167ffffffffffffffff8111156108d6577f4e487b7100000000000000000000000000000000000000000000000000000000600052604160045260246000fd5b6040519080825280602002602001820160405280156109045781602001602082028036833780820191505090505b5090506000915060005b83811015610a2b576001151560066000878481518110610957577f4e487b7100000000000000000000000000000000000000000000000000000000600052603260045260246000fd5b6020026020010151815260200190815260200160002060009054906101000a900460ff1615151415610a18578481815181106109bc577f4e487b7100000000000000000000000000000000000000000000000000000000600052603260045260246000fd5b60200260200101518284815181106109fd577f4e487b7100000000000000000000000000000000000000000000000000000000600052603260045260246000fd5b6020026020010181815250508280610a1490613272565b9350505b8080610a2390613272565b91505061090e565b508094505050505090565b3373ffffffffffffffffffffffffffffffffffffffff16600b60009054906101000a900473ffffffffffffffffffffffffffffffffffffffff1673ffffffffffffffffffffffffffffffffffffffff1614610ac6576040517f08c379a0000000000000000000000000000000000000000000000000000000008152600401610abd90612e82565b60405180910390fd5b6000543373ffffffffffffffffffffffffffffffffffffffff16311015610b22576040517f08c379a0000000000000000000000000000000000000000000000000000000008152600401610b1990612e42565b60405180910390fd5b6001600260008373ffffffffffffffffffffffffffffffffffffffff1673ffffffffffffffffffffffffffffffffffffffff16815260200190815260200160002060006101000a81548160ff02191690831515021790555050565b3373ffffffffffffffffffffffffffffffffffffffff16600b60009054906101000a900473ffffffffffffffffffffffffffffffffffffffff1673ffffffffffffffffffffffffffffffffffffffff1614610c0d576040517f08c379a0000000000000000000000000000000000000000000000000000000008152600401610c0490612e82565b60405180910390fd5b6000543373ffffffffffffffffffffffffffffffffffffffff16311015610c69576040517f08c379a0000000000000000000000000000000000000000000000000000000008152600401610c6090612e42565b60405180910390fd5b600b60009054906101000a900473ffffffffffffffffffffffffffffffffffffffff1673ffffffffffffffffffffffffffffffffffffffff16ff5b606060098054610cb390613240565b80601f0160208091040260200160405190810160405280929190818152602001828054610cdf90613240565b8015610d2c5780601f10610d0157610100808354040283529160200191610d2c565b820191906000526020600020905b815481529060010190602001808311610d0f57829003601f168201915b5050505050905090565b3373ffffffffffffffffffffffffffffffffffffffff16600b60009054906101000a900473ffffffffffffffffffffffffffffffffffffffff1673ffffffffffffffffffffffffffffffffffffffff1614610dc6576040517f08c379a0000000000000000000000000000000000000000000000000000000008152600401610dbd90612e82565b60405180910390fd5b6000543373ffffffffffffffffffffffffffffffffffffffff16311015610e22576040517f08c379a0000000000000000000000000000000000000000000000000000000008152600401610e1990612e42565b60405180910390fd5b60018082604051610e339190612d46565b908152602001604051809103902060009054906101000a900460ff1660ff161415610e93576040517f08c379a0000000000000000000000000000000000000000000000000000000008152600401610e8a90612e62565b60405180910390fd5b6000600182604051610ea59190612d46565b908152602001604051809103902060009054906101000a900460ff1660ff161415610f5a5760018082604051610edb9190612d46565b908152602001604051809103902060006101000a81548160ff021916908360ff160217905550600f81908060018154018082558091505060019003906000526020600020016000909190919091509080519060200190610f3c9291906124aa565b50600d6000815480929190610f5090613272565b9190505550610faa565b60018082604051610f6b9190612d46565b908152602001604051809103902060006101000a81548160ff021916908360ff160217905550600e6000815480929190610fa490613216565b91905055505b50565b3373ffffffffffffffffffffffffffffffffffffffff16600b60009054906101000a900473ffffffffffffffffffffffffffffffffffffffff1673ffffffffffffffffffffffffffffffffffffffff161461103d576040517f08c379a000000000000000000000000000000000000000000000000000000000815260040161103490612e82565b60405180910390fd5b6000543373ffffffffffffffffffffffffffffffffffffffff16311015611099576040517f08c379a000000000000000000000000000000000000000000000000000000000815260040161109090612e42565b60405180910390fd5b600115156110a682611ebb565b1515146110e8576040517f08c379a00000000000000000000000000000000000000000000000000000000081526004016110df90612f22565b60405180910390fd5b60026001826040516110fa9190612d46565b908152602001604051809103902060006101000a81548160ff021916908360ff160217905550600e600081548092919061113390613272565b919050555050565b8273ffffffffffffffffffffffffffffffffffffffff166003600083815260200190815260200160002060009054906101000a900473ffffffffffffffffffffffffffffffffffffffff1673ffffffffffffffffffffffffffffffffffffffff16146111dc576040517f08c379a00000000000000000000000000000000000000000000000000000000081526004016111d390612e22565b60405180910390fd5b3460056000838152602001908152602001600020541115611232576040517f08c379a000000000000000000000000000000000000000000000000000000000815260040161122990612f42565b60405180910390fd5b8273ffffffffffffffffffffffffffffffffffffffff166108fc349081150290604051600060405180830381858888f19350505050158015611278573d6000803e3d6000fd5b50611284838383611fe9565b816003600083815260200190815260200160002060006101000a81548173ffffffffffffffffffffffffffffffffffffffff021916908373ffffffffffffffffffffffffffffffffffffffff160217905550808273ffffffffffffffffffffffffffffffffffffffff168473ffffffffffffffffffffffffffffffffffffffff167fddf252ad1be2c89b69c2b068fc378daa952ba7f163c4a11628f55a4df523b3ef60405160405180910390a4505050565b600060056000838152602001908152602001600020549050919050565b6000600b60009054906101000a900473ffffffffffffffffffffffffffffffffffffffff16905090565b6060600a805461138c90613240565b80601f01602080910402602001604051908101604052809291908181526020018280546113b890613240565b80156114055780601f106113da57610100808354040283529160200191611405565b820191906000526020600020905b8154815290600101906020018083116113e857829003601f168201915b5050505050905090565b606060046000838152602001908152602001600020805461142f90613240565b80601f016020809104026020016040519081016040528092919081815260200182805461145b90613240565b80156114a85780601f1061147d576101008083540402835291602001916114a8565b820191906000526020600020905b81548152906001019060200180831161148b57829003601f168201915b50505050509050919050565b60006003600083815260200190815260200160002060009054906101000a900473ffffffffffffffffffffffffffffffffffffffff169050919050565b60606000600e54600d546115059190613158565b67ffffffffffffffff811115611544577f4e487b7100000000000000000000000000000000000000000000000000000000600052604160045260246000fd5b60405190808252806020026020018201604052801561157757816020015b60608152602001906001900390816115625790505b5090506000600f80549050905060008060405180602001604052806000815250905060005b838110156116e857600f81815481106115de577f4e487b7100000000000000000000000000000000000000000000000000000000600052603260045260246000fd5b9060005260206000200180546115f390613240565b80601f016020809104026020016040519081016040528092919081815260200182805461161f90613240565b801561166c5780601f106116415761010080835404028352916020019161166c565b820191906000526020600020905b81548152906001019060200180831161164f57829003601f168201915b5050505050915061167c82611ebb565b156116d557818584815181106116bb577f4e487b7100000000000000000000000000000000000000000000000000000000600052603260045260246000fd5b602002602001018190525082806116d190613272565b9350505b80806116e090613272565b91505061159c565b508394505050505090565b6116fc8261191f565b61173b576040517f08c379a000000000000000000000000000000000000000000000000000000000815260040161173290612ea2565b60405180910390fd5b61174481611ebb565b61174d57600080fd5b8160036000600c54815260200190815260200160002060006101000a81548173ffffffffffffffffffffffffffffffffffffffff021916908373ffffffffffffffffffffffffffffffffffffffff1602179055506000600760008473ffffffffffffffffffffffffffffffffffffffff1673ffffffffffffffffffffffffffffffffffffffff168152602001908152602001600020600c5490806001815401808255809150506001900390600052602060002001600090919091909150556001600760008573ffffffffffffffffffffffffffffffffffffffff1673ffffffffffffffffffffffffffffffffffffffff1681526020019081526020016000208054905061185a9190613158565b90508060086000600c548152602001908152602001600020819055508160046000600c548152602001908152602001600020908051906020019061189f9291906124aa565b5060105460056000600c54815260200190815260200160002081905550600060066000600c54815260200190815260200160002060006101000a81548160ff021916908315150217905550600c60008154809291906118fd90613272565b9190505550505050565b600030905090565b61191a838383611fe9565b505050565b600060011515600260008473ffffffffffffffffffffffffffffffffffffffff1673ffffffffffffffffffffffffffffffffffffffff16815260200190815260200160002060009054906101000a900460ff161515149050919050565b600080600760003373ffffffffffffffffffffffffffffffffffffffff1673ffffffffffffffffffffffffffffffffffffffff1681526020019081526020016000208054905090508091505090565b600460205280600052604060002060009150905080546119ea90613240565b80601f0160208091040260200160405190810160405280929190818152602001828054611a1690613240565b8015611a635780601f10611a3857610100808354040283529160200191611a63565b820191906000526020600020905b815481529060010190602001808311611a4657829003601f168201915b505050505081565b60056020528060005260406000206000915090505481565b3373ffffffffffffffffffffffffffffffffffffffff16600b60009054906101000a900473ffffffffffffffffffffffffffffffffffffffff1673ffffffffffffffffffffffffffffffffffffffff1614611b13576040517f08c379a0000000000000000000000000000000000000000000000000000000008152600401611b0a90612e82565b60405180910390fd5b6000543373ffffffffffffffffffffffffffffffffffffffff16311015611b6f576040517f08c379a0000000000000000000000000000000000000000000000000000000008152600401611b6690612e42565b60405180910390fd5b611b7881611ebb565b611bb7576040517f08c379a0000000000000000000000000000000000000000000000000000000008152600401611bae90612f62565b60405180910390fd5b3060036000600c54815260200190815260200160002060006101000a81548173ffffffffffffffffffffffffffffffffffffffff021916908373ffffffffffffffffffffffffffffffffffffffff1602179055506000600760003073ffffffffffffffffffffffffffffffffffffffff1673ffffffffffffffffffffffffffffffffffffffff168152602001908152602001600020600c5490806001815401808255809150506001900390600052602060002001600090919091909150556001600760003073ffffffffffffffffffffffffffffffffffffffff1673ffffffffffffffffffffffffffffffffffffffff16815260200190815260200160002080549050611cc49190613158565b90508060086000600c548152602001908152602001600020819055508160046000600c5481526020019081526020016000209080519060200190611d099291906124aa565b5060105460056000600c54815260200190815260200160002081905550600160066000600c54815260200190815260200160002060006101000a81548160ff021916908315150217905550600c6000815480929190611d6790613272565b91905055505050565b3073ffffffffffffffffffffffffffffffffffffffff166003600083815260200190815260200160002060009054906101000a900473ffffffffffffffffffffffffffffffffffffffff1673ffffffffffffffffffffffffffffffffffffffff1614611e11576040517f08c379a0000000000000000000000000000000000000000000000000000000008152600401611e0890612ec2565b60405180910390fd5b611e1c30338361113b565b50565b606080600760008473ffffffffffffffffffffffffffffffffffffffff1673ffffffffffffffffffffffffffffffffffffffff168152602001908152602001600020805480602002602001604051908101604052809291908181526020018280548015611eab57602002820191906000526020600020905b815481526020019060010190808311611e97575b5050505050905080915050919050565b600060018083604051611ece9190612d46565b908152602001604051809103902060009054906101000a900460ff1660ff16149050919050565b6000600c54905090565b3373ffffffffffffffffffffffffffffffffffffffff166003600083815260200190815260200160002060009054906101000a900473ffffffffffffffffffffffffffffffffffffffff1673ffffffffffffffffffffffffffffffffffffffff1614611fa0576040517f08c379a0000000000000000000000000000000000000000000000000000000008152600401611f9790612ee2565b60405180910390fd5b60105482611fae91906130fe565b60056000838152602001908152602001600020819055505050565b60066020528060005260406000206000915054906101000a900460ff1681565b60008060086000848152602001908152602001600020549150600760008673ffffffffffffffffffffffffffffffffffffffff1673ffffffffffffffffffffffffffffffffffffffff16815260200190815260200160002080549050905060008167ffffffffffffffff811115612089577f4e487b7100000000000000000000000000000000000000000000000000000000600052604160045260246000fd5b6040519080825280602002602001820160405280156120b75781602001602082028036833780820191505090505b509050600760008773ffffffffffffffffffffffffffffffffffffffff1673ffffffffffffffffffffffffffffffffffffffff16815260200190815260200160002080548060200260200160405190810160405280929190818152602001828054801561214357602002820191906000526020600020905b81548152602001906001019080831161212f575b5050505050905060006001836121599190613158565b67ffffffffffffffff811115612198577f4e487b7100000000000000000000000000000000000000000000000000000000600052604160045260246000fd5b6040519080825280602002602001820160405280156121c65781602001602082028036833780820191505090505b50905060005b8481101561226d5782818151811061220d577f4e487b7100000000000000000000000000000000000000000000000000000000600052603260045260246000fd5b602002602001015182828151811061224e577f4e487b7100000000000000000000000000000000000000000000000000000000600052603260045260246000fd5b602002602001018181525050808061226590613272565b9150506121cc565b50600082519050600060018661228391906130a8565b90505b81811015612333578381815181106122c7577f4e487b7100000000000000000000000000000000000000000000000000000000600052603260045260246000fd5b6020026020010151836001836122dd9190613158565b81518110612314577f4e487b7100000000000000000000000000000000000000000000000000000000600052603260045260246000fd5b602002602001018181525050808061232b90613272565b915050612286565b5060008251905081811061237c576040517f08c379a000000000000000000000000000000000000000000000000000000000815260040161237390612f02565b60405180910390fd5b82600760008b73ffffffffffffffffffffffffffffffffffffffff1673ffffffffffffffffffffffffffffffffffffffff16815260200190815260200160002090805190602001906123cf929190612530565b50600760008973ffffffffffffffffffffffffffffffffffffffff1673ffffffffffffffffffffffffffffffffffffffff1681526020019081526020016000208790806001815401808255809150506001900390600052602060002001600090919091909150556001600760008a73ffffffffffffffffffffffffffffffffffffffff1673ffffffffffffffffffffffffffffffffffffffff168152602001908152602001600020805490506124859190613158565b9550856008600089815260200190815260200160002081905550505050505050505050565b8280546124b690613240565b90600052602060002090601f0160209004810192826124d8576000855561251f565b82601f106124f157805160ff191683800117855561251f565b8280016001018555821561251f579182015b8281111561251e578251825591602001919060010190612503565b5b50905061252c919061257d565b5090565b82805482825590600052602060002090810192821561256c579160200282015b8281111561256b578251825591602001919060010190612550565b5b509050612579919061257d565b5090565b5b8082111561259657600081600090555060010161257e565b5090565b60006125ad6125a884612fce565b612f9d565b9050828152602081018484840111156125c557600080fd5b6125d08482856131d4565b509392505050565b6000813590506125e781613359565b92915050565b600082601f8301126125fe57600080fd5b813561260e84826020860161259a565b91505092915050565b60008135905061262681613370565b92915050565b60006020828403121561263e57600080fd5b600061264c848285016125d8565b91505092915050565b60008060006060848603121561266a57600080fd5b6000612678868287016125d8565b9350506020612689868287016125d8565b925050604061269a86828701612617565b9150509250925092565b600080604083850312156126b757600080fd5b60006126c5858286016125d8565b925050602083013567ffffffffffffffff8111156126e257600080fd5b6126ee858286016125ed565b9150509250929050565b60006020828403121561270a57600080fd5b600082013567ffffffffffffffff81111561272457600080fd5b612730848285016125ed565b91505092915050565b60006020828403121561274b57600080fd5b600061275984828501612617565b91505092915050565b6000806040838503121561277557600080fd5b600061278385828601612617565b925050602061279485828601612617565b9150509250929050565b60006127aa83836128bb565b905092915050565b60006127be8383612d28565b60208301905092915050565b6127d38161318c565b82525050565b60006127e48261301e565b6127ee8185613059565b93508360208202850161280085612ffe565b8060005b8581101561283c578484038952815161281d858261279e565b94506128288361303f565b925060208a01995050600181019050612804565b50829750879550505050505092915050565b600061285982613029565b612863818561306a565b935061286e8361300e565b8060005b8381101561289f57815161288688826127b2565b97506128918361304c565b925050600181019050612872565b5085935050505092915050565b6128b58161319e565b82525050565b60006128c682613034565b6128d0818561307b565b93506128e08185602086016131e3565b6128e981613348565b840191505092915050565b60006128ff82613034565b612909818561308c565b93506129198185602086016131e3565b61292281613348565b840191505092915050565b600061293882613034565b612942818561309d565b93506129528185602086016131e3565b80840191505092915050565b600061296b60248361308c565b91507f4164647265737320646f6573206e6f7420686f6c64207370656369666963207460008301527f6f6b656e000000000000000000000000000000000000000000000000000000006020830152604082019050919050565b60006129d1601d8361308c565b91507f506c656173652070726f76696465207375666669656e742046756e64730000006000830152602082019050919050565b6000612a11601a8361308c565b91507f506f696e74657220697320616c72656164792075736561626c650000000000006000830152602082019050919050565b6000612a5160398361308c565b91507f54686973204f7065726174696f6e2063616e206f6e6c7920626520616363657360008301527f7365642062792074686520636f6e7472616374206f776e6572000000000000006020830152604082019050919050565b6000612ab760188361308c565b91507f4e6f204163636f756e74207769746820746869732048756200000000000000006000830152602082019050919050565b6000612af760228361308c565b91507f596f75206f6e6c792063616e2062792066726f6d207468697320636f6e74726160008301527f63740000000000000000000000000000000000000000000000000000000000006020830152604082019050919050565b6000612b5d60368361308c565b91507f54686973204f7065726174696f6e2063616e206f6e6c7920626520616363657360008301527f7365642062792074686520746f6b656e206f776e6572000000000000000000006020830152604082019050919050565b6000612bc360428361308c565b91507f41727261797320617265206f6620657175616c2064697374616e636520616e6460008301527f20737567676573742074686174206e6f7468696e67206d75636820686170706560208301527f6e640000000000000000000000000000000000000000000000000000000000006040830152606082019050919050565b6000612c4f601c8361308c565b91507f506f696e74657220697320616c726561647920756e75736561626c65000000006000830152602082019050919050565b6000612c8f601f8361308c565b91507f506c656173652070726f766964652073756666696369656e742066756e6473006000830152602082019050919050565b6000612ccf602d8361308c565b91507f50726f766964656420506f696e74657220646f6573206e6f742065786973742060008301527f7769746820636f6e7472616374000000000000000000000000000000000000006020830152604082019050919050565b612d31816131ca565b82525050565b612d40816131ca565b82525050565b6000612d52828461292d565b915081905092915050565b6000602082019050612d7260008301846127ca565b92915050565b6000604082019050612d8d60008301856127ca565b612d9a6020830184612d37565b9392505050565b60006020820190508181036000830152612dbb81846127d9565b905092915050565b60006020820190508181036000830152612ddd818461284e565b905092915050565b6000602082019050612dfa60008301846128ac565b92915050565b60006020820190508181036000830152612e1a81846128f4565b905092915050565b60006020820190508181036000830152612e3b8161295e565b9050919050565b60006020820190508181036000830152612e5b816129c4565b9050919050565b60006020820190508181036000830152612e7b81612a04565b9050919050565b60006020820190508181036000830152612e9b81612a44565b9050919050565b60006020820190508181036000830152612ebb81612aaa565b9050919050565b60006020820190508181036000830152612edb81612aea565b9050919050565b60006020820190508181036000830152612efb81612b50565b9050919050565b60006020820190508181036000830152612f1b81612bb6565b9050919050565b60006020820190508181036000830152612f3b81612c42565b9050919050565b60006020820190508181036000830152612f5b81612c82565b9050919050565b60006020820190508181036000830152612f7b81612cc2565b9050919050565b6000602082019050612f976000830184612d37565b92915050565b6000604051905081810181811067ffffffffffffffff82111715612fc457612fc3613319565b5b8060405250919050565b600067ffffffffffffffff821115612fe957612fe8613319565b5b601f19601f8301169050602081019050919050565b6000819050602082019050919050565b6000819050602082019050919050565b600081519050919050565b600081519050919050565b600081519050919050565b6000602082019050919050565b6000602082019050919050565b600082825260208201905092915050565b600082825260208201905092915050565b600082825260208201905092915050565b600082825260208201905092915050565b600081905092915050565b60006130b3826131ca565b91506130be836131ca565b9250827fffffffffffffffffffffffffffffffffffffffffffffffffffffffffffffffff038211156130f3576130f26132bb565b5b828201905092915050565b6000613109826131ca565b9150613114836131ca565b9250817fffffffffffffffffffffffffffffffffffffffffffffffffffffffffffffffff048311821515161561314d5761314c6132bb565b5b828202905092915050565b6000613163826131ca565b915061316e836131ca565b925082821015613181576131806132bb565b5b828203905092915050565b6000613197826131aa565b9050919050565b60008115159050919050565b600073ffffffffffffffffffffffffffffffffffffffff82169050919050565b6000819050919050565b82818337600083830152505050565b60005b838110156132015780820151818401526020810190506131e6565b83811115613210576000848401525b50505050565b6000613221826131ca565b91506000821415613235576132346132bb565b5b600182039050919050565b6000600282049050600182168061325857607f821691505b6020821081141561326c5761326b6132ea565b5b50919050565b600061327d826131ca565b91507fffffffffffffffffffffffffffffffffffffffffffffffffffffffffffffffff8214156132b0576132af6132bb565b5b600182019050919050565b7f4e487b7100000000000000000000000000000000000000000000000000000000600052601160045260246000fd5b7f4e487b7100000000000000000000000000000000000000000000000000000000600052602260045260246000fd5b7f4e487b7100000000000000000000000000000000000000000000000000000000600052604160045260246000fd5b6000601f19601f8301169050919050565b6133628161318c565b811461336d57600080fd5b50565b613379816131ca565b811461338457600080fd5b5056fea2646970667358221220d98b082e29caefb7a36d8b99df5d45acc4706f61553e71d4aa6b26574d9f9fa664736f6c63430008000033",
  "immutableReferences": {},
  "source": "// SPDX-License-Identifier: UNLICENSED\npragma solidity ^0.8.0;\n\ncontract nexyohub {\n  uint _minstake = 32000000000000000000;\n  mapping(string => uint8) private pointerExists;\n  mapping(address => bool) private DataOwners;\n  mapping(uint => address) public owners;\n  mapping(uint => string) public pointers;\n  mapping(uint => uint) public prices;\n  mapping(uint => bool) public sellable;\n  mapping(address => uint[]) private OwnerShip;\n  mapping(uint => uint) private NFTArrayPos;\n  string name_;\n  string sign_;\n  address payable owner;\n  uint token_id=0;\n  uint pointer_id=0;\n  uint pointer_uid=0;\n  string[] pointerarray;\n  uint stdPrice=1000000000000000000;\n\n  constructor(string memory _name) {\n    require(msg.sender.balance >= _minstake, 'Please provide suffient Funds');\n    name_=_name;\n    sign_='NXNFT';\n    owner=payable(msg.sender);\n    DataOwners[address(this)]=true;\n  }\n\n  modifier onlyOwner {\n    require(owner==msg.sender, 'This Operation can only be accessed by the contract owner');\n    require(msg.sender.balance >= _minstake, 'Please provide suffient Funds');\n    _;\n  }\n\n  modifier onlyContract {\n    require(address(this)==msg.sender, 'The function you are trying to enter is prohibited');\n    _;\n  }\n\n  event Transfer(address indexed _from, address indexed _to, uint256 indexed _tokenId);\n\n  event Approval(address indexed _owner, address indexed _approved, uint256 indexed _tokenId);\n\n  event ApprovalForAll(address indexed _owner, address indexed _operator, bool _approved);\n\n  event contracttookmymoney(address thisContract, uint myMoney);\n\n  receive () external payable {\n      emit contracttookmymoney(address(this), msg.value);\n  }\n\n  function makePointer (string memory pointer) public onlyOwner {\n    require(pointerExists[pointer]!=1,'Pointer is already useable');\n    if (pointerExists[pointer]==0) {\n      pointerExists[pointer]=1;\n      pointerarray.push(pointer);\n      pointer_id++;\n    } else {\n      pointerExists[pointer]=1;\n      pointer_uid--;\n    }\n  }\n\n  function revokePointer (string memory pointer) public onlyOwner {\n    require(isPointerthere(pointer)==true,'Pointer is already unuseable');\n    pointerExists[pointer]=2;\n    pointer_uid++;\n  }\n\n  function mint_to (address newowner, string memory pointer) public {\n    require(isDataOwnerthere(newowner), 'No Account with this Hub');\n    require(isPointerthere(pointer));\n    owners[token_id]=newowner;\n    uint len;\n    OwnerShip[newowner].push(token_id);\n    len=OwnerShip[newowner].length-1;\n    NFTArrayPos[token_id]=len;\n    pointers[token_id]=pointer;\n    prices[token_id]=stdPrice;\n    sellable[token_id]=false;\n    token_id++;\n  }\n\n  function mint (string memory pointer) public onlyOwner {\n    require(isPointerthere(pointer), 'Provided Pointer does not exist with contract');\n    owners[token_id]=address(this);\n    uint len;\n    OwnerShip[address(this)].push(token_id);\n    len=OwnerShip[address(this)].length-1;\n    NFTArrayPos[token_id]=len;\n    pointers[token_id]=pointer;\n    prices[token_id]=stdPrice;\n    sellable[token_id]=true;\n    token_id++;\n  }\n\n  function setPrice (uint cost, uint token) public {\n    require(owners[token]==msg.sender, 'This Operation can only be accessed by the token owner');\n    prices[token]=cost*stdPrice;\n  }\n\n  function transferFrom(address _from, address _to, uint _tokenId) public payable {\n    require(owners[_tokenId]==_from, 'Address does not hold specific token');\n    require(prices[_tokenId]<=msg.value, 'Please provide sufficient funds');\n    payable(_from).transfer(msg.value);\n    redoOwnerShipArray (_from,_to,_tokenId);\n    owners[_tokenId]=_to;\n    emit Transfer(_from, _to, _tokenId);\n  }\n\n  function redoOwnerShipArray (address _from, address _to, uint _tokenId) internal {\n    uint pos;\n    uint arraylen;\n    pos=NFTArrayPos[_tokenId];\n    arraylen=OwnerShip[_from].length;\n    uint[] memory array=new uint[](arraylen);\n    array=OwnerShip[_from];\n    uint[] memory newarray=new uint[](arraylen-1);\n    for (uint i=0; i<pos; i++){\n      newarray[i]=array[i];\n    }\n    uint len;\n    len=array.length;\n    for (uint i=pos+1; i<len; i++){\n      newarray[i-1]=array[i];\n    }\n    uint newlen=newarray.length;\n    require(newlen<len,'Arrays are of equal distance and suggest that nothing much happend');\n    OwnerShip[_from]=newarray;\n    OwnerShip[_to].push(_tokenId);\n    pos=OwnerShip[_to].length-1;\n    NFTArrayPos[_tokenId]=pos;\n  }\n\n  function redoOwnerShipArraypub (address _from, address _to, uint _tokenId) public {\n    redoOwnerShipArray (_from,_to,_tokenId);\n  }\n\n  function buy(uint _tokenid) external payable {\n    require(owners[_tokenid]==address(this), \"You only can by from this contract\");\n    transferFrom(address(this), msg.sender, _tokenid);\n  }\n\n  function buyableTokens() external view returns(uint[] memory) {\n    uint[] memory array;\n    uint len;\n    array=OwnerShip[address(this)];\n    len=array.length;\n    uint x;\n    for (uint i=0; i<len; i++) {\n      if (sellable[array[i]]==true) {\n        x++;\n      }\n    }\n    uint[] memory newarray = new uint[](x);\n    x=0;\n    for (uint i=0; i<len; i++) {\n      if (sellable[array[i]]==true) {\n        newarray[x]=array[i];\n        x++;\n      }\n    }\n    return newarray;\n  }\n\n  function balance() external view returns (uint) {\n    uint len;\n    len=OwnerShip[msg.sender].length;\n    return len;\n  }\n\n  function myTokens(address sender) external view returns(uint[] memory) {\n    uint[] memory array;\n    array=OwnerShip[sender];\n    return array;\n  }\n\n  function useablePointers() external view returns (string[] memory) {\n    string[] memory somepointers= new string[](pointer_id-pointer_uid);\n    uint len=pointerarray.length;\n    uint x=0;\n    string memory point='';\n    for (uint i=0; i<len; i++) {\n      point=pointerarray[i];\n      if (isPointerthere(point)) {\n        somepointers[x]=point;\n        x++;\n      }\n    }\n    return somepointers;\n  }\n\n  function price(uint token) external view returns (uint) {\n    return prices[token];\n  }\n\n  function ownerOf(uint256 _tokenId) external view returns (address) {\n    return owners[_tokenId];\n  }\n\n  function pointerOf(uint256 _tokenId) external view returns (string memory) {\n    return pointers[_tokenId];\n  }\n\n  function addDataOwner(address dataowner) public onlyOwner {\n    DataOwners[dataowner]=true;\n  }\n\n  function whoisOwner() public view returns(address) {\n    return owner;\n  }\n\n  function isPointerthere (string memory pointer) public view returns (bool){\n    return pointerExists[pointer]==1;\n  }\n\n  function isDataOwnerthere (address dataowner) public view returns (bool){\n    return DataOwners[dataowner]==true;\n  }\n\n  function nextNFTid () public view returns(uint){\n    return token_id;\n  }\n\n  function returnContractName () public view returns (string memory){\n    return name_;\n  }\n\n  function returnAddress () public view returns (address){\n    return address(this);\n  }\n\n  function returnSign () public view returns (string memory){\n    return sign_;\n  }\n\n  function terminate() public onlyOwner {\n    selfdestruct(owner);\n  }\n}\n",
  "sourcePath": "/home/ka/Desktop/nft-prototyp/contracts/nexyohub.sol",
  "compiler": {
    "name": "solc",
    "version": "0.8.0+commit.c7dfd78e.Emscripten.clang"
  },
  "schemaVersion": "3.3.4",
  "updatedAt": "2021-03-30T13:07:50.981Z",
  "networkType": "ethereum",
  "devdoc": {
    "kind": "dev",
    "methods": {},
    "version": 1
  },
  "userdoc": {
    "kind": "user",
    "methods": {},
    "version": 1
  }
}