{
  "contractName": "nexyocircle",
  "abi": [
    {
      "inputs": [
        {
          "internalType": "string",
          "name": "_network",
          "type": "string"
        },
        {
          "internalType": "string",
          "name": "_sign",
          "type": "string"
        },
        {
          "internalType": "address",
          "name": "_transactcont",
          "type": "address"
        }
      ],
      "stateMutability": "nonpayable",
      "type": "constructor"
    },
    {
      "anonymous": false,
      "inputs": [
        {
          "indexed": true,
          "internalType": "address",
          "name": "_who",
          "type": "address"
        },
        {
          "indexed": true,
          "internalType": "address",
          "name": "_where",
          "type": "address"
        }
      ],
      "name": "create",
      "type": "event"
    },
    {
      "stateMutability": "payable",
      "type": "receive",
      "payable": true
    },
    {
      "inputs": [
        {
          "internalType": "address",
          "name": "_add",
          "type": "address"
        }
      ],
      "name": "amIelevatedRoll",
      "outputs": [
        {
          "internalType": "bool",
          "name": "",
          "type": "bool"
        }
      ],
      "stateMutability": "view",
      "type": "function",
      "constant": true
    },
    {
      "inputs": [
        {
          "internalType": "address",
          "name": "_add",
          "type": "address"
        }
      ],
      "name": "amIUser",
      "outputs": [
        {
          "internalType": "bool",
          "name": "",
          "type": "bool"
        }
      ],
      "stateMutability": "view",
      "type": "function",
      "constant": true
    },
    {
      "inputs": [],
      "name": "amIOwner",
      "outputs": [
        {
          "internalType": "bool",
          "name": "",
          "type": "bool"
        }
      ],
      "stateMutability": "view",
      "type": "function",
      "constant": true
    },
    {
      "inputs": [],
      "name": "whoisOwner",
      "outputs": [
        {
          "internalType": "address",
          "name": "",
          "type": "address"
        }
      ],
      "stateMutability": "view",
      "type": "function",
      "constant": true
    },
    {
      "inputs": [
        {
          "internalType": "address",
          "name": "_add",
          "type": "address"
        },
        {
          "internalType": "uint8",
          "name": "_roll",
          "type": "uint8"
        }
      ],
      "name": "addUser",
      "outputs": [],
      "stateMutability": "nonpayable",
      "type": "function"
    },
    {
      "inputs": [],
      "name": "returnallAddresses",
      "outputs": [
        {
          "internalType": "address[]",
          "name": "",
          "type": "address[]"
        }
      ],
      "stateMutability": "view",
      "type": "function",
      "constant": true
    },
    {
      "inputs": [],
      "name": "returnSign",
      "outputs": [
        {
          "internalType": "string",
          "name": "",
          "type": "string"
        }
      ],
      "stateMutability": "view",
      "type": "function",
      "constant": true
    },
    {
      "inputs": [],
      "name": "returnContractName",
      "outputs": [
        {
          "internalType": "string",
          "name": "",
          "type": "string"
        }
      ],
      "stateMutability": "view",
      "type": "function",
      "constant": true
    },
    {
      "inputs": [],
      "name": "terminate",
      "outputs": [],
      "stateMutability": "nonpayable",
      "type": "function"
    }
  ],
  "bytecode": "0x6080604052674563918244f400006005553480156200001d57600080fd5b5060405162001a9b38038062001a9b83398181016040528101906200004391906200050c565b6005543373ffffffffffffffffffffffffffffffffffffffff16311015620000a2576040517f08c379a0000000000000000000000000000000000000000000000000000000008152600401620000999062000604565b60405180910390fd5b8260029080519060200190620000ba929190620003a0565b508160039080519060200190620000d3929190620003a0565b5080600460006101000a81548173ffffffffffffffffffffffffffffffffffffffff021916908373ffffffffffffffffffffffffffffffffffffffff1602179055506200011f62000431565b33600160006101000a81548173ffffffffffffffffffffffffffffffffffffffff021916908373ffffffffffffffffffffffffffffffffffffffff16021790555033816000019073ffffffffffffffffffffffffffffffffffffffff16908173ffffffffffffffffffffffffffffffffffffffff16815250506000816020019060ff16908160ff16815250506000819080600181540180825580915050600190039060005260206000200160009091909190915060008201518160000160006101000a81548173ffffffffffffffffffffffffffffffffffffffff021916908373ffffffffffffffffffffffffffffffffffffffff16021790555060208201518160000160146101000a81548160ff021916908360ff16021790555050506000600460009054906101000a900473ffffffffffffffffffffffffffffffffffffffff1690508073ffffffffffffffffffffffffffffffffffffffff1663de10eac2306040518263ffffffff1660e01b81526004016200029f9190620005e7565b600060405180830381600087803b158015620002ba57600080fd5b505af1158015620002cf573d6000803e3d6000fd5b505050503073ffffffffffffffffffffffffffffffffffffffff166000808154811062000325577f4e487b7100000000000000000000000000000000000000000000000000000000600052603260045260246000fd5b9060005260206000200160000160009054906101000a900473ffffffffffffffffffffffffffffffffffffffff1673ffffffffffffffffffffffffffffffffffffffff167f3e68680a366966a568196cfecd42e08689bbc4738578bc61fd6fbf14dc7db18460405160405180910390a35050505050620007b6565b828054620003ae9062000708565b90600052602060002090601f016020900481019282620003d257600085556200041e565b82601f10620003ed57805160ff19168380011785556200041e565b828001600101855582156200041e579182015b828111156200041d57825182559160200191906001019062000400565b5b5090506200042d919062000464565b5090565b6040518060400160405280600073ffffffffffffffffffffffffffffffffffffffff168152602001600060ff1681525090565b5b808211156200047f57600081600090555060010162000465565b5090565b60006200049a62000494846200065a565b62000626565b905082815260208101848484011115620004b357600080fd5b620004c0848285620006d2565b509392505050565b600081519050620004d9816200079c565b92915050565b600082601f830112620004f157600080fd5b81516200050384826020860162000483565b91505092915050565b6000806000606084860312156200052257600080fd5b600084015167ffffffffffffffff8111156200053d57600080fd5b6200054b86828701620004df565b935050602084015167ffffffffffffffff8111156200056957600080fd5b6200057786828701620004df565b92505060406200058a86828701620004c8565b9150509250925092565b6200059f816200069e565b82525050565b6000620005b4601d836200068d565b91507f506c656173652070726f76696465207375666669656e742046756e64730000006000830152602082019050919050565b6000602082019050620005fe600083018462000594565b92915050565b600060208201905081810360008301526200061f81620005a5565b9050919050565b6000604051905081810181811067ffffffffffffffff8211171562000650576200064f6200076d565b5b8060405250919050565b600067ffffffffffffffff8211156200067857620006776200076d565b5b601f19601f8301169050602081019050919050565b600082825260208201905092915050565b6000620006ab82620006b2565b9050919050565b600073ffffffffffffffffffffffffffffffffffffffff82169050919050565b60005b83811015620006f2578082015181840152602081019050620006d5565b8381111562000702576000848401525b50505050565b600060028204905060018216806200072157607f821691505b602082108114156200073857620007376200073e565b5b50919050565b7f4e487b7100000000000000000000000000000000000000000000000000000000600052602260045260246000fd5b7f4e487b7100000000000000000000000000000000000000000000000000000000600052604160045260246000fd5b620007a7816200069e565b8114620007b357600080fd5b50565b6112d580620007c66000396000f3fe60806040526004361061008a5760003560e01c8063316e96f911610059578063316e96f91461019757806332d6ebb1146101d45780634e4ab830146102115780639c3eead91461023c578063fc4e3abf14610265576100fa565b80630c08bf88146100ff57806314feb3cb146101165780632eae62dc14610141578063305f16f41461016c576100fa565b366100fa57600160009054906101000a900473ffffffffffffffffffffffffffffffffffffffff1673ffffffffffffffffffffffffffffffffffffffff166108fc349081150290604051600060405180830381858888f193505050501580156100f7573d6000803e3d6000fd5b50005b600080fd5b34801561010b57600080fd5b50610114610290565b005b34801561012257600080fd5b5061012b6103ca565b6040516101389190611008565b60405180910390f35b34801561014d57600080fd5b5061015661045c565b6040516101639190610fb0565b60405180910390f35b34801561017857600080fd5b50610181610564565b60405161018e9190611008565b60405180910390f35b3480156101a357600080fd5b506101be60048036038101906101b99190610c8b565b6105f6565b6040516101cb9190610fed565b60405180910390f35b3480156101e057600080fd5b506101fb60048036038101906101f69190610c8b565b6106d5565b6040516102089190610fed565b60405180910390f35b34801561021d57600080fd5b50610226610820565b6040516102339190610fed565b60405180910390f35b34801561024857600080fd5b50610263600480360381019061025e9190610cb4565b610925565b005b34801561027157600080fd5b5061027a610aae565b6040516102879190610fcb565b60405180910390f35b610299336106d5565b6102d8576040517f08c379a00000000000000000000000000000000000000000000000000000000081526004016102cf9061106a565b60405180910390fd5b6102e0610820565b61031f576040517f08c379a00000000000000000000000000000000000000000000000000000000081526004016103169061108a565b60405180910390fd5b6000339050600460009054906101000a900473ffffffffffffffffffffffffffffffffffffffff1673ffffffffffffffffffffffffffffffffffffffff16637ea15ada306040518263ffffffff1660e01b815260040161037f9190610fb0565b600060405180830381600087803b15801561039957600080fd5b505af11580156103ad573d6000803e3d6000fd5b505050508073ffffffffffffffffffffffffffffffffffffffff16ff5b6060600280546103d990611187565b80601f016020809104026020016040519081016040528092919081815260200182805461040590611187565b80156104525780601f1061042757610100808354040283529160200191610452565b820191906000526020600020905b81548152906001019060200180831161043557829003601f168201915b5050505050905090565b60008060008081548110610499577f4e487b7100000000000000000000000000000000000000000000000000000000600052603260045260246000fd5b9060005260206000200160000160149054906101000a900460ff1660ff16146104f7576040517f08c379a00000000000000000000000000000000000000000000000000000000081526004016104ee9061102a565b60405180910390fd5b60008081548110610531577f4e487b7100000000000000000000000000000000000000000000000000000000600052603260045260246000fd5b9060005260206000200160000160009054906101000a900473ffffffffffffffffffffffffffffffffffffffff16905090565b60606003805461057390611187565b80601f016020809104026020016040519081016040528092919081815260200182805461059f90611187565b80156105ec5780601f106105c1576101008083540402835291602001916105ec565b820191906000526020600020905b8154815290600101906020018083116105cf57829003601f168201915b5050505050905090565b60008060008054905090506000808211156106cb5760005b828110156106c9578473ffffffffffffffffffffffffffffffffffffffff1660008281548110610667577f4e487b7100000000000000000000000000000000000000000000000000000000600052603260045260246000fd5b9060005260206000200160000160009054906101000a900473ffffffffffffffffffffffffffffffffffffffff1673ffffffffffffffffffffffffffffffffffffffff1614156106b657600191505b80806106c1906111b9565b91505061060e565b505b8092505050919050565b60008060008054905090506000808211156108155760005b82811015610813578473ffffffffffffffffffffffffffffffffffffffff1660008281548110610746577f4e487b7100000000000000000000000000000000000000000000000000000000600052603260045260246000fd5b9060005260206000200160000160009054906101000a900473ffffffffffffffffffffffffffffffffffffffff1673ffffffffffffffffffffffffffffffffffffffff161415610800576002600082815481106107cc577f4e487b7100000000000000000000000000000000000000000000000000000000600052603260045260246000fd5b9060005260206000200160000160149054906101000a900460ff1660ff1610156107ff576001915081935050505061081b565b5b808061080b906111b9565b9150506106ed565b505b80925050505b919050565b6000803373ffffffffffffffffffffffffffffffffffffffff1660008081548110610874577f4e487b7100000000000000000000000000000000000000000000000000000000600052603260045260246000fd5b9060005260206000200160000160009054906101000a900473ffffffffffffffffffffffffffffffffffffffff1673ffffffffffffffffffffffffffffffffffffffff1614801561091c57506000806000815481106108fc577f4e487b7100000000000000000000000000000000000000000000000000000000600052603260045260246000fd5b9060005260206000200160000160149054906101000a900460ff1660ff16145b90508091505090565b61092e336106d5565b61096d576040517f08c379a00000000000000000000000000000000000000000000000000000000081526004016109649061106a565b60405180910390fd5b60008160ff161180156109865750610984826105f6565b155b6109c5576040517f08c379a00000000000000000000000000000000000000000000000000000000081526004016109bc9061104a565b60405180910390fd5b6109cd610c2e565b82816000019073ffffffffffffffffffffffffffffffffffffffff16908173ffffffffffffffffffffffffffffffffffffffff168152505081816020019060ff16908160ff16815250506000819080600181540180825580915050600190039060005260206000200160009091909190915060008201518160000160006101000a81548173ffffffffffffffffffffffffffffffffffffffff021916908373ffffffffffffffffffffffffffffffffffffffff16021790555060208201518160000160146101000a81548160ff021916908360ff1602179055505050505050565b606060008080549050905060008167ffffffffffffffff811115610afb577f4e487b7100000000000000000000000000000000000000000000000000000000600052604160045260246000fd5b604051908082528060200260200182016040528015610b295781602001602082028036833780820191505090505b50905060005b82811015610c255760008181548110610b71577f4e487b7100000000000000000000000000000000000000000000000000000000600052603260045260246000fd5b9060005260206000200160000160009054906101000a900473ffffffffffffffffffffffffffffffffffffffff16828281518110610bd8577f4e487b7100000000000000000000000000000000000000000000000000000000600052603260045260246000fd5b602002602001019073ffffffffffffffffffffffffffffffffffffffff16908173ffffffffffffffffffffffffffffffffffffffff16815250508080610c1d906111b9565b915050610b2f565b50809250505090565b6040518060400160405280600073ffffffffffffffffffffffffffffffffffffffff168152602001600060ff1681525090565b600081359050610c7081611271565b92915050565b600081359050610c8581611288565b92915050565b600060208284031215610c9d57600080fd5b6000610cab84828501610c61565b91505092915050565b60008060408385031215610cc757600080fd5b6000610cd585828601610c61565b9250506020610ce685828601610c76565b9150509250929050565b6000610cfc8383610d08565b60208301905092915050565b610d11816110ff565b82525050565b610d20816110ff565b82525050565b6000610d31826110ba565b610d3b81856110dd565b9350610d46836110aa565b8060005b83811015610d77578151610d5e8882610cf0565b9750610d69836110d0565b925050600181019050610d4a565b5085935050505092915050565b610d8d81611111565b82525050565b6000610d9e826110c5565b610da881856110ee565b9350610db8818560208601611154565b610dc181611260565b840191505092915050565b6000610dd96057836110ee565b91507f546865726520686173206265656e20736f6d652050726f626c656d2e2049662060008301527f796f752061726520696e20616e20656c65766174656420526f6c6c20706c656160208301527f73652064656c657465207468697320436f6e74726163740000000000000000006040830152606082019050919050565b6000610e65604c836110ee565b91507f596f752063616e206e6f74206164642061207365636f6e6420436f6e7472616360008301527f74204f776e6572206f72206164642074686520616464726573736573206d6f7260208301527f65207468616e206f6e63652e00000000000000000000000000000000000000006040830152606082019050919050565b6000610ef16035836110ee565b91507f54686973204f7065726174696f6e2063616e206f6e6c7920626520616363657360008301527f73656420627920656c65766174656420526f6c6c7300000000000000000000006020830152604082019050919050565b6000610f576040836110ee565b91507f4f6e636520736f6d6520647564652064696420746861742e204865206973206e60008301527f6f7720696e20707269736f6e20666f7220686973206f776e20736166657479216020830152604082019050919050565b6000602082019050610fc56000830184610d17565b92915050565b60006020820190508181036000830152610fe58184610d26565b905092915050565b60006020820190506110026000830184610d84565b92915050565b600060208201905081810360008301526110228184610d93565b905092915050565b6000602082019050818103600083015261104381610dcc565b9050919050565b6000602082019050818103600083015261106381610e58565b9050919050565b6000602082019050818103600083015261108381610ee4565b9050919050565b600060208201905081810360008301526110a381610f4a565b9050919050565b6000819050602082019050919050565b600081519050919050565b600081519050919050565b6000602082019050919050565b600082825260208201905092915050565b600082825260208201905092915050565b600061110a8261111d565b9050919050565b60008115159050919050565b600073ffffffffffffffffffffffffffffffffffffffff82169050919050565b6000819050919050565b600060ff82169050919050565b60005b83811015611172578082015181840152602081019050611157565b83811115611181576000848401525b50505050565b6000600282049050600182168061119f57607f821691505b602082108114156111b3576111b2611231565b5b50919050565b60006111c48261113d565b91507fffffffffffffffffffffffffffffffffffffffffffffffffffffffffffffffff8214156111f7576111f6611202565b5b600182019050919050565b7f4e487b7100000000000000000000000000000000000000000000000000000000600052601160045260246000fd5b7f4e487b7100000000000000000000000000000000000000000000000000000000600052602260045260246000fd5b6000601f19601f8301169050919050565b61127a816110ff565b811461128557600080fd5b50565b61129181611147565b811461129c57600080fd5b5056fea2646970667358221220b56fffef54075ccedbb01457aed64e798c4f33172dab4d45dbc5aa0d5095197864736f6c63430008000033",
  "immutableReferences": {},
  "source": "// SPDX-License-Identifier: UNLICENSED\npragma solidity ^0.8.0;\n\nimport \"./boysintheband.sol\";\n\ncontract nexyocircle {\n  struct owners { //this is confuing\n    address add;\n    uint8 roll;\n  }\n  owners[] useraddresses;\n  address payable owner;\n  string network_;\n  string sign_;\n  address parentaddress;\n  uint _minstake=5000000000000000000;\n\n  constructor(string memory _network, string memory _sign, address _transactcont) {\n    require(msg.sender.balance >= _minstake, 'Please provide suffient Funds');\n    network_=_network;\n    sign_=_sign;\n    parentaddress=_transactcont;\n    owners memory firstUser;\n    owner=payable(msg.sender);\n    firstUser.add=msg.sender;\n    firstUser.roll=0;\n    useraddresses.push(firstUser);\n    nexyotransact bitb=nexyotransact(parentaddress);\n    bitb.addcircle(address(this));\n    emit create(useraddresses[0].add, address(this));\n  }\n\n  modifier onlyelevatedrolls {\n    require(amIelevatedRoll(msg.sender), 'This Operation can only be accessed by elevated Rolls');\n    _;\n  }\n\n  event create(address indexed _who, address indexed _where);\n\n  receive () external payable {\n      owner.transfer(msg.value);\n  }\n\n  function amIelevatedRoll (address _add) public view returns(bool) {\n    uint len=useraddresses.length;\n    bool backto=false;\n    if (len>0) {\n      for(uint x=0;x<len;x++) {\n        if (useraddresses[x].add==_add) {\n          if (useraddresses[x].roll<2) {\n            backto=true;\n            return backto;\n          }\n        }\n      }\n    }\n    return backto;\n  }\n\n  function amIUser (address _add) public view returns(bool) {\n    uint len=useraddresses.length;\n    bool backto=false;\n    if (len>0) {\n      for(uint x=0;x<len;x++) {\n        if (useraddresses[x].add==_add) {\n          backto=true;\n        }\n      }\n    }\n    return backto;\n  }\n\n  function amIOwner () public view returns(bool) {\n    bool backto;\n    backto=useraddresses[0].add==msg.sender && useraddresses[0].roll==0;\n    return backto;\n  }\n\n  function whoisOwner () public view returns(address) {\n    require( useraddresses[0].roll==0, 'There has been some Problem. If you are in an elevated Roll please delete this Contract');\n    return useraddresses[0].add;\n  }\n\n  function addUser (address _add, uint8 _roll) external onlyelevatedrolls {\n    require(_roll>0 && !amIUser(_add),'You can not add a second Contract Owner or add the addresses more than once.');\n    owners memory newUser;\n    newUser.add=payable(_add);\n    newUser.roll=_roll;\n    useraddresses.push(newUser);\n  }\n\n  function returnallAddresses () external view returns(address[] memory) {\n    uint len=useraddresses.length;\n    address[] memory backtoarr = new address[](len);\n    for(uint x=0;x<len;x++) {\n      backtoarr[x]=useraddresses[x].add;\n    }\n    return backtoarr;\n  }\n\n  function returnSign () public view returns (string memory){\n    return sign_;\n  }\n\n  function returnContractName () public view returns (string memory){\n    return network_;\n  }\n\n  function terminate () external onlyelevatedrolls {\n    require(amIOwner(), 'Once some dude did that. He is now in prison for his own safety!');\n    address payable rightfull=payable(msg.sender);\n    nexyotransact(parentaddress).deletecircle(address(this));\n    selfdestruct(rightfull);\n  }\n}\n",
  "sourcePath": "/home/ka/Desktop/nft-prototyp/contracts/nexyocircle.sol",
  "compiler": {
    "name": "solc",
    "version": "0.8.0+commit.c7dfd78e.Emscripten.clang"
  },
  "schemaVersion": "3.3.4",
  "updatedAt": "2021-05-31T11:35:51.415Z",
  "networkType": "ethereum",
  "devdoc": {
    "kind": "dev",
    "methods": {},
    "version": 1
  },
  "userdoc": {
    "kind": "user",
    "methods": {},
    "version": 1
  }
}