{
  "contractName": "nexyotransact",
  "abi": [
    {
      "inputs": [
        {
          "internalType": "address",
          "name": "_add",
          "type": "address"
        }
      ],
      "name": "addhub",
      "outputs": [],
      "stateMutability": "nonpayable",
      "type": "function"
    },
    {
      "inputs": [
        {
          "internalType": "address",
          "name": "_add",
          "type": "address"
        }
      ],
      "name": "addcircle",
      "outputs": [],
      "stateMutability": "nonpayable",
      "type": "function"
    },
    {
      "inputs": [],
      "name": "listcontracts",
      "outputs": [
        {
          "components": [
            {
              "internalType": "address",
              "name": "_add",
              "type": "address"
            },
            {
              "internalType": "address",
              "name": "_oadd",
              "type": "address"
            },
            {
              "internalType": "string",
              "name": "_net",
              "type": "string"
            },
            {
              "internalType": "string",
              "name": "_sign",
              "type": "string"
            }
          ],
          "internalType": "struct nexyotransact.retarr[]",
          "name": "",
          "type": "tuple[]"
        }
      ],
      "stateMutability": "view",
      "type": "function",
      "constant": true
    },
    {
      "inputs": [],
      "name": "returnNumberofHubswithinNetwork",
      "outputs": [
        {
          "internalType": "uint256",
          "name": "",
          "type": "uint256"
        }
      ],
      "stateMutability": "view",
      "type": "function",
      "constant": true
    },
    {
      "inputs": [],
      "name": "mytokens",
      "outputs": [
        {
          "internalType": "uint256",
          "name": "",
          "type": "uint256"
        }
      ],
      "stateMutability": "view",
      "type": "function",
      "constant": true
    },
    {
      "inputs": [],
      "name": "myhubs",
      "outputs": [
        {
          "internalType": "string[]",
          "name": "",
          "type": "string[]"
        }
      ],
      "stateMutability": "view",
      "type": "function",
      "constant": true
    },
    {
      "inputs": [],
      "name": "mycircles",
      "outputs": [
        {
          "internalType": "string[]",
          "name": "",
          "type": "string[]"
        }
      ],
      "stateMutability": "view",
      "type": "function",
      "constant": true
    },
    {
      "inputs": [
        {
          "internalType": "address payable",
          "name": "_add",
          "type": "address"
        },
        {
          "internalType": "address",
          "name": "_sender",
          "type": "address"
        }
      ],
      "name": "amIUserCircle",
      "outputs": [
        {
          "internalType": "bool",
          "name": "",
          "type": "bool"
        }
      ],
      "stateMutability": "view",
      "type": "function",
      "constant": true
    },
    {
      "inputs": [
        {
          "internalType": "address payable",
          "name": "_add",
          "type": "address"
        },
        {
          "internalType": "address",
          "name": "_sender",
          "type": "address"
        }
      ],
      "name": "myTokensHub",
      "outputs": [
        {
          "internalType": "uint256[]",
          "name": "",
          "type": "uint256[]"
        }
      ],
      "stateMutability": "view",
      "type": "function",
      "constant": true
    },
    {
      "inputs": [
        {
          "internalType": "address payable",
          "name": "_add",
          "type": "address"
        },
        {
          "internalType": "address",
          "name": "_sender",
          "type": "address"
        }
      ],
      "name": "isDataOwnerthereHub",
      "outputs": [
        {
          "internalType": "bool",
          "name": "",
          "type": "bool"
        }
      ],
      "stateMutability": "view",
      "type": "function",
      "constant": true
    },
    {
      "inputs": [
        {
          "internalType": "address payable",
          "name": "_add",
          "type": "address"
        }
      ],
      "name": "whoisOwnerHub",
      "outputs": [
        {
          "internalType": "address",
          "name": "",
          "type": "address"
        }
      ],
      "stateMutability": "view",
      "type": "function",
      "constant": true
    },
    {
      "inputs": [
        {
          "internalType": "address payable",
          "name": "_add",
          "type": "address"
        }
      ],
      "name": "returncontract",
      "outputs": [
        {
          "internalType": "address payable",
          "name": "",
          "type": "address"
        }
      ],
      "stateMutability": "view",
      "type": "function",
      "constant": true
    },
    {
      "inputs": [],
      "name": "returncontractaddresses",
      "outputs": [
        {
          "internalType": "address[]",
          "name": "",
          "type": "address[]"
        }
      ],
      "stateMutability": "view",
      "type": "function",
      "constant": true
    },
    {
      "inputs": [
        {
          "internalType": "address",
          "name": "_add",
          "type": "address"
        }
      ],
      "name": "deletecircle",
      "outputs": [],
      "stateMutability": "nonpayable",
      "type": "function"
    },
    {
      "inputs": [],
      "name": "returnaddress",
      "outputs": [
        {
          "internalType": "address",
          "name": "",
          "type": "address"
        }
      ],
      "stateMutability": "view",
      "type": "function",
      "constant": true
    }
  ],
  "bytecode": "0x608060405234801561001057600080fd5b50612c20806100206000396000f3fe608060405234801561001057600080fd5b50600436106100f55760003560e01c80639165c39611610097578063c29a7e0711610066578063c29a7e0714610288578063cd1ba798146102b8578063d32050c5146102d6578063de10eac2146102f4576100f5565b80639165c396146101ee578063b31d79101461020a578063b8e223731461023a578063bfa22d2b1461026a576100f5565b80635a4bd6d9116100d35780635a4bd6d914610178578063668959c1146101965780636aa5c461146101b45780637ea15ada146101d2576100f5565b806319e05a68146100fa5780631b87f24e1461012a5780632f75abcd1461015a575b600080fd5b610114600480360381019061010f91906121dc565b610310565b60405161012191906126e8565b60405180910390f35b610144600480360381019061013f9190612205565b610334565b6040516101519190612769565b60405180910390f35b6101626103cc565b60405161016f9190612806565b60405180910390f35b6101806104c4565b60405161018d91906126cd565b60405180910390f35b61019e6104cc565b6040516101ab9190612747565b60405180910390f35b6101bc610ce4565b6040516101c99190612703565b60405180910390f35b6101ec60048036038101906101e7919061218a565b610f6e565b005b6102086004803603810190610203919061218a565b611209565b005b610224600480360381019061021f9190612205565b6112b8565b604051610231919061278b565b60405180910390f35b610254600480360381019061024f9190612205565b61134b565b604051610261919061278b565b60405180910390f35b6102726113de565b60405161027f9190612725565b60405180910390f35b6102a2600480360381019061029d91906121dc565b6118a7565b6040516102af91906126cd565b60405180910390f35b6102c061192e565b6040516102cd9190612806565b60405180910390f35b6102de61193a565b6040516102eb9190612725565b60405180910390f35b61030e6004803603810190610309919061218a565b611cd9565b005b60008061031c83611d88565b1561032a578291505061032f565b809150505b919050565b60608273ffffffffffffffffffffffffffffffffffffffff1663dc1df3f6836040518263ffffffff1660e01b815260040161036f91906126cd565b60006040518083038186803b15801561038757600080fd5b505afa15801561039b573d6000803e3d6000fd5b505050506040513d6000823e3d601f19601f820116820180604052508101906103c49190612241565b905092915050565b6000806000805490509050600080821161041b576040517f08c379a0000000000000000000000000000000000000000000000000000000008152600401610412906127c6565b60405180910390fd5b60005b828110156104bb57606061049660008381548110610465577f4e487b7100000000000000000000000000000000000000000000000000000000600052603260045260246000fd5b9060005260206000200160009054906101000a900473ffffffffffffffffffffffffffffffffffffffff1633610334565b90508051836104a591906129bf565b92505080806104b390612ad6565b91505061041e565b50809250505090565b600030905090565b606060008080549050905060006001805490509050600081836104ef91906129bf565b905060008111610534576040517f08c379a000000000000000000000000000000000000000000000000000000000815260040161052b906127c6565b60405180910390fd5b60008167ffffffffffffffff811115610576577f4e487b7100000000000000000000000000000000000000000000000000000000600052604160045260246000fd5b6040519080825280602002602001820160405280156105af57816020015b61059c611f28565b8152602001906001900390816105945790505b50905060005b82811015610cd957848110156108f75760405180608001604052806000838154811061060a577f4e487b7100000000000000000000000000000000000000000000000000000000600052603260045260246000fd5b9060005260206000200160009054906101000a900473ffffffffffffffffffffffffffffffffffffffff1673ffffffffffffffffffffffffffffffffffffffff1681526020016106bd6000848154811061068d577f4e487b7100000000000000000000000000000000000000000000000000000000600052603260045260246000fd5b9060005260206000200160009054906101000a900473ffffffffffffffffffffffffffffffffffffffff166118a7565b73ffffffffffffffffffffffffffffffffffffffff16815260200160008381548110610712577f4e487b7100000000000000000000000000000000000000000000000000000000600052603260045260246000fd5b9060005260206000200160009054906101000a900473ffffffffffffffffffffffffffffffffffffffff1673ffffffffffffffffffffffffffffffffffffffff166314feb3cb6040518163ffffffff1660e01b815260040160006040518083038186803b15801561078257600080fd5b505afa158015610796573d6000803e3d6000fd5b505050506040513d6000823e3d601f19601f820116820180604052508101906107bf91906122ab565b8152602001600083815481106107fe577f4e487b7100000000000000000000000000000000000000000000000000000000600052603260045260246000fd5b9060005260206000200160009054906101000a900473ffffffffffffffffffffffffffffffffffffffff1673ffffffffffffffffffffffffffffffffffffffff1663305f16f46040518163ffffffff1660e01b815260040160006040518083038186803b15801561086e57600080fd5b505afa158015610882573d6000803e3d6000fd5b505050506040513d6000823e3d601f19601f820116820180604052508101906108ab91906122ab565b8152508282815181106108e7577f4e487b7100000000000000000000000000000000000000000000000000000000600052603260045260246000fd5b6020026020010181905250610cc6565b6040518060800160405280600187846109109190612a15565b81548110610947577f4e487b7100000000000000000000000000000000000000000000000000000000600052603260045260246000fd5b9060005260206000200160009054906101000a900473ffffffffffffffffffffffffffffffffffffffff1673ffffffffffffffffffffffffffffffffffffffff1681526020016001878461099b9190612a15565b815481106109d2577f4e487b7100000000000000000000000000000000000000000000000000000000600052603260045260246000fd5b9060005260206000200160009054906101000a900473ffffffffffffffffffffffffffffffffffffffff1673ffffffffffffffffffffffffffffffffffffffff16632eae62dc6040518163ffffffff1660e01b815260040160206040518083038186803b158015610a4257600080fd5b505afa158015610a56573d6000803e3d6000fd5b505050506040513d601f19601f82011682018060405250810190610a7a91906121b3565b73ffffffffffffffffffffffffffffffffffffffff16815260200160018784610aa39190612a15565b81548110610ada577f4e487b7100000000000000000000000000000000000000000000000000000000600052603260045260246000fd5b9060005260206000200160009054906101000a900473ffffffffffffffffffffffffffffffffffffffff1673ffffffffffffffffffffffffffffffffffffffff166314feb3cb6040518163ffffffff1660e01b815260040160006040518083038186803b158015610b4a57600080fd5b505afa158015610b5e573d6000803e3d6000fd5b505050506040513d6000823e3d601f19601f82011682018060405250810190610b8791906122ab565b815260200160018784610b9a9190612a15565b81548110610bd1577f4e487b7100000000000000000000000000000000000000000000000000000000600052603260045260246000fd5b9060005260206000200160009054906101000a900473ffffffffffffffffffffffffffffffffffffffff1673ffffffffffffffffffffffffffffffffffffffff1663305f16f46040518163ffffffff1660e01b815260040160006040518083038186803b158015610c4157600080fd5b505afa158015610c55573d6000803e3d6000fd5b505050506040513d6000823e3d601f19601f82011682018060405250810190610c7e91906122ab565b815250828281518110610cba577f4e487b7100000000000000000000000000000000000000000000000000000000600052603260045260246000fd5b60200260200101819052505b8080610cd190612ad6565b9150506105b5565b508094505050505090565b60606000808054905090506000600180549050905060008183610d0791906129bf565b905060008167ffffffffffffffff811115610d4b577f4e487b7100000000000000000000000000000000000000000000000000000000600052604160045260246000fd5b604051908082528060200260200182016040528015610d795781602001602082028036833780820191505090505b50905060005b82811015610f635784811015610e6c5760008181548110610dc9577f4e487b7100000000000000000000000000000000000000000000000000000000600052603260045260246000fd5b9060005260206000200160009054906101000a900473ffffffffffffffffffffffffffffffffffffffff16828281518110610e2d577f4e487b7100000000000000000000000000000000000000000000000000000000600052603260045260246000fd5b602002602001019073ffffffffffffffffffffffffffffffffffffffff16908173ffffffffffffffffffffffffffffffffffffffff1681525050610f50565b60018582610e7a9190612a15565b81548110610eb1577f4e487b7100000000000000000000000000000000000000000000000000000000600052603260045260246000fd5b9060005260206000200160009054906101000a900473ffffffffffffffffffffffffffffffffffffffff16828281518110610f15577f4e487b7100000000000000000000000000000000000000000000000000000000600052603260045260246000fd5b602002602001019073ffffffffffffffffffffffffffffffffffffffff16908173ffffffffffffffffffffffffffffffffffffffff16815250505b8080610f5b90612ad6565b915050610d7f565b508094505050505090565b610f7733611d88565b610fb6576040517f08c379a0000000000000000000000000000000000000000000000000000000008152600401610fad906127e6565b60405180910390fd5b600060018080549050610fc99190612a15565b67ffffffffffffffff811115611008577f4e487b7100000000000000000000000000000000000000000000000000000000600052604160045260246000fd5b6040519080825280602002602001820160405280156110365781602001602082028036833780820191505090505b5090506000805b6001805490508110156111ec578373ffffffffffffffffffffffffffffffffffffffff166001828154811061109b577f4e487b7100000000000000000000000000000000000000000000000000000000600052603260045260246000fd5b9060005260206000200160009054906101000a900473ffffffffffffffffffffffffffffffffffffffff1673ffffffffffffffffffffffffffffffffffffffff1614156110f55781806110ed90612ad6565b9250506111d9565b6001818154811061112f577f4e487b7100000000000000000000000000000000000000000000000000000000600052603260045260246000fd5b9060005260206000200160009054906101000a900473ffffffffffffffffffffffffffffffffffffffff168383836111679190612a15565b8151811061119e577f4e487b7100000000000000000000000000000000000000000000000000000000600052603260045260246000fd5b602002602001019073ffffffffffffffffffffffffffffffffffffffff16908173ffffffffffffffffffffffffffffffffffffffff16815250505b80806111e490612ad6565b91505061103d565b508160019080519060200190611203929190611f7c565b50505050565b61121281611d88565b15611252576040517f08c379a0000000000000000000000000000000000000000000000000000000008152600401611249906127a6565b60405180910390fd5b6000819080600181540180825580915050600190039060005260206000200160009091909190916101000a81548173ffffffffffffffffffffffffffffffffffffffff021916908373ffffffffffffffffffffffffffffffffffffffff16021790555050565b60008273ffffffffffffffffffffffffffffffffffffffff1663b3142005836040518263ffffffff1660e01b81526004016112f391906126cd565b60206040518083038186803b15801561130b57600080fd5b505afa15801561131f573d6000803e3d6000fd5b505050506040513d601f19601f820116820180604052508101906113439190612282565b905092915050565b60008273ffffffffffffffffffffffffffffffffffffffff1663316e96f9836040518263ffffffff1660e01b815260040161138691906126cd565b60206040518083038186803b15801561139e57600080fd5b505afa1580156113b2573d6000803e3d6000fd5b505050506040513d601f19601f820116820180604052508101906113d69190612282565b905092915050565b60606000808054905090506000808167ffffffffffffffff81111561142c577f4e487b7100000000000000000000000000000000000000000000000000000000600052604160045260246000fd5b60405190808252806020026020018201604052801561145f57816020015b606081526020019060019003908161144a5790505b509050600083111561189e57600080600080600090505b86811015611899576114ec600082815481106114bb577f4e487b7100000000000000000000000000000000000000000000000000000000600052603260045260246000fd5b9060005260206000200160009054906101000a900473ffffffffffffffffffffffffffffffffffffffff1633610334565b51935061155d6000828154811061152c577f4e487b7100000000000000000000000000000000000000000000000000000000600052603260045260246000fd5b9060005260206000200160009054906101000a900473ffffffffffffffffffffffffffffffffffffffff16336112b8565b92506115cc6000828154811061159c577f4e487b7100000000000000000000000000000000000000000000000000000000600052603260045260246000fd5b9060005260206000200160009054906101000a900473ffffffffffffffffffffffffffffffffffffffff166118a7565b915060008411806115da5750825b8061161057508173ffffffffffffffffffffffffffffffffffffffff163373ffffffffffffffffffffffffffffffffffffffff16145b1561188657858061162090612ad6565b96505060008667ffffffffffffffff811115611665577f4e487b7100000000000000000000000000000000000000000000000000000000600052604160045260246000fd5b60405190808252806020026020018201604052801561169857816020015b60608152602001906001900390816116835790505b509050600187111561174a5760005b8651811015611748578681815181106116e9577f4e487b7100000000000000000000000000000000000000000000000000000000600052603260045260246000fd5b602002602001015182828151811061172a577f4e487b7100000000000000000000000000000000000000000000000000000000600052603260045260246000fd5b6020026020010181905250808061174090612ad6565b9150506116a7565b505b80955060008281548110611787577f4e487b7100000000000000000000000000000000000000000000000000000000600052603260045260246000fd5b9060005260206000200160009054906101000a900473ffffffffffffffffffffffffffffffffffffffff1673ffffffffffffffffffffffffffffffffffffffff1663305f16f46040518163ffffffff1660e01b815260040160006040518083038186803b1580156117f757600080fd5b505afa15801561180b573d6000803e3d6000fd5b505050506040513d6000823e3d601f19601f8201168201806040525081019061183491906122ab565b866001896118429190612a15565b81518110611879577f4e487b7100000000000000000000000000000000000000000000000000000000600052603260045260246000fd5b6020026020010181905250505b808061189190612ad6565b915050611476565b505050505b80935050505090565b60008173ffffffffffffffffffffffffffffffffffffffff16632eae62dc6040518163ffffffff1660e01b815260040160206040518083038186803b1580156118ef57600080fd5b505afa158015611903573d6000803e3d6000fd5b505050506040513d601f19601f8201168201806040525081019061192791906121b3565b9050919050565b60008080549050905090565b6060600060018054905090506000808267ffffffffffffffff811115611989577f4e487b7100000000000000000000000000000000000000000000000000000000600052604160045260246000fd5b6040519080825280602002602001820160405280156119b75781602001602082028036833780820191505090505b509050600080841115611ab55760005b84811015611ab357611a3d60018281548110611a0c577f4e487b7100000000000000000000000000000000000000000000000000000000600052603260045260246000fd5b9060005260206000200160009054906101000a900473ffffffffffffffffffffffffffffffffffffffff163361134b565b935083838281518110611a79577f4e487b7100000000000000000000000000000000000000000000000000000000600052603260045260246000fd5b6020026020010190151590811515815250508315611aa0578180611a9c90612ad6565b9250505b8080611aab90612ad6565b9150506119c7565b505b60008167ffffffffffffffff811115611af7577f4e487b7100000000000000000000000000000000000000000000000000000000600052604160045260246000fd5b604051908082528060200260200182016040528015611b2a57816020015b6060815260200190600190039081611b155790505b5090506000805b86811015611ccc57848181518110611b72577f4e487b7100000000000000000000000000000000000000000000000000000000600052603260045260246000fd5b602002602001015115611cb95760018181548110611bb9577f4e487b7100000000000000000000000000000000000000000000000000000000600052603260045260246000fd5b9060005260206000200160009054906101000a900473ffffffffffffffffffffffffffffffffffffffff1673ffffffffffffffffffffffffffffffffffffffff1663305f16f46040518163ffffffff1660e01b815260040160006040518083038186803b158015611c2957600080fd5b505afa158015611c3d573d6000803e3d6000fd5b505050506040513d6000823e3d601f19601f82011682018060405250810190611c6691906122ab565b838381518110611c9f577f4e487b7100000000000000000000000000000000000000000000000000000000600052603260045260246000fd5b60200260200101819052508180611cb590612ad6565b9250505b8080611cc490612ad6565b915050611b31565b5081965050505050505090565b611ce281611d88565b15611d22576040517f08c379a0000000000000000000000000000000000000000000000000000000008152600401611d19906127a6565b60405180910390fd5b6001819080600181540180825580915050600190039060005260206000200160009091909190916101000a81548173ffffffffffffffffffffffffffffffffffffffff021916908373ffffffffffffffffffffffffffffffffffffffff16021790555050565b6000806000905060008080549050905060005b81811015611e53578473ffffffffffffffffffffffffffffffffffffffff1660008281548110611df4577f4e487b7100000000000000000000000000000000000000000000000000000000600052603260045260246000fd5b9060005260206000200160009054906101000a900473ffffffffffffffffffffffffffffffffffffffff1673ffffffffffffffffffffffffffffffffffffffff161415611e4057600192505b8080611e4b90612ad6565b915050611d9b565b5081611f1e57600180549050905060005b81811015611f1c578473ffffffffffffffffffffffffffffffffffffffff1660018281548110611ebd577f4e487b7100000000000000000000000000000000000000000000000000000000600052603260045260246000fd5b9060005260206000200160009054906101000a900473ffffffffffffffffffffffffffffffffffffffff1673ffffffffffffffffffffffffffffffffffffffff161415611f0957600192505b8080611f1490612ad6565b915050611e64565b505b8192505050919050565b6040518060800160405280600073ffffffffffffffffffffffffffffffffffffffff168152602001600073ffffffffffffffffffffffffffffffffffffffff16815260200160608152602001606081525090565b828054828255906000526020600020908101928215611ff5579160200282015b82811115611ff45782518260006101000a81548173ffffffffffffffffffffffffffffffffffffffff021916908373ffffffffffffffffffffffffffffffffffffffff16021790555091602001919060010190611f9c565b5b5090506120029190612006565b5090565b5b8082111561201f576000816000905550600101612007565b5090565b600061203661203184612852565b612821565b9050808382526020820190508285602086028201111561205557600080fd5b60005b85811015612085578161206b8882612175565b845260208401935060208301925050600181019050612058565b5050509392505050565b60006120a261209d8461287e565b612821565b9050828152602081018484840111156120ba57600080fd5b6120c5848285612aa3565b509392505050565b6000813590506120dc81612b8e565b92915050565b6000815190506120f181612b8e565b92915050565b60008135905061210681612ba5565b92915050565b600082601f83011261211d57600080fd5b815161212d848260208601612023565b91505092915050565b60008151905061214581612bbc565b92915050565b600082601f83011261215c57600080fd5b815161216c84826020860161208f565b91505092915050565b60008151905061218481612bd3565b92915050565b60006020828403121561219c57600080fd5b60006121aa848285016120cd565b91505092915050565b6000602082840312156121c557600080fd5b60006121d3848285016120e2565b91505092915050565b6000602082840312156121ee57600080fd5b60006121fc848285016120f7565b91505092915050565b6000806040838503121561221857600080fd5b6000612226858286016120f7565b9250506020612237858286016120cd565b9150509250929050565b60006020828403121561225357600080fd5b600082015167ffffffffffffffff81111561226d57600080fd5b6122798482850161210c565b91505092915050565b60006020828403121561229457600080fd5b60006122a284828501612136565b91505092915050565b6000602082840312156122bd57600080fd5b600082015167ffffffffffffffff8111156122d757600080fd5b6122e38482850161214b565b91505092915050565b60006122f88383612353565b60208301905092915050565b60006123108383612526565b905092915050565b60006123248383612645565b905092915050565b600061233883836126af565b60208301905092915050565b61234d81612a5b565b82525050565b61235c81612a49565b82525050565b61236b81612a49565b82525050565b600061237c826128ee565b6123868185612959565b9350612391836128ae565b8060005b838110156123c25781516123a988826122ec565b97506123b483612925565b925050600181019050612395565b5085935050505092915050565b60006123da826128f9565b6123e4818561296a565b9350836020820285016123f6856128be565b8060005b8581101561243257848403895281516124138582612304565b945061241e83612932565b925060208a019950506001810190506123fa565b50829750879550505050505092915050565b600061244f82612904565b612459818561297b565b93508360208202850161246b856128ce565b8060005b858110156124a757848403895281516124888582612318565b94506124938361293f565b925060208a0199505060018101905061246f565b50829750879550505050505092915050565b60006124c48261290f565b6124ce818561298c565b93506124d9836128de565b8060005b8381101561250a5781516124f1888261232c565b97506124fc8361294c565b9250506001810190506124dd565b5085935050505092915050565b61252081612a6d565b82525050565b60006125318261291a565b61253b818561299d565b935061254b818560208601612aa3565b61255481612b7d565b840191505092915050565b600061256c6016836129ae565b91507f4164647265737320616c726561647920696e20757365000000000000000000006000830152602082019050919050565b60006125ac6016836129ae565b91507f546865726520617265206e6f20636f6e747261637473000000000000000000006000830152602082019050919050565b60006125ec6030836129ae565b91507f4f6e6c79207265676973746572656420436f6e7472616374732063616e20636160008301527f6c6c20746869732046756e6374696f6e000000000000000000000000000000006020830152604082019050919050565b600060808301600083015161265d6000860182612353565b5060208301516126706020860182612353565b50604083015184820360408601526126888282612526565b915050606083015184820360608601526126a28282612526565b9150508091505092915050565b6126b881612a99565b82525050565b6126c781612a99565b82525050565b60006020820190506126e26000830184612362565b92915050565b60006020820190506126fd6000830184612344565b92915050565b6000602082019050818103600083015261271d8184612371565b905092915050565b6000602082019050818103600083015261273f81846123cf565b905092915050565b600060208201905081810360008301526127618184612444565b905092915050565b6000602082019050818103600083015261278381846124b9565b905092915050565b60006020820190506127a06000830184612517565b92915050565b600060208201905081810360008301526127bf8161255f565b9050919050565b600060208201905081810360008301526127df8161259f565b9050919050565b600060208201905081810360008301526127ff816125df565b9050919050565b600060208201905061281b60008301846126be565b92915050565b6000604051905081810181811067ffffffffffffffff8211171561284857612847612b4e565b5b8060405250919050565b600067ffffffffffffffff82111561286d5761286c612b4e565b5b602082029050602081019050919050565b600067ffffffffffffffff82111561289957612898612b4e565b5b601f19601f8301169050602081019050919050565b6000819050602082019050919050565b6000819050602082019050919050565b6000819050602082019050919050565b6000819050602082019050919050565b600081519050919050565b600081519050919050565b600081519050919050565b600081519050919050565b600081519050919050565b6000602082019050919050565b6000602082019050919050565b6000602082019050919050565b6000602082019050919050565b600082825260208201905092915050565b600082825260208201905092915050565b600082825260208201905092915050565b600082825260208201905092915050565b600082825260208201905092915050565b600082825260208201905092915050565b60006129ca82612a99565b91506129d583612a99565b9250827fffffffffffffffffffffffffffffffffffffffffffffffffffffffffffffffff03821115612a0a57612a09612b1f565b5b828201905092915050565b6000612a2082612a99565b9150612a2b83612a99565b925082821015612a3e57612a3d612b1f565b5b828203905092915050565b6000612a5482612a79565b9050919050565b6000612a6682612a79565b9050919050565b60008115159050919050565b600073ffffffffffffffffffffffffffffffffffffffff82169050919050565b6000819050919050565b60005b83811015612ac1578082015181840152602081019050612aa6565b83811115612ad0576000848401525b50505050565b6000612ae182612a99565b91507fffffffffffffffffffffffffffffffffffffffffffffffffffffffffffffffff821415612b1457612b13612b1f565b5b600182019050919050565b7f4e487b7100000000000000000000000000000000000000000000000000000000600052601160045260246000fd5b7f4e487b7100000000000000000000000000000000000000000000000000000000600052604160045260246000fd5b6000601f19601f8301169050919050565b612b9781612a49565b8114612ba257600080fd5b50565b612bae81612a5b565b8114612bb957600080fd5b50565b612bc581612a6d565b8114612bd057600080fd5b50565b612bdc81612a99565b8114612be757600080fd5b5056fea2646970667358221220a133993ff1be643df893f08b6fb9408e64b22a34ed521ab7765f6733eb76788d64736f6c63430008000033",
  "immutableReferences": {},
  "source": "// SPDX-License-Identifier: UNLICENSED\npragma solidity ^0.8.0;\n\nimport \"./nexyohub.sol\";\nimport \"./nexyocircle.sol\";\n\ncontract nexyotransact {\n  address payable[] private hubs;\n  address payable[] private circles;\n  nexyohub private HubContract;\n  nexyocircle private CircleContract;\n  struct retarr {\n    address _add;\n    address _oadd;\n    string _net;\n    string _sign;\n  }\n\n  function addhub(address _add) external {\n    require(!addressin(_add),'Address already in use'); //there needs to be some way to ID contracts to be part of the nexyo network. I have to think about this!!!\n    hubs.push(payable(_add));\n  }\n\n  function addcircle(address _add) external {\n    require(!addressin(_add),'Address already in use'); //there needs to be some way to ID contracts to be part of the nexyo network. I have to think about this!!!\n    circles.push(payable(_add));\n  }\n\n  function addressin(address _add) internal view returns (bool) {\n    bool isitin=false;\n    uint len=hubs.length;\n    for (uint x=0;x<len;x++) {\n      if (hubs[x]==_add) {\n        isitin=true;\n      }\n    }\n    if (!isitin) {\n      len=circles.length;\n      for (uint x=0;x<len;x++) {\n        if (circles[x]==_add) {\n          isitin=true;\n        }\n      }\n    }\n    return isitin;\n  }\n\n  function listcontracts() external view returns (retarr[] memory) {\n    uint lenh=hubs.length;\n    uint lenc=circles.length;\n    uint totlen=lenh+lenc;\n    require(totlen>0, \"There are no contracts\");\n    retarr[] memory retarr_=new retarr[](totlen);\n    for (uint x=0;x<totlen;x++) {\n      if (x<lenh) {\n        retarr_[x]=retarr(hubs[x],whoisOwnerHub(hubs[x]),nexyohub(hubs[x]).returnContractName(),nexyohub(hubs[x]).returnSign());\n      } else {\n        retarr_[x]=retarr(circles[x-lenh],nexyocircle(circles[x-lenh]).whoisOwner(),nexyocircle(circles[x-lenh]).returnContractName(),nexyocircle(circles[x-lenh]).returnSign());\n      }\n    }\n    return retarr_;\n  }\n\n  function returnNumberofHubswithinNetwork() public view returns (uint) {\n    return hubs.length;\n  }\n\n  function mytokens() external view returns (uint) {\n    uint len=hubs.length;\n    uint tokens=0;\n    require(len>0, \"There are no contracts\");\n    for (uint x=0;x<len;x++) {\n      uint[] memory tokenarr;\n      tokenarr=myTokensHub(hubs[x],msg.sender);\n      tokens=tokens+tokenarr.length;\n    }\n    return tokens;\n  }\n\n  function myhubs() external view returns (string[] memory) {\n    uint len=hubs.length;\n    uint z=0;\n    string[] memory hubnames=new string[](z);\n    if (len>0) {\n      uint inter1;\n      bool inter2;\n      address inter3;\n      for (uint x=0;x<len;x++) {\n        inter1=myTokensHub(hubs[x],msg.sender).length;\n        inter2=isDataOwnerthereHub(hubs[x],msg.sender);\n        inter3=whoisOwnerHub(hubs[x]);\n        if (inter1>0 || inter2 || msg.sender==inter3) {\n          z++;\n          string[] memory interarr=new string[](z);\n          if (z>1) {\n            for(uint y=0;y<hubnames.length;y++) {\n              interarr[y]=hubnames[y];\n            }\n          }\n          hubnames=interarr;\n          hubnames[z-1]=nexyohub(hubs[x]).returnSign();\n        }\n      }\n    }\n    return hubnames;\n  }\n\n  function mycircles() external view returns (string[] memory) {\n    uint len=circles.length;\n    bool inter;\n    bool[] memory truearr=new bool[](len);\n    uint z=0;\n    if (len>0) {\n      for (uint x=0;x<len;x++) {\n        inter=amIUserCircle(circles[x],msg.sender);\n        truearr[x]=inter;\n        if (inter) {z++;}\n      }\n    }\n    string[] memory arr=new string[](z);\n    uint i=0;\n    for (uint y=0;y<len;y++) {\n      if (truearr[y]) {\n        arr[i]=nexyocircle(circles[y]).returnSign();\n        i++;\n      }\n    }\n    return arr;\n  }\n\n  function amIUserCircle(address payable _add,address _sender) public view returns(bool) {\n    return nexyocircle(_add).amIUser(_sender);\n  }\n\n  function myTokensHub(address payable _add,address _sender) public view returns(uint[] memory) {\n    return nexyohub(_add).myTokens(_sender);\n  }\n\n  function isDataOwnerthereHub(address payable _add,address _sender) public view returns(bool) {\n    return nexyohub(_add).isDataOwnerthere(_sender);\n  }\n\n  function whoisOwnerHub(address payable _add) public view returns(address) {\n    return nexyohub(_add).whoisOwner();\n  }\n\n  function returncontract(address payable _add) external view returns (address payable){ //kick this one from verify and delete it\n    address payable add_;\n    if(addressin(_add)) {\n      return _add;\n    } else {\n      return add_;\n    }\n  }\n\n  function returncontractaddresses() public view returns(address[] memory) {\n    uint lenh=hubs.length;\n    uint lenc=circles.length;\n    uint totlen=lenh+lenc;\n    address[] memory addarr=new address[](totlen);\n    for (uint x=0;x<totlen;x++) {\n      if (x<lenh) {\n        addarr[x]=hubs[x];\n      } else {\n        addarr[x]=circles[x-lenh];\n      }\n    }\n    return addarr;\n  }\n\n  function deletecircle(address _add) external {\n    require(addressin(msg.sender),'Only registered Contracts can call this Function');\n    address payable[] memory newaddarr=new address payable[](circles.length-1);\n    uint z=0;\n    for (uint x=0;x<circles.length;x++) {\n      if (circles[x]==_add) {\n        z++;\n      } else {\n        newaddarr[x-z]=circles[x];\n      }\n    }\n    circles=newaddarr;\n  }\n\n  function returnaddress() public view returns (address) {\n    return address(this);\n  }\n}\n",
  "sourcePath": "/home/ka/Desktop/nft-prototyp/contracts/boysintheband.sol",
  "compiler": {
    "name": "solc",
    "version": "0.8.0+commit.c7dfd78e.Emscripten.clang"
  },
  "schemaVersion": "3.3.4",
  "updatedAt": "2021-06-01T08:11:11.939Z",
  "networkType": "ethereum",
  "devdoc": {
    "kind": "dev",
    "methods": {},
    "version": 1
  },
  "userdoc": {
    "kind": "user",
    "methods": {},
    "version": 1
  }
}