{
  "contractName": "nexyohub",
  "abi": [
    {
      "inputs": [
        {
          "internalType": "string",
          "name": "_name",
          "type": "string"
        }
      ],
      "stateMutability": "nonpayable",
      "type": "constructor"
    },
    {
      "anonymous": false,
      "inputs": [
        {
          "indexed": true,
          "internalType": "address",
          "name": "_owner",
          "type": "address"
        },
        {
          "indexed": true,
          "internalType": "address",
          "name": "_approved",
          "type": "address"
        },
        {
          "indexed": true,
          "internalType": "uint256",
          "name": "_tokenId",
          "type": "uint256"
        }
      ],
      "name": "Approval",
      "type": "event"
    },
    {
      "anonymous": false,
      "inputs": [
        {
          "indexed": true,
          "internalType": "address",
          "name": "_owner",
          "type": "address"
        },
        {
          "indexed": true,
          "internalType": "address",
          "name": "_operator",
          "type": "address"
        },
        {
          "indexed": false,
          "internalType": "bool",
          "name": "_approved",
          "type": "bool"
        }
      ],
      "name": "ApprovalForAll",
      "type": "event"
    },
    {
      "anonymous": false,
      "inputs": [
        {
          "indexed": true,
          "internalType": "address",
          "name": "_from",
          "type": "address"
        },
        {
          "indexed": true,
          "internalType": "address",
          "name": "_to",
          "type": "address"
        },
        {
          "indexed": true,
          "internalType": "uint256",
          "name": "_tokenId",
          "type": "uint256"
        }
      ],
      "name": "Transfer",
      "type": "event"
    },
    {
      "anonymous": false,
      "inputs": [
        {
          "indexed": false,
          "internalType": "address",
          "name": "thisContract",
          "type": "address"
        },
        {
          "indexed": false,
          "internalType": "uint256",
          "name": "myMoney",
          "type": "uint256"
        }
      ],
      "name": "contracttookmymoney",
      "type": "event"
    },
    {
      "inputs": [
        {
          "internalType": "uint256",
          "name": "",
          "type": "uint256"
        }
      ],
      "name": "owners",
      "outputs": [
        {
          "internalType": "address",
          "name": "",
          "type": "address"
        }
      ],
      "stateMutability": "view",
      "type": "function",
      "constant": true
    },
    {
      "inputs": [
        {
          "internalType": "uint256",
          "name": "",
          "type": "uint256"
        }
      ],
      "name": "pointers",
      "outputs": [
        {
          "internalType": "string",
          "name": "",
          "type": "string"
        }
      ],
      "stateMutability": "view",
      "type": "function",
      "constant": true
    },
    {
      "inputs": [
        {
          "internalType": "uint256",
          "name": "",
          "type": "uint256"
        }
      ],
      "name": "prices",
      "outputs": [
        {
          "internalType": "uint256",
          "name": "",
          "type": "uint256"
        }
      ],
      "stateMutability": "view",
      "type": "function",
      "constant": true
    },
    {
      "inputs": [
        {
          "internalType": "uint256",
          "name": "",
          "type": "uint256"
        }
      ],
      "name": "sellable",
      "outputs": [
        {
          "internalType": "bool",
          "name": "",
          "type": "bool"
        }
      ],
      "stateMutability": "view",
      "type": "function",
      "constant": true
    },
    {
      "stateMutability": "payable",
      "type": "receive",
      "payable": true
    },
    {
      "inputs": [
        {
          "internalType": "string",
          "name": "pointer",
          "type": "string"
        }
      ],
      "name": "makePointer",
      "outputs": [],
      "stateMutability": "nonpayable",
      "type": "function"
    },
    {
      "inputs": [
        {
          "internalType": "string",
          "name": "pointer",
          "type": "string"
        }
      ],
      "name": "revokePointer",
      "outputs": [],
      "stateMutability": "nonpayable",
      "type": "function"
    },
    {
      "inputs": [
        {
          "internalType": "address",
          "name": "newowner",
          "type": "address"
        },
        {
          "internalType": "string",
          "name": "pointer",
          "type": "string"
        }
      ],
      "name": "mint_to",
      "outputs": [],
      "stateMutability": "nonpayable",
      "type": "function"
    },
    {
      "inputs": [
        {
          "internalType": "string",
          "name": "pointer",
          "type": "string"
        }
      ],
      "name": "mint",
      "outputs": [],
      "stateMutability": "nonpayable",
      "type": "function"
    },
    {
      "inputs": [
        {
          "internalType": "uint256",
          "name": "price",
          "type": "uint256"
        },
        {
          "internalType": "uint256",
          "name": "token",
          "type": "uint256"
        }
      ],
      "name": "setPrice",
      "outputs": [],
      "stateMutability": "nonpayable",
      "type": "function"
    },
    {
      "inputs": [
        {
          "internalType": "address",
          "name": "_from",
          "type": "address"
        },
        {
          "internalType": "address",
          "name": "_to",
          "type": "address"
        },
        {
          "internalType": "uint256",
          "name": "_tokenId",
          "type": "uint256"
        }
      ],
      "name": "transferFrom",
      "outputs": [],
      "stateMutability": "payable",
      "type": "function",
      "payable": true
    },
    {
      "inputs": [
        {
          "internalType": "address",
          "name": "_from",
          "type": "address"
        },
        {
          "internalType": "address",
          "name": "_to",
          "type": "address"
        },
        {
          "internalType": "uint256",
          "name": "_tokenId",
          "type": "uint256"
        }
      ],
      "name": "redoOwnerShipArraypub",
      "outputs": [],
      "stateMutability": "nonpayable",
      "type": "function"
    },
    {
      "inputs": [
        {
          "internalType": "uint256",
          "name": "_tokenid",
          "type": "uint256"
        }
      ],
      "name": "buy",
      "outputs": [],
      "stateMutability": "payable",
      "type": "function",
      "payable": true
    },
    {
      "inputs": [],
      "name": "buyableTokens",
      "outputs": [
        {
          "internalType": "uint256[]",
          "name": "",
          "type": "uint256[]"
        }
      ],
      "stateMutability": "view",
      "type": "function",
      "constant": true
    },
    {
      "inputs": [],
      "name": "balance",
      "outputs": [
        {
          "internalType": "uint256",
          "name": "",
          "type": "uint256"
        }
      ],
      "stateMutability": "view",
      "type": "function",
      "constant": true
    },
    {
      "inputs": [
        {
          "internalType": "uint256",
          "name": "token",
          "type": "uint256"
        }
      ],
      "name": "price",
      "outputs": [
        {
          "internalType": "uint256",
          "name": "",
          "type": "uint256"
        }
      ],
      "stateMutability": "view",
      "type": "function",
      "constant": true
    },
    {
      "inputs": [
        {
          "internalType": "uint256",
          "name": "_tokenId",
          "type": "uint256"
        }
      ],
      "name": "ownerOf",
      "outputs": [
        {
          "internalType": "address",
          "name": "",
          "type": "address"
        }
      ],
      "stateMutability": "view",
      "type": "function",
      "constant": true
    },
    {
      "inputs": [
        {
          "internalType": "uint256",
          "name": "_tokenId",
          "type": "uint256"
        }
      ],
      "name": "pointerOf",
      "outputs": [
        {
          "internalType": "string",
          "name": "",
          "type": "string"
        }
      ],
      "stateMutability": "view",
      "type": "function",
      "constant": true
    },
    {
      "inputs": [
        {
          "internalType": "address",
          "name": "dataowner",
          "type": "address"
        }
      ],
      "name": "addDataOwner",
      "outputs": [],
      "stateMutability": "nonpayable",
      "type": "function"
    },
    {
      "inputs": [],
      "name": "whoisOwner",
      "outputs": [
        {
          "internalType": "address",
          "name": "",
          "type": "address"
        }
      ],
      "stateMutability": "view",
      "type": "function",
      "constant": true
    },
    {
      "inputs": [
        {
          "internalType": "string",
          "name": "pointer",
          "type": "string"
        }
      ],
      "name": "isPointerthere",
      "outputs": [
        {
          "internalType": "bool",
          "name": "",
          "type": "bool"
        }
      ],
      "stateMutability": "view",
      "type": "function",
      "constant": true
    },
    {
      "inputs": [
        {
          "internalType": "address",
          "name": "dataowner",
          "type": "address"
        }
      ],
      "name": "isDataOwnerthere",
      "outputs": [
        {
          "internalType": "bool",
          "name": "",
          "type": "bool"
        }
      ],
      "stateMutability": "view",
      "type": "function",
      "constant": true
    },
    {
      "inputs": [],
      "name": "nextNFTid",
      "outputs": [
        {
          "internalType": "uint256",
          "name": "",
          "type": "uint256"
        }
      ],
      "stateMutability": "view",
      "type": "function",
      "constant": true
    },
    {
      "inputs": [],
      "name": "returnContractName",
      "outputs": [
        {
          "internalType": "string",
          "name": "",
          "type": "string"
        }
      ],
      "stateMutability": "view",
      "type": "function",
      "constant": true
    },
    {
      "inputs": [],
      "name": "returnAddress",
      "outputs": [
        {
          "internalType": "address",
          "name": "",
          "type": "address"
        }
      ],
      "stateMutability": "view",
      "type": "function",
      "constant": true
    },
    {
      "inputs": [],
      "name": "returnSign",
      "outputs": [
        {
          "internalType": "string",
          "name": "",
          "type": "string"
        }
      ],
      "stateMutability": "view",
      "type": "function",
      "constant": true
    },
    {
      "inputs": [],
      "name": "terminate",
      "outputs": [],
      "stateMutability": "nonpayable",
      "type": "function"
    }
  ],
  "bytecode": "0x60806040526801bc16d674ec8000006000556000600c55670de0b6b3a7640000600d553480156200002f57600080fd5b5060405162003189380380620031898339818101604052810190620000559190620002dd565b6000543373ffffffffffffffffffffffffffffffffffffffff16311015620000b4576040517f08c379a0000000000000000000000000000000000000000000000000000000008152600401620000ab9062000364565b60405180910390fd5b8060099080519060200190620000cc929190620001bb565b506040518060400160405280600581526020017f4e584e4654000000000000000000000000000000000000000000000000000000815250600a90805190602001906200011a929190620001bb565b5033600b60006101000a81548173ffffffffffffffffffffffffffffffffffffffff021916908373ffffffffffffffffffffffffffffffffffffffff1602179055506001600260003073ffffffffffffffffffffffffffffffffffffffff1673ffffffffffffffffffffffffffffffffffffffff16815260200190815260200160002060006101000a81548160ff02191690831515021790555050620004c8565b828054620001c99062000434565b90600052602060002090601f016020900481019282620001ed576000855562000239565b82601f106200020857805160ff191683800117855562000239565b8280016001018555821562000239579182015b82811115620002385782518255916020019190600101906200021b565b5b5090506200024891906200024c565b5090565b5b80821115620002675760008160009055506001016200024d565b5090565b6000620002826200027c84620003ba565b62000386565b9050828152602081018484840111156200029b57600080fd5b620002a8848285620003fe565b509392505050565b600082601f830112620002c257600080fd5b8151620002d48482602086016200026b565b91505092915050565b600060208284031215620002f057600080fd5b600082015167ffffffffffffffff8111156200030b57600080fd5b6200031984828501620002b0565b91505092915050565b600062000331601d83620003ed565b91507f506c656173652070726f76696465207375666669656e742046756e64730000006000830152602082019050919050565b600060208201905081810360008301526200037f8162000322565b9050919050565b6000604051905081810181811067ffffffffffffffff82111715620003b057620003af62000499565b5b8060405250919050565b600067ffffffffffffffff821115620003d857620003d762000499565b5b601f19601f8301169050602081019050919050565b600082825260208201905092915050565b60005b838110156200041e57808201518184015260208101905062000401565b838111156200042e576000848401525b50505050565b600060028204905060018216806200044d57607f821691505b602082108114156200046457620004636200046a565b5b50919050565b7f4e487b7100000000000000000000000000000000000000000000000000000000600052602260045260246000fd5b7f4e487b7100000000000000000000000000000000000000000000000000000000600052604160045260246000fd5b612cb180620004d86000396000f3fe6080604052600436106101855760003560e01c80637d817835116100d1578063bc31c1c11161008a578063e285497b11610064578063e285497b146105bc578063f1e63680146105f9578063f7d9757714610624578063ff7be29e1461064d576101c5565b8063bc31c1c11461053a578063d85d3d2714610577578063d96a094a146105a0576101c5565b80637d81783514610418578063943640c314610441578063a1dd69121461046c578063b314200514610495578063b69ef8a8146104d2578063b6ab43e6146104fd576101c5565b806321f172951161013e5780632eae62dc116101185780632eae62dc14610348578063305f16f41461037357806345912d971461039e5780636352211e146103db576101c5565b806321f17295146102c657806323b872dd146102ef57806326a49e371461030b576101c5565b8063025e7c27146101ca57806305875f9514610207578063090d4388146102325780630c08bf881461025b57806314feb3cb14610272578063218f7d6e1461029d576101c5565b366101c5577f4e2ced4d2c3ee1a077c8c313167e6d86b8fe49c37f9d00e5ed1f37265d50be6a30346040516101bb929190612742565b60405180910390a1005b600080fd5b3480156101d657600080fd5b506101f160048036038101906101ec9190612245565b61068a565b6040516101fe9190612727565b60405180910390f35b34801561021357600080fd5b5061021c6106bd565b604051610229919061276b565b60405180910390f35b34801561023e57600080fd5b5061025960048036038101906102549190612138565b610998565b005b34801561026757600080fd5b50610270610adf565b005b34801561027e57600080fd5b50610287610c06565b60405161029491906127a8565b60405180910390f35b3480156102a957600080fd5b506102c460048036038101906102bf9190612204565b610c98565b005b3480156102d257600080fd5b506102ed60048036038101906102e89190612204565b610dbd565b005b61030960048036038101906103049190612161565b610ee3565b005b34801561031757600080fd5b50610332600480360381019061032d9190612245565b6110de565b60405161033f91906128ea565b60405180910390f35b34801561035457600080fd5b5061035d6110fb565b60405161036a9190612727565b60405180910390f35b34801561037f57600080fd5b50610388611125565b60405161039591906127a8565b60405180910390f35b3480156103aa57600080fd5b506103c560048036038101906103c09190612245565b6111b7565b6040516103d291906127a8565b60405180910390f35b3480156103e757600080fd5b5061040260048036038101906103fd9190612245565b61125c565b60405161040f9190612727565b60405180910390f35b34801561042457600080fd5b5061043f600480360381019061043a91906121b0565b611299565b005b34801561044d57600080fd5b506104566114ad565b6040516104639190612727565b60405180910390f35b34801561047857600080fd5b50610493600480360381019061048e9190612161565b6114b5565b005b3480156104a157600080fd5b506104bc60048036038101906104b79190612138565b6114c5565b6040516104c9919061278d565b60405180910390f35b3480156104de57600080fd5b506104e7611522565b6040516104f491906128ea565b60405180910390f35b34801561050957600080fd5b50610524600480360381019061051f9190612245565b611571565b60405161053191906127a8565b60405180910390f35b34801561054657600080fd5b50610561600480360381019061055c9190612245565b611611565b60405161056e91906128ea565b60405180910390f35b34801561058357600080fd5b5061059e60048036038101906105999190612204565b611629565b005b6105ba60048036038101906105b59190612245565b611916565b005b3480156105c857600080fd5b506105e360048036038101906105de9190612204565b6119c5565b6040516105f0919061278d565b60405180910390f35b34801561060557600080fd5b5061060e611a01565b60405161061b91906128ea565b60405180910390f35b34801561063057600080fd5b5061064b6004803603810190610646919061226e565b611a0b565b005b34801561065957600080fd5b50610674600480360381019061066f9190612245565b611ad5565b604051610681919061278d565b60405180910390f35b60036020528060005260406000206000915054906101000a900473ffffffffffffffffffffffffffffffffffffffff1681565b6060806000600760003073ffffffffffffffffffffffffffffffffffffffff1673ffffffffffffffffffffffffffffffffffffffff16815260200190815260200160002080548060200260200160405190810160405280929190818152602001828054801561074b57602002820191906000526020600020905b815481526020019060010190808311610737575b5050505050915081519050600080600090505b828110156107f55760011515600660008684815181106107a7577f4e487b7100000000000000000000000000000000000000000000000000000000600052603260045260246000fd5b6020026020010151815260200190815260200160002060009054906101000a900460ff16151514156107e25781806107de90612b66565b9250505b80806107ed90612b66565b91505061075e565b5060008167ffffffffffffffff811115610838577f4e487b7100000000000000000000000000000000000000000000000000000000600052604160045260246000fd5b6040519080825280602002602001820160405280156108665781602001602082028036833780820191505090505b5090506000915060005b8381101561098d5760011515600660008784815181106108b9577f4e487b7100000000000000000000000000000000000000000000000000000000600052603260045260246000fd5b6020026020010151815260200190815260200160002060009054906101000a900460ff161515141561097a5784818151811061091e577f4e487b7100000000000000000000000000000000000000000000000000000000600052603260045260246000fd5b602002602001015182848151811061095f577f4e487b7100000000000000000000000000000000000000000000000000000000600052603260045260246000fd5b602002602001018181525050828061097690612b66565b9350505b808061098590612b66565b915050610870565b508094505050505090565b3373ffffffffffffffffffffffffffffffffffffffff16600b60009054906101000a900473ffffffffffffffffffffffffffffffffffffffff1673ffffffffffffffffffffffffffffffffffffffff1614610a28576040517f08c379a0000000000000000000000000000000000000000000000000000000008152600401610a1f9061280a565b60405180910390fd5b6000543373ffffffffffffffffffffffffffffffffffffffff16311015610a84576040517f08c379a0000000000000000000000000000000000000000000000000000000008152600401610a7b906127ea565b60405180910390fd5b6001600260008373ffffffffffffffffffffffffffffffffffffffff1673ffffffffffffffffffffffffffffffffffffffff16815260200190815260200160002060006101000a81548160ff02191690831515021790555050565b3373ffffffffffffffffffffffffffffffffffffffff16600b60009054906101000a900473ffffffffffffffffffffffffffffffffffffffff1673ffffffffffffffffffffffffffffffffffffffff1614610b6f576040517f08c379a0000000000000000000000000000000000000000000000000000000008152600401610b669061280a565b60405180910390fd5b6000543373ffffffffffffffffffffffffffffffffffffffff16311015610bcb576040517f08c379a0000000000000000000000000000000000000000000000000000000008152600401610bc2906127ea565b60405180910390fd5b600b60009054906101000a900473ffffffffffffffffffffffffffffffffffffffff1673ffffffffffffffffffffffffffffffffffffffff16ff5b606060098054610c1590612b34565b80601f0160208091040260200160405190810160405280929190818152602001828054610c4190612b34565b8015610c8e5780601f10610c6357610100808354040283529160200191610c8e565b820191906000526020600020905b815481529060010190602001808311610c7157829003601f168201915b5050505050905090565b3373ffffffffffffffffffffffffffffffffffffffff16600b60009054906101000a900473ffffffffffffffffffffffffffffffffffffffff1673ffffffffffffffffffffffffffffffffffffffff1614610d28576040517f08c379a0000000000000000000000000000000000000000000000000000000008152600401610d1f9061280a565b60405180910390fd5b6000543373ffffffffffffffffffffffffffffffffffffffff16311015610d84576040517f08c379a0000000000000000000000000000000000000000000000000000000008152600401610d7b906127ea565b60405180910390fd5b60018082604051610d959190612710565b908152602001604051809103902060006101000a81548160ff02191690831515021790555050565b3373ffffffffffffffffffffffffffffffffffffffff16600b60009054906101000a900473ffffffffffffffffffffffffffffffffffffffff1673ffffffffffffffffffffffffffffffffffffffff1614610e4d576040517f08c379a0000000000000000000000000000000000000000000000000000000008152600401610e449061280a565b60405180910390fd5b6000543373ffffffffffffffffffffffffffffffffffffffff16311015610ea9576040517f08c379a0000000000000000000000000000000000000000000000000000000008152600401610ea0906127ea565b60405180910390fd5b6000600182604051610ebb9190612710565b908152602001604051809103902060006101000a81548160ff02191690831515021790555050565b8273ffffffffffffffffffffffffffffffffffffffff166003600083815260200190815260200160002060009054906101000a900473ffffffffffffffffffffffffffffffffffffffff1673ffffffffffffffffffffffffffffffffffffffff1614610f84576040517f08c379a0000000000000000000000000000000000000000000000000000000008152600401610f7b906127ca565b60405180910390fd5b3460056000838152602001908152602001600020541115610fda576040517f08c379a0000000000000000000000000000000000000000000000000000000008152600401610fd1906128aa565b60405180910390fd5b8273ffffffffffffffffffffffffffffffffffffffff166108fc349081150290604051600060405180830381858888f19350505050158015611020573d6000803e3d6000fd5b5061102c838383611af5565b816003600083815260200190815260200160002060006101000a81548173ffffffffffffffffffffffffffffffffffffffff021916908373ffffffffffffffffffffffffffffffffffffffff160217905550808273ffffffffffffffffffffffffffffffffffffffff168473ffffffffffffffffffffffffffffffffffffffff167fddf252ad1be2c89b69c2b068fc378daa952ba7f163c4a11628f55a4df523b3ef60405160405180910390a4505050565b600060056000838152602001908152602001600020549050919050565b6000600b60009054906101000a900473ffffffffffffffffffffffffffffffffffffffff16905090565b6060600a805461113490612b34565b80601f016020809104026020016040519081016040528092919081815260200182805461116090612b34565b80156111ad5780601f10611182576101008083540402835291602001916111ad565b820191906000526020600020905b81548152906001019060200180831161119057829003601f168201915b5050505050905090565b60606004600083815260200190815260200160002080546111d790612b34565b80601f016020809104026020016040519081016040528092919081815260200182805461120390612b34565b80156112505780601f1061122557610100808354040283529160200191611250565b820191906000526020600020905b81548152906001019060200180831161123357829003601f168201915b50505050509050919050565b60006003600083815260200190815260200160002060009054906101000a900473ffffffffffffffffffffffffffffffffffffffff169050919050565b6112a2826114c5565b6112e1576040517f08c379a00000000000000000000000000000000000000000000000000000000081526004016112d89061282a565b60405180910390fd5b6112ea816119c5565b6112f357600080fd5b8160036000600c54815260200190815260200160002060006101000a81548173ffffffffffffffffffffffffffffffffffffffff021916908373ffffffffffffffffffffffffffffffffffffffff1602179055506000600760008473ffffffffffffffffffffffffffffffffffffffff1673ffffffffffffffffffffffffffffffffffffffff168152602001908152602001600020600c5490806001815401808255809150506001900390600052602060002001600090919091909150556001600760008573ffffffffffffffffffffffffffffffffffffffff1673ffffffffffffffffffffffffffffffffffffffff168152602001908152602001600020805490506114009190612a76565b90508060086000600c548152602001908152602001600020819055508160046000600c5481526020019081526020016000209080519060200190611445929190611fb6565b50600d5460056000600c54815260200190815260200160002081905550600060066000600c54815260200190815260200160002060006101000a81548160ff021916908315150217905550600c60008154809291906114a390612b66565b9190505550505050565b600030905090565b6114c0838383611af5565b505050565b600060011515600260008473ffffffffffffffffffffffffffffffffffffffff1673ffffffffffffffffffffffffffffffffffffffff16815260200190815260200160002060009054906101000a900460ff161515149050919050565b600080600760003373ffffffffffffffffffffffffffffffffffffffff1673ffffffffffffffffffffffffffffffffffffffff1681526020019081526020016000208054905090508091505090565b6004602052806000526040600020600091509050805461159090612b34565b80601f01602080910402602001604051908101604052809291908181526020018280546115bc90612b34565b80156116095780601f106115de57610100808354040283529160200191611609565b820191906000526020600020905b8154815290600101906020018083116115ec57829003601f168201915b505050505081565b60056020528060005260406000206000915090505481565b3373ffffffffffffffffffffffffffffffffffffffff16600b60009054906101000a900473ffffffffffffffffffffffffffffffffffffffff1673ffffffffffffffffffffffffffffffffffffffff16146116b9576040517f08c379a00000000000000000000000000000000000000000000000000000000081526004016116b09061280a565b60405180910390fd5b6000543373ffffffffffffffffffffffffffffffffffffffff16311015611715576040517f08c379a000000000000000000000000000000000000000000000000000000000815260040161170c906127ea565b60405180910390fd5b61171e816119c5565b61175d576040517f08c379a0000000000000000000000000000000000000000000000000000000008152600401611754906128ca565b60405180910390fd5b3060036000600c54815260200190815260200160002060006101000a81548173ffffffffffffffffffffffffffffffffffffffff021916908373ffffffffffffffffffffffffffffffffffffffff1602179055506000600760003073ffffffffffffffffffffffffffffffffffffffff1673ffffffffffffffffffffffffffffffffffffffff168152602001908152602001600020600c5490806001815401808255809150506001900390600052602060002001600090919091909150556001600760003073ffffffffffffffffffffffffffffffffffffffff1673ffffffffffffffffffffffffffffffffffffffff1681526020019081526020016000208054905061186a9190612a76565b90508060086000600c548152602001908152602001600020819055508160046000600c54815260200190815260200160002090805190602001906118af929190611fb6565b50600d5460056000600c54815260200190815260200160002081905550600160066000600c54815260200190815260200160002060006101000a81548160ff021916908315150217905550600c600081548092919061190d90612b66565b91905055505050565b3073ffffffffffffffffffffffffffffffffffffffff166003600083815260200190815260200160002060009054906101000a900473ffffffffffffffffffffffffffffffffffffffff1673ffffffffffffffffffffffffffffffffffffffff16146119b7576040517f08c379a00000000000000000000000000000000000000000000000000000000081526004016119ae9061284a565b60405180910390fd5b6119c2303383610ee3565b50565b6000600115156001836040516119db9190612710565b908152602001604051809103902060009054906101000a900460ff161515149050919050565b6000600c54905090565b3373ffffffffffffffffffffffffffffffffffffffff166003600083815260200190815260200160002060009054906101000a900473ffffffffffffffffffffffffffffffffffffffff1673ffffffffffffffffffffffffffffffffffffffff1614611aac576040517f08c379a0000000000000000000000000000000000000000000000000000000008152600401611aa39061286a565b60405180910390fd5b600d5482611aba9190612a1c565b60056000838152602001908152602001600020819055505050565b60066020528060005260406000206000915054906101000a900460ff1681565b60008060086000848152602001908152602001600020549150600760008673ffffffffffffffffffffffffffffffffffffffff1673ffffffffffffffffffffffffffffffffffffffff16815260200190815260200160002080549050905060008167ffffffffffffffff811115611b95577f4e487b7100000000000000000000000000000000000000000000000000000000600052604160045260246000fd5b604051908082528060200260200182016040528015611bc35781602001602082028036833780820191505090505b509050600760008773ffffffffffffffffffffffffffffffffffffffff1673ffffffffffffffffffffffffffffffffffffffff168152602001908152602001600020805480602002602001604051908101604052809291908181526020018280548015611c4f57602002820191906000526020600020905b815481526020019060010190808311611c3b575b505050505090506000600183611c659190612a76565b67ffffffffffffffff811115611ca4577f4e487b7100000000000000000000000000000000000000000000000000000000600052604160045260246000fd5b604051908082528060200260200182016040528015611cd25781602001602082028036833780820191505090505b50905060005b84811015611d7957828181518110611d19577f4e487b7100000000000000000000000000000000000000000000000000000000600052603260045260246000fd5b6020026020010151828281518110611d5a577f4e487b7100000000000000000000000000000000000000000000000000000000600052603260045260246000fd5b6020026020010181815250508080611d7190612b66565b915050611cd8565b506000825190506000600186611d8f91906129c6565b90505b81811015611e3f57838181518110611dd3577f4e487b7100000000000000000000000000000000000000000000000000000000600052603260045260246000fd5b602002602001015183600183611de99190612a76565b81518110611e20577f4e487b7100000000000000000000000000000000000000000000000000000000600052603260045260246000fd5b6020026020010181815250508080611e3790612b66565b915050611d92565b50600082519050818110611e88576040517f08c379a0000000000000000000000000000000000000000000000000000000008152600401611e7f9061288a565b60405180910390fd5b82600760008b73ffffffffffffffffffffffffffffffffffffffff1673ffffffffffffffffffffffffffffffffffffffff1681526020019081526020016000209080519060200190611edb92919061203c565b50600760008973ffffffffffffffffffffffffffffffffffffffff1673ffffffffffffffffffffffffffffffffffffffff1681526020019081526020016000208790806001815401808255809150506001900390600052602060002001600090919091909150556001600760008a73ffffffffffffffffffffffffffffffffffffffff1673ffffffffffffffffffffffffffffffffffffffff16815260200190815260200160002080549050611f919190612a76565b9550856008600089815260200190815260200160002081905550505050505050505050565b828054611fc290612b34565b90600052602060002090601f016020900481019282611fe4576000855561202b565b82601f10611ffd57805160ff191683800117855561202b565b8280016001018555821561202b579182015b8281111561202a57825182559160200191906001019061200f565b5b5090506120389190612089565b5090565b828054828255906000526020600020908101928215612078579160200282015b8281111561207757825182559160200191906001019061205c565b5b5090506120859190612089565b5090565b5b808211156120a257600081600090555060010161208a565b5090565b60006120b96120b484612936565b612905565b9050828152602081018484840111156120d157600080fd5b6120dc848285612af2565b509392505050565b6000813590506120f381612c4d565b92915050565b600082601f83011261210a57600080fd5b813561211a8482602086016120a6565b91505092915050565b60008135905061213281612c64565b92915050565b60006020828403121561214a57600080fd5b6000612158848285016120e4565b91505092915050565b60008060006060848603121561217657600080fd5b6000612184868287016120e4565b9350506020612195868287016120e4565b92505060406121a686828701612123565b9150509250925092565b600080604083850312156121c357600080fd5b60006121d1858286016120e4565b925050602083013567ffffffffffffffff8111156121ee57600080fd5b6121fa858286016120f9565b9150509250929050565b60006020828403121561221657600080fd5b600082013567ffffffffffffffff81111561223057600080fd5b61223c848285016120f9565b91505092915050565b60006020828403121561225757600080fd5b600061226584828501612123565b91505092915050565b6000806040838503121561228157600080fd5b600061228f85828601612123565b92505060206122a085828601612123565b9150509250929050565b60006122b683836126f2565b60208301905092915050565b6122cb81612aaa565b82525050565b60006122dc82612976565b6122e68185612999565b93506122f183612966565b8060005b8381101561232257815161230988826122aa565b97506123148361298c565b9250506001810190506122f5565b5085935050505092915050565b61233881612abc565b82525050565b600061234982612981565b61235381856129aa565b9350612363818560208601612b01565b61236c81612c3c565b840191505092915050565b600061238282612981565b61238c81856129bb565b935061239c818560208601612b01565b80840191505092915050565b60006123b56024836129aa565b91507f4164647265737320646f6573206e6f7420686f6c64207370656369666963207460008301527f6f6b656e000000000000000000000000000000000000000000000000000000006020830152604082019050919050565b600061241b601d836129aa565b91507f506c656173652070726f76696465207375666669656e742046756e64730000006000830152602082019050919050565b600061245b6039836129aa565b91507f54686973204f7065726174696f6e2063616e206f6e6c7920626520616363657360008301527f7365642062792074686520636f6e7472616374206f776e6572000000000000006020830152604082019050919050565b60006124c16018836129aa565b91507f4e6f204163636f756e74207769746820746869732048756200000000000000006000830152602082019050919050565b60006125016022836129aa565b91507f596f75206f6e6c792063616e2062792066726f6d207468697320636f6e74726160008301527f63740000000000000000000000000000000000000000000000000000000000006020830152604082019050919050565b60006125676036836129aa565b91507f54686973204f7065726174696f6e2063616e206f6e6c7920626520616363657360008301527f7365642062792074686520746f6b656e206f776e6572000000000000000000006020830152604082019050919050565b60006125cd6042836129aa565b91507f41727261797320617265206f6620657175616c2064697374616e636520616e6460008301527f20737567676573742074686174206e6f7468696e67206d75636820686170706560208301527f6e640000000000000000000000000000000000000000000000000000000000006040830152606082019050919050565b6000612659601f836129aa565b91507f506c656173652070726f766964652073756666696369656e742066756e6473006000830152602082019050919050565b6000612699602d836129aa565b91507f50726f766964656420506f696e74657220646f6573206e6f742065786973742060008301527f7769746820636f6e7472616374000000000000000000000000000000000000006020830152604082019050919050565b6126fb81612ae8565b82525050565b61270a81612ae8565b82525050565b600061271c8284612377565b915081905092915050565b600060208201905061273c60008301846122c2565b92915050565b600060408201905061275760008301856122c2565b6127646020830184612701565b9392505050565b6000602082019050818103600083015261278581846122d1565b905092915050565b60006020820190506127a2600083018461232f565b92915050565b600060208201905081810360008301526127c2818461233e565b905092915050565b600060208201905081810360008301526127e3816123a8565b9050919050565b600060208201905081810360008301526128038161240e565b9050919050565b600060208201905081810360008301526128238161244e565b9050919050565b60006020820190508181036000830152612843816124b4565b9050919050565b60006020820190508181036000830152612863816124f4565b9050919050565b600060208201905081810360008301526128838161255a565b9050919050565b600060208201905081810360008301526128a3816125c0565b9050919050565b600060208201905081810360008301526128c38161264c565b9050919050565b600060208201905081810360008301526128e38161268c565b9050919050565b60006020820190506128ff6000830184612701565b92915050565b6000604051905081810181811067ffffffffffffffff8211171561292c5761292b612c0d565b5b8060405250919050565b600067ffffffffffffffff82111561295157612950612c0d565b5b601f19601f8301169050602081019050919050565b6000819050602082019050919050565b600081519050919050565b600081519050919050565b6000602082019050919050565b600082825260208201905092915050565b600082825260208201905092915050565b600081905092915050565b60006129d182612ae8565b91506129dc83612ae8565b9250827fffffffffffffffffffffffffffffffffffffffffffffffffffffffffffffffff03821115612a1157612a10612baf565b5b828201905092915050565b6000612a2782612ae8565b9150612a3283612ae8565b9250817fffffffffffffffffffffffffffffffffffffffffffffffffffffffffffffffff0483118215151615612a6b57612a6a612baf565b5b828202905092915050565b6000612a8182612ae8565b9150612a8c83612ae8565b925082821015612a9f57612a9e612baf565b5b828203905092915050565b6000612ab582612ac8565b9050919050565b60008115159050919050565b600073ffffffffffffffffffffffffffffffffffffffff82169050919050565b6000819050919050565b82818337600083830152505050565b60005b83811015612b1f578082015181840152602081019050612b04565b83811115612b2e576000848401525b50505050565b60006002820490506001821680612b4c57607f821691505b60208210811415612b6057612b5f612bde565b5b50919050565b6000612b7182612ae8565b91507fffffffffffffffffffffffffffffffffffffffffffffffffffffffffffffffff821415612ba457612ba3612baf565b5b600182019050919050565b7f4e487b7100000000000000000000000000000000000000000000000000000000600052601160045260246000fd5b7f4e487b7100000000000000000000000000000000000000000000000000000000600052602260045260246000fd5b7f4e487b7100000000000000000000000000000000000000000000000000000000600052604160045260246000fd5b6000601f19601f8301169050919050565b612c5681612aaa565b8114612c6157600080fd5b50565b612c6d81612ae8565b8114612c7857600080fd5b5056fea26469706673582212208d7e1333e787b5a59d57b5b9837a94ebda22edbdeebc592c8ffa29e6577d867664736f6c63430008000033",
  "immutableReferences": {},
  "source": "// SPDX-License-Identifier: UNLICENSED\npragma solidity ^0.8.0;\n\ncontract nexyohub {\n  uint _minstake = 32000000000000000000;\n  mapping(string => bool) private pointerExists;\n  mapping(address => bool) private DataOwners;\n  mapping(uint => address) public owners;\n  mapping(uint => string) public pointers;\n  mapping(uint => uint) public prices;\n  mapping(uint => bool) public sellable;\n  mapping(address => uint[]) private OwnerShip;\n  mapping(uint => uint) private NFTArrayPos;\n  string name_;\n  string sign_;\n  address payable owner;\n  uint token_id=0;\n  uint stdPrice=1000000000000000000;\n\n  constructor(string memory _name) {\n    require(msg.sender.balance >= _minstake, 'Please provide suffient Funds');\n    name_=_name;\n    sign_='NXNFT';\n    owner=payable(msg.sender);\n    DataOwners[address(this)]=true;\n  }\n\n  modifier onlyOwner {\n    require(owner==msg.sender, 'This Operation can only be accessed by the contract owner');\n    require(msg.sender.balance >= _minstake, 'Please provide suffient Funds');\n    _;\n  }\n\n  modifier onlyContract {\n    require(address(this)==msg.sender, 'The function you are trying to enter is prohibited');\n    _;\n  }\n\n  event Transfer(address indexed _from, address indexed _to, uint256 indexed _tokenId);\n\n  event Approval(address indexed _owner, address indexed _approved, uint256 indexed _tokenId);\n\n  event ApprovalForAll(address indexed _owner, address indexed _operator, bool _approved);\n\n  event contracttookmymoney(address thisContract, uint myMoney);\n\n  receive () external payable {\n      emit contracttookmymoney(address(this), msg.value);\n  }\n\n  function makePointer (string memory pointer) public onlyOwner {\n    pointerExists[pointer]=true;\n  }\n\n  function revokePointer (string memory pointer) public onlyOwner {\n    pointerExists[pointer]=false;\n  }\n\n  function mint_to (address newowner, string memory pointer) public {\n    require(isDataOwnerthere(newowner), 'No Account with this Hub');\n    require(isPointerthere(pointer));\n    owners[token_id]=newowner;\n    uint len;\n    OwnerShip[newowner].push(token_id);\n    len=OwnerShip[newowner].length-1;\n    NFTArrayPos[token_id]=len;\n    pointers[token_id]=pointer;\n    prices[token_id]=stdPrice;\n    sellable[token_id]=false;\n    token_id++;\n  }\n\n  function mint (string memory pointer) public onlyOwner {\n    require(isPointerthere(pointer), 'Provided Pointer does not exist with contract');\n    owners[token_id]=address(this);\n    uint len;\n    OwnerShip[address(this)].push(token_id);\n    len=OwnerShip[address(this)].length-1;\n    NFTArrayPos[token_id]=len;\n    pointers[token_id]=pointer;\n    prices[token_id]=stdPrice;\n    sellable[token_id]=true;\n    token_id++;\n  }\n\n  function setPrice (uint price, uint token) public {\n    require(owners[token]==msg.sender, 'This Operation can only be accessed by the token owner');\n    prices[token]=price*stdPrice;\n  }\n\n  function transferFrom(address _from, address _to, uint _tokenId) public payable {\n    require(owners[_tokenId]==_from, 'Address does not hold specific token');\n    require(prices[_tokenId]<=msg.value, 'Please provide sufficient funds');\n    payable(_from).transfer(msg.value);\n    redoOwnerShipArray (_from,_to,_tokenId);\n    owners[_tokenId]=_to;\n    emit Transfer(_from, _to, _tokenId);\n  }\n\n  function redoOwnerShipArray (address _from, address _to, uint _tokenId) internal {\n    uint pos;\n    uint arraylen;\n    pos=NFTArrayPos[_tokenId];\n    arraylen=OwnerShip[_from].length;\n    uint[] memory array=new uint[](arraylen);\n    array=OwnerShip[_from];\n    uint[] memory newarray=new uint[](arraylen-1);\n    for (uint i=0; i<pos; i++){\n      newarray[i]=array[i];\n    }\n    uint len;\n    len=array.length;\n    for (uint i=pos+1; i<len; i++){\n      newarray[i-1]=array[i];\n    }\n    uint newlen=newarray.length;\n    require(newlen<len,'Arrays are of equal distance and suggest that nothing much happend');\n    OwnerShip[_from]=newarray;\n    OwnerShip[_to].push(_tokenId);\n    pos=OwnerShip[_to].length-1;\n    NFTArrayPos[_tokenId]=pos;\n  }\n\n  function redoOwnerShipArraypub (address _from, address _to, uint _tokenId) public {\n    redoOwnerShipArray (_from,_to,_tokenId);\n  }\n\n  function buy(uint _tokenid) external payable {\n    require(owners[_tokenid]==address(this), \"You only can by from this contract\");\n    transferFrom(address(this), msg.sender, _tokenid);\n  }\n\n  function buyableTokens() external view returns(uint[] memory) {\n    uint[] memory array;\n    uint len;\n    array=OwnerShip[address(this)];\n    len=array.length;\n    uint x;\n    for (uint i=0; i<len; i++) {\n      if (sellable[array[i]]==true) {\n        x++;\n      }\n    }\n    uint[] memory newarray = new uint[](x);\n    x=0;\n    for (uint i=0; i<len; i++) {\n      if (sellable[array[i]]==true) {\n        newarray[x]=array[i];\n        x++;\n      }\n    }\n    return newarray;\n  }\n\n  function balance() external view returns (uint) {\n    uint len;\n    len=OwnerShip[msg.sender].length;\n    return len;\n  }\n\n  function price (uint token) external view returns (uint) {\n    return prices[token];\n  }\n\n  function ownerOf(uint256 _tokenId) external view returns (address) {\n    return owners[_tokenId];\n  }\n\n  function pointerOf(uint256 _tokenId) external view returns (string memory) {\n    return pointers[_tokenId];\n  }\n\n  function addDataOwner(address dataowner) public onlyOwner {\n    DataOwners[dataowner]=true;\n  }\n\n  function whoisOwner() public view returns(address) {\n    return owner;\n  }\n\n  function isPointerthere (string memory pointer) public view returns (bool){\n    return pointerExists[pointer]==true;\n  }\n\n  function isDataOwnerthere (address dataowner) public view returns (bool){\n    return DataOwners[dataowner]==true;\n  }\n\n  function nextNFTid () public view returns(uint){\n    return token_id;\n  }\n\n  function returnContractName () public view returns (string memory){\n    return name_;\n  }\n\n  function returnAddress () public view returns (address){\n    return address(this);\n  }\n\n  function returnSign () public view returns (string memory){\n    return sign_;\n  }\n\n  function terminate() public onlyOwner {\n    selfdestruct(owner);\n  }\n}\n",
  "sourcePath": "/home/noone/Desktop/nexyo/nft-prototyp/contracts/nexyohub.sol",
  "compiler": {
    "name": "solc",
    "version": "0.8.0+commit.c7dfd78e.Emscripten.clang"
  },
  "schemaVersion": "3.3.4",
  "updatedAt": "2021-03-25T18:28:30.502Z",
  "networkType": "ethereum",
  "devdoc": {
    "kind": "dev",
    "methods": {},
    "version": 1
  },
  "userdoc": {
    "kind": "user",
    "methods": {},
    "version": 1
  }
}