{
  "contractName": "nexyohub",
  "abi": [
    {
      "inputs": [
        {
          "internalType": "string",
          "name": "_name",
          "type": "string"
        }
      ],
      "stateMutability": "nonpayable",
      "type": "constructor"
    },
    {
      "anonymous": false,
      "inputs": [
        {
          "indexed": true,
          "internalType": "address",
          "name": "_owner",
          "type": "address"
        },
        {
          "indexed": true,
          "internalType": "address",
          "name": "_approved",
          "type": "address"
        },
        {
          "indexed": true,
          "internalType": "uint256",
          "name": "_tokenId",
          "type": "uint256"
        }
      ],
      "name": "Approval",
      "type": "event"
    },
    {
      "anonymous": false,
      "inputs": [
        {
          "indexed": true,
          "internalType": "address",
          "name": "_owner",
          "type": "address"
        },
        {
          "indexed": true,
          "internalType": "address",
          "name": "_operator",
          "type": "address"
        },
        {
          "indexed": false,
          "internalType": "bool",
          "name": "_approved",
          "type": "bool"
        }
      ],
      "name": "ApprovalForAll",
      "type": "event"
    },
    {
      "anonymous": false,
      "inputs": [
        {
          "indexed": true,
          "internalType": "address",
          "name": "_from",
          "type": "address"
        },
        {
          "indexed": true,
          "internalType": "address",
          "name": "_to",
          "type": "address"
        },
        {
          "indexed": true,
          "internalType": "uint256",
          "name": "_tokenId",
          "type": "uint256"
        }
      ],
      "name": "Transfer",
      "type": "event"
    },
    {
      "anonymous": false,
      "inputs": [
        {
          "indexed": false,
          "internalType": "address",
          "name": "thisContract",
          "type": "address"
        },
        {
          "indexed": false,
          "internalType": "uint256",
          "name": "myMoney",
          "type": "uint256"
        }
      ],
      "name": "contracttookmymoney",
      "type": "event"
    },
    {
      "inputs": [
        {
          "internalType": "uint256",
          "name": "",
          "type": "uint256"
        }
      ],
      "name": "owners",
      "outputs": [
        {
          "internalType": "address",
          "name": "",
          "type": "address"
        }
      ],
      "stateMutability": "view",
      "type": "function",
      "constant": true
    },
    {
      "inputs": [
        {
          "internalType": "uint256",
          "name": "",
          "type": "uint256"
        }
      ],
      "name": "pointers",
      "outputs": [
        {
          "internalType": "string",
          "name": "",
          "type": "string"
        }
      ],
      "stateMutability": "view",
      "type": "function",
      "constant": true
    },
    {
      "inputs": [
        {
          "internalType": "uint256",
          "name": "",
          "type": "uint256"
        }
      ],
      "name": "prices",
      "outputs": [
        {
          "internalType": "uint256",
          "name": "",
          "type": "uint256"
        }
      ],
      "stateMutability": "view",
      "type": "function",
      "constant": true
    },
    {
      "inputs": [
        {
          "internalType": "uint256",
          "name": "",
          "type": "uint256"
        }
      ],
      "name": "sellable",
      "outputs": [
        {
          "internalType": "bool",
          "name": "",
          "type": "bool"
        }
      ],
      "stateMutability": "view",
      "type": "function",
      "constant": true
    },
    {
      "stateMutability": "payable",
      "type": "receive",
      "payable": true
    },
    {
      "inputs": [
        {
          "internalType": "string",
          "name": "pointer",
          "type": "string"
        }
      ],
      "name": "makePointer",
      "outputs": [],
      "stateMutability": "nonpayable",
      "type": "function"
    },
    {
      "inputs": [
        {
          "internalType": "string[]",
          "name": "_pointers",
          "type": "string[]"
        }
      ],
      "name": "revokePointers",
      "outputs": [],
      "stateMutability": "nonpayable",
      "type": "function"
    },
    {
      "inputs": [
        {
          "internalType": "string[]",
          "name": "_pointers",
          "type": "string[]"
        }
      ],
      "name": "approvePointers",
      "outputs": [],
      "stateMutability": "nonpayable",
      "type": "function"
    },
    {
      "inputs": [
        {
          "internalType": "address",
          "name": "newowner",
          "type": "address"
        },
        {
          "internalType": "string",
          "name": "pointer",
          "type": "string"
        }
      ],
      "name": "mint_to",
      "outputs": [],
      "stateMutability": "nonpayable",
      "type": "function"
    },
    {
      "inputs": [
        {
          "internalType": "string",
          "name": "pointer",
          "type": "string"
        }
      ],
      "name": "mint",
      "outputs": [],
      "stateMutability": "nonpayable",
      "type": "function"
    },
    {
      "inputs": [
        {
          "internalType": "string",
          "name": "pointer",
          "type": "string"
        },
        {
          "internalType": "bool",
          "name": "_resell",
          "type": "bool"
        },
        {
          "internalType": "uint256",
          "name": "_timeLock",
          "type": "uint256"
        },
        {
          "internalType": "bool",
          "name": "_sell",
          "type": "bool"
        }
      ],
      "name": "mintwithOptions",
      "outputs": [],
      "stateMutability": "nonpayable",
      "type": "function"
    },
    {
      "inputs": [
        {
          "internalType": "uint256",
          "name": "cost",
          "type": "uint256"
        },
        {
          "internalType": "uint256",
          "name": "token",
          "type": "uint256"
        }
      ],
      "name": "setPrice",
      "outputs": [],
      "stateMutability": "nonpayable",
      "type": "function"
    },
    {
      "inputs": [
        {
          "internalType": "uint256",
          "name": "_tokenid",
          "type": "uint256"
        },
        {
          "internalType": "bool",
          "name": "_resell",
          "type": "bool"
        },
        {
          "internalType": "uint256",
          "name": "_timeLock",
          "type": "uint256"
        }
      ],
      "name": "resellOptions",
      "outputs": [],
      "stateMutability": "nonpayable",
      "type": "function"
    },
    {
      "inputs": [
        {
          "internalType": "uint256",
          "name": "_tokenid",
          "type": "uint256"
        }
      ],
      "name": "sendback",
      "outputs": [],
      "stateMutability": "nonpayable",
      "type": "function"
    },
    {
      "inputs": [
        {
          "internalType": "address",
          "name": "_from",
          "type": "address"
        },
        {
          "internalType": "address",
          "name": "_to",
          "type": "address"
        },
        {
          "internalType": "uint256",
          "name": "_tokenId",
          "type": "uint256"
        }
      ],
      "name": "transferFrom",
      "outputs": [],
      "stateMutability": "payable",
      "type": "function",
      "payable": true
    },
    {
      "inputs": [
        {
          "internalType": "uint256",
          "name": "_tokenid",
          "type": "uint256"
        }
      ],
      "name": "buy",
      "outputs": [],
      "stateMutability": "payable",
      "type": "function",
      "payable": true
    },
    {
      "inputs": [
        {
          "internalType": "uint256",
          "name": "_tokenid",
          "type": "uint256"
        }
      ],
      "name": "sell",
      "outputs": [],
      "stateMutability": "nonpayable",
      "type": "function"
    },
    {
      "inputs": [
        {
          "internalType": "address",
          "name": "sender",
          "type": "address"
        }
      ],
      "name": "buyableTokens",
      "outputs": [
        {
          "internalType": "uint256[]",
          "name": "",
          "type": "uint256[]"
        }
      ],
      "stateMutability": "view",
      "type": "function",
      "constant": true
    },
    {
      "inputs": [
        {
          "internalType": "address",
          "name": "sender",
          "type": "address"
        }
      ],
      "name": "balance",
      "outputs": [
        {
          "internalType": "uint256",
          "name": "",
          "type": "uint256"
        }
      ],
      "stateMutability": "view",
      "type": "function",
      "constant": true
    },
    {
      "inputs": [
        {
          "internalType": "address",
          "name": "sender",
          "type": "address"
        }
      ],
      "name": "myTokens",
      "outputs": [
        {
          "internalType": "uint256[]",
          "name": "",
          "type": "uint256[]"
        }
      ],
      "stateMutability": "view",
      "type": "function",
      "constant": true
    },
    {
      "inputs": [],
      "name": "useablePointers",
      "outputs": [
        {
          "internalType": "string[]",
          "name": "",
          "type": "string[]"
        }
      ],
      "stateMutability": "view",
      "type": "function",
      "constant": true
    },
    {
      "inputs": [
        {
          "internalType": "address",
          "name": "dataowner",
          "type": "address"
        }
      ],
      "name": "whatownsDataOwner",
      "outputs": [
        {
          "internalType": "uint256[]",
          "name": "",
          "type": "uint256[]"
        }
      ],
      "stateMutability": "view",
      "type": "function",
      "constant": true
    },
    {
      "inputs": [
        {
          "internalType": "string",
          "name": "pointer",
          "type": "string"
        }
      ],
      "name": "doyouownPointer",
      "outputs": [
        {
          "internalType": "bool",
          "name": "",
          "type": "bool"
        }
      ],
      "stateMutability": "view",
      "type": "function",
      "constant": true
    },
    {
      "inputs": [
        {
          "internalType": "uint256",
          "name": "_tokenId",
          "type": "uint256"
        }
      ],
      "name": "priceOf",
      "outputs": [
        {
          "internalType": "uint256",
          "name": "",
          "type": "uint256"
        }
      ],
      "stateMutability": "view",
      "type": "function",
      "constant": true
    },
    {
      "inputs": [
        {
          "internalType": "uint256",
          "name": "_tokenId",
          "type": "uint256"
        }
      ],
      "name": "ownerOf",
      "outputs": [
        {
          "internalType": "address",
          "name": "",
          "type": "address"
        }
      ],
      "stateMutability": "view",
      "type": "function",
      "constant": true
    },
    {
      "inputs": [
        {
          "internalType": "uint256",
          "name": "_tokenId",
          "type": "uint256"
        }
      ],
      "name": "pointerOf",
      "outputs": [
        {
          "internalType": "string",
          "name": "",
          "type": "string"
        }
      ],
      "stateMutability": "view",
      "type": "function",
      "constant": true
    },
    {
      "inputs": [
        {
          "internalType": "uint256",
          "name": "_tokenId",
          "type": "uint256"
        }
      ],
      "name": "tokensellable",
      "outputs": [
        {
          "internalType": "bool",
          "name": "",
          "type": "bool"
        }
      ],
      "stateMutability": "view",
      "type": "function",
      "constant": true
    },
    {
      "inputs": [
        {
          "internalType": "uint256",
          "name": "_tokenId",
          "type": "uint256"
        }
      ],
      "name": "tokenresellable",
      "outputs": [
        {
          "internalType": "bool",
          "name": "",
          "type": "bool"
        }
      ],
      "stateMutability": "view",
      "type": "function",
      "constant": true
    },
    {
      "inputs": [
        {
          "internalType": "uint256",
          "name": "_tokenId",
          "type": "uint256"
        }
      ],
      "name": "tokenownable",
      "outputs": [
        {
          "internalType": "uint256",
          "name": "",
          "type": "uint256"
        }
      ],
      "stateMutability": "view",
      "type": "function",
      "constant": true
    },
    {
      "inputs": [
        {
          "internalType": "uint256",
          "name": "_tokenId",
          "type": "uint256"
        }
      ],
      "name": "tokenexpires",
      "outputs": [
        {
          "internalType": "uint256",
          "name": "",
          "type": "uint256"
        }
      ],
      "stateMutability": "view",
      "type": "function",
      "constant": true
    },
    {
      "inputs": [
        {
          "internalType": "address",
          "name": "dataowner",
          "type": "address"
        }
      ],
      "name": "addDataOwner",
      "outputs": [],
      "stateMutability": "nonpayable",
      "type": "function"
    },
    {
      "inputs": [
        {
          "internalType": "address",
          "name": "ow",
          "type": "address"
        }
      ],
      "name": "dataowned",
      "outputs": [
        {
          "internalType": "uint256[]",
          "name": "",
          "type": "uint256[]"
        }
      ],
      "stateMutability": "view",
      "type": "function",
      "constant": true
    },
    {
      "inputs": [],
      "name": "whoisOwner",
      "outputs": [
        {
          "internalType": "address",
          "name": "",
          "type": "address"
        }
      ],
      "stateMutability": "view",
      "type": "function",
      "constant": true
    },
    {
      "inputs": [],
      "name": "PointerstoApprove",
      "outputs": [
        {
          "internalType": "string[]",
          "name": "",
          "type": "string[]"
        }
      ],
      "stateMutability": "nonpayable",
      "type": "function"
    },
    {
      "inputs": [
        {
          "internalType": "string",
          "name": "pointer",
          "type": "string"
        }
      ],
      "name": "isPointerthere",
      "outputs": [
        {
          "internalType": "bool",
          "name": "",
          "type": "bool"
        }
      ],
      "stateMutability": "view",
      "type": "function",
      "constant": true
    },
    {
      "inputs": [
        {
          "internalType": "address",
          "name": "dataowner",
          "type": "address"
        }
      ],
      "name": "isDataOwnerthere",
      "outputs": [
        {
          "internalType": "bool",
          "name": "",
          "type": "bool"
        }
      ],
      "stateMutability": "view",
      "type": "function",
      "constant": true
    },
    {
      "inputs": [],
      "name": "nextNFTid",
      "outputs": [
        {
          "internalType": "uint256",
          "name": "",
          "type": "uint256"
        }
      ],
      "stateMutability": "view",
      "type": "function",
      "constant": true
    },
    {
      "inputs": [],
      "name": "nextPointerid",
      "outputs": [
        {
          "internalType": "uint256",
          "name": "",
          "type": "uint256"
        }
      ],
      "stateMutability": "view",
      "type": "function",
      "constant": true
    },
    {
      "inputs": [],
      "name": "returnContractName",
      "outputs": [
        {
          "internalType": "string",
          "name": "",
          "type": "string"
        }
      ],
      "stateMutability": "view",
      "type": "function",
      "constant": true
    },
    {
      "inputs": [],
      "name": "returnAddress",
      "outputs": [
        {
          "internalType": "address",
          "name": "",
          "type": "address"
        }
      ],
      "stateMutability": "view",
      "type": "function",
      "constant": true
    },
    {
      "inputs": [],
      "name": "returnSign",
      "outputs": [
        {
          "internalType": "string",
          "name": "",
          "type": "string"
        }
      ],
      "stateMutability": "view",
      "type": "function",
      "constant": true
    },
    {
      "inputs": [],
      "name": "terminate",
      "outputs": [],
      "stateMutability": "nonpayable",
      "type": "function"
    }
  ],
  "bytecode": "0x60806040526000600e556000600f55600060105560006011556801bc16d674ec800000601455670de0b6b3a76400006015553480156200003e57600080fd5b506040516200608038038062006080833981810160405281019062000064919062000294565b6014543373ffffffffffffffffffffffffffffffffffffffff16311015620000c3576040517f08c379a0000000000000000000000000000000000000000000000000000000008152600401620000ba906200031b565b60405180910390fd5b80600b9080519060200190620000db92919062000172565b506040518060400160405280600581526020017f4e584e4654000000000000000000000000000000000000000000000000000000815250600c90805190602001906200012992919062000172565b5033600d60006101000a81548173ffffffffffffffffffffffffffffffffffffffff021916908373ffffffffffffffffffffffffffffffffffffffff160217905550506200047f565b8280546200018090620003eb565b90600052602060002090601f016020900481019282620001a45760008555620001f0565b82601f10620001bf57805160ff1916838001178555620001f0565b82800160010185558215620001f0579182015b82811115620001ef578251825591602001919060010190620001d2565b5b509050620001ff919062000203565b5090565b5b808211156200021e57600081600090555060010162000204565b5090565b600062000239620002338462000371565b6200033d565b9050828152602081018484840111156200025257600080fd5b6200025f848285620003b5565b509392505050565b600082601f8301126200027957600080fd5b81516200028b84826020860162000222565b91505092915050565b600060208284031215620002a757600080fd5b600082015167ffffffffffffffff811115620002c257600080fd5b620002d08482850162000267565b91505092915050565b6000620002e8601d83620003a4565b91507f506c656173652070726f76696465207375666669656e742046756e64730000006000830152602082019050919050565b600060208201905081810360008301526200033681620002d9565b9050919050565b6000604051905081810181811067ffffffffffffffff8211171562000367576200036662000450565b5b8060405250919050565b600067ffffffffffffffff8211156200038f576200038e62000450565b5b601f19601f8301169050602081019050919050565b600082825260208201905092915050565b60005b83811015620003d5578082015181840152602081019050620003b8565b83811115620003e5576000848401525b50505050565b600060028204905060018216806200040457607f821691505b602082108114156200041b576200041a62000421565b5b50919050565b7f4e487b7100000000000000000000000000000000000000000000000000000000600052602260045260246000fd5b7f4e487b7100000000000000000000000000000000000000000000000000000000600052604160045260246000fd5b615bf1806200048f6000396000f3fe60806040526004361061024a5760003560e01c8063943640c311610139578063d85d3d27116100b6578063e4849b321161007a578063e4849b3214610960578063f1e6368014610989578063f6928dee146109b4578063f7d97577146109f1578063fb3a5d6d14610a1a578063ff7be29e14610a435761028a565b8063d85d3d2714610864578063d96a094a1461088d578063dc1df3f6146108a9578063e285497b146108e6578063e3d670d7146109235761028a565b8063b6ab43e6116100fd578063b6ab43e614610747578063b9186d7d14610784578063bc31c1c1146107c1578063c10e7cc2146107fe578063ce1534c11461083b5761028a565b8063943640c31461064e5780639c05c7ca14610679578063ad9c4627146106a4578063b3142005146106e1578063b61ca7671461071e5761028a565b8063305f16f4116101c75780637b94a2a11161018b5780637b94a2a11461056b5780637ce4d23a146105a85780637d817835146105d35780637e282682146105fc5780638956f3d4146106255761028a565b8063305f16f41461044c5780633348cc0a1461047757806345912d97146104b45780636352211e146104f157806363cad13f1461052e5761028a565b8063218f7d6e1161020e578063218f7d6e1461037457806321ea7fd31461039d57806323b872dd146103c85780632b5ba5ab146103e45780632eae62dc146104215761028a565b8063025e7c271461028f578063090d4388146102cc5780630c08bf88146102f557806314feb3cb1461030c5780631bac031a146103375761028a565b3661028a577f4e2ced4d2c3ee1a077c8c313167e6d86b8fe49c37f9d00e5ed1f37265d50be6a30346040516102809291906154b4565b60405180910390a1005b600080fd5b34801561029b57600080fd5b506102b660048036038101906102b19190614c50565b610a80565b6040516102c39190615499565b60405180910390f35b3480156102d857600080fd5b506102f360048036038101906102ee9190614a87565b610ab3565b005b34801561030157600080fd5b5061030a610c1c565b005b34801561031857600080fd5b50610321610d43565b60405161032e919061553c565b60405180910390f35b34801561034357600080fd5b5061035e60048036038101906103599190614c50565b610dd5565b60405161036b919061575e565b60405180910390f35b34801561038057600080fd5b5061039b60048036038101906103969190614b94565b610df2565b005b3480156103a957600080fd5b506103b26113fb565b6040516103bf919061575e565b60405180910390f35b6103e260048036038101906103dd9190614ab0565b611405565b005b3480156103f057600080fd5b5061040b60048036038101906104069190614a87565b611607565b60405161041891906154ff565b60405180910390f35b34801561042d57600080fd5b5061043661169e565b6040516104439190615499565b60405180910390f35b34801561045857600080fd5b506104616116c8565b60405161046e919061553c565b60405180910390f35b34801561048357600080fd5b5061049e60048036038101906104999190614b94565b61175a565b6040516104ab9190615521565b60405180910390f35b3480156104c057600080fd5b506104db60048036038101906104d69190614c50565b6118b8565b6040516104e8919061553c565b60405180910390f35b3480156104fd57600080fd5b5061051860048036038101906105139190614c50565b61195d565b6040516105259190615499565b60405180910390f35b34801561053a57600080fd5b5061055560048036038101906105509190614c50565b611999565b6040516105629190615521565b60405180910390f35b34801561057757600080fd5b50610592600480360381019061058d9190614a87565b6119c3565b60405161059f91906154ff565b60405180910390f35b3480156105b457600080fd5b506105bd611c1b565b6040516105ca91906154dd565b60405180910390f35b3480156105df57600080fd5b506105fa60048036038101906105f59190614aff565b611ef8565b005b34801561060857600080fd5b50610623600480360381019061061e9190614b53565b612153565b005b34801561063157600080fd5b5061064c60048036038101906106479190614b53565b612400565b005b34801561065a57600080fd5b50610663612635565b6040516106709190615499565b60405180910390f35b34801561068557600080fd5b5061068e61263d565b60405161069b91906154dd565b60405180910390f35b3480156106b057600080fd5b506106cb60048036038101906106c69190614a87565b612972565b6040516106d891906154ff565b60405180910390f35b3480156106ed57600080fd5b5061070860048036038101906107039190614a87565b612d95565b6040516107159190615521565b60405180910390f35b34801561072a57600080fd5b5061074560048036038101906107409190614c79565b612de4565b005b34801561075357600080fd5b5061076e60048036038101906107699190614c50565b612ee9565b60405161077b919061553c565b60405180910390f35b34801561079057600080fd5b506107ab60048036038101906107a69190614c50565b612f89565b6040516107b8919061575e565b60405180910390f35b3480156107cd57600080fd5b506107e860048036038101906107e39190614c50565b612fa6565b6040516107f5919061575e565b60405180910390f35b34801561080a57600080fd5b5061082560048036038101906108209190614c50565b612fbe565b6040516108329190615521565b60405180910390f35b34801561084757600080fd5b50610862600480360381019061085d9190614c50565b612fe8565b005b34801561087057600080fd5b5061088b60048036038101906108869190614b94565b61325c565b005b6108a760048036038101906108a29190614c50565b6134ed565b005b3480156108b557600080fd5b506108d060048036038101906108cb9190614a87565b613612565b6040516108dd91906154ff565b60405180910390f35b3480156108f257600080fd5b5061090d60048036038101906109089190614b94565b613b7f565b60405161091a9190615521565b60405180910390f35b34801561092f57600080fd5b5061094a60048036038101906109459190614a87565b613bba565b604051610957919061575e565b60405180910390f35b34801561096c57600080fd5b5061098760048036038101906109829190614c50565b613c0b565b005b34801561099557600080fd5b5061099e613dea565b6040516109ab919061575e565b60405180910390f35b3480156109c057600080fd5b506109db60048036038101906109d69190614c50565b613df4565b6040516109e8919061575e565b60405180910390f35b3480156109fd57600080fd5b50610a186004803603810190610a139190614cc8565b613e11565b005b348015610a2657600080fd5b50610a416004803603810190610a3c9190614bd5565b613eda565b005b348015610a4f57600080fd5b50610a6a6004803603810190610a659190614c50565b6141c3565b604051610a779190615521565b60405180910390f35b60006020528060005260406000206000915054906101000a900473ffffffffffffffffffffffffffffffffffffffff1681565b3373ffffffffffffffffffffffffffffffffffffffff16600d60009054906101000a900473ffffffffffffffffffffffffffffffffffffffff1673ffffffffffffffffffffffffffffffffffffffff1614610b43576040517f08c379a0000000000000000000000000000000000000000000000000000000008152600401610b3a9061561e565b60405180910390fd5b6014543373ffffffffffffffffffffffffffffffffffffffff16311015610b9f576040517f08c379a0000000000000000000000000000000000000000000000000000000008152600401610b96906155de565b60405180910390fd5b600860008273ffffffffffffffffffffffffffffffffffffffff1673ffffffffffffffffffffffffffffffffffffffff16815260200190815260200160002066038d7ea4c68000600f54610bf391906158c5565b908060018154018082558091505060019003906000526020600020016000909190919091505550565b3373ffffffffffffffffffffffffffffffffffffffff16600d60009054906101000a900473ffffffffffffffffffffffffffffffffffffffff1673ffffffffffffffffffffffffffffffffffffffff1614610cac576040517f08c379a0000000000000000000000000000000000000000000000000000000008152600401610ca39061561e565b60405180910390fd5b6014543373ffffffffffffffffffffffffffffffffffffffff16311015610d08576040517f08c379a0000000000000000000000000000000000000000000000000000000008152600401610cff906155de565b60405180910390fd5b600d60009054906101000a900473ffffffffffffffffffffffffffffffffffffffff1673ffffffffffffffffffffffffffffffffffffffff16ff5b6060600b8054610d5290615a5d565b80601f0160208091040260200160405190810160405280929190818152602001828054610d7e90615a5d565b8015610dcb5780601f10610da057610100808354040283529160200191610dcb565b820191906000526020600020905b815481529060010190602001808311610dae57829003601f168201915b5050505050905090565b600060056000838152602001908152602001600020549050919050565b6000600860003373ffffffffffffffffffffffffffffffffffffffff1673ffffffffffffffffffffffffffffffffffffffff168152602001908152602001600020805490501180610e905750600d60009054906101000a900473ffffffffffffffffffffffffffffffffffffffff1673ffffffffffffffffffffffffffffffffffffffff163373ffffffffffffffffffffffffffffffffffffffff16145b610ecf576040517f08c379a0000000000000000000000000000000000000000000000000000000008152600401610ec6906155be565b60405180910390fd5b6001600782604051610ee1919061546b565b908152602001604051809103902060009054906101000a900460ff1660ff1614158015610f3d57506003600782604051610f1b919061546b565b908152602001604051809103902060009054906101000a900460ff1660ff1614155b610f7c576040517f08c379a0000000000000000000000000000000000000000000000000000000008152600401610f73906155fe565b60405180910390fd5b6000600782604051610f8e919061546b565b908152602001604051809103902060009054906101000a900460ff1660ff1614156113a757600d60009054906101000a900473ffffffffffffffffffffffffffffffffffffffff1673ffffffffffffffffffffffffffffffffffffffff163373ffffffffffffffffffffffffffffffffffffffff16141561104657600160078260405161101b919061546b565b908152602001604051809103902060006101000a81548160ff021916908360ff1602179055506110af565b6003600782604051611058919061546b565b908152602001604051809103902060006101000a81548160ff021916908360ff1602179055506011600081548092919061109190615a8f565b9190505550601060008154809291906110a990615a8f565b91905055505b6012819080600181540180825580915050600190039060005260206000200160009091909190915090805190602001906110ea929190614869565b506013339080600181540180825580915050600190039060005260206000200160009091909190916101000a81548173ffffffffffffffffffffffffffffffffffffffff021916908373ffffffffffffffffffffffffffffffffffffffff1602179055506000600860003373ffffffffffffffffffffffffffffffffffffffff1673ffffffffffffffffffffffffffffffffffffffff16815260200190815260200160002080549050111561132157600f54600860003373ffffffffffffffffffffffffffffffffffffffff1673ffffffffffffffffffffffffffffffffffffffff168152602001908152602001600020600081548110611214577f4e487b7100000000000000000000000000000000000000000000000000000000600052603260045260246000fd5b906000526020600020015411156112b357600f54600860003373ffffffffffffffffffffffffffffffffffffffff1673ffffffffffffffffffffffffffffffffffffffff1681526020019081526020016000206000815481106112a0577f4e487b7100000000000000000000000000000000000000000000000000000000600052603260045260246000fd5b906000526020600020018190555061131c565b600860003373ffffffffffffffffffffffffffffffffffffffff1673ffffffffffffffffffffffffffffffffffffffff168152602001908152602001600020600f5490806001815401808255809150506001900390600052602060002001600090919091909150555b61138a565b600860003373ffffffffffffffffffffffffffffffffffffffff1673ffffffffffffffffffffffffffffffffffffffff168152602001908152602001600020600f5490806001815401808255809150506001900390600052602060002001600090919091909150555b600f600081548092919061139d90615a8f565b91905055506113f8565b60016007826040516113b9919061546b565b908152602001604051809103902060006101000a81548160ff021916908360ff160217905550601060008154809291906113f290615a33565b91905055505b50565b6000600f54905090565b8273ffffffffffffffffffffffffffffffffffffffff1660008083815260200190815260200160002060009054906101000a900473ffffffffffffffffffffffffffffffffffffffff1673ffffffffffffffffffffffffffffffffffffffff16146114a5576040517f08c379a000000000000000000000000000000000000000000000000000000000815260040161149c9061559e565b60405180910390fd5b34600260008381526020019081526020016000205411156114fb576040517f08c379a00000000000000000000000000000000000000000000000000000000081526004016114f29061571e565b60405180910390fd5b6000341461154b578273ffffffffffffffffffffffffffffffffffffffff166108fc349081150290604051600060405180830381858888f19350505050158015611549573d6000803e3d6000fd5b505b6115568383836141e3565b8160008083815260200190815260200160002060006101000a81548173ffffffffffffffffffffffffffffffffffffffff021916908373ffffffffffffffffffffffffffffffffffffffff160217905550808273ffffffffffffffffffffffffffffffffffffffff168473ffffffffffffffffffffffffffffffffffffffff167fddf252ad1be2c89b69c2b068fc378daa952ba7f163c4a11628f55a4df523b3ef60405160405180910390a4505050565b6060600860008373ffffffffffffffffffffffffffffffffffffffff1673ffffffffffffffffffffffffffffffffffffffff16815260200190815260200160002080548060200260200160405190810160405280929190818152602001828054801561169257602002820191906000526020600020905b81548152602001906001019080831161167e575b50505050509050919050565b6000600d60009054906101000a900473ffffffffffffffffffffffffffffffffffffffff16905090565b6060600c80546116d790615a5d565b80601f016020809104026020016040519081016040528092919081815260200182805461170390615a5d565b80156117505780601f1061172557610100808354040283529160200191611750565b820191906000526020600020905b81548152906001019060200180831161173357829003601f168201915b5050505050905090565b60008060009050600061176c33612972565b905060005b81518110156118ad5761189060128383815181106117b8577f4e487b7100000000000000000000000000000000000000000000000000000000600052603260045260246000fd5b6020026020010151815481106117f7577f4e487b7100000000000000000000000000000000000000000000000000000000600052603260045260246000fd5b90600052602060002001805461180c90615a5d565b80601f016020809104026020016040519081016040528092919081815260200182805461183890615a5d565b80156118855780601f1061185a57610100808354040283529160200191611885565b820191906000526020600020905b81548152906001019060200180831161186857829003601f168201915b5050505050866146a4565b1561189a57600192505b80806118a590615a8f565b915050611771565b508192505050919050565b60606001600083815260200190815260200160002080546118d890615a5d565b80601f016020809104026020016040519081016040528092919081815260200182805461190490615a5d565b80156119515780601f1061192657610100808354040283529160200191611951565b820191906000526020600020905b81548152906001019060200180831161193457829003601f168201915b50505050509050919050565b600080600083815260200190815260200160002060009054906101000a900473ffffffffffffffffffffffffffffffffffffffff169050919050565b60006004600083815260200190815260200160002060009054906101000a900460ff169050919050565b60606000805b600e54811015611a8c57600115156003600083815260200190815260200160002060009054906101000a900460ff161515148015611a6557508373ffffffffffffffffffffffffffffffffffffffff1660008083815260200190815260200160002060009054906101000a900473ffffffffffffffffffffffffffffffffffffffff1673ffffffffffffffffffffffffffffffffffffffff1614155b15611a79578180611a7590615a8f565b9250505b8080611a8490615a8f565b9150506119c9565b5060008167ffffffffffffffff811115611acf577f4e487b7100000000000000000000000000000000000000000000000000000000600052604160045260246000fd5b604051908082528060200260200182016040528015611afd5781602001602082028036833780820191505090505b5090506000915060005b600e54811015611c1057600115156003600083815260200190815260200160002060009054906101000a900460ff161515148015611ba357508473ffffffffffffffffffffffffffffffffffffffff1660008083815260200190815260200160002060009054906101000a900473ffffffffffffffffffffffffffffffffffffffff1673ffffffffffffffffffffffffffffffffffffffff1614155b15611bfd5780828481518110611be2577f4e487b7100000000000000000000000000000000000000000000000000000000600052603260045260246000fd5b6020026020010181815250508280611bf990615a8f565b9350505b8080611c0890615a8f565b915050611b07565b508092505050919050565b60603373ffffffffffffffffffffffffffffffffffffffff16600d60009054906101000a900473ffffffffffffffffffffffffffffffffffffffff1673ffffffffffffffffffffffffffffffffffffffff1614611cad576040517f08c379a0000000000000000000000000000000000000000000000000000000008152600401611ca49061561e565b60405180910390fd5b6014543373ffffffffffffffffffffffffffffffffffffffff16311015611d09576040517f08c379a0000000000000000000000000000000000000000000000000000000008152600401611d00906155de565b60405180910390fd5b6000601054600f54611d1b9190615975565b67ffffffffffffffff811115611d5a577f4e487b7100000000000000000000000000000000000000000000000000000000600052604160045260246000fd5b604051908082528060200260200182016040528015611d8d57816020015b6060815260200190600190039081611d785790505b509050600060128054905090506000606060005b83811015611eed5760128181548110611de3577f4e487b7100000000000000000000000000000000000000000000000000000000600052603260045260246000fd5b906000526020600020018054611df890615a5d565b80601f0160208091040260200160405190810160405280929190818152602001828054611e2490615a5d565b8015611e715780601f10611e4657610100808354040283529160200191611e71565b820191906000526020600020905b815481529060010190602001808311611e5457829003601f168201915b50505050509150611e8182613b7f565b15611eda5781858481518110611ec0577f4e487b7100000000000000000000000000000000000000000000000000000000600052603260045260246000fd5b60200260200101819052508280611ed690615a8f565b9350505b8080611ee590615a8f565b915050611da1565b508394505050505090565b611f0182612d95565b611f40576040517f08c379a0000000000000000000000000000000000000000000000000000000008152600401611f379061567e565b60405180910390fd5b611f4981613b7f565b611f5257600080fd5b611f5b8161175a565b611f9a576040517f08c379a0000000000000000000000000000000000000000000000000000000008152600401611f919061563e565b60405180910390fd5b81600080600e54815260200190815260200160002060006101000a81548173ffffffffffffffffffffffffffffffffffffffff021916908373ffffffffffffffffffffffffffffffffffffffff1602179055506000600960008473ffffffffffffffffffffffffffffffffffffffff1673ffffffffffffffffffffffffffffffffffffffff168152602001908152602001600020600e5490806001815401808255809150506001900390600052602060002001600090919091909150556001600960008573ffffffffffffffffffffffffffffffffffffffff1673ffffffffffffffffffffffffffffffffffffffff168152602001908152602001600020805490506120a69190615975565b905080600a6000600e548152602001908152602001600020819055508160016000600e54815260200190815260200160002090805190602001906120eb929190614869565b5060155460026000600e54815260200190815260200160002081905550600060036000600e54815260200190815260200160002060006101000a81548160ff021916908315150217905550600e600081548092919061214990615a8f565b9190505550505050565b3373ffffffffffffffffffffffffffffffffffffffff16600d60009054906101000a900473ffffffffffffffffffffffffffffffffffffffff1673ffffffffffffffffffffffffffffffffffffffff16146121e3576040517f08c379a00000000000000000000000000000000000000000000000000000000081526004016121da9061561e565b60405180910390fd5b6014543373ffffffffffffffffffffffffffffffffffffffff1631101561223f576040517f08c379a0000000000000000000000000000000000000000000000000000000008152600401612236906155de565b60405180910390fd5b60008151905060005b818110156123fb576001151561229d848381518110612290577f4e487b7100000000000000000000000000000000000000000000000000000000600052603260045260246000fd5b6020026020010151613b7f565b151514156122e0576040517f08c379a00000000000000000000000000000000000000000000000000000000081526004016122d7906156fe565b60405180910390fd5b6003600784838151811061231d577f4e487b7100000000000000000000000000000000000000000000000000000000600052603260045260246000fd5b6020026020010151604051612332919061546b565b908152602001604051809103902060009054906101000a900460ff1660ff161415612370576011600081548092919061236a90615a33565b91905055505b600260078483815181106123ad577f4e487b7100000000000000000000000000000000000000000000000000000000600052603260045260246000fd5b60200260200101516040516123c2919061546b565b908152602001604051809103902060006101000a81548160ff021916908360ff16021790555080806123f390615a8f565b915050612248565b505050565b3373ffffffffffffffffffffffffffffffffffffffff16600d60009054906101000a900473ffffffffffffffffffffffffffffffffffffffff1673ffffffffffffffffffffffffffffffffffffffff1614612490576040517f08c379a00000000000000000000000000000000000000000000000000000000081526004016124879061561e565b60405180910390fd5b6014543373ffffffffffffffffffffffffffffffffffffffff163110156124ec576040517f08c379a00000000000000000000000000000000000000000000000000000000081526004016124e3906155de565b60405180910390fd5b60008151905060005b81811015612630576003600784838151811061253a577f4e487b7100000000000000000000000000000000000000000000000000000000600052603260045260246000fd5b602002602001015160405161254f919061546b565b908152602001604051809103902060009054906101000a900460ff1660ff16141561261d57600160078483815181106125b1577f4e487b7100000000000000000000000000000000000000000000000000000000600052603260045260246000fd5b60200260200101516040516125c6919061546b565b908152602001604051809103902060006101000a81548160ff021916908360ff160217905550601160008154809291906125ff90615a33565b91905055506010600081548092919061261790615a33565b91905055505b808061262890615a8f565b9150506124f5565b505050565b600030905090565b60603373ffffffffffffffffffffffffffffffffffffffff16600d60009054906101000a900473ffffffffffffffffffffffffffffffffffffffff1673ffffffffffffffffffffffffffffffffffffffff16146126cf576040517f08c379a00000000000000000000000000000000000000000000000000000000081526004016126c69061561e565b60405180910390fd5b6014543373ffffffffffffffffffffffffffffffffffffffff1631101561272b576040517f08c379a0000000000000000000000000000000000000000000000000000000008152600401612722906155de565b60405180910390fd5b600060115467ffffffffffffffff81111561276f577f4e487b7100000000000000000000000000000000000000000000000000000000600052604160045260246000fd5b6040519080825280602002602001820160405280156127a257816020015b606081526020019060019003908161278d5790505b509050600080601280549050905060005b818110156129685760036007601283815481106127f9577f4e487b7100000000000000000000000000000000000000000000000000000000600052603260045260246000fd5b906000526020600020016040516128109190615482565b908152602001604051809103902060009054906101000a900460ff1660ff161415612955576012818154811061286f577f4e487b7100000000000000000000000000000000000000000000000000000000600052603260045260246000fd5b90600052602060002001805461288490615a5d565b80601f01602080910402602001604051908101604052809291908181526020018280546128b090615a5d565b80156128fd5780601f106128d2576101008083540402835291602001916128fd565b820191906000526020600020905b8154815290600101906020018083116128e057829003601f168201915b505050505084848151811061293b577f4e487b7100000000000000000000000000000000000000000000000000000000600052603260045260246000fd5b6020026020010181905250828061295190615a8f565b9350505b808061296090615a8f565b9150506127b3565b5082935050505090565b6060600080600860008573ffffffffffffffffffffffffffffffffffffffff1673ffffffffffffffffffffffffffffffffffffffff1681526020019081526020016000208054905090506000811415612a3e57600067ffffffffffffffff811115612a06577f4e487b7100000000000000000000000000000000000000000000000000000000600052604160045260246000fd5b604051908082528060200260200182016040528015612a345781602001602082028036833780820191505090505b5092505050612d90565b60005b81811015612af657600f54600860008773ffffffffffffffffffffffffffffffffffffffff1673ffffffffffffffffffffffffffffffffffffffff1681526020019081526020016000208281548110612ac3577f4e487b7100000000000000000000000000000000000000000000000000000000600052603260045260246000fd5b90600052602060002001541015612ae3578280612adf90615a8f565b9350505b8080612aee90615a8f565b915050612a41565b5080821415612b9657600860008573ffffffffffffffffffffffffffffffffffffffff1673ffffffffffffffffffffffffffffffffffffffff168152602001908152602001600020805480602002602001604051908101604052809291908181526020018280548015612b8857602002820191906000526020600020905b815481526020019060010190808311612b74575b505050505092505050612d90565b60008267ffffffffffffffff811115612bd8577f4e487b7100000000000000000000000000000000000000000000000000000000600052604160045260246000fd5b604051908082528060200260200182016040528015612c065781602001602082028036833780820191505090505b50905060005b82811015612d8857600f54600860008873ffffffffffffffffffffffffffffffffffffffff1673ffffffffffffffffffffffffffffffffffffffff1681526020019081526020016000208281548110612c8e577f4e487b7100000000000000000000000000000000000000000000000000000000600052603260045260246000fd5b90600052602060002001541015612d7557600860008773ffffffffffffffffffffffffffffffffffffffff1673ffffffffffffffffffffffffffffffffffffffff1681526020019081526020016000208181548110612d16577f4e487b7100000000000000000000000000000000000000000000000000000000600052603260045260246000fd5b9060005260206000200154828581518110612d5a577f4e487b7100000000000000000000000000000000000000000000000000000000600052603260045260246000fd5b6020026020010181815250508380612d7190615a33565b9450505b8080612d8090615a8f565b915050612c0c565b508093505050505b919050565b600080600860008473ffffffffffffffffffffffffffffffffffffffff1673ffffffffffffffffffffffffffffffffffffffff1681526020019081526020016000208054905014159050919050565b612e88600160008581526020019081526020016000208054612e0590615a5d565b80601f0160208091040260200160405190810160405280929190818152602001828054612e3190615a5d565b8015612e7e5780601f10612e5357610100808354040283529160200191612e7e565b820191906000526020600020905b815481529060010190602001808311612e6157829003601f168201915b505050505061175a565b612e9157600080fd5b81612ec35781156004600085815260200190815260200160002060006101000a81548160ff0219169083151502179055505b60008114612ee4578060056000858152602001908152602001600020819055505b505050565b60016020528060005260406000206000915090508054612f0890615a5d565b80601f0160208091040260200160405190810160405280929190818152602001828054612f3490615a5d565b8015612f815780601f10612f5657610100808354040283529160200191612f81565b820191906000526020600020905b815481529060010190602001808311612f6457829003601f168201915b505050505081565b600060026000838152602001908152602001600020549050919050565b60026020528060005260406000206000915090505481565b60006003600083815260200190815260200160002060009054906101000a900460ff169050919050565b600061309060016000600e548152602001908152602001600020805461300d90615a5d565b80601f016020809104026020016040519081016040528092919081815260200182805461303990615a5d565b80156130865780601f1061305b57610100808354040283529160200191613086565b820191906000526020600020905b81548152906001019060200180831161306957829003601f168201915b50505050506146fd565b905060008083815260200190815260200160002060009054906101000a900473ffffffffffffffffffffffffffffffffffffffff1673ffffffffffffffffffffffffffffffffffffffff163373ffffffffffffffffffffffffffffffffffffffff16148061314b5750600d60009054906101000a900473ffffffffffffffffffffffffffffffffffffffff1673ffffffffffffffffffffffffffffffffffffffff163373ffffffffffffffffffffffffffffffffffffffff16145b8061318157508073ffffffffffffffffffffffffffffffffffffffff163373ffffffffffffffffffffffffffffffffffffffff16145b80156131c057504260056000848152602001908152602001600020541080156131bf5750600060056000600e54815260200190815260200160002054115b5b6131ff576040517f08c379a00000000000000000000000000000000000000000000000000000000081526004016131f6906156be565b60405180910390fd5b600060026000848152602001908152602001600020549050600060026000600e5481526020019081526020016000208190555061323d338385611405565b8060026000600e54815260200190815260200160002081905550505050565b61326581613b7f565b6132a4576040517f08c379a000000000000000000000000000000000000000000000000000000000815260040161329b9061573e565b60405180910390fd5b6132ad33612d95565b6132ec576040517f08c379a00000000000000000000000000000000000000000000000000000000081526004016132e3906156de565b60405180910390fd5b33600080600e54815260200190815260200160002060006101000a81548173ffffffffffffffffffffffffffffffffffffffff021916908373ffffffffffffffffffffffffffffffffffffffff1602179055506000600960003373ffffffffffffffffffffffffffffffffffffffff1673ffffffffffffffffffffffffffffffffffffffff168152602001908152602001600020600e5490806001815401808255809150506001900390600052602060002001600090919091909150556001600960003373ffffffffffffffffffffffffffffffffffffffff1673ffffffffffffffffffffffffffffffffffffffff168152602001908152602001600020805490506133f89190615975565b905080600a6000600e548152602001908152602001600020819055508160016000600e548152602001908152602001600020908051906020019061343d929190614869565b5060155460026000600e54815260200190815260200160002081905550600060036000600e54815260200190815260200160002060006101000a81548160ff021916908315150217905550600060046000600e54815260200190815260200160002060006101000a81548160ff021916908315150217905550600060056000600e54815260200190815260200160002081905550600e60008154809291906134e490615a8f565b91905055505050565b600115156003600083815260200190815260200160002060009054906101000a900460ff16151514613554576040517f08c379a000000000000000000000000000000000000000000000000000000000815260040161354b9061557e565b60405180910390fd5b61359160008083815260200190815260200160002060009054906101000a900473ffffffffffffffffffffffffffffffffffffffff163383611405565b60006005600083815260200190815260200160002054146135e3576005600082815260200190815260200160002054426135cb91906158c5565b60066000838152602001908152602001600020819055505b60006003600083815260200190815260200160002060006101000a81548160ff02191690831515021790555050565b60606000600960008473ffffffffffffffffffffffffffffffffffffffff1673ffffffffffffffffffffffffffffffffffffffff1681526020019081526020016000208054905090506000811115613ae2576000805b828110156137fe57600060066000600960008973ffffffffffffffffffffffffffffffffffffffff1673ffffffffffffffffffffffffffffffffffffffff16815260200190815260200160002084815481106136ed577f4e487b7100000000000000000000000000000000000000000000000000000000600052603260045260246000fd5b906000526020600020015481526020019081526020016000205414806137a757504260066000600960008973ffffffffffffffffffffffffffffffffffffffff1673ffffffffffffffffffffffffffffffffffffffff168152602001908152602001600020848154811061378a577f4e487b7100000000000000000000000000000000000000000000000000000000600052603260045260246000fd5b906000526020600020015481526020019081526020016000205410155b806137d75750600115156004600083815260200190815260200160002060009054906101000a900460ff16151515145b156137eb5781806137e790615a8f565b9250505b80806137f690615a8f565b915050613668565b5060008167ffffffffffffffff811115613841577f4e487b7100000000000000000000000000000000000000000000000000000000600052604160045260246000fd5b60405190808252806020026020018201604052801561386f5781602001602082028036833780820191505090505b5090506000915060005b83811015613ad657600060066000600960008a73ffffffffffffffffffffffffffffffffffffffff1673ffffffffffffffffffffffffffffffffffffffff16815260200190815260200160002084815481106138fe577f4e487b7100000000000000000000000000000000000000000000000000000000600052603260045260246000fd5b906000526020600020015481526020019081526020016000205414806139b857504260066000600960008a73ffffffffffffffffffffffffffffffffffffffff1673ffffffffffffffffffffffffffffffffffffffff168152602001908152602001600020848154811061399b577f4e487b7100000000000000000000000000000000000000000000000000000000600052603260045260246000fd5b906000526020600020015481526020019081526020016000205410155b806139e85750600115156004600083815260200190815260200160002060009054906101000a900460ff16151515145b15613ac357600960008773ffffffffffffffffffffffffffffffffffffffff1673ffffffffffffffffffffffffffffffffffffffff1681526020019081526020016000208181548110613a64577f4e487b7100000000000000000000000000000000000000000000000000000000600052603260045260246000fd5b9060005260206000200154828481518110613aa8577f4e487b7100000000000000000000000000000000000000000000000000000000600052603260045260246000fd5b6020026020010181815250508280613abf90615a8f565b9350505b8080613ace90615a8f565b915050613879565b50809350505050613b7a565b6000600960008573ffffffffffffffffffffffffffffffffffffffff1673ffffffffffffffffffffffffffffffffffffffff168152602001908152602001600020805480602002602001604051908101604052809291908181526020018280548015613b6d57602002820191906000526020600020905b815481526020019060010190808311613b59575b5050505050905080925050505b919050565b60006001600783604051613b93919061546b565b908152602001604051809103902060009054906101000a900460ff1660ff16149050919050565b600080600960008473ffffffffffffffffffffffffffffffffffffffff1673ffffffffffffffffffffffffffffffffffffffff16815260200190815260200160002080549050905080915050919050565b3373ffffffffffffffffffffffffffffffffffffffff1660008083815260200190815260200160002060009054906101000a900473ffffffffffffffffffffffffffffffffffffffff1673ffffffffffffffffffffffffffffffffffffffff1614613cab576040517f08c379a0000000000000000000000000000000000000000000000000000000008152600401613ca29061555e565b60405180910390fd5b613d4f600160008381526020019081526020016000208054613ccc90615a5d565b80601f0160208091040260200160405190810160405280929190818152602001828054613cf890615a5d565b8015613d455780601f10613d1a57610100808354040283529160200191613d45565b820191906000526020600020905b815481529060010190602001808311613d2857829003601f168201915b505050505061175a565b613dbb57600015156004600083815260200190815260200160002060009054906101000a900460ff16151514613dba576040517f08c379a0000000000000000000000000000000000000000000000000000000008152600401613db19061555e565b60405180910390fd5b5b60016003600083815260200190815260200160002060006101000a81548160ff02191690831515021790555050565b6000600e54905090565b600060066000838152602001908152602001600020549050919050565b3373ffffffffffffffffffffffffffffffffffffffff1660008083815260200190815260200160002060009054906101000a900473ffffffffffffffffffffffffffffffffffffffff1673ffffffffffffffffffffffffffffffffffffffff1614613eb1576040517f08c379a0000000000000000000000000000000000000000000000000000000008152600401613ea89061569e565b60405180910390fd5b60155482613ebf919061591b565b60026000838152602001908152602001600020819055505050565b613ee384613b7f565b613f22576040517f08c379a0000000000000000000000000000000000000000000000000000000008152600401613f199061573e565b60405180910390fd5b613f2b33612d95565b613f6a576040517f08c379a0000000000000000000000000000000000000000000000000000000008152600401613f61906156de565b60405180910390fd5b613f738461175a565b613fb2576040517f08c379a0000000000000000000000000000000000000000000000000000000008152600401613fa99061563e565b60405180910390fd5b33600080600e54815260200190815260200160002060006101000a81548173ffffffffffffffffffffffffffffffffffffffff021916908373ffffffffffffffffffffffffffffffffffffffff1602179055506000600960003373ffffffffffffffffffffffffffffffffffffffff1673ffffffffffffffffffffffffffffffffffffffff168152602001908152602001600020600e5490806001815401808255809150506001900390600052602060002001600090919091909150556001600960003373ffffffffffffffffffffffffffffffffffffffff1673ffffffffffffffffffffffffffffffffffffffff168152602001908152602001600020805490506140be9190615975565b905080600a6000600e548152602001908152602001600020819055508460016000600e5481526020019081526020016000209080519060200190614103929190614869565b5060155460026000600e548152602001908152602001600020819055508160036000600e54815260200190815260200160002060006101000a81548160ff0219169083151502179055508361418157831560046000600e54815260200190815260200160002060006101000a81548160ff0219169083151502179055505b600083146141a4578260056000600e548152602001908152602001600020819055505b600e60008154809291906141b790615a8f565b91905055505050505050565b60036020528060005260406000206000915054906101000a900460ff1681565b600080600a6000848152602001908152602001600020549150600960008673ffffffffffffffffffffffffffffffffffffffff1673ffffffffffffffffffffffffffffffffffffffff16815260200190815260200160002080549050905060008167ffffffffffffffff811115614283577f4e487b7100000000000000000000000000000000000000000000000000000000600052604160045260246000fd5b6040519080825280602002602001820160405280156142b15781602001602082028036833780820191505090505b509050600960008773ffffffffffffffffffffffffffffffffffffffff1673ffffffffffffffffffffffffffffffffffffffff16815260200190815260200160002080548060200260200160405190810160405280929190818152602001828054801561433d57602002820191906000526020600020905b815481526020019060010190808311614329575b5050505050905060006001836143539190615975565b67ffffffffffffffff811115614392577f4e487b7100000000000000000000000000000000000000000000000000000000600052604160045260246000fd5b6040519080825280602002602001820160405280156143c05781602001602082028036833780820191505090505b50905060005b8481101561446757828181518110614407577f4e487b7100000000000000000000000000000000000000000000000000000000600052603260045260246000fd5b6020026020010151828281518110614448577f4e487b7100000000000000000000000000000000000000000000000000000000600052603260045260246000fd5b602002602001018181525050808061445f90615a8f565b9150506143c6565b50600082519050600060018661447d91906158c5565b90505b8181101561452d578381815181106144c1577f4e487b7100000000000000000000000000000000000000000000000000000000600052603260045260246000fd5b6020026020010151836001836144d79190615975565b8151811061450e577f4e487b7100000000000000000000000000000000000000000000000000000000600052603260045260246000fd5b602002602001018181525050808061452590615a8f565b915050614480565b50600082519050818110614576576040517f08c379a000000000000000000000000000000000000000000000000000000000815260040161456d9061565e565b60405180910390fd5b82600960008b73ffffffffffffffffffffffffffffffffffffffff1673ffffffffffffffffffffffffffffffffffffffff16815260200190815260200160002090805190602001906145c99291906148ef565b50600960008973ffffffffffffffffffffffffffffffffffffffff1673ffffffffffffffffffffffffffffffffffffffff1681526020019081526020016000208790806001815401808255809150506001900390600052602060002001600090919091909150556001600960008a73ffffffffffffffffffffffffffffffffffffffff1673ffffffffffffffffffffffffffffffffffffffff1681526020019081526020016000208054905061467f9190615975565b955085600a600089815260200190815260200160002081905550505050505050505050565b6000816040516020016146b7919061546b565b60405160208183030381529060405280519060200120836040516020016146de919061546b565b6040516020818303038152906040528051906020012014905092915050565b600080601280549050905060005b81811015614861576147e960128281548110614750577f4e487b7100000000000000000000000000000000000000000000000000000000600052603260045260246000fd5b90600052602060002001805461476590615a5d565b80601f016020809104026020016040519081016040528092919081815260200182805461479190615a5d565b80156147de5780601f106147b3576101008083540402835291602001916147de565b820191906000526020600020905b8154815290600101906020018083116147c157829003601f168201915b5050505050856146a4565b1561485c5760138181548110614828577f4e487b7100000000000000000000000000000000000000000000000000000000600052603260045260246000fd5b9060005260206000200160009054906101000a900473ffffffffffffffffffffffffffffffffffffffff1692505050614864565b61470b565b50505b919050565b82805461487590615a5d565b90600052602060002090601f01602090048101928261489757600085556148de565b82601f106148b057805160ff19168380011785556148de565b828001600101855582156148de579182015b828111156148dd5782518255916020019190600101906148c2565b5b5090506148eb919061493c565b5090565b82805482825590600052602060002090810192821561492b579160200282015b8281111561492a57825182559160200191906001019061490f565b5b509050614938919061493c565b5090565b5b8082111561495557600081600090555060010161493d565b5090565b600061496c614967846157aa565b615779565b9050808382526020820190508260005b858110156149ac57813585016149928882614a48565b84526020840193506020830192505060018101905061497c565b5050509392505050565b60006149c96149c4846157d6565b615779565b9050828152602081018484840111156149e157600080fd5b6149ec8482856159f1565b509392505050565b600081359050614a0381615b76565b92915050565b600082601f830112614a1a57600080fd5b8135614a2a848260208601614959565b91505092915050565b600081359050614a4281615b8d565b92915050565b600082601f830112614a5957600080fd5b8135614a698482602086016149b6565b91505092915050565b600081359050614a8181615ba4565b92915050565b600060208284031215614a9957600080fd5b6000614aa7848285016149f4565b91505092915050565b600080600060608486031215614ac557600080fd5b6000614ad3868287016149f4565b9350506020614ae4868287016149f4565b9250506040614af586828701614a72565b9150509250925092565b60008060408385031215614b1257600080fd5b6000614b20858286016149f4565b925050602083013567ffffffffffffffff811115614b3d57600080fd5b614b4985828601614a48565b9150509250929050565b600060208284031215614b6557600080fd5b600082013567ffffffffffffffff811115614b7f57600080fd5b614b8b84828501614a09565b91505092915050565b600060208284031215614ba657600080fd5b600082013567ffffffffffffffff811115614bc057600080fd5b614bcc84828501614a48565b91505092915050565b60008060008060808587031215614beb57600080fd5b600085013567ffffffffffffffff811115614c0557600080fd5b614c1187828801614a48565b9450506020614c2287828801614a33565b9350506040614c3387828801614a72565b9250506060614c4487828801614a33565b91505092959194509250565b600060208284031215614c6257600080fd5b6000614c7084828501614a72565b91505092915050565b600080600060608486031215614c8e57600080fd5b6000614c9c86828701614a72565b9350506020614cad86828701614a33565b9250506040614cbe86828701614a72565b9150509250925092565b60008060408385031215614cdb57600080fd5b6000614ce985828601614a72565b9250506020614cfa85828601614a72565b9150509250929050565b6000614d108383614e21565b905092915050565b6000614d24838361544d565b60208301905092915050565b614d39816159a9565b82525050565b6000614d4a8261583b565b614d548185615876565b935083602082028501614d6685615806565b8060005b85811015614da25784840389528151614d838582614d04565b9450614d8e8361585c565b925060208a01995050600181019050614d6a565b50829750879550505050505092915050565b6000614dbf82615846565b614dc98185615887565b9350614dd483615816565b8060005b83811015614e05578151614dec8882614d18565b9750614df783615869565b925050600181019050614dd8565b5085935050505092915050565b614e1b816159bb565b82525050565b6000614e2c82615851565b614e368185615898565b9350614e46818560208601615a00565b614e4f81615b65565b840191505092915050565b6000614e6582615851565b614e6f81856158a9565b9350614e7f818560208601615a00565b614e8881615b65565b840191505092915050565b6000614e9e82615851565b614ea881856158ba565b9350614eb8818560208601615a00565b80840191505092915050565b60008154614ed181615a5d565b614edb81866158ba565b94506001821660008114614ef65760018114614f0757614f3a565b60ff19831686528186019350614f3a565b614f1085615826565b60005b83811015614f3257815481890152600182019150602081019050614f13565b838801955050505b50505092915050565b6000614f50601f836158a9565b91507f596f75206f6e6c792063616e2073656c6c20737475666620796f75206f776e006000830152602082019050919050565b6000614f906028836158a9565b91507f596f75206f6e6c792063616e20627579204e465473206d61726b65642061732060008301527f73656c6c61626c650000000000000000000000000000000000000000000000006020830152604082019050919050565b6000614ff66024836158a9565b91507f4164647265737320646f6573206e6f7420686f6c64207370656369666963207460008301527f6f6b656e000000000000000000000000000000000000000000000000000000006020830152604082019050919050565b600061505c6010836158a9565b91507f4e6f7420612044617461204f776e6572000000000000000000000000000000006000830152602082019050919050565b600061509c601d836158a9565b91507f506c656173652070726f76696465207375666669656e742046756e64730000006000830152602082019050919050565b60006150dc6019836158a9565b91507f506f696e74657220697320616c726561647920696e20757365000000000000006000830152602082019050919050565b600061511c6039836158a9565b91507f54686973204f7065726174696f6e2063616e206f6e6c7920626520616363657360008301527f7365642062792074686520636f6e7472616374206f776e6572000000000000006020830152604082019050919050565b6000615182601b836158a9565b91507f596f7520646f206e6f74206f776e207468697320706f696e74657200000000006000830152602082019050919050565b60006151c2603e836158a9565b91507f41727261797320617265206f6620657175616c2073697a6520616e642073756760008301527f676573742074686174206e6f7468696e67206d7563682068617070656e6400006020830152604082019050919050565b60006152286018836158a9565b91507f4e6f204163636f756e74207769746820746869732048756200000000000000006000830152602082019050919050565b60006152686036836158a9565b91507f54686973204f7065726174696f6e2063616e206f6e6c7920626520616363657360008301527f7365642062792074686520546f6b656e204f776e6572000000000000000000006020830152604082019050919050565b60006152ce601c836158a9565b91507f52657475726e20796f7572206f776e20546f6b656e2c2050756e6b21000000006000830152602082019050919050565b600061530e602e836158a9565b91507f596f752068617665206e6f742073756666696369656e7420726967687473206660008301527f6f72207468697320616374696f6e0000000000000000000000000000000000006020830152604082019050919050565b6000615374601c836158a9565b91507f506f696e74657220697320616c726561647920756e75736561626c65000000006000830152602082019050919050565b60006153b4601f836158a9565b91507f506c656173652070726f766964652073756666696369656e742066756e6473006000830152602082019050919050565b60006153f4602d836158a9565b91507f50726f766964656420506f696e74657220646f6573206e6f742065786973742060008301527f7769746820636f6e7472616374000000000000000000000000000000000000006020830152604082019050919050565b615456816159e7565b82525050565b615465816159e7565b82525050565b60006154778284614e93565b915081905092915050565b600061548e8284614ec4565b915081905092915050565b60006020820190506154ae6000830184614d30565b92915050565b60006040820190506154c96000830185614d30565b6154d6602083018461545c565b9392505050565b600060208201905081810360008301526154f78184614d3f565b905092915050565b600060208201905081810360008301526155198184614db4565b905092915050565b60006020820190506155366000830184614e12565b92915050565b600060208201905081810360008301526155568184614e5a565b905092915050565b6000602082019050818103600083015261557781614f43565b9050919050565b6000602082019050818103600083015261559781614f83565b9050919050565b600060208201905081810360008301526155b781614fe9565b9050919050565b600060208201905081810360008301526155d78161504f565b9050919050565b600060208201905081810360008301526155f78161508f565b9050919050565b60006020820190508181036000830152615617816150cf565b9050919050565b600060208201905081810360008301526156378161510f565b9050919050565b6000602082019050818103600083015261565781615175565b9050919050565b60006020820190508181036000830152615677816151b5565b9050919050565b600060208201905081810360008301526156978161521b565b9050919050565b600060208201905081810360008301526156b78161525b565b9050919050565b600060208201905081810360008301526156d7816152c1565b9050919050565b600060208201905081810360008301526156f781615301565b9050919050565b6000602082019050818103600083015261571781615367565b9050919050565b60006020820190508181036000830152615737816153a7565b9050919050565b60006020820190508181036000830152615757816153e7565b9050919050565b6000602082019050615773600083018461545c565b92915050565b6000604051905081810181811067ffffffffffffffff821117156157a05761579f615b36565b5b8060405250919050565b600067ffffffffffffffff8211156157c5576157c4615b36565b5b602082029050602081019050919050565b600067ffffffffffffffff8211156157f1576157f0615b36565b5b601f19601f8301169050602081019050919050565b6000819050602082019050919050565b6000819050602082019050919050565b60008190508160005260206000209050919050565b600081519050919050565b600081519050919050565b600081519050919050565b6000602082019050919050565b6000602082019050919050565b600082825260208201905092915050565b600082825260208201905092915050565b600082825260208201905092915050565b600082825260208201905092915050565b600081905092915050565b60006158d0826159e7565b91506158db836159e7565b9250827fffffffffffffffffffffffffffffffffffffffffffffffffffffffffffffffff038211156159105761590f615ad8565b5b828201905092915050565b6000615926826159e7565b9150615931836159e7565b9250817fffffffffffffffffffffffffffffffffffffffffffffffffffffffffffffffff048311821515161561596a57615969615ad8565b5b828202905092915050565b6000615980826159e7565b915061598b836159e7565b92508282101561599e5761599d615ad8565b5b828203905092915050565b60006159b4826159c7565b9050919050565b60008115159050919050565b600073ffffffffffffffffffffffffffffffffffffffff82169050919050565b6000819050919050565b82818337600083830152505050565b60005b83811015615a1e578082015181840152602081019050615a03565b83811115615a2d576000848401525b50505050565b6000615a3e826159e7565b91506000821415615a5257615a51615ad8565b5b600182039050919050565b60006002820490506001821680615a7557607f821691505b60208210811415615a8957615a88615b07565b5b50919050565b6000615a9a826159e7565b91507fffffffffffffffffffffffffffffffffffffffffffffffffffffffffffffffff821415615acd57615acc615ad8565b5b600182019050919050565b7f4e487b7100000000000000000000000000000000000000000000000000000000600052601160045260246000fd5b7f4e487b7100000000000000000000000000000000000000000000000000000000600052602260045260246000fd5b7f4e487b7100000000000000000000000000000000000000000000000000000000600052604160045260246000fd5b6000601f19601f8301169050919050565b615b7f816159a9565b8114615b8a57600080fd5b50565b615b96816159bb565b8114615ba157600080fd5b50565b615bad816159e7565b8114615bb857600080fd5b5056fea2646970667358221220492ff74090d98304edf5d4a25c382084c6a089cc02807b7abf939b1e634e32a964736f6c63430008000033",
  "immutableReferences": {},
  "source": "// SPDX-License-Identifier: UNLICENSED\npragma solidity ^0.8.0;\n\ncontract nexyohub {\n//The actual NFT\n  mapping(uint => address) public owners;\n  mapping(uint => string) public pointers;\n  mapping(uint => uint) public prices;\n  mapping(uint => bool) public sellable;\n//Contract capabilities to make the app possible\n  mapping(uint => bool) private resell;\n  mapping(uint => uint) private clock;\n  mapping(uint => uint) private expirer;\n  mapping(string => uint8) private pointerExists; //Keeps Track of Pointer Status. 0 Does not exists, 1 Pointer is useable, 2 Pointer was revoked, 3 Pointer still needs Owner approval.\n  mapping(address => uint[]) private DataOwners; //Tracks the Pointers owned by a specific address\n  mapping(address => uint[]) private OwnerShip; //Tracks NFT Ownership for fast ownership requests\n  mapping(uint => uint) private NFTArrayPos; //Tracks NFT postion in Ownership Array for fast ownership requests\n  string name_;\n  string sign_;\n  address payable owner;\n  uint token_id=0;\n  uint pointer_id=0;\n  uint pointer_uid=0;\n  uint pointerstoapprove=0;\n  string[] pointerarray; //I don't like how this is structured. It really needs a rework!\n  address[] PointerOwners; //Same here! Also this makes it practacally impossible to use a revoked Pointer by another User...\n\n  uint _minstake=32000000000000000000;\n  uint stdPrice=1000000000000000000;\n\n  constructor(string memory _name) { //sign_ will get an option too!\n    require(msg.sender.balance >= _minstake, 'Please provide suffient Funds');\n    name_=_name;\n    sign_='NXNFT';\n    owner=payable(msg.sender);\n  }\n\n  modifier onlyOwner {\n    require(owner==msg.sender, 'This Operation can only be accessed by the contract owner');\n    require(msg.sender.balance >= _minstake, 'Please provide suffient Funds');\n    _;\n  }\n\n  modifier onlyContract {\n    require(address(this)==msg.sender, 'The function you are trying to enter is prohibited');\n    _;\n  }\n\n  event Transfer(address indexed _from, address indexed _to, uint256 indexed _tokenId);\n  event Approval(address indexed _owner, address indexed _approved, uint256 indexed _tokenId);\n  event ApprovalForAll(address indexed _owner, address indexed _operator, bool _approved);\n  event contracttookmymoney(address thisContract, uint myMoney);\n\n  receive () external payable {\n      emit contracttookmymoney(address(this), msg.value);\n  }\n  //This sets the value to a key in the mapping pointerExists to one which represents the existens of a pointer. Furthermore the pointer it self is added to an array of pointers.\n  function makePointer (string memory pointer) public {\n      require(DataOwners[msg.sender].length>0 || msg.sender==owner, 'Not a Data Owner');\n      require(pointerExists[pointer]!=1 && pointerExists[pointer]!=3,'Pointer is already in use');\n      if (pointerExists[pointer]==0) {\n        if (msg.sender==owner) {\n          pointerExists[pointer]=1;\n        } else {\n          pointerExists[pointer]=3;\n          pointerstoapprove++;\n          pointer_uid++;\n        }\n        pointerarray.push(pointer);\n        PointerOwners.push(msg.sender);\n        if (DataOwners[msg.sender].length>0) {\n          if (DataOwners[msg.sender][0]>pointer_id) { //checks if first entry is approval entry\n            DataOwners[msg.sender][0]=pointer_id;\n          } else {\n            DataOwners[msg.sender].push(pointer_id);\n          }\n        } else {\n          DataOwners[msg.sender].push(pointer_id);\n        }\n        pointer_id++;\n      } else {\n        pointerExists[pointer]=1;\n        pointer_uid--;\n      }\n  }\n\n  function revokePointers (string[] memory _pointers) public onlyOwner {\n    uint len=_pointers.length;\n    for (uint i=0;i<len;i++) {\n      require(isPointerthere(_pointers[i])!=true,'Pointer is already unuseable');\n      if(pointerExists[_pointers[i]]==3) {\n        pointerstoapprove--;}\n      pointerExists[_pointers[i]]=2;\n    }\n  }\n\n  function approvePointers (string[] memory _pointers) public onlyOwner {\n    uint len=_pointers.length;\n    for (uint i=0;i<len;i++) {\n      if(pointerExists[_pointers[i]]==3){\n        pointerExists[_pointers[i]]=1;\n        pointerstoapprove--;\n        pointer_uid--;\n      }\n    }\n  }\n\n  function mint_to (address newowner, string memory pointer) public {\n    require(isDataOwnerthere(newowner), 'No Account with this Hub');\n    require(isPointerthere(pointer));\n    require(doyouownPointer(pointer), 'You do not own this pointer');\n    owners[token_id]=newowner;\n    uint len;\n    OwnerShip[newowner].push(token_id);\n    len=OwnerShip[newowner].length-1;\n    NFTArrayPos[token_id]=len;\n    pointers[token_id]=pointer;\n    prices[token_id]=stdPrice;\n    sellable[token_id]=false;\n    token_id++;\n  }\n\n  function mint (string memory pointer) public {\n    require(isPointerthere(pointer), 'Provided Pointer does not exist with contract');\n    require(isDataOwnerthere(msg.sender), 'You have not sufficient rights for this action');\n    //require(doyouownPointer(pointer), 'You do not own this pointer');\n    owners[token_id]=msg.sender;\n    uint len;\n    OwnerShip[msg.sender].push(token_id);\n    len=OwnerShip[msg.sender].length-1;\n    NFTArrayPos[token_id]=len;\n    pointers[token_id]=pointer;\n    prices[token_id]=stdPrice;\n    sellable[token_id]=false;\n    resell[token_id]=false;\n    clock[token_id]=0;\n    token_id++;\n  }\n\n  function mintwithOptions (string memory pointer, bool _resell, uint _timeLock, bool _sell) public {\n    require(isPointerthere(pointer), 'Provided Pointer does not exist with contract');\n    require(isDataOwnerthere(msg.sender), 'You have not sufficient rights for this action');\n    require(doyouownPointer(pointer), 'You do not own this pointer');\n    owners[token_id]=msg.sender;\n    uint len;\n    OwnerShip[msg.sender].push(token_id);\n    len=OwnerShip[msg.sender].length-1;\n    NFTArrayPos[token_id]=len;\n    pointers[token_id]=pointer;\n    prices[token_id]=stdPrice;\n    sellable[token_id]=_sell;\n    if (!_resell) {\n      resell[token_id]=!_resell;\n    }\n    if (_timeLock!=0) {\n      clock[token_id]=_timeLock;\n    }\n    token_id++;\n  }\n\n  function setPrice (uint cost, uint token) public {\n    require(owners[token]==msg.sender, 'This Operation can only be accessed by the Token Owner');\n    prices[token]=cost*stdPrice;\n  }\n\n  function resellOptions(uint _tokenid, bool _resell, uint _timeLock) external {\n    require(doyouownPointer(pointers[_tokenid]));\n    if (!_resell) {\n      resell[_tokenid]=!_resell;\n    }\n    if (_timeLock!=0) {\n      clock[_tokenid]=_timeLock;\n    }\n  }\n\n  function sendback (uint _tokenid) external {\n    address sendbackaddress=whoownsPointer(pointers[token_id]);\n    require((msg.sender==owners[_tokenid] || msg.sender==owner || msg.sender==sendbackaddress) && (clock[_tokenid]<block.timestamp && clock[token_id]>0), 'Return your own Token, Punk!');\n    uint oldprice=prices[_tokenid];\n    prices[token_id]=0;\n    transferFrom(msg.sender,sendbackaddress,_tokenid);\n    prices[token_id]=oldprice;\n  }\n\n  //Main transactional function. Manages all necessary Database entries regarding ownership\n  function transferFrom(address _from, address _to, uint _tokenId) public payable {\n    require(owners[_tokenId]==_from, 'Address does not hold specific token'); //_from being an option is insecure af!\n    require(prices[_tokenId]<=msg.value, 'Please provide sufficient funds');\n    if (msg.value!=0) {payable(_from).transfer(msg.value);}\n    redoOwnerShipArray (_from,_to,_tokenId);\n    owners[_tokenId]=_to;\n    emit Transfer(_from, _to, _tokenId);\n  }\n\n  //this manages the OwnerShip mapping. If an ID drops from the array because coresponding token has a new owner this logic rebuilds the array.\n  function redoOwnerShipArray (address _from, address _to, uint _tokenId) internal {\n    uint pos;\n    uint arraylen;\n    pos=NFTArrayPos[_tokenId];\n    arraylen=OwnerShip[_from].length;\n    uint[] memory array=new uint[](arraylen);\n    array=OwnerShip[_from];\n    uint[] memory newarray=new uint[](arraylen-1);\n    for (uint i=0; i<pos; i++){\n      newarray[i]=array[i];\n    }\n    uint len;\n    len=array.length;\n    for (uint i=pos+1; i<len; i++){\n      newarray[i-1]=array[i];\n    }\n    uint newlen=newarray.length;\n    require(newlen<len,'Arrays are of equal size and suggest that nothing much happend');\n    OwnerShip[_from]=newarray;\n    OwnerShip[_to].push(_tokenId);\n    pos=OwnerShip[_to].length-1;\n    NFTArrayPos[_tokenId]=pos;\n  }\n\n  /*function redoOwnerShipArraypub (address _from, address _to, uint _tokenId) public {\n    redoOwnerShipArray (_from,_to,_tokenId);\n  }*/\n\n  function buy(uint _tokenid) external payable {\n    require(sellable[_tokenid]==true, \"You only can buy NFTs marked as sellable\");\n    transferFrom(owners[_tokenid], msg.sender, _tokenid);\n    if (clock[_tokenid]!=0) {expirer[_tokenid]=block.timestamp+clock[_tokenid];}\n    sellable[_tokenid]=false; // Still a design choice where to put the sell inteaction\n  }\n\n  function sell(uint _tokenid) external {\n    require(owners[_tokenid]==msg.sender, \"You only can sell stuff you own\");\n    if (!doyouownPointer(pointers[_tokenid])) {require(resell[_tokenid]==false, \"You only can sell stuff you own\");}\n    sellable[_tokenid]=true;\n  }\n\n  //this needs a redo since only the contract can sell tokens block.timestamp. Using a parameter in external view is suboptimal\n  function buyableTokens(address sender) external view returns(uint[] memory) {\n    uint x=0;\n    for (uint i=0; i<token_id; i++) {\n      if (sellable[i]==true && owners[i]!=sender) {\n        x++;\n      }\n    }\n    uint[] memory newarray = new uint[](x);\n    x=0;\n    for (uint i=0; i<token_id; i++) {\n      if (sellable[i]==true && owners[i]!=sender) {\n        newarray[x]=i;\n        x++;\n      }\n    }\n    return newarray;\n  }\n\n  //returns the length of the OwnerShipArray coresponding to the address of the message sender.\n  function balance(address sender) external view returns (uint) {\n    uint len;\n    len=OwnerShip[sender].length;\n    return len;\n  }\n\n  //returns the token ids of the address given as parameter. Using a parameter in external view is suboptimal\n  function myTokens(address sender) external view returns(uint[] memory) {\n    uint len=OwnerShip[sender].length;\n    if (len>0) {\n      uint x=0;\n      for (uint i=0; i<len; i++) {\n        if ((expirer[OwnerShip[sender][i]]==0 || expirer[OwnerShip[sender][i]]>=block.timestamp) || !resell[i]==true) {\n          x++;\n        }\n      }\n      uint[] memory array = new uint[](x);\n      x=0;\n      for (uint i=0; i<len; i++) {\n        if ((expirer[OwnerShip[sender][i]]==0 || expirer[OwnerShip[sender][i]]>=block.timestamp) || !resell[i]==true) {\n          array[x]=OwnerShip[sender][i];\n          x++;\n        }\n      }\n      return array;\n    } else {\n      uint[] memory array = OwnerShip[sender];\n      return array;\n    }\n  }\n\n  //returns all pointers currently available\n  function useablePointers() external view onlyOwner returns (string[] memory) {\n    string[] memory somepointers= new string[](pointer_id-pointer_uid);\n    uint len=pointerarray.length;\n    uint x=0;\n    string memory point;\n    for (uint i=0; i<len; i++) {\n      point=pointerarray[i];\n      if (isPointerthere(point)) {\n        somepointers[x]=point;\n        x++;\n      }\n    }\n    return somepointers;\n  }\n\n  function whatownsDataOwner(address dataowner) public view returns(uint[] memory) {\n    uint x=0;\n    uint len=DataOwners[dataowner].length;\n    if (len==0) {\n      return new uint[](0);\n    } else {\n      for (uint i=0;i<len;i++) {\n        if (DataOwners[dataowner][i]<pointer_id){x++;}\n      }\n      if (x==len) {return DataOwners[dataowner];}\n      else{\n        uint[] memory pointer_ids= new uint[](x);\n        for (uint i=0;i<len;i++) {\n          if (DataOwners[dataowner][i]<pointer_id){\n            pointer_ids[x]=DataOwners[dataowner][i];\n            x--;\n          }\n        }\n        return pointer_ids;\n      }\n    }\n  }\n\n  function doyouownPointer(string memory pointer) public view returns(bool) { //should propably be internal\n    bool result=false;\n    uint[] memory valuables=whatownsDataOwner(msg.sender);\n    for(uint x=0; x<valuables.length; x++) {\n      if (compareStrings(pointerarray[valuables[x]],pointer)) {\n        result=true;\n      }\n    }\n    return result;\n  }\n\n    function priceOf(uint _tokenId) external view returns (uint) {\n      return prices[_tokenId];\n    }\n\n    function ownerOf(uint _tokenId) external view returns (address) {\n      return owners[_tokenId];\n    }\n\n    function pointerOf(uint _tokenId) external view returns (string memory) {\n      return pointers[_tokenId];\n    }\n\n    function tokensellable(uint _tokenId) external view returns (bool) {\n      return sellable[_tokenId];\n    }\n\n    function tokenresellable(uint _tokenId) external view returns (bool) {\n      return resell[_tokenId];\n    }\n\n    function tokenownable(uint _tokenId) external view returns (uint) {\n      return clock[_tokenId];\n    }\n\n    function tokenexpires(uint _tokenId) external view returns (uint) {\n      return expirer[_tokenId];\n    }\n\n  function addDataOwner(address dataowner) external onlyOwner {\n    DataOwners[dataowner].push(pointer_id+10**15); //The offset used here is incredibly unelegant and should be replaced with a different mechanism\n  }\n\n  function dataowned(address ow) public view returns(uint[] memory) {\n    return DataOwners[ow];\n  }\n\n  function compareStrings(string memory s1, string memory s2) internal pure returns(bool){\n    return keccak256(abi.encodePacked(s1))==keccak256(abi.encodePacked(s2));\n  }\n\n  function whoisOwner() public view returns(address) {\n    return owner;\n  }\n\n  function PointerstoApprove () external onlyOwner returns(string[] memory) {\n    string[] memory variouspointers = new string[](pointerstoapprove);\n    uint pos=0;\n    uint len;\n    len=pointerarray.length;\n    for(uint x=0;x<len;x++) {\n      if (pointerExists[pointerarray[x]]==3) {\n        variouspointers[pos]=pointerarray[x];\n        pos++;\n      }\n    }\n    return variouspointers;\n  }\n\n  function isPointerthere (string memory pointer) public view returns (bool){\n    return pointerExists[pointer]==1;\n  }\n\n  function isDataOwnerthere (address dataowner) public view returns (bool){\n    return DataOwners[dataowner].length!=0;\n  }\n\n  function whoownsPointer (string memory _pointer) internal view returns (address) {\n    uint len=pointerarray.length;\n    for (uint i=0; i<len;) {\n      if (compareStrings(pointerarray[i],_pointer)) {\n        return PointerOwners[i];\n        break;\n      }\n    }\n  }\n\n  function nextNFTid () public view returns(uint){\n    return token_id;\n  }\n\n  function nextPointerid () public view returns(uint){\n    return pointer_id;\n  }\n\n  function returnContractName () public view returns (string memory){\n    return name_;\n  }\n\n  function returnAddress () public view returns (address){\n    return address(this);\n  }\n\n  function returnSign () public view returns (string memory){\n    return sign_;\n  }\n\n  function terminate() public onlyOwner {\n    selfdestruct(owner);\n  }\n}\n",
  "sourcePath": "/home/ka/Desktop/nft-prototyp/contracts/nexyohub.sol",
  "compiler": {
    "name": "solc",
    "version": "0.8.0+commit.c7dfd78e.Emscripten.clang"
  },
  "schemaVersion": "3.3.4",
  "updatedAt": "2021-04-28T12:28:12.295Z",
  "networkType": "ethereum",
  "devdoc": {
    "kind": "dev",
    "methods": {},
    "version": 1
  },
  "userdoc": {
    "kind": "user",
    "methods": {},
    "version": 1
  }
}