{
  "contractName": "nexyohub",
  "abi": [
    {
      "inputs": [
        {
          "internalType": "string",
          "name": "_name",
          "type": "string"
        },
        {
          "internalType": "string",
          "name": "_sign",
          "type": "string"
        },
        {
          "internalType": "address",
          "name": "_transactcont",
          "type": "address"
        }
      ],
      "stateMutability": "nonpayable",
      "type": "constructor"
    },
    {
      "anonymous": false,
      "inputs": [
        {
          "indexed": true,
          "internalType": "address",
          "name": "_owner",
          "type": "address"
        },
        {
          "indexed": true,
          "internalType": "address",
          "name": "_approved",
          "type": "address"
        },
        {
          "indexed": true,
          "internalType": "uint256",
          "name": "_tokenId",
          "type": "uint256"
        }
      ],
      "name": "Approval",
      "type": "event"
    },
    {
      "anonymous": false,
      "inputs": [
        {
          "indexed": true,
          "internalType": "address",
          "name": "_owner",
          "type": "address"
        },
        {
          "indexed": true,
          "internalType": "address",
          "name": "_operator",
          "type": "address"
        },
        {
          "indexed": false,
          "internalType": "bool",
          "name": "_approved",
          "type": "bool"
        }
      ],
      "name": "ApprovalForAll",
      "type": "event"
    },
    {
      "anonymous": false,
      "inputs": [
        {
          "indexed": true,
          "internalType": "address",
          "name": "_from",
          "type": "address"
        },
        {
          "indexed": true,
          "internalType": "address",
          "name": "_to",
          "type": "address"
        },
        {
          "indexed": true,
          "internalType": "uint256",
          "name": "_tokenId",
          "type": "uint256"
        }
      ],
      "name": "Transfer",
      "type": "event"
    },
    {
      "anonymous": false,
      "inputs": [
        {
          "indexed": false,
          "internalType": "address",
          "name": "thisContract",
          "type": "address"
        },
        {
          "indexed": false,
          "internalType": "uint256",
          "name": "myMoney",
          "type": "uint256"
        }
      ],
      "name": "contracttookmymoney",
      "type": "event"
    },
    {
      "anonymous": false,
      "inputs": [
        {
          "indexed": true,
          "internalType": "address",
          "name": "_who",
          "type": "address"
        },
        {
          "indexed": true,
          "internalType": "address",
          "name": "_where",
          "type": "address"
        }
      ],
      "name": "create",
      "type": "event"
    },
    {
      "inputs": [
        {
          "internalType": "uint256",
          "name": "",
          "type": "uint256"
        }
      ],
      "name": "owners",
      "outputs": [
        {
          "internalType": "address",
          "name": "",
          "type": "address"
        }
      ],
      "stateMutability": "view",
      "type": "function",
      "constant": true
    },
    {
      "inputs": [
        {
          "internalType": "uint256",
          "name": "",
          "type": "uint256"
        }
      ],
      "name": "pointers",
      "outputs": [
        {
          "internalType": "string",
          "name": "",
          "type": "string"
        }
      ],
      "stateMutability": "view",
      "type": "function",
      "constant": true
    },
    {
      "inputs": [
        {
          "internalType": "uint256",
          "name": "",
          "type": "uint256"
        }
      ],
      "name": "prices",
      "outputs": [
        {
          "internalType": "uint256",
          "name": "",
          "type": "uint256"
        }
      ],
      "stateMutability": "view",
      "type": "function",
      "constant": true
    },
    {
      "inputs": [
        {
          "internalType": "uint256",
          "name": "",
          "type": "uint256"
        }
      ],
      "name": "sellable",
      "outputs": [
        {
          "internalType": "bool",
          "name": "",
          "type": "bool"
        }
      ],
      "stateMutability": "view",
      "type": "function",
      "constant": true
    },
    {
      "stateMutability": "payable",
      "type": "receive",
      "payable": true
    },
    {
      "inputs": [
        {
          "internalType": "string",
          "name": "pointer",
          "type": "string"
        }
      ],
      "name": "makePointer",
      "outputs": [],
      "stateMutability": "nonpayable",
      "type": "function"
    },
    {
      "inputs": [
        {
          "internalType": "string[]",
          "name": "_pointers",
          "type": "string[]"
        }
      ],
      "name": "revokePointers",
      "outputs": [],
      "stateMutability": "nonpayable",
      "type": "function"
    },
    {
      "inputs": [
        {
          "internalType": "string[]",
          "name": "_pointers",
          "type": "string[]"
        }
      ],
      "name": "approvePointers",
      "outputs": [],
      "stateMutability": "nonpayable",
      "type": "function"
    },
    {
      "inputs": [
        {
          "internalType": "address",
          "name": "newowner",
          "type": "address"
        },
        {
          "internalType": "string",
          "name": "pointer",
          "type": "string"
        },
        {
          "internalType": "uint256",
          "name": "_timeLock",
          "type": "uint256"
        }
      ],
      "name": "mint_to",
      "outputs": [],
      "stateMutability": "nonpayable",
      "type": "function"
    },
    {
      "inputs": [
        {
          "internalType": "string",
          "name": "pointer",
          "type": "string"
        }
      ],
      "name": "mint",
      "outputs": [],
      "stateMutability": "nonpayable",
      "type": "function"
    },
    {
      "inputs": [
        {
          "internalType": "string",
          "name": "pointer",
          "type": "string"
        },
        {
          "internalType": "bool",
          "name": "_resell",
          "type": "bool"
        },
        {
          "internalType": "uint256",
          "name": "_timeLock",
          "type": "uint256"
        },
        {
          "internalType": "bool",
          "name": "_sell",
          "type": "bool"
        }
      ],
      "name": "mintwithOptions",
      "outputs": [],
      "stateMutability": "nonpayable",
      "type": "function"
    },
    {
      "inputs": [
        {
          "internalType": "uint256",
          "name": "cost",
          "type": "uint256"
        },
        {
          "internalType": "uint256",
          "name": "token",
          "type": "uint256"
        }
      ],
      "name": "setPrice",
      "outputs": [],
      "stateMutability": "nonpayable",
      "type": "function"
    },
    {
      "inputs": [
        {
          "internalType": "uint256",
          "name": "_tokenid",
          "type": "uint256"
        },
        {
          "internalType": "bool",
          "name": "_resell",
          "type": "bool"
        },
        {
          "internalType": "uint256",
          "name": "_timeLock",
          "type": "uint256"
        }
      ],
      "name": "resellOptions",
      "outputs": [],
      "stateMutability": "nonpayable",
      "type": "function"
    },
    {
      "inputs": [
        {
          "internalType": "uint256",
          "name": "_tokenid",
          "type": "uint256"
        }
      ],
      "name": "sendback",
      "outputs": [],
      "stateMutability": "nonpayable",
      "type": "function"
    },
    {
      "inputs": [
        {
          "internalType": "address",
          "name": "_from",
          "type": "address"
        },
        {
          "internalType": "address",
          "name": "_to",
          "type": "address"
        },
        {
          "internalType": "uint256",
          "name": "_tokenId",
          "type": "uint256"
        }
      ],
      "name": "transferFrom",
      "outputs": [],
      "stateMutability": "payable",
      "type": "function",
      "payable": true
    },
    {
      "inputs": [
        {
          "internalType": "uint256",
          "name": "_tokenid",
          "type": "uint256"
        }
      ],
      "name": "buy",
      "outputs": [],
      "stateMutability": "payable",
      "type": "function",
      "payable": true
    },
    {
      "inputs": [
        {
          "internalType": "uint256",
          "name": "_tokenid",
          "type": "uint256"
        }
      ],
      "name": "sell",
      "outputs": [],
      "stateMutability": "nonpayable",
      "type": "function"
    },
    {
      "inputs": [
        {
          "internalType": "address",
          "name": "sender",
          "type": "address"
        }
      ],
      "name": "buyableTokens",
      "outputs": [
        {
          "internalType": "uint256[]",
          "name": "",
          "type": "uint256[]"
        }
      ],
      "stateMutability": "view",
      "type": "function",
      "constant": true
    },
    {
      "inputs": [
        {
          "internalType": "address",
          "name": "sender",
          "type": "address"
        }
      ],
      "name": "balance",
      "outputs": [
        {
          "internalType": "uint256",
          "name": "",
          "type": "uint256"
        }
      ],
      "stateMutability": "view",
      "type": "function",
      "constant": true
    },
    {
      "inputs": [
        {
          "internalType": "address",
          "name": "sender",
          "type": "address"
        }
      ],
      "name": "myTokens",
      "outputs": [
        {
          "internalType": "uint256[]",
          "name": "",
          "type": "uint256[]"
        }
      ],
      "stateMutability": "view",
      "type": "function",
      "constant": true
    },
    {
      "inputs": [],
      "name": "useablePointers",
      "outputs": [
        {
          "internalType": "string[]",
          "name": "",
          "type": "string[]"
        }
      ],
      "stateMutability": "view",
      "type": "function",
      "constant": true
    },
    {
      "inputs": [
        {
          "internalType": "address",
          "name": "dataowner",
          "type": "address"
        }
      ],
      "name": "whatownsDataOwner",
      "outputs": [
        {
          "internalType": "uint256[]",
          "name": "",
          "type": "uint256[]"
        }
      ],
      "stateMutability": "view",
      "type": "function",
      "constant": true
    },
    {
      "inputs": [
        {
          "internalType": "string",
          "name": "pointer",
          "type": "string"
        }
      ],
      "name": "doyouownPointer",
      "outputs": [
        {
          "internalType": "bool",
          "name": "",
          "type": "bool"
        }
      ],
      "stateMutability": "view",
      "type": "function",
      "constant": true
    },
    {
      "inputs": [
        {
          "internalType": "uint256",
          "name": "_tokenId",
          "type": "uint256"
        }
      ],
      "name": "priceOf",
      "outputs": [
        {
          "internalType": "uint256",
          "name": "",
          "type": "uint256"
        }
      ],
      "stateMutability": "view",
      "type": "function",
      "constant": true
    },
    {
      "inputs": [
        {
          "internalType": "uint256",
          "name": "_tokenId",
          "type": "uint256"
        }
      ],
      "name": "ownerOf",
      "outputs": [
        {
          "internalType": "address",
          "name": "",
          "type": "address"
        }
      ],
      "stateMutability": "view",
      "type": "function",
      "constant": true
    },
    {
      "inputs": [
        {
          "internalType": "uint256",
          "name": "_tokenId",
          "type": "uint256"
        }
      ],
      "name": "pointerOf",
      "outputs": [
        {
          "internalType": "string",
          "name": "",
          "type": "string"
        }
      ],
      "stateMutability": "view",
      "type": "function",
      "constant": true
    },
    {
      "inputs": [
        {
          "internalType": "uint256",
          "name": "_tokenId",
          "type": "uint256"
        }
      ],
      "name": "tokensellable",
      "outputs": [
        {
          "internalType": "bool",
          "name": "",
          "type": "bool"
        }
      ],
      "stateMutability": "view",
      "type": "function",
      "constant": true
    },
    {
      "inputs": [
        {
          "internalType": "uint256",
          "name": "_tokenId",
          "type": "uint256"
        }
      ],
      "name": "tokenresellable",
      "outputs": [
        {
          "internalType": "bool",
          "name": "",
          "type": "bool"
        }
      ],
      "stateMutability": "view",
      "type": "function",
      "constant": true
    },
    {
      "inputs": [
        {
          "internalType": "uint256",
          "name": "_tokenId",
          "type": "uint256"
        }
      ],
      "name": "tokenownable",
      "outputs": [
        {
          "internalType": "uint256",
          "name": "",
          "type": "uint256"
        }
      ],
      "stateMutability": "view",
      "type": "function",
      "constant": true
    },
    {
      "inputs": [
        {
          "internalType": "uint256",
          "name": "_tokenId",
          "type": "uint256"
        }
      ],
      "name": "tokenexpires",
      "outputs": [
        {
          "internalType": "uint256",
          "name": "",
          "type": "uint256"
        }
      ],
      "stateMutability": "view",
      "type": "function",
      "constant": true
    },
    {
      "inputs": [
        {
          "internalType": "address",
          "name": "dataowner",
          "type": "address"
        }
      ],
      "name": "addDataOwner",
      "outputs": [],
      "stateMutability": "nonpayable",
      "type": "function"
    },
    {
      "inputs": [
        {
          "internalType": "address",
          "name": "ow",
          "type": "address"
        }
      ],
      "name": "dataowned",
      "outputs": [
        {
          "internalType": "uint256[]",
          "name": "",
          "type": "uint256[]"
        }
      ],
      "stateMutability": "view",
      "type": "function",
      "constant": true
    },
    {
      "inputs": [],
      "name": "whoisOwner",
      "outputs": [
        {
          "internalType": "address",
          "name": "",
          "type": "address"
        }
      ],
      "stateMutability": "view",
      "type": "function",
      "constant": true
    },
    {
      "inputs": [],
      "name": "PointerstoApprove",
      "outputs": [
        {
          "internalType": "string[]",
          "name": "",
          "type": "string[]"
        }
      ],
      "stateMutability": "view",
      "type": "function",
      "constant": true
    },
    {
      "inputs": [
        {
          "internalType": "string",
          "name": "pointer",
          "type": "string"
        }
      ],
      "name": "isPointerthere",
      "outputs": [
        {
          "internalType": "bool",
          "name": "",
          "type": "bool"
        }
      ],
      "stateMutability": "view",
      "type": "function",
      "constant": true
    },
    {
      "inputs": [
        {
          "internalType": "address",
          "name": "dataowner",
          "type": "address"
        }
      ],
      "name": "isDataOwnerthere",
      "outputs": [
        {
          "internalType": "bool",
          "name": "",
          "type": "bool"
        }
      ],
      "stateMutability": "view",
      "type": "function",
      "constant": true
    },
    {
      "inputs": [],
      "name": "nextNFTid",
      "outputs": [
        {
          "internalType": "uint256",
          "name": "",
          "type": "uint256"
        }
      ],
      "stateMutability": "view",
      "type": "function",
      "constant": true
    },
    {
      "inputs": [],
      "name": "nextPointerid",
      "outputs": [
        {
          "internalType": "uint256",
          "name": "",
          "type": "uint256"
        }
      ],
      "stateMutability": "view",
      "type": "function",
      "constant": true
    },
    {
      "inputs": [],
      "name": "returnContractName",
      "outputs": [
        {
          "internalType": "string",
          "name": "",
          "type": "string"
        }
      ],
      "stateMutability": "view",
      "type": "function",
      "constant": true
    },
    {
      "inputs": [],
      "name": "returnAddress",
      "outputs": [
        {
          "internalType": "address",
          "name": "",
          "type": "address"
        }
      ],
      "stateMutability": "view",
      "type": "function",
      "constant": true
    },
    {
      "inputs": [],
      "name": "returnSign",
      "outputs": [
        {
          "internalType": "string",
          "name": "",
          "type": "string"
        }
      ],
      "stateMutability": "view",
      "type": "function",
      "constant": true
    },
    {
      "inputs": [],
      "name": "terminate",
      "outputs": [],
      "stateMutability": "nonpayable",
      "type": "function"
    }
  ],
  "bytecode": "0x60806040526000600f556000601055600060115560006012556801bc16d674ec800000601555670de0b6b3a76400006016553480156200003e57600080fd5b5060405162006350380380620063508339818101604052810190620000649190620003cc565b6015543373ffffffffffffffffffffffffffffffffffffffff16311015620000c3576040517f08c379a0000000000000000000000000000000000000000000000000000000008152600401620000ba90620004c4565b60405180910390fd5b82600b9080519060200190620000db92919062000293565b5081600c9080519060200190620000f492919062000293565b5080600d60006101000a81548173ffffffffffffffffffffffffffffffffffffffff021916908373ffffffffffffffffffffffffffffffffffffffff16021790555033600e60006101000a81548173ffffffffffffffffffffffffffffffffffffffff021916908373ffffffffffffffffffffffffffffffffffffffff1602179055506000600d60009054906101000a900473ffffffffffffffffffffffffffffffffffffffff1690508073ffffffffffffffffffffffffffffffffffffffff16634ad3c0d1306040518263ffffffff1660e01b8152600401620001d99190620004a7565b600060405180830381600087803b158015620001f457600080fd5b505af115801562000209573d6000803e3d6000fd5b505050503073ffffffffffffffffffffffffffffffffffffffff16600e60009054906101000a900473ffffffffffffffffffffffffffffffffffffffff1673ffffffffffffffffffffffffffffffffffffffff167f3e68680a366966a568196cfecd42e08689bbc4738578bc61fd6fbf14dc7db18460405160405180910390a35050505062000676565b828054620002a190620005c8565b90600052602060002090601f016020900481019282620002c5576000855562000311565b82601f10620002e057805160ff191683800117855562000311565b8280016001018555821562000311579182015b8281111562000310578251825591602001919060010190620002f3565b5b50905062000320919062000324565b5090565b5b808211156200033f57600081600090555060010162000325565b5090565b60006200035a62000354846200051a565b620004e6565b9050828152602081018484840111156200037357600080fd5b6200038084828562000592565b509392505050565b60008151905062000399816200065c565b92915050565b600082601f830112620003b157600080fd5b8151620003c384826020860162000343565b91505092915050565b600080600060608486031215620003e257600080fd5b600084015167ffffffffffffffff811115620003fd57600080fd5b6200040b868287016200039f565b935050602084015167ffffffffffffffff8111156200042957600080fd5b62000437868287016200039f565b92505060406200044a8682870162000388565b9150509250925092565b6200045f816200055e565b82525050565b600062000474601d836200054d565b91507f506c656173652070726f76696465207375666669656e742046756e64730000006000830152602082019050919050565b6000602082019050620004be600083018462000454565b92915050565b60006020820190508181036000830152620004df8162000465565b9050919050565b6000604051905081810181811067ffffffffffffffff8211171562000510576200050f6200062d565b5b8060405250919050565b600067ffffffffffffffff8211156200053857620005376200062d565b5b601f19601f8301169050602081019050919050565b600082825260208201905092915050565b60006200056b8262000572565b9050919050565b600073ffffffffffffffffffffffffffffffffffffffff82169050919050565b60005b83811015620005b257808201518184015260208101905062000595565b83811115620005c2576000848401525b50505050565b60006002820490506001821680620005e157607f821691505b60208210811415620005f857620005f7620005fe565b5b50919050565b7f4e487b7100000000000000000000000000000000000000000000000000000000600052602260045260246000fd5b7f4e487b7100000000000000000000000000000000000000000000000000000000600052604160045260246000fd5b62000667816200055e565b81146200067357600080fd5b50565b615cca80620006866000396000f3fe60806040526004361061024a5760003560e01c8063943640c311610139578063d85d3d27116100b6578063e4849b321161007a578063e4849b3214610960578063f1e6368014610989578063f6928dee146109b4578063f7d97577146109f1578063fb3a5d6d14610a1a578063ff7be29e14610a435761028a565b8063d85d3d2714610864578063d96a094a1461088d578063dc1df3f6146108a9578063e285497b146108e6578063e3d670d7146109235761028a565b8063b6ab43e6116100fd578063b6ab43e614610747578063b9186d7d14610784578063bc31c1c1146107c1578063c10e7cc2146107fe578063ce1534c11461083b5761028a565b8063943640c31461064e5780639c05c7ca14610679578063ad9c4627146106a4578063b3142005146106e1578063b61ca7671461071e5761028a565b80632eae62dc116101c757806363cad13f1161018b57806363cad13f146105575780637b94a2a1146105945780637ce4d23a146105d15780637e282682146105fc5780638956f3d4146106255761028a565b80632eae62dc1461044a578063305f16f4146104755780633348cc0a146104a057806345912d97146104dd5780636352211e1461051a5761028a565b8063218f7d6e1161020e578063218f7d6e1461037457806321ea7fd31461039d57806323b872dd146103c85780632abc3344146103e45780632b5ba5ab1461040d5761028a565b8063025e7c271461028f578063090d4388146102cc5780630c08bf88146102f557806314feb3cb1461030c5780631bac031a146103375761028a565b3661028a577f4e2ced4d2c3ee1a077c8c313167e6d86b8fe49c37f9d00e5ed1f37265d50be6a303460405161028092919061558d565b60405180910390a1005b600080fd5b34801561029b57600080fd5b506102b660048036038101906102b19190614d29565b610a80565b6040516102c39190615572565b60405180910390f35b3480156102d857600080fd5b506102f360048036038101906102ee9190614b4d565b610ab3565b005b34801561030157600080fd5b5061030a610c1c565b005b34801561031857600080fd5b50610321610d43565b60405161032e9190615615565b60405180910390f35b34801561034357600080fd5b5061035e60048036038101906103599190614d29565b610dd5565b60405161036b9190615837565b60405180910390f35b34801561038057600080fd5b5061039b60048036038101906103969190614c6d565b610df2565b005b3480156103a957600080fd5b506103b26113fb565b6040516103bf9190615837565b60405180910390f35b6103e260048036038101906103dd9190614b76565b611405565b005b3480156103f057600080fd5b5061040b60048036038101906104069190614bc5565b611607565b005b34801561041957600080fd5b50610434600480360381019061042f9190614b4d565b6118d9565b60405161044191906155d8565b60405180910390f35b34801561045657600080fd5b5061045f611970565b60405161046c9190615572565b60405180910390f35b34801561048157600080fd5b5061048a61199a565b6040516104979190615615565b60405180910390f35b3480156104ac57600080fd5b506104c760048036038101906104c29190614c6d565b611a2c565b6040516104d491906155fa565b60405180910390f35b3480156104e957600080fd5b5061050460048036038101906104ff9190614d29565b611b8a565b6040516105119190615615565b60405180910390f35b34801561052657600080fd5b50610541600480360381019061053c9190614d29565b611c2f565b60405161054e9190615572565b60405180910390f35b34801561056357600080fd5b5061057e60048036038101906105799190614d29565b611c6b565b60405161058b91906155fa565b60405180910390f35b3480156105a057600080fd5b506105bb60048036038101906105b69190614b4d565b611c95565b6040516105c891906155d8565b60405180910390f35b3480156105dd57600080fd5b506105e6611eed565b6040516105f391906155b6565b60405180910390f35b34801561060857600080fd5b50610623600480360381019061061e9190614c2c565b6121ca565b005b34801561063157600080fd5b5061064c60048036038101906106479190614c2c565b612477565b005b34801561065a57600080fd5b506106636126ac565b6040516106709190615572565b60405180910390f35b34801561068557600080fd5b5061068e6126b4565b60405161069b91906155b6565b60405180910390f35b3480156106b057600080fd5b506106cb60048036038101906106c69190614b4d565b6129e9565b6040516106d891906155d8565b60405180910390f35b3480156106ed57600080fd5b5061070860048036038101906107039190614b4d565b612e0c565b60405161071591906155fa565b60405180910390f35b34801561072a57600080fd5b5061074560048036038101906107409190614d52565b612e5b565b005b34801561075357600080fd5b5061076e60048036038101906107699190614d29565b612f60565b60405161077b9190615615565b60405180910390f35b34801561079057600080fd5b506107ab60048036038101906107a69190614d29565b613000565b6040516107b89190615837565b60405180910390f35b3480156107cd57600080fd5b506107e860048036038101906107e39190614d29565b61301d565b6040516107f59190615837565b60405180910390f35b34801561080a57600080fd5b5061082560048036038101906108209190614d29565b613035565b60405161083291906155fa565b60405180910390f35b34801561084757600080fd5b50610862600480360381019061085d9190614d29565b61305f565b005b34801561087057600080fd5b5061088b60048036038101906108869190614c6d565b6132d3565b005b6108a760048036038101906108a29190614d29565b6135ac565b005b3480156108b557600080fd5b506108d060048036038101906108cb9190614b4d565b6136d1565b6040516108dd91906155d8565b60405180910390f35b3480156108f257600080fd5b5061090d60048036038101906109089190614c6d565b613c3e565b60405161091a91906155fa565b60405180910390f35b34801561092f57600080fd5b5061094a60048036038101906109459190614b4d565b613c79565b6040516109579190615837565b60405180910390f35b34801561096c57600080fd5b5061098760048036038101906109829190614d29565b613cca565b005b34801561099557600080fd5b5061099e613ea9565b6040516109ab9190615837565b60405180910390f35b3480156109c057600080fd5b506109db60048036038101906109d69190614d29565b613eb3565b6040516109e89190615837565b60405180910390f35b3480156109fd57600080fd5b50610a186004803603810190610a139190614da1565b613ed0565b005b348015610a2657600080fd5b50610a416004803603810190610a3c9190614cae565b613f99565b005b348015610a4f57600080fd5b50610a6a6004803603810190610a659190614d29565b614282565b604051610a7791906155fa565b60405180910390f35b60006020528060005260406000206000915054906101000a900473ffffffffffffffffffffffffffffffffffffffff1681565b3373ffffffffffffffffffffffffffffffffffffffff16600e60009054906101000a900473ffffffffffffffffffffffffffffffffffffffff1673ffffffffffffffffffffffffffffffffffffffff1614610b43576040517f08c379a0000000000000000000000000000000000000000000000000000000008152600401610b3a906156f7565b60405180910390fd5b6015543373ffffffffffffffffffffffffffffffffffffffff16311015610b9f576040517f08c379a0000000000000000000000000000000000000000000000000000000008152600401610b96906156d7565b60405180910390fd5b600860008273ffffffffffffffffffffffffffffffffffffffff1673ffffffffffffffffffffffffffffffffffffffff16815260200190815260200160002066038d7ea4c68000601054610bf3919061599e565b908060018154018082558091505060019003906000526020600020016000909190919091505550565b3373ffffffffffffffffffffffffffffffffffffffff16600e60009054906101000a900473ffffffffffffffffffffffffffffffffffffffff1673ffffffffffffffffffffffffffffffffffffffff1614610cac576040517f08c379a0000000000000000000000000000000000000000000000000000000008152600401610ca3906156f7565b60405180910390fd5b6015543373ffffffffffffffffffffffffffffffffffffffff16311015610d08576040517f08c379a0000000000000000000000000000000000000000000000000000000008152600401610cff906156d7565b60405180910390fd5b600e60009054906101000a900473ffffffffffffffffffffffffffffffffffffffff1673ffffffffffffffffffffffffffffffffffffffff16ff5b6060600b8054610d5290615b36565b80601f0160208091040260200160405190810160405280929190818152602001828054610d7e90615b36565b8015610dcb5780601f10610da057610100808354040283529160200191610dcb565b820191906000526020600020905b815481529060010190602001808311610dae57829003601f168201915b5050505050905090565b600060056000838152602001908152602001600020549050919050565b6000600860003373ffffffffffffffffffffffffffffffffffffffff1673ffffffffffffffffffffffffffffffffffffffff168152602001908152602001600020805490501180610e905750600e60009054906101000a900473ffffffffffffffffffffffffffffffffffffffff1673ffffffffffffffffffffffffffffffffffffffff163373ffffffffffffffffffffffffffffffffffffffff16145b610ecf576040517f08c379a0000000000000000000000000000000000000000000000000000000008152600401610ec690615697565b60405180910390fd5b6001600782604051610ee19190615544565b908152602001604051809103902060009054906101000a900460ff1660ff1614158015610f3d57506003600782604051610f1b9190615544565b908152602001604051809103902060009054906101000a900460ff1660ff1614155b610f7c576040517f08c379a0000000000000000000000000000000000000000000000000000000008152600401610f73906156b7565b60405180910390fd5b6000600782604051610f8e9190615544565b908152602001604051809103902060009054906101000a900460ff1660ff1614156113a757600e60009054906101000a900473ffffffffffffffffffffffffffffffffffffffff1673ffffffffffffffffffffffffffffffffffffffff163373ffffffffffffffffffffffffffffffffffffffff16141561104657600160078260405161101b9190615544565b908152602001604051809103902060006101000a81548160ff021916908360ff1602179055506110af565b60036007826040516110589190615544565b908152602001604051809103902060006101000a81548160ff021916908360ff1602179055506012600081548092919061109190615b68565b9190505550601160008154809291906110a990615b68565b91905055505b6013819080600181540180825580915050600190039060005260206000200160009091909190915090805190602001906110ea92919061492f565b506014339080600181540180825580915050600190039060005260206000200160009091909190916101000a81548173ffffffffffffffffffffffffffffffffffffffff021916908373ffffffffffffffffffffffffffffffffffffffff1602179055506000600860003373ffffffffffffffffffffffffffffffffffffffff1673ffffffffffffffffffffffffffffffffffffffff16815260200190815260200160002080549050111561132157601054600860003373ffffffffffffffffffffffffffffffffffffffff1673ffffffffffffffffffffffffffffffffffffffff168152602001908152602001600020600081548110611214577f4e487b7100000000000000000000000000000000000000000000000000000000600052603260045260246000fd5b906000526020600020015411156112b357601054600860003373ffffffffffffffffffffffffffffffffffffffff1673ffffffffffffffffffffffffffffffffffffffff1681526020019081526020016000206000815481106112a0577f4e487b7100000000000000000000000000000000000000000000000000000000600052603260045260246000fd5b906000526020600020018190555061131c565b600860003373ffffffffffffffffffffffffffffffffffffffff1673ffffffffffffffffffffffffffffffffffffffff16815260200190815260200160002060105490806001815401808255809150506001900390600052602060002001600090919091909150555b61138a565b600860003373ffffffffffffffffffffffffffffffffffffffff1673ffffffffffffffffffffffffffffffffffffffff16815260200190815260200160002060105490806001815401808255809150506001900390600052602060002001600090919091909150555b6010600081548092919061139d90615b68565b91905055506113f8565b60016007826040516113b99190615544565b908152602001604051809103902060006101000a81548160ff021916908360ff160217905550601160008154809291906113f290615b0c565b91905055505b50565b6000601054905090565b8273ffffffffffffffffffffffffffffffffffffffff1660008083815260200190815260200160002060009054906101000a900473ffffffffffffffffffffffffffffffffffffffff1673ffffffffffffffffffffffffffffffffffffffff16146114a5576040517f08c379a000000000000000000000000000000000000000000000000000000000815260040161149c90615677565b60405180910390fd5b34600260008381526020019081526020016000205411156114fb576040517f08c379a00000000000000000000000000000000000000000000000000000000081526004016114f2906157f7565b60405180910390fd5b6000341461154b578273ffffffffffffffffffffffffffffffffffffffff166108fc349081150290604051600060405180830381858888f19350505050158015611549573d6000803e3d6000fd5b505b6115568383836142a2565b8160008083815260200190815260200160002060006101000a81548173ffffffffffffffffffffffffffffffffffffffff021916908373ffffffffffffffffffffffffffffffffffffffff160217905550808273ffffffffffffffffffffffffffffffffffffffff168473ffffffffffffffffffffffffffffffffffffffff167fddf252ad1be2c89b69c2b068fc378daa952ba7f163c4a11628f55a4df523b3ef60405160405180910390a4505050565b61161033612e0c565b61164f576040517f08c379a000000000000000000000000000000000000000000000000000000000815260040161164690615757565b60405180910390fd5b61165882613c3e565b61166157600080fd5b61166a82611a2c565b6116a9576040517f08c379a00000000000000000000000000000000000000000000000000000000081526004016116a090615717565b60405180910390fd5b82600080600f54815260200190815260200160002060006101000a81548173ffffffffffffffffffffffffffffffffffffffff021916908373ffffffffffffffffffffffffffffffffffffffff1602179055506000600960008573ffffffffffffffffffffffffffffffffffffffff1673ffffffffffffffffffffffffffffffffffffffff168152602001908152602001600020600f5490806001815401808255809150506001900390600052602060002001600090919091909150556001600960008673ffffffffffffffffffffffffffffffffffffffff1673ffffffffffffffffffffffffffffffffffffffff168152602001908152602001600020805490506117b59190615a4e565b905080600a6000600f548152602001908152602001600020819055508260016000600f54815260200190815260200160002090805190602001906117fa92919061492f565b5060165460026000600f54815260200190815260200160002081905550600160046000600f54815260200190815260200160002060006101000a81548160ff021916908315150217905550600060036000600f54815260200190815260200160002060006101000a81548160ff021916908315150217905550600082146118bb578160056000600f5481526020019081526020016000208190555081426118a1919061599e565b60066000600f548152602001908152602001600020819055505b600f60008154809291906118ce90615b68565b919050555050505050565b6060600860008373ffffffffffffffffffffffffffffffffffffffff1673ffffffffffffffffffffffffffffffffffffffff16815260200190815260200160002080548060200260200160405190810160405280929190818152602001828054801561196457602002820191906000526020600020905b815481526020019060010190808311611950575b50505050509050919050565b6000600e60009054906101000a900473ffffffffffffffffffffffffffffffffffffffff16905090565b6060600c80546119a990615b36565b80601f01602080910402602001604051908101604052809291908181526020018280546119d590615b36565b8015611a225780601f106119f757610100808354040283529160200191611a22565b820191906000526020600020905b815481529060010190602001808311611a0557829003601f168201915b5050505050905090565b600080600090506000611a3e336129e9565b905060005b8151811015611b7f57611b626013838381518110611a8a577f4e487b7100000000000000000000000000000000000000000000000000000000600052603260045260246000fd5b602002602001015181548110611ac9577f4e487b7100000000000000000000000000000000000000000000000000000000600052603260045260246000fd5b906000526020600020018054611ade90615b36565b80601f0160208091040260200160405190810160405280929190818152602001828054611b0a90615b36565b8015611b575780601f10611b2c57610100808354040283529160200191611b57565b820191906000526020600020905b815481529060010190602001808311611b3a57829003601f168201915b505050505086614763565b15611b6c57600192505b8080611b7790615b68565b915050611a43565b508192505050919050565b6060600160008381526020019081526020016000208054611baa90615b36565b80601f0160208091040260200160405190810160405280929190818152602001828054611bd690615b36565b8015611c235780601f10611bf857610100808354040283529160200191611c23565b820191906000526020600020905b815481529060010190602001808311611c0657829003601f168201915b50505050509050919050565b600080600083815260200190815260200160002060009054906101000a900473ffffffffffffffffffffffffffffffffffffffff169050919050565b60006004600083815260200190815260200160002060009054906101000a900460ff169050919050565b60606000805b600f54811015611d5e57600115156003600083815260200190815260200160002060009054906101000a900460ff161515148015611d3757508373ffffffffffffffffffffffffffffffffffffffff1660008083815260200190815260200160002060009054906101000a900473ffffffffffffffffffffffffffffffffffffffff1673ffffffffffffffffffffffffffffffffffffffff1614155b15611d4b578180611d4790615b68565b9250505b8080611d5690615b68565b915050611c9b565b5060008167ffffffffffffffff811115611da1577f4e487b7100000000000000000000000000000000000000000000000000000000600052604160045260246000fd5b604051908082528060200260200182016040528015611dcf5781602001602082028036833780820191505090505b5090506000915060005b600f54811015611ee257600115156003600083815260200190815260200160002060009054906101000a900460ff161515148015611e7557508473ffffffffffffffffffffffffffffffffffffffff1660008083815260200190815260200160002060009054906101000a900473ffffffffffffffffffffffffffffffffffffffff1673ffffffffffffffffffffffffffffffffffffffff1614155b15611ecf5780828481518110611eb4577f4e487b7100000000000000000000000000000000000000000000000000000000600052603260045260246000fd5b6020026020010181815250508280611ecb90615b68565b9350505b8080611eda90615b68565b915050611dd9565b508092505050919050565b60603373ffffffffffffffffffffffffffffffffffffffff16600e60009054906101000a900473ffffffffffffffffffffffffffffffffffffffff1673ffffffffffffffffffffffffffffffffffffffff1614611f7f576040517f08c379a0000000000000000000000000000000000000000000000000000000008152600401611f76906156f7565b60405180910390fd5b6015543373ffffffffffffffffffffffffffffffffffffffff16311015611fdb576040517f08c379a0000000000000000000000000000000000000000000000000000000008152600401611fd2906156d7565b60405180910390fd5b6000601154601054611fed9190615a4e565b67ffffffffffffffff81111561202c577f4e487b7100000000000000000000000000000000000000000000000000000000600052604160045260246000fd5b60405190808252806020026020018201604052801561205f57816020015b606081526020019060019003908161204a5790505b509050600060138054905090506000606060005b838110156121bf57601381815481106120b5577f4e487b7100000000000000000000000000000000000000000000000000000000600052603260045260246000fd5b9060005260206000200180546120ca90615b36565b80601f01602080910402602001604051908101604052809291908181526020018280546120f690615b36565b80156121435780601f1061211857610100808354040283529160200191612143565b820191906000526020600020905b81548152906001019060200180831161212657829003601f168201915b5050505050915061215382613c3e565b156121ac5781858481518110612192577f4e487b7100000000000000000000000000000000000000000000000000000000600052603260045260246000fd5b602002602001018190525082806121a890615b68565b9350505b80806121b790615b68565b915050612073565b508394505050505090565b3373ffffffffffffffffffffffffffffffffffffffff16600e60009054906101000a900473ffffffffffffffffffffffffffffffffffffffff1673ffffffffffffffffffffffffffffffffffffffff161461225a576040517f08c379a0000000000000000000000000000000000000000000000000000000008152600401612251906156f7565b60405180910390fd5b6015543373ffffffffffffffffffffffffffffffffffffffff163110156122b6576040517f08c379a00000000000000000000000000000000000000000000000000000000081526004016122ad906156d7565b60405180910390fd5b60008151905060005b818110156124725760011515612314848381518110612307577f4e487b7100000000000000000000000000000000000000000000000000000000600052603260045260246000fd5b6020026020010151613c3e565b15151415612357576040517f08c379a000000000000000000000000000000000000000000000000000000000815260040161234e906157d7565b60405180910390fd5b60036007848381518110612394577f4e487b7100000000000000000000000000000000000000000000000000000000600052603260045260246000fd5b60200260200101516040516123a99190615544565b908152602001604051809103902060009054906101000a900460ff1660ff1614156123e757601260008154809291906123e190615b0c565b91905055505b60026007848381518110612424577f4e487b7100000000000000000000000000000000000000000000000000000000600052603260045260246000fd5b60200260200101516040516124399190615544565b908152602001604051809103902060006101000a81548160ff021916908360ff160217905550808061246a90615b68565b9150506122bf565b505050565b3373ffffffffffffffffffffffffffffffffffffffff16600e60009054906101000a900473ffffffffffffffffffffffffffffffffffffffff1673ffffffffffffffffffffffffffffffffffffffff1614612507576040517f08c379a00000000000000000000000000000000000000000000000000000000081526004016124fe906156f7565b60405180910390fd5b6015543373ffffffffffffffffffffffffffffffffffffffff16311015612563576040517f08c379a000000000000000000000000000000000000000000000000000000000815260040161255a906156d7565b60405180910390fd5b60008151905060005b818110156126a757600360078483815181106125b1577f4e487b7100000000000000000000000000000000000000000000000000000000600052603260045260246000fd5b60200260200101516040516125c69190615544565b908152602001604051809103902060009054906101000a900460ff1660ff1614156126945760016007848381518110612628577f4e487b7100000000000000000000000000000000000000000000000000000000600052603260045260246000fd5b602002602001015160405161263d9190615544565b908152602001604051809103902060006101000a81548160ff021916908360ff1602179055506012600081548092919061267690615b0c565b91905055506011600081548092919061268e90615b0c565b91905055505b808061269f90615b68565b91505061256c565b505050565b600030905090565b60603373ffffffffffffffffffffffffffffffffffffffff16600e60009054906101000a900473ffffffffffffffffffffffffffffffffffffffff1673ffffffffffffffffffffffffffffffffffffffff1614612746576040517f08c379a000000000000000000000000000000000000000000000000000000000815260040161273d906156f7565b60405180910390fd5b6015543373ffffffffffffffffffffffffffffffffffffffff163110156127a2576040517f08c379a0000000000000000000000000000000000000000000000000000000008152600401612799906156d7565b60405180910390fd5b600060125467ffffffffffffffff8111156127e6577f4e487b7100000000000000000000000000000000000000000000000000000000600052604160045260246000fd5b60405190808252806020026020018201604052801561281957816020015b60608152602001906001900390816128045790505b509050600080601380549050905060005b818110156129df576003600760138381548110612870577f4e487b7100000000000000000000000000000000000000000000000000000000600052603260045260246000fd5b90600052602060002001604051612887919061555b565b908152602001604051809103902060009054906101000a900460ff1660ff1614156129cc57601381815481106128e6577f4e487b7100000000000000000000000000000000000000000000000000000000600052603260045260246000fd5b9060005260206000200180546128fb90615b36565b80601f016020809104026020016040519081016040528092919081815260200182805461292790615b36565b80156129745780601f1061294957610100808354040283529160200191612974565b820191906000526020600020905b81548152906001019060200180831161295757829003601f168201915b50505050508484815181106129b2577f4e487b7100000000000000000000000000000000000000000000000000000000600052603260045260246000fd5b602002602001018190525082806129c890615b68565b9350505b80806129d790615b68565b91505061282a565b5082935050505090565b6060600080600860008573ffffffffffffffffffffffffffffffffffffffff1673ffffffffffffffffffffffffffffffffffffffff1681526020019081526020016000208054905090506000811415612ab557600067ffffffffffffffff811115612a7d577f4e487b7100000000000000000000000000000000000000000000000000000000600052604160045260246000fd5b604051908082528060200260200182016040528015612aab5781602001602082028036833780820191505090505b5092505050612e07565b60005b81811015612b6d57601054600860008773ffffffffffffffffffffffffffffffffffffffff1673ffffffffffffffffffffffffffffffffffffffff1681526020019081526020016000208281548110612b3a577f4e487b7100000000000000000000000000000000000000000000000000000000600052603260045260246000fd5b90600052602060002001541015612b5a578280612b5690615b68565b9350505b8080612b6590615b68565b915050612ab8565b5080821415612c0d57600860008573ffffffffffffffffffffffffffffffffffffffff1673ffffffffffffffffffffffffffffffffffffffff168152602001908152602001600020805480602002602001604051908101604052809291908181526020018280548015612bff57602002820191906000526020600020905b815481526020019060010190808311612beb575b505050505092505050612e07565b60008267ffffffffffffffff811115612c4f577f4e487b7100000000000000000000000000000000000000000000000000000000600052604160045260246000fd5b604051908082528060200260200182016040528015612c7d5781602001602082028036833780820191505090505b50905060005b82811015612dff57601054600860008873ffffffffffffffffffffffffffffffffffffffff1673ffffffffffffffffffffffffffffffffffffffff1681526020019081526020016000208281548110612d05577f4e487b7100000000000000000000000000000000000000000000000000000000600052603260045260246000fd5b90600052602060002001541015612dec57600860008773ffffffffffffffffffffffffffffffffffffffff1673ffffffffffffffffffffffffffffffffffffffff1681526020019081526020016000208181548110612d8d577f4e487b7100000000000000000000000000000000000000000000000000000000600052603260045260246000fd5b9060005260206000200154828581518110612dd1577f4e487b7100000000000000000000000000000000000000000000000000000000600052603260045260246000fd5b6020026020010181815250508380612de890615b0c565b9450505b8080612df790615b68565b915050612c83565b508093505050505b919050565b600080600860008473ffffffffffffffffffffffffffffffffffffffff1673ffffffffffffffffffffffffffffffffffffffff1681526020019081526020016000208054905014159050919050565b612eff600160008581526020019081526020016000208054612e7c90615b36565b80601f0160208091040260200160405190810160405280929190818152602001828054612ea890615b36565b8015612ef55780601f10612eca57610100808354040283529160200191612ef5565b820191906000526020600020905b815481529060010190602001808311612ed857829003601f168201915b5050505050611a2c565b612f0857600080fd5b81612f3a5781156004600085815260200190815260200160002060006101000a81548160ff0219169083151502179055505b60008114612f5b578060056000858152602001908152602001600020819055505b505050565b60016020528060005260406000206000915090508054612f7f90615b36565b80601f0160208091040260200160405190810160405280929190818152602001828054612fab90615b36565b8015612ff85780601f10612fcd57610100808354040283529160200191612ff8565b820191906000526020600020905b815481529060010190602001808311612fdb57829003601f168201915b505050505081565b600060026000838152602001908152602001600020549050919050565b60026020528060005260406000206000915090505481565b60006003600083815260200190815260200160002060009054906101000a900460ff169050919050565b600061310760016000600f548152602001908152602001600020805461308490615b36565b80601f01602080910402602001604051908101604052809291908181526020018280546130b090615b36565b80156130fd5780601f106130d2576101008083540402835291602001916130fd565b820191906000526020600020905b8154815290600101906020018083116130e057829003601f168201915b50505050506147bc565b905060008083815260200190815260200160002060009054906101000a900473ffffffffffffffffffffffffffffffffffffffff1673ffffffffffffffffffffffffffffffffffffffff163373ffffffffffffffffffffffffffffffffffffffff1614806131c25750600e60009054906101000a900473ffffffffffffffffffffffffffffffffffffffff1673ffffffffffffffffffffffffffffffffffffffff163373ffffffffffffffffffffffffffffffffffffffff16145b806131f857508073ffffffffffffffffffffffffffffffffffffffff163373ffffffffffffffffffffffffffffffffffffffff16145b801561323757504260056000848152602001908152602001600020541080156132365750600060056000600f54815260200190815260200160002054115b5b613276576040517f08c379a000000000000000000000000000000000000000000000000000000000815260040161326d90615797565b60405180910390fd5b600060026000848152602001908152602001600020549050600060026000600f548152602001908152602001600020819055506132b4338385611405565b8060026000600f54815260200190815260200160002081905550505050565b6132dc81613c3e565b61331b576040517f08c379a000000000000000000000000000000000000000000000000000000000815260040161331290615817565b60405180910390fd5b61332433612e0c565b613363576040517f08c379a000000000000000000000000000000000000000000000000000000000815260040161335a906157b7565b60405180910390fd5b61336c81611a2c565b6133ab576040517f08c379a00000000000000000000000000000000000000000000000000000000081526004016133a290615717565b60405180910390fd5b33600080600f54815260200190815260200160002060006101000a81548173ffffffffffffffffffffffffffffffffffffffff021916908373ffffffffffffffffffffffffffffffffffffffff1602179055506000600960003373ffffffffffffffffffffffffffffffffffffffff1673ffffffffffffffffffffffffffffffffffffffff168152602001908152602001600020600f5490806001815401808255809150506001900390600052602060002001600090919091909150556001600960003373ffffffffffffffffffffffffffffffffffffffff1673ffffffffffffffffffffffffffffffffffffffff168152602001908152602001600020805490506134b79190615a4e565b905080600a6000600f548152602001908152602001600020819055508160016000600f54815260200190815260200160002090805190602001906134fc92919061492f565b5060165460026000600f54815260200190815260200160002081905550600060036000600f54815260200190815260200160002060006101000a81548160ff021916908315150217905550600060046000600f54815260200190815260200160002060006101000a81548160ff021916908315150217905550600060056000600f54815260200190815260200160002081905550600f60008154809291906135a390615b68565b91905055505050565b600115156003600083815260200190815260200160002060009054906101000a900460ff16151514613613576040517f08c379a000000000000000000000000000000000000000000000000000000000815260040161360a90615657565b60405180910390fd5b61365060008083815260200190815260200160002060009054906101000a900473ffffffffffffffffffffffffffffffffffffffff163383611405565b60006005600083815260200190815260200160002054146136a25760056000828152602001908152602001600020544261368a919061599e565b60066000838152602001908152602001600020819055505b60006003600083815260200190815260200160002060006101000a81548160ff02191690831515021790555050565b60606000600960008473ffffffffffffffffffffffffffffffffffffffff1673ffffffffffffffffffffffffffffffffffffffff1681526020019081526020016000208054905090506000811115613ba1576000805b828110156138bd57600060066000600960008973ffffffffffffffffffffffffffffffffffffffff1673ffffffffffffffffffffffffffffffffffffffff16815260200190815260200160002084815481106137ac577f4e487b7100000000000000000000000000000000000000000000000000000000600052603260045260246000fd5b9060005260206000200154815260200190815260200160002054148061386657504260066000600960008973ffffffffffffffffffffffffffffffffffffffff1673ffffffffffffffffffffffffffffffffffffffff1681526020019081526020016000208481548110613849577f4e487b7100000000000000000000000000000000000000000000000000000000600052603260045260246000fd5b906000526020600020015481526020019081526020016000205410155b806138965750600115156004600083815260200190815260200160002060009054906101000a900460ff16151515145b156138aa5781806138a690615b68565b9250505b80806138b590615b68565b915050613727565b5060008167ffffffffffffffff811115613900577f4e487b7100000000000000000000000000000000000000000000000000000000600052604160045260246000fd5b60405190808252806020026020018201604052801561392e5781602001602082028036833780820191505090505b5090506000915060005b83811015613b9557600060066000600960008a73ffffffffffffffffffffffffffffffffffffffff1673ffffffffffffffffffffffffffffffffffffffff16815260200190815260200160002084815481106139bd577f4e487b7100000000000000000000000000000000000000000000000000000000600052603260045260246000fd5b90600052602060002001548152602001908152602001600020541480613a7757504260066000600960008a73ffffffffffffffffffffffffffffffffffffffff1673ffffffffffffffffffffffffffffffffffffffff1681526020019081526020016000208481548110613a5a577f4e487b7100000000000000000000000000000000000000000000000000000000600052603260045260246000fd5b906000526020600020015481526020019081526020016000205410155b80613aa75750600115156004600083815260200190815260200160002060009054906101000a900460ff16151515145b15613b8257600960008773ffffffffffffffffffffffffffffffffffffffff1673ffffffffffffffffffffffffffffffffffffffff1681526020019081526020016000208181548110613b23577f4e487b7100000000000000000000000000000000000000000000000000000000600052603260045260246000fd5b9060005260206000200154828481518110613b67577f4e487b7100000000000000000000000000000000000000000000000000000000600052603260045260246000fd5b6020026020010181815250508280613b7e90615b68565b9350505b8080613b8d90615b68565b915050613938565b50809350505050613c39565b6000600960008573ffffffffffffffffffffffffffffffffffffffff1673ffffffffffffffffffffffffffffffffffffffff168152602001908152602001600020805480602002602001604051908101604052809291908181526020018280548015613c2c57602002820191906000526020600020905b815481526020019060010190808311613c18575b5050505050905080925050505b919050565b60006001600783604051613c529190615544565b908152602001604051809103902060009054906101000a900460ff1660ff16149050919050565b600080600960008473ffffffffffffffffffffffffffffffffffffffff1673ffffffffffffffffffffffffffffffffffffffff16815260200190815260200160002080549050905080915050919050565b3373ffffffffffffffffffffffffffffffffffffffff1660008083815260200190815260200160002060009054906101000a900473ffffffffffffffffffffffffffffffffffffffff1673ffffffffffffffffffffffffffffffffffffffff1614613d6a576040517f08c379a0000000000000000000000000000000000000000000000000000000008152600401613d6190615637565b60405180910390fd5b613e0e600160008381526020019081526020016000208054613d8b90615b36565b80601f0160208091040260200160405190810160405280929190818152602001828054613db790615b36565b8015613e045780601f10613dd957610100808354040283529160200191613e04565b820191906000526020600020905b815481529060010190602001808311613de757829003601f168201915b5050505050611a2c565b613e7a57600015156004600083815260200190815260200160002060009054906101000a900460ff16151514613e79576040517f08c379a0000000000000000000000000000000000000000000000000000000008152600401613e7090615637565b60405180910390fd5b5b60016003600083815260200190815260200160002060006101000a81548160ff02191690831515021790555050565b6000600f54905090565b600060066000838152602001908152602001600020549050919050565b3373ffffffffffffffffffffffffffffffffffffffff1660008083815260200190815260200160002060009054906101000a900473ffffffffffffffffffffffffffffffffffffffff1673ffffffffffffffffffffffffffffffffffffffff1614613f70576040517f08c379a0000000000000000000000000000000000000000000000000000000008152600401613f6790615777565b60405180910390fd5b60165482613f7e91906159f4565b60026000838152602001908152602001600020819055505050565b613fa284613c3e565b613fe1576040517f08c379a0000000000000000000000000000000000000000000000000000000008152600401613fd890615817565b60405180910390fd5b613fea33612e0c565b614029576040517f08c379a0000000000000000000000000000000000000000000000000000000008152600401614020906157b7565b60405180910390fd5b61403284611a2c565b614071576040517f08c379a000000000000000000000000000000000000000000000000000000000815260040161406890615717565b60405180910390fd5b33600080600f54815260200190815260200160002060006101000a81548173ffffffffffffffffffffffffffffffffffffffff021916908373ffffffffffffffffffffffffffffffffffffffff1602179055506000600960003373ffffffffffffffffffffffffffffffffffffffff1673ffffffffffffffffffffffffffffffffffffffff168152602001908152602001600020600f5490806001815401808255809150506001900390600052602060002001600090919091909150556001600960003373ffffffffffffffffffffffffffffffffffffffff1673ffffffffffffffffffffffffffffffffffffffff1681526020019081526020016000208054905061417d9190615a4e565b905080600a6000600f548152602001908152602001600020819055508460016000600f54815260200190815260200160002090805190602001906141c292919061492f565b5060165460026000600f548152602001908152602001600020819055508160036000600f54815260200190815260200160002060006101000a81548160ff0219169083151502179055508361424057831560046000600f54815260200190815260200160002060006101000a81548160ff0219169083151502179055505b60008314614263578260056000600f548152602001908152602001600020819055505b600f600081548092919061427690615b68565b91905055505050505050565b60036020528060005260406000206000915054906101000a900460ff1681565b600080600a6000848152602001908152602001600020549150600960008673ffffffffffffffffffffffffffffffffffffffff1673ffffffffffffffffffffffffffffffffffffffff16815260200190815260200160002080549050905060008167ffffffffffffffff811115614342577f4e487b7100000000000000000000000000000000000000000000000000000000600052604160045260246000fd5b6040519080825280602002602001820160405280156143705781602001602082028036833780820191505090505b509050600960008773ffffffffffffffffffffffffffffffffffffffff1673ffffffffffffffffffffffffffffffffffffffff1681526020019081526020016000208054806020026020016040519081016040528092919081815260200182805480156143fc57602002820191906000526020600020905b8154815260200190600101908083116143e8575b5050505050905060006001836144129190615a4e565b67ffffffffffffffff811115614451577f4e487b7100000000000000000000000000000000000000000000000000000000600052604160045260246000fd5b60405190808252806020026020018201604052801561447f5781602001602082028036833780820191505090505b50905060005b84811015614526578281815181106144c6577f4e487b7100000000000000000000000000000000000000000000000000000000600052603260045260246000fd5b6020026020010151828281518110614507577f4e487b7100000000000000000000000000000000000000000000000000000000600052603260045260246000fd5b602002602001018181525050808061451e90615b68565b915050614485565b50600082519050600060018661453c919061599e565b90505b818110156145ec57838181518110614580577f4e487b7100000000000000000000000000000000000000000000000000000000600052603260045260246000fd5b6020026020010151836001836145969190615a4e565b815181106145cd577f4e487b7100000000000000000000000000000000000000000000000000000000600052603260045260246000fd5b60200260200101818152505080806145e490615b68565b91505061453f565b50600082519050818110614635576040517f08c379a000000000000000000000000000000000000000000000000000000000815260040161462c90615737565b60405180910390fd5b82600960008b73ffffffffffffffffffffffffffffffffffffffff1673ffffffffffffffffffffffffffffffffffffffff16815260200190815260200160002090805190602001906146889291906149b5565b50600960008973ffffffffffffffffffffffffffffffffffffffff1673ffffffffffffffffffffffffffffffffffffffff1681526020019081526020016000208790806001815401808255809150506001900390600052602060002001600090919091909150556001600960008a73ffffffffffffffffffffffffffffffffffffffff1673ffffffffffffffffffffffffffffffffffffffff1681526020019081526020016000208054905061473e9190615a4e565b955085600a600089815260200190815260200160002081905550505050505050505050565b6000816040516020016147769190615544565b604051602081830303815290604052805190602001208360405160200161479d9190615544565b6040516020818303038152906040528051906020012014905092915050565b6000806000601380549050905060005b81811015614923576148aa60138281548110614811577f4e487b7100000000000000000000000000000000000000000000000000000000600052603260045260246000fd5b90600052602060002001805461482690615b36565b80601f016020809104026020016040519081016040528092919081815260200182805461485290615b36565b801561489f5780601f106148745761010080835404028352916020019161489f565b820191906000526020600020905b81548152906001019060200180831161488257829003601f168201915b505050505086614763565b1561491e57601481815481106148e9577f4e487b7100000000000000000000000000000000000000000000000000000000600052603260045260246000fd5b9060005260206000200160009054906101000a900473ffffffffffffffffffffffffffffffffffffffff16935050505061492a565b6147cc565b5081925050505b919050565b82805461493b90615b36565b90600052602060002090601f01602090048101928261495d57600085556149a4565b82601f1061497657805160ff19168380011785556149a4565b828001600101855582156149a4579182015b828111156149a3578251825591602001919060010190614988565b5b5090506149b19190614a02565b5090565b8280548282559060005260206000209081019282156149f1579160200282015b828111156149f05782518255916020019190600101906149d5565b5b5090506149fe9190614a02565b5090565b5b80821115614a1b576000816000905550600101614a03565b5090565b6000614a32614a2d84615883565b615852565b9050808382526020820190508260005b85811015614a725781358501614a588882614b0e565b845260208401935060208301925050600181019050614a42565b5050509392505050565b6000614a8f614a8a846158af565b615852565b905082815260208101848484011115614aa757600080fd5b614ab2848285615aca565b509392505050565b600081359050614ac981615c4f565b92915050565b600082601f830112614ae057600080fd5b8135614af0848260208601614a1f565b91505092915050565b600081359050614b0881615c66565b92915050565b600082601f830112614b1f57600080fd5b8135614b2f848260208601614a7c565b91505092915050565b600081359050614b4781615c7d565b92915050565b600060208284031215614b5f57600080fd5b6000614b6d84828501614aba565b91505092915050565b600080600060608486031215614b8b57600080fd5b6000614b9986828701614aba565b9350506020614baa86828701614aba565b9250506040614bbb86828701614b38565b9150509250925092565b600080600060608486031215614bda57600080fd5b6000614be886828701614aba565b935050602084013567ffffffffffffffff811115614c0557600080fd5b614c1186828701614b0e565b9250506040614c2286828701614b38565b9150509250925092565b600060208284031215614c3e57600080fd5b600082013567ffffffffffffffff811115614c5857600080fd5b614c6484828501614acf565b91505092915050565b600060208284031215614c7f57600080fd5b600082013567ffffffffffffffff811115614c9957600080fd5b614ca584828501614b0e565b91505092915050565b60008060008060808587031215614cc457600080fd5b600085013567ffffffffffffffff811115614cde57600080fd5b614cea87828801614b0e565b9450506020614cfb87828801614af9565b9350506040614d0c87828801614b38565b9250506060614d1d87828801614af9565b91505092959194509250565b600060208284031215614d3b57600080fd5b6000614d4984828501614b38565b91505092915050565b600080600060608486031215614d6757600080fd5b6000614d7586828701614b38565b9350506020614d8686828701614af9565b9250506040614d9786828701614b38565b9150509250925092565b60008060408385031215614db457600080fd5b6000614dc285828601614b38565b9250506020614dd385828601614b38565b9150509250929050565b6000614de98383614efa565b905092915050565b6000614dfd8383615526565b60208301905092915050565b614e1281615a82565b82525050565b6000614e2382615914565b614e2d818561594f565b935083602082028501614e3f856158df565b8060005b85811015614e7b5784840389528151614e5c8582614ddd565b9450614e6783615935565b925060208a01995050600181019050614e43565b50829750879550505050505092915050565b6000614e988261591f565b614ea28185615960565b9350614ead836158ef565b8060005b83811015614ede578151614ec58882614df1565b9750614ed083615942565b925050600181019050614eb1565b5085935050505092915050565b614ef481615a94565b82525050565b6000614f058261592a565b614f0f8185615971565b9350614f1f818560208601615ad9565b614f2881615c3e565b840191505092915050565b6000614f3e8261592a565b614f488185615982565b9350614f58818560208601615ad9565b614f6181615c3e565b840191505092915050565b6000614f778261592a565b614f818185615993565b9350614f91818560208601615ad9565b80840191505092915050565b60008154614faa81615b36565b614fb48186615993565b94506001821660008114614fcf5760018114614fe057615013565b60ff19831686528186019350615013565b614fe9856158ff565b60005b8381101561500b57815481890152600182019150602081019050614fec565b838801955050505b50505092915050565b6000615029601f83615982565b91507f596f75206f6e6c792063616e2073656c6c20737475666620796f75206f776e006000830152602082019050919050565b6000615069602883615982565b91507f596f75206f6e6c792063616e20627579204e465473206d61726b65642061732060008301527f73656c6c61626c650000000000000000000000000000000000000000000000006020830152604082019050919050565b60006150cf602483615982565b91507f4164647265737320646f6573206e6f7420686f6c64207370656369666963207460008301527f6f6b656e000000000000000000000000000000000000000000000000000000006020830152604082019050919050565b6000615135601083615982565b91507f4e6f7420612044617461204f776e6572000000000000000000000000000000006000830152602082019050919050565b6000615175601983615982565b91507f506f696e74657220697320616c726561647920696e20757365000000000000006000830152602082019050919050565b60006151b5601f83615982565b91507f506c656173652070726f766964652073756666696369656e742046756e6473006000830152602082019050919050565b60006151f5603983615982565b91507f54686973204f7065726174696f6e2063616e206f6e6c7920626520616363657360008301527f7365642062792074686520636f6e7472616374206f776e6572000000000000006020830152604082019050919050565b600061525b601b83615982565b91507f596f7520646f206e6f74206f776e207468697320706f696e74657200000000006000830152602082019050919050565b600061529b603e83615982565b91507f41727261797320617265206f6620657175616c2073697a6520616e642073756760008301527f676573742074686174206e6f7468696e67206d7563682068617070656e6400006020830152604082019050919050565b6000615301601883615982565b91507f4e6f204163636f756e74207769746820746869732048756200000000000000006000830152602082019050919050565b6000615341603683615982565b91507f54686973204f7065726174696f6e2063616e206f6e6c7920626520616363657360008301527f7365642062792074686520546f6b656e204f776e6572000000000000000000006020830152604082019050919050565b60006153a7601c83615982565b91507f52657475726e20796f7572206f776e20546f6b656e2c2050756e6b21000000006000830152602082019050919050565b60006153e7602e83615982565b91507f596f752068617665206e6f742073756666696369656e7420726967687473206660008301527f6f72207468697320616374696f6e0000000000000000000000000000000000006020830152604082019050919050565b600061544d601c83615982565b91507f506f696e74657220697320616c726561647920756e75736561626c65000000006000830152602082019050919050565b600061548d601f83615982565b91507f506c656173652070726f766964652073756666696369656e742066756e6473006000830152602082019050919050565b60006154cd602d83615982565b91507f50726f766964656420506f696e74657220646f6573206e6f742065786973742060008301527f7769746820636f6e7472616374000000000000000000000000000000000000006020830152604082019050919050565b61552f81615ac0565b82525050565b61553e81615ac0565b82525050565b60006155508284614f6c565b915081905092915050565b60006155678284614f9d565b915081905092915050565b60006020820190506155876000830184614e09565b92915050565b60006040820190506155a26000830185614e09565b6155af6020830184615535565b9392505050565b600060208201905081810360008301526155d08184614e18565b905092915050565b600060208201905081810360008301526155f28184614e8d565b905092915050565b600060208201905061560f6000830184614eeb565b92915050565b6000602082019050818103600083015261562f8184614f33565b905092915050565b600060208201905081810360008301526156508161501c565b9050919050565b600060208201905081810360008301526156708161505c565b9050919050565b60006020820190508181036000830152615690816150c2565b9050919050565b600060208201905081810360008301526156b081615128565b9050919050565b600060208201905081810360008301526156d081615168565b9050919050565b600060208201905081810360008301526156f0816151a8565b9050919050565b60006020820190508181036000830152615710816151e8565b9050919050565b600060208201905081810360008301526157308161524e565b9050919050565b600060208201905081810360008301526157508161528e565b9050919050565b60006020820190508181036000830152615770816152f4565b9050919050565b6000602082019050818103600083015261579081615334565b9050919050565b600060208201905081810360008301526157b08161539a565b9050919050565b600060208201905081810360008301526157d0816153da565b9050919050565b600060208201905081810360008301526157f081615440565b9050919050565b6000602082019050818103600083015261581081615480565b9050919050565b60006020820190508181036000830152615830816154c0565b9050919050565b600060208201905061584c6000830184615535565b92915050565b6000604051905081810181811067ffffffffffffffff8211171561587957615878615c0f565b5b8060405250919050565b600067ffffffffffffffff82111561589e5761589d615c0f565b5b602082029050602081019050919050565b600067ffffffffffffffff8211156158ca576158c9615c0f565b5b601f19601f8301169050602081019050919050565b6000819050602082019050919050565b6000819050602082019050919050565b60008190508160005260206000209050919050565b600081519050919050565b600081519050919050565b600081519050919050565b6000602082019050919050565b6000602082019050919050565b600082825260208201905092915050565b600082825260208201905092915050565b600082825260208201905092915050565b600082825260208201905092915050565b600081905092915050565b60006159a982615ac0565b91506159b483615ac0565b9250827fffffffffffffffffffffffffffffffffffffffffffffffffffffffffffffffff038211156159e9576159e8615bb1565b5b828201905092915050565b60006159ff82615ac0565b9150615a0a83615ac0565b9250817fffffffffffffffffffffffffffffffffffffffffffffffffffffffffffffffff0483118215151615615a4357615a42615bb1565b5b828202905092915050565b6000615a5982615ac0565b9150615a6483615ac0565b925082821015615a7757615a76615bb1565b5b828203905092915050565b6000615a8d82615aa0565b9050919050565b60008115159050919050565b600073ffffffffffffffffffffffffffffffffffffffff82169050919050565b6000819050919050565b82818337600083830152505050565b60005b83811015615af7578082015181840152602081019050615adc565b83811115615b06576000848401525b50505050565b6000615b1782615ac0565b91506000821415615b2b57615b2a615bb1565b5b600182039050919050565b60006002820490506001821680615b4e57607f821691505b60208210811415615b6257615b61615be0565b5b50919050565b6000615b7382615ac0565b91507fffffffffffffffffffffffffffffffffffffffffffffffffffffffffffffffff821415615ba657615ba5615bb1565b5b600182019050919050565b7f4e487b7100000000000000000000000000000000000000000000000000000000600052601160045260246000fd5b7f4e487b7100000000000000000000000000000000000000000000000000000000600052602260045260246000fd5b7f4e487b7100000000000000000000000000000000000000000000000000000000600052604160045260246000fd5b6000601f19601f8301169050919050565b615c5881615a82565b8114615c6357600080fd5b50565b615c6f81615a94565b8114615c7a57600080fd5b50565b615c8681615ac0565b8114615c9157600080fd5b5056fea264697066735822122027a900731459c6bd6f40d72a045fc92a86a059f9ee2bfca78749d64e200fbc7364736f6c63430008000033",
  "immutableReferences": {},
  "source": "// SPDX-License-Identifier: UNLICENSED\npragma solidity ^0.8.0;\n\nimport \"./boysintheband.sol\";\n\ncontract nexyohub {\n//The actual NFT\n  mapping(uint => address) public owners;\n  mapping(uint => string) public pointers;\n  mapping(uint => uint) public prices;\n  mapping(uint => bool) public sellable;\n//Contract capabilities to make the app possible\n  mapping(uint => bool) private resell;\n  mapping(uint => uint) private clock;\n  mapping(uint => uint) private expirer;\n  mapping(string => uint8) private pointerExists; //Keeps Track of Pointer Status. 0 Does not exists, 1 Pointer is useable, 2 Pointer was revoked, 3 Pointer still needs Owner approval.\n  mapping(address => uint[]) private DataOwners; //Tracks the Pointers owned by a specific address\n  mapping(address => uint[]) private OwnerShip; //Tracks NFT Ownership for fast ownership requests\n  mapping(uint => uint) private NFTArrayPos; //Tracks NFT postion in Ownership Array for fast ownership requests\n  string name_;\n  string sign_;\n  address parentaddress;\n  address payable owner;\n  uint token_id=0;\n  uint pointer_id=0;\n  uint pointer_uid=0;\n  uint pointerstoapprove=0;\n  string[] pointerarray; //I don't like how this is structured. It really needs a rework!\n  address[] PointerOwners; //Same here! Also this makes it practacally impossible to use a revoked Pointer by another User...\n\n  uint _minstake=32000000000000000000;\n  uint stdPrice=1000000000000000000;\n\n  constructor(string memory _name, string memory _sign, address _transactcont) { //sign_ will get an option too!\n    require(msg.sender.balance >= _minstake, 'Please provide suffient Funds');\n    name_=_name;\n    sign_=_sign;\n    parentaddress=_transactcont;\n    owner=payable(msg.sender);\n    nexyotransact bitb=nexyotransact(parentaddress);\n    bitb.addaddress(address(this));\n    emit create(owner, address(this));\n  }\n\n  modifier onlyOwner {\n    require(owner==msg.sender, 'This Operation can only be accessed by the contract owner');\n    require(msg.sender.balance >= _minstake, 'Please provide sufficient Funds');\n    _;\n  }\n\n  modifier onlyContract {\n    require(address(this)==msg.sender, 'The function you are trying to enter is prohibited');\n    _;\n  }\n  event create(address indexed _who, address indexed _where);\n  event Transfer(address indexed _from, address indexed _to, uint256 indexed _tokenId);\n  event Approval(address indexed _owner, address indexed _approved, uint256 indexed _tokenId);\n  event ApprovalForAll(address indexed _owner, address indexed _operator, bool _approved);\n  event contracttookmymoney(address thisContract, uint myMoney);\n\n  receive () external payable {\n      emit contracttookmymoney(address(this), msg.value);\n  }\n  //This sets the value to a key in the mapping pointerExists to one which represents the existens of a pointer. Furthermore the pointer it self is added to an array of pointers.\n  function makePointer (string memory pointer) public {\n      require(DataOwners[msg.sender].length>0 || msg.sender==owner, 'Not a Data Owner');\n      require(pointerExists[pointer]!=1 && pointerExists[pointer]!=3,'Pointer is already in use');\n      if (pointerExists[pointer]==0) {\n        if (msg.sender==owner) {\n          pointerExists[pointer]=1;\n        } else {\n          pointerExists[pointer]=3;\n          pointerstoapprove++;\n          pointer_uid++;\n        }\n        pointerarray.push(pointer);\n        PointerOwners.push(msg.sender);\n        if (DataOwners[msg.sender].length>0) {\n          if (DataOwners[msg.sender][0]>pointer_id) { //checks if first entry is approval entry\n            DataOwners[msg.sender][0]=pointer_id;\n          } else {\n            DataOwners[msg.sender].push(pointer_id);\n          }\n        } else {\n          DataOwners[msg.sender].push(pointer_id);\n        }\n        pointer_id++;\n      } else {\n        pointerExists[pointer]=1;\n        pointer_uid--;\n      }\n  }\n\n  function revokePointers (string[] memory _pointers) public onlyOwner {\n    uint len=_pointers.length;\n    for (uint i=0;i<len;i++) {\n      require(isPointerthere(_pointers[i])!=true,'Pointer is already unuseable'); //this seems stupid and i forgot what i was thinking\n      if(pointerExists[_pointers[i]]==3) {\n        pointerstoapprove--;}\n      pointerExists[_pointers[i]]=2;\n    }\n  }\n\n  function approvePointers (string[] memory _pointers) public onlyOwner {\n    uint len=_pointers.length;\n    for (uint i=0;i<len;i++) {\n      if(pointerExists[_pointers[i]]==3){\n        pointerExists[_pointers[i]]=1;\n        pointerstoapprove--;\n        pointer_uid--;\n      }\n    }\n  }\n\n  function mint_to (address newowner, string memory pointer, uint _timeLock) public {\n    require(isDataOwnerthere(msg.sender), 'No Account with this Hub');\n    require(isPointerthere(pointer));\n    require(doyouownPointer(pointer), 'You do not own this pointer');\n    owners[token_id]=newowner;\n    uint len;\n    OwnerShip[newowner].push(token_id);\n    len=OwnerShip[newowner].length-1;\n    NFTArrayPos[token_id]=len;\n    pointers[token_id]=pointer;\n    prices[token_id]=stdPrice;\n    resell[token_id]=true;\n    sellable[token_id]=false;\n    if (_timeLock!=0) {\n      clock[token_id]=_timeLock;\n      expirer[token_id]=block.timestamp+_timeLock;\n    }\n    token_id++;\n  }\n\n  function mint (string memory pointer) public {\n    require(isPointerthere(pointer), 'Provided Pointer does not exist with contract');\n    require(isDataOwnerthere(msg.sender), 'You have not sufficient rights for this action');\n    require(doyouownPointer(pointer), 'You do not own this pointer');\n    owners[token_id]=msg.sender;\n    uint len;\n    OwnerShip[msg.sender].push(token_id);\n    len=OwnerShip[msg.sender].length-1;\n    NFTArrayPos[token_id]=len;\n    pointers[token_id]=pointer;\n    prices[token_id]=stdPrice;\n    sellable[token_id]=false;\n    resell[token_id]=false;\n    clock[token_id]=0;\n    token_id++;\n  }\n\n  function mintwithOptions (string memory pointer, bool _resell, uint _timeLock, bool _sell) public {\n    require(isPointerthere(pointer), 'Provided Pointer does not exist with contract');\n    require(isDataOwnerthere(msg.sender), 'You have not sufficient rights for this action');\n    require(doyouownPointer(pointer), 'You do not own this pointer');\n    owners[token_id]=msg.sender;\n    uint len;\n    OwnerShip[msg.sender].push(token_id);\n    len=OwnerShip[msg.sender].length-1;\n    NFTArrayPos[token_id]=len;\n    pointers[token_id]=pointer;\n    prices[token_id]=stdPrice;\n    sellable[token_id]=_sell;\n    if (!_resell) {\n      resell[token_id]=!_resell;\n    }\n    if (_timeLock!=0) {\n      clock[token_id]=_timeLock;\n    }\n    token_id++;\n  }\n\n  function setPrice (uint cost, uint token) public {\n    require(owners[token]==msg.sender, 'This Operation can only be accessed by the Token Owner');\n    prices[token]=cost*stdPrice;\n  }\n\n  function resellOptions(uint _tokenid, bool _resell, uint _timeLock) external {\n    require(doyouownPointer(pointers[_tokenid]));\n    if (!_resell) {\n      resell[_tokenid]=!_resell;\n    }\n    if (_timeLock!=0) {\n      clock[_tokenid]=_timeLock;\n    }\n  }\n\n  function sendback (uint _tokenid) external {\n    address sendbackaddress=whoownsPointer(pointers[token_id]);\n    require((msg.sender==owners[_tokenid] || msg.sender==owner || msg.sender==sendbackaddress) && (clock[_tokenid]<block.timestamp && clock[token_id]>0), 'Return your own Token, Punk!');\n    uint oldprice=prices[_tokenid];\n    prices[token_id]=0;\n    transferFrom(msg.sender,sendbackaddress,_tokenid);\n    prices[token_id]=oldprice;\n  }\n\n  //Main transactional function. Manages all necessary Database entries regarding ownership\n  function transferFrom(address _from, address _to, uint _tokenId) public payable {\n    require(owners[_tokenId]==_from, 'Address does not hold specific token'); //_from being an option is insecure af!\n    require(prices[_tokenId]<=msg.value, 'Please provide sufficient funds');\n    if (msg.value!=0) {payable(_from).transfer(msg.value);}\n    redoOwnerShipArray (_from,_to,_tokenId);\n    owners[_tokenId]=_to;\n    emit Transfer(_from, _to, _tokenId);\n  }\n\n  //this manages the OwnerShip mapping. If an ID drops from the array because coresponding token has a new owner this logic rebuilds the array.\n  function redoOwnerShipArray (address _from, address _to, uint _tokenId) internal {\n    uint pos;\n    uint arraylen;\n    pos=NFTArrayPos[_tokenId];\n    arraylen=OwnerShip[_from].length;\n    uint[] memory array=new uint[](arraylen);\n    array=OwnerShip[_from];\n    uint[] memory newarray=new uint[](arraylen-1);\n    for (uint i=0; i<pos; i++){\n      newarray[i]=array[i];\n    }\n    uint len;\n    len=array.length;\n    for (uint i=pos+1; i<len; i++){\n      newarray[i-1]=array[i];\n    }\n    uint newlen=newarray.length;\n    require(newlen<len,'Arrays are of equal size and suggest that nothing much happend');\n    OwnerShip[_from]=newarray;\n    OwnerShip[_to].push(_tokenId);\n    pos=OwnerShip[_to].length-1;\n    NFTArrayPos[_tokenId]=pos;\n  }\n\n  /*function redoOwnerShipArraypub (address _from, address _to, uint _tokenId) public {\n    redoOwnerShipArray (_from,_to,_tokenId);\n  }*/\n\n  function buy(uint _tokenid) external payable {\n    require(sellable[_tokenid]==true, \"You only can buy NFTs marked as sellable\");\n    transferFrom(owners[_tokenid], msg.sender, _tokenid);\n    if (clock[_tokenid]!=0) {expirer[_tokenid]=block.timestamp+clock[_tokenid];}\n    sellable[_tokenid]=false; // Still a design choice where to put the sell interaction\n  }\n\n  function sell(uint _tokenid) external {\n    require(owners[_tokenid]==msg.sender, \"You only can sell stuff you own\");\n    if (!doyouownPointer(pointers[_tokenid])) {require(resell[_tokenid]==false, \"You only can sell stuff you own\");}\n    sellable[_tokenid]=true;\n  }\n\n  //this needs a redo since only the contract can sell tokens block.timestamp. Using a parameter in external view is suboptimal\n  function buyableTokens(address sender) external view returns(uint[] memory) {\n    uint x=0;\n    for (uint i=0; i<token_id; i++) {\n      if (sellable[i]==true && owners[i]!=sender) {\n        x++;\n      }\n    }\n    uint[] memory newarray = new uint[](x);\n    x=0;\n    for (uint i=0; i<token_id; i++) {\n      if (sellable[i]==true && owners[i]!=sender) {\n        newarray[x]=i;\n        x++;\n      }\n    }\n    return newarray;\n  }\n\n  //returns the length of the OwnerShipArray coresponding to the address of the message sender.\n  function balance(address sender) external view returns (uint) {\n    uint len;\n    len=OwnerShip[sender].length;\n    return len;\n  }\n\n  //returns the token ids of the address given as parameter. Using a parameter in external view is suboptimal\n  function myTokens(address sender) external view returns(uint[] memory) {\n    uint len=OwnerShip[sender].length;\n    if (len>0) {\n      uint x=0;\n      for (uint i=0; i<len; i++) {\n        if ((expirer[OwnerShip[sender][i]]==0 || expirer[OwnerShip[sender][i]]>=block.timestamp) || !resell[i]==true) {\n          x++;\n        }\n      }\n      uint[] memory array = new uint[](x);\n      x=0;\n      for (uint i=0; i<len; i++) {\n        if ((expirer[OwnerShip[sender][i]]==0 || expirer[OwnerShip[sender][i]]>=block.timestamp) || !resell[i]==true) {\n          array[x]=OwnerShip[sender][i];\n          x++;\n        }\n      }\n      return array;\n    } else {\n      uint[] memory array = OwnerShip[sender];\n      return array;\n    }\n  }\n\n  //returns all pointers currently available\n  function useablePointers() external view onlyOwner returns (string[] memory) {\n    string[] memory somepointers= new string[](pointer_id-pointer_uid);\n    uint len=pointerarray.length;\n    uint x=0;\n    string memory point;\n    for (uint i=0; i<len; i++) {\n      point=pointerarray[i];\n      if (isPointerthere(point)) {\n        somepointers[x]=point;\n        x++;\n      }\n    }\n    return somepointers;\n  }\n\n  function whatownsDataOwner(address dataowner) public view returns(uint[] memory) {\n    uint x=0;\n    uint len=DataOwners[dataowner].length;\n    if (len==0) {\n      return new uint[](0);\n    } else {\n      for (uint i=0;i<len;i++) {\n        if (DataOwners[dataowner][i]<pointer_id){x++;}\n      }\n      if (x==len) {return DataOwners[dataowner];}\n      else{\n        uint[] memory pointer_ids= new uint[](x);\n        for (uint i=0;i<len;i++) {\n          if (DataOwners[dataowner][i]<pointer_id){\n            pointer_ids[x]=DataOwners[dataowner][i];\n            x--;\n          }\n        }\n        return pointer_ids;\n      }\n    }\n  }\n\n  function doyouownPointer(string memory pointer) public view returns(bool) { //should propably be internal\n    bool result=false;\n    uint[] memory valuables=whatownsDataOwner(msg.sender);\n    for(uint x=0; x<valuables.length; x++) {\n      if (compareStrings(pointerarray[valuables[x]],pointer)) {\n        result=true;\n      }\n    }\n    return result;\n  }\n\n    function priceOf(uint _tokenId) external view returns (uint) {\n      return prices[_tokenId];\n    }\n\n    function ownerOf(uint _tokenId) external view returns (address) {\n      return owners[_tokenId];\n    }\n\n    function pointerOf(uint _tokenId) external view returns (string memory) {\n      return pointers[_tokenId];\n    }\n\n    function tokensellable(uint _tokenId) external view returns (bool) {\n      return sellable[_tokenId];\n    }\n\n    function tokenresellable(uint _tokenId) external view returns (bool) {\n      return resell[_tokenId];\n    }\n\n    function tokenownable(uint _tokenId) external view returns (uint) {\n      return clock[_tokenId];\n    }\n\n    function tokenexpires(uint _tokenId) external view returns (uint) {\n      return expirer[_tokenId];\n    }\n\n  function addDataOwner(address dataowner) external onlyOwner {\n    DataOwners[dataowner].push(pointer_id+10**15); //The offset used here is incredibly unelegant and should be replaced with a different mechanism\n  }\n\n  function dataowned(address ow) public view returns(uint[] memory) {\n    return DataOwners[ow];\n  }\n\n  function compareStrings(string memory s1, string memory s2) internal pure returns(bool){\n    return keccak256(abi.encodePacked(s1))==keccak256(abi.encodePacked(s2));\n  }\n\n  function whoisOwner() public view returns(address) {\n    return owner;\n  }\n\n  function PointerstoApprove () external onlyOwner view returns(string[] memory) {\n    string[] memory variouspointers = new string[](pointerstoapprove);\n    uint pos=0;\n    uint len;\n    len=pointerarray.length;\n    for(uint x=0;x<len;x++) {\n      if (pointerExists[pointerarray[x]]==3) {\n        variouspointers[pos]=pointerarray[x];\n        pos++;\n      }\n    }\n    return variouspointers;\n  }\n\n  function isPointerthere (string memory pointer) public view returns (bool) {\n    return pointerExists[pointer]==1;\n  }\n\n  function isDataOwnerthere (address dataowner) public view returns (bool) {\n    return DataOwners[dataowner].length!=0;\n  }\n\n  function whoownsPointer (string memory _pointer) internal view returns (address) {\n    address emptyreturn;\n    uint len=pointerarray.length;\n    for (uint i=0; i<len;) {\n      if (compareStrings(pointerarray[i],_pointer)) {\n        return PointerOwners[i];\n      }\n    }\n    return emptyreturn; //in the front end check for empty address\n  }\n\n  function nextNFTid () public view returns(uint){\n    return token_id;\n  }\n\n  function nextPointerid () public view returns(uint){\n    return pointer_id;\n  }\n\n  function returnContractName () public view returns (string memory){\n    return name_;\n  }\n\n  function returnAddress () public view returns (address){\n    return address(this);\n  }\n\n  function returnSign () public view returns (string memory){\n    return sign_;\n  }\n\n  function terminate() public onlyOwner {\n    selfdestruct(owner);\n  }\n}\n",
  "sourcePath": "/home/ka/Desktop/nft-prototyp/contracts/nexyohub.sol",
  "compiler": {
    "name": "solc",
    "version": "0.8.0+commit.c7dfd78e.Emscripten.clang"
  },
  "schemaVersion": "3.3.4",
  "updatedAt": "2021-05-13T16:15:35.987Z",
  "networkType": "ethereum",
  "devdoc": {
    "kind": "dev",
    "methods": {},
    "version": 1
  },
  "userdoc": {
    "kind": "user",
    "methods": {},
    "version": 1
  }
}