{
  "contractName": "nexyohub",
  "abi": [
    {
      "inputs": [
        {
          "internalType": "string",
          "name": "_name",
          "type": "string"
        }
      ],
      "stateMutability": "nonpayable",
      "type": "constructor"
    },
    {
      "anonymous": false,
      "inputs": [
        {
          "indexed": true,
          "internalType": "address",
          "name": "_owner",
          "type": "address"
        },
        {
          "indexed": true,
          "internalType": "address",
          "name": "_approved",
          "type": "address"
        },
        {
          "indexed": true,
          "internalType": "uint256",
          "name": "_tokenId",
          "type": "uint256"
        }
      ],
      "name": "Approval",
      "type": "event"
    },
    {
      "anonymous": false,
      "inputs": [
        {
          "indexed": true,
          "internalType": "address",
          "name": "_owner",
          "type": "address"
        },
        {
          "indexed": true,
          "internalType": "address",
          "name": "_operator",
          "type": "address"
        },
        {
          "indexed": false,
          "internalType": "bool",
          "name": "_approved",
          "type": "bool"
        }
      ],
      "name": "ApprovalForAll",
      "type": "event"
    },
    {
      "anonymous": false,
      "inputs": [
        {
          "indexed": true,
          "internalType": "address",
          "name": "_from",
          "type": "address"
        },
        {
          "indexed": true,
          "internalType": "address",
          "name": "_to",
          "type": "address"
        },
        {
          "indexed": true,
          "internalType": "uint256",
          "name": "_tokenId",
          "type": "uint256"
        }
      ],
      "name": "Transfer",
      "type": "event"
    },
    {
      "anonymous": false,
      "inputs": [
        {
          "indexed": false,
          "internalType": "address",
          "name": "thisContract",
          "type": "address"
        },
        {
          "indexed": false,
          "internalType": "uint256",
          "name": "myMoney",
          "type": "uint256"
        }
      ],
      "name": "contracttookmymoney",
      "type": "event"
    },
    {
      "inputs": [
        {
          "internalType": "uint256",
          "name": "",
          "type": "uint256"
        }
      ],
      "name": "owners",
      "outputs": [
        {
          "internalType": "address",
          "name": "",
          "type": "address"
        }
      ],
      "stateMutability": "view",
      "type": "function",
      "constant": true
    },
    {
      "inputs": [
        {
          "internalType": "uint256",
          "name": "",
          "type": "uint256"
        }
      ],
      "name": "pointers",
      "outputs": [
        {
          "internalType": "string",
          "name": "",
          "type": "string"
        }
      ],
      "stateMutability": "view",
      "type": "function",
      "constant": true
    },
    {
      "inputs": [
        {
          "internalType": "uint256",
          "name": "",
          "type": "uint256"
        }
      ],
      "name": "prices",
      "outputs": [
        {
          "internalType": "uint256",
          "name": "",
          "type": "uint256"
        }
      ],
      "stateMutability": "view",
      "type": "function",
      "constant": true
    },
    {
      "inputs": [
        {
          "internalType": "uint256",
          "name": "",
          "type": "uint256"
        }
      ],
      "name": "sellable",
      "outputs": [
        {
          "internalType": "bool",
          "name": "",
          "type": "bool"
        }
      ],
      "stateMutability": "view",
      "type": "function",
      "constant": true
    },
    {
      "stateMutability": "payable",
      "type": "receive",
      "payable": true
    },
    {
      "inputs": [
        {
          "internalType": "string",
          "name": "pointer",
          "type": "string"
        }
      ],
      "name": "makePointer",
      "outputs": [],
      "stateMutability": "nonpayable",
      "type": "function"
    },
    {
      "inputs": [
        {
          "internalType": "string[]",
          "name": "pointers",
          "type": "string[]"
        }
      ],
      "name": "revokePointers",
      "outputs": [],
      "stateMutability": "nonpayable",
      "type": "function"
    },
    {
      "inputs": [
        {
          "internalType": "string[]",
          "name": "pointers",
          "type": "string[]"
        }
      ],
      "name": "approvePointers",
      "outputs": [],
      "stateMutability": "nonpayable",
      "type": "function"
    },
    {
      "inputs": [
        {
          "internalType": "address",
          "name": "newowner",
          "type": "address"
        },
        {
          "internalType": "string",
          "name": "pointer",
          "type": "string"
        }
      ],
      "name": "mint_to",
      "outputs": [],
      "stateMutability": "nonpayable",
      "type": "function"
    },
    {
      "inputs": [
        {
          "internalType": "string",
          "name": "pointer",
          "type": "string"
        }
      ],
      "name": "mint",
      "outputs": [],
      "stateMutability": "nonpayable",
      "type": "function"
    },
    {
      "inputs": [
        {
          "internalType": "uint256",
          "name": "cost",
          "type": "uint256"
        },
        {
          "internalType": "uint256",
          "name": "token",
          "type": "uint256"
        }
      ],
      "name": "setPrice",
      "outputs": [],
      "stateMutability": "nonpayable",
      "type": "function"
    },
    {
      "inputs": [
        {
          "internalType": "address",
          "name": "_from",
          "type": "address"
        },
        {
          "internalType": "address",
          "name": "_to",
          "type": "address"
        },
        {
          "internalType": "uint256",
          "name": "_tokenId",
          "type": "uint256"
        }
      ],
      "name": "transferFrom",
      "outputs": [],
      "stateMutability": "payable",
      "type": "function",
      "payable": true
    },
    {
      "inputs": [
        {
          "internalType": "uint256",
          "name": "_tokenid",
          "type": "uint256"
        }
      ],
      "name": "buy",
      "outputs": [],
      "stateMutability": "payable",
      "type": "function",
      "payable": true
    },
    {
      "inputs": [
        {
          "internalType": "uint256",
          "name": "_tokenid",
          "type": "uint256"
        }
      ],
      "name": "sell",
      "outputs": [],
      "stateMutability": "nonpayable",
      "type": "function"
    },
    {
      "inputs": [
        {
          "internalType": "address",
          "name": "sender",
          "type": "address"
        }
      ],
      "name": "buyableTokens",
      "outputs": [
        {
          "internalType": "uint256[]",
          "name": "",
          "type": "uint256[]"
        }
      ],
      "stateMutability": "view",
      "type": "function",
      "constant": true
    },
    {
      "inputs": [
        {
          "internalType": "address",
          "name": "sender",
          "type": "address"
        }
      ],
      "name": "balance",
      "outputs": [
        {
          "internalType": "uint256",
          "name": "",
          "type": "uint256"
        }
      ],
      "stateMutability": "view",
      "type": "function",
      "constant": true
    },
    {
      "inputs": [
        {
          "internalType": "address",
          "name": "sender",
          "type": "address"
        }
      ],
      "name": "myTokens",
      "outputs": [
        {
          "internalType": "uint256[]",
          "name": "",
          "type": "uint256[]"
        }
      ],
      "stateMutability": "view",
      "type": "function",
      "constant": true
    },
    {
      "inputs": [],
      "name": "useablePointers",
      "outputs": [
        {
          "internalType": "string[]",
          "name": "",
          "type": "string[]"
        }
      ],
      "stateMutability": "view",
      "type": "function",
      "constant": true
    },
    {
      "inputs": [
        {
          "internalType": "uint256",
          "name": "_tokenId",
          "type": "uint256"
        }
      ],
      "name": "priceOf",
      "outputs": [
        {
          "internalType": "uint256",
          "name": "",
          "type": "uint256"
        }
      ],
      "stateMutability": "view",
      "type": "function",
      "constant": true
    },
    {
      "inputs": [
        {
          "internalType": "uint256",
          "name": "_tokenId",
          "type": "uint256"
        }
      ],
      "name": "ownerOf",
      "outputs": [
        {
          "internalType": "address",
          "name": "",
          "type": "address"
        }
      ],
      "stateMutability": "view",
      "type": "function",
      "constant": true
    },
    {
      "inputs": [
        {
          "internalType": "uint256",
          "name": "_tokenId",
          "type": "uint256"
        }
      ],
      "name": "pointerOf",
      "outputs": [
        {
          "internalType": "string",
          "name": "",
          "type": "string"
        }
      ],
      "stateMutability": "view",
      "type": "function",
      "constant": true
    },
    {
      "inputs": [
        {
          "internalType": "uint256",
          "name": "_tokenId",
          "type": "uint256"
        }
      ],
      "name": "tokensellable",
      "outputs": [
        {
          "internalType": "bool",
          "name": "",
          "type": "bool"
        }
      ],
      "stateMutability": "view",
      "type": "function",
      "constant": true
    },
    {
      "inputs": [
        {
          "internalType": "address",
          "name": "dataowner",
          "type": "address"
        }
      ],
      "name": "addDataOwner",
      "outputs": [],
      "stateMutability": "nonpayable",
      "type": "function"
    },
    {
      "inputs": [
        {
          "internalType": "address",
          "name": "dataowner",
          "type": "address"
        }
      ],
      "name": "whatownsDataOwner",
      "outputs": [
        {
          "internalType": "uint256[]",
          "name": "",
          "type": "uint256[]"
        }
      ],
      "stateMutability": "view",
      "type": "function",
      "constant": true
    },
    {
      "inputs": [
        {
          "internalType": "string",
          "name": "pointer",
          "type": "string"
        }
      ],
      "name": "doyouownPointer",
      "outputs": [
        {
          "internalType": "bool",
          "name": "",
          "type": "bool"
        }
      ],
      "stateMutability": "view",
      "type": "function",
      "constant": true
    },
    {
      "inputs": [
        {
          "internalType": "address",
          "name": "ow",
          "type": "address"
        }
      ],
      "name": "dataowned",
      "outputs": [
        {
          "internalType": "uint256[]",
          "name": "",
          "type": "uint256[]"
        }
      ],
      "stateMutability": "view",
      "type": "function",
      "constant": true
    },
    {
      "inputs": [],
      "name": "whoisOwner",
      "outputs": [
        {
          "internalType": "address",
          "name": "",
          "type": "address"
        }
      ],
      "stateMutability": "view",
      "type": "function",
      "constant": true
    },
    {
      "inputs": [],
      "name": "PointerstoApprove",
      "outputs": [
        {
          "internalType": "string[]",
          "name": "",
          "type": "string[]"
        }
      ],
      "stateMutability": "nonpayable",
      "type": "function"
    },
    {
      "inputs": [
        {
          "internalType": "string",
          "name": "pointer",
          "type": "string"
        }
      ],
      "name": "isPointerthere",
      "outputs": [
        {
          "internalType": "bool",
          "name": "",
          "type": "bool"
        }
      ],
      "stateMutability": "view",
      "type": "function",
      "constant": true
    },
    {
      "inputs": [
        {
          "internalType": "address",
          "name": "dataowner",
          "type": "address"
        }
      ],
      "name": "isDataOwnerthere",
      "outputs": [
        {
          "internalType": "bool",
          "name": "",
          "type": "bool"
        }
      ],
      "stateMutability": "view",
      "type": "function",
      "constant": true
    },
    {
      "inputs": [],
      "name": "nextNFTid",
      "outputs": [
        {
          "internalType": "uint256",
          "name": "",
          "type": "uint256"
        }
      ],
      "stateMutability": "view",
      "type": "function",
      "constant": true
    },
    {
      "inputs": [],
      "name": "nextPointerid",
      "outputs": [
        {
          "internalType": "uint256",
          "name": "",
          "type": "uint256"
        }
      ],
      "stateMutability": "view",
      "type": "function",
      "constant": true
    },
    {
      "inputs": [],
      "name": "returnContractName",
      "outputs": [
        {
          "internalType": "string",
          "name": "",
          "type": "string"
        }
      ],
      "stateMutability": "view",
      "type": "function",
      "constant": true
    },
    {
      "inputs": [],
      "name": "returnAddress",
      "outputs": [
        {
          "internalType": "address",
          "name": "",
          "type": "address"
        }
      ],
      "stateMutability": "view",
      "type": "function",
      "constant": true
    },
    {
      "inputs": [],
      "name": "returnSign",
      "outputs": [
        {
          "internalType": "string",
          "name": "",
          "type": "string"
        }
      ],
      "stateMutability": "view",
      "type": "function",
      "constant": true
    },
    {
      "inputs": [],
      "name": "terminate",
      "outputs": [],
      "stateMutability": "nonpayable",
      "type": "function"
    }
  ],
  "bytecode": "0x60806040526000600b556000600c556000600d556000600e556801bc16d674ec800000601055670de0b6b3a76400006011553480156200003e57600080fd5b5060405162004e9c38038062004e9c833981810160405281019062000064919062000294565b6010543373ffffffffffffffffffffffffffffffffffffffff16311015620000c3576040517f08c379a0000000000000000000000000000000000000000000000000000000008152600401620000ba906200031b565b60405180910390fd5b8060089080519060200190620000db92919062000172565b506040518060400160405280600581526020017f4e584e4654000000000000000000000000000000000000000000000000000000815250600990805190602001906200012992919062000172565b5033600a60006101000a81548173ffffffffffffffffffffffffffffffffffffffff021916908373ffffffffffffffffffffffffffffffffffffffff160217905550506200047f565b8280546200018090620003eb565b90600052602060002090601f016020900481019282620001a45760008555620001f0565b82601f10620001bf57805160ff1916838001178555620001f0565b82800160010185558215620001f0579182015b82811115620001ef578251825591602001919060010190620001d2565b5b509050620001ff919062000203565b5090565b5b808211156200021e57600081600090555060010162000204565b5090565b600062000239620002338462000371565b6200033d565b9050828152602081018484840111156200025257600080fd5b6200025f848285620003b5565b509392505050565b600082601f8301126200027957600080fd5b81516200028b84826020860162000222565b91505092915050565b600060208284031215620002a757600080fd5b600082015167ffffffffffffffff811115620002c257600080fd5b620002d08482850162000267565b91505092915050565b6000620002e8601d83620003a4565b91507f506c656173652070726f76696465207375666669656e742046756e64730000006000830152602082019050919050565b600060208201905081810360008301526200033681620002d9565b9050919050565b6000604051905081810181811067ffffffffffffffff8211171562000367576200036662000450565b5b8060405250919050565b600067ffffffffffffffff8211156200038f576200038e62000450565b5b601f19601f8301169050602081019050919050565b600082825260208201905092915050565b60005b83811015620003d5578082015181840152602081019050620003b8565b83811115620003e5576000848401525b50505050565b600060028204905060018216806200040457607f821691505b602082108114156200041b576200041a62000421565b5b50919050565b7f4e487b7100000000000000000000000000000000000000000000000000000000600052602260045260246000fd5b7f4e487b7100000000000000000000000000000000000000000000000000000000600052604160045260246000fd5b614a0d806200048f6000396000f3fe6080604052600436106102085760003560e01c80638956f3d411610118578063d85d3d27116100a0578063e3d670d71161006f578063e3d670d714610815578063e4849b3214610852578063f1e636801461087b578063f7d97577146108a6578063ff7be29e146108cf57610248565b8063d85d3d2714610756578063d96a094a1461077f578063dc1df3f61461079b578063e285497b146107d857610248565b8063b3142005116100e7578063b314200514610625578063b6ab43e614610662578063b9186d7d1461069f578063bc31c1c1146106dc578063c10e7cc21461071957610248565b80638956f3d414610569578063943640c3146105925780639c05c7ca146105bd578063ad9c4627146105e857610248565b80632eae62dc1161019b5780636352211e1161016a5780636352211e146104725780637b94a2a1146104af5780637ce4d23a146104ec5780637d817835146105175780637e2826821461054057610248565b80632eae62dc146103a2578063305f16f4146103cd5780633348cc0a146103f857806345912d971461043557610248565b8063218f7d6e116101d7578063218f7d6e146102f557806321ea7fd31461031e57806323b872dd146103495780632b5ba5ab1461036557610248565b8063025e7c271461024d578063090d43881461028a5780630c08bf88146102b357806314feb3cb146102ca57610248565b36610248577f4e2ced4d2c3ee1a077c8c313167e6d86b8fe49c37f9d00e5ed1f37265d50be6a303460405161023e929190614307565b60405180910390a1005b600080fd5b34801561025957600080fd5b50610274600480360381019061026f9190613b32565b61090c565b60405161028191906142ec565b60405180910390f35b34801561029657600080fd5b506102b160048036038101906102ac91906139e4565b61093f565b005b3480156102bf57600080fd5b506102c8610aa8565b005b3480156102d657600080fd5b506102df610bcf565b6040516102ec919061438f565b60405180910390f35b34801561030157600080fd5b5061031c60048036038101906103179190613af1565b610c61565b005b34801561032a57600080fd5b50610333611207565b6040516103409190614591565b60405180910390f35b610363600480360381019061035e9190613a0d565b611211565b005b34801561037157600080fd5b5061038c600480360381019061038791906139e4565b61140a565b6040516103999190614352565b60405180910390f35b3480156103ae57600080fd5b506103b76114a1565b6040516103c491906142ec565b60405180910390f35b3480156103d957600080fd5b506103e26114cb565b6040516103ef919061438f565b60405180910390f35b34801561040457600080fd5b5061041f600480360381019061041a9190613af1565b61155d565b60405161042c9190614374565b60405180910390f35b34801561044157600080fd5b5061045c60048036038101906104579190613b32565b6116bb565b604051610469919061438f565b60405180910390f35b34801561047e57600080fd5b5061049960048036038101906104949190613b32565b611760565b6040516104a691906142ec565b60405180910390f35b3480156104bb57600080fd5b506104d660048036038101906104d191906139e4565b61179c565b6040516104e39190614352565b60405180910390f35b3480156104f857600080fd5b506105016119f4565b60405161050e9190614330565b60405180910390f35b34801561052357600080fd5b5061053e60048036038101906105399190613a5c565b611cd1565b005b34801561054c57600080fd5b5061056760048036038101906105629190613ab0565b611f2c565b005b34801561057557600080fd5b50610590600480360381019061058b9190613ab0565b6121d9565b005b34801561059e57600080fd5b506105a761240e565b6040516105b491906142ec565b60405180910390f35b3480156105c957600080fd5b506105d2612416565b6040516105df9190614330565b60405180910390f35b3480156105f457600080fd5b5061060f600480360381019061060a91906139e4565b61274b565b60405161061c9190614352565b60405180910390f35b34801561063157600080fd5b5061064c600480360381019061064791906139e4565b612b6e565b6040516106599190614374565b60405180910390f35b34801561066e57600080fd5b5061068960048036038101906106849190613b32565b612bbd565b604051610696919061438f565b60405180910390f35b3480156106ab57600080fd5b506106c660048036038101906106c19190613b32565b612c5d565b6040516106d39190614591565b60405180910390f35b3480156106e857600080fd5b5061070360048036038101906106fe9190613b32565b612c7a565b6040516107109190614591565b60405180910390f35b34801561072557600080fd5b50610740600480360381019061073b9190613b32565b612c92565b60405161074d9190614374565b60405180910390f35b34801561076257600080fd5b5061077d60048036038101906107789190613af1565b612cbc565b005b61079960048036038101906107949190613b32565b612f04565b005b3480156107a757600080fd5b506107c260048036038101906107bd91906139e4565b612fd7565b6040516107cf9190614352565b60405180910390f35b3480156107e457600080fd5b506107ff60048036038101906107fa9190613af1565b613073565b60405161080c9190614374565b60405180910390f35b34801561082157600080fd5b5061083c600480360381019061083791906139e4565b6130ae565b6040516108499190614591565b60405180910390f35b34801561085e57600080fd5b5061087960048036038101906108749190613b32565b6130ff565b005b34801561088757600080fd5b506108906131ce565b60405161089d9190614591565b60405180910390f35b3480156108b257600080fd5b506108cd60048036038101906108c89190613b5b565b6131d8565b005b3480156108db57600080fd5b506108f660048036038101906108f19190613b32565b6132a1565b6040516109039190614374565b60405180910390f35b60006020528060005260406000206000915054906101000a900473ffffffffffffffffffffffffffffffffffffffff1681565b3373ffffffffffffffffffffffffffffffffffffffff16600a60009054906101000a900473ffffffffffffffffffffffffffffffffffffffff1673ffffffffffffffffffffffffffffffffffffffff16146109cf576040517f08c379a00000000000000000000000000000000000000000000000000000000081526004016109c690614471565b60405180910390fd5b6010543373ffffffffffffffffffffffffffffffffffffffff16311015610a2b576040517f08c379a0000000000000000000000000000000000000000000000000000000008152600401610a2290614431565b60405180910390fd5b600560008273ffffffffffffffffffffffffffffffffffffffff1673ffffffffffffffffffffffffffffffffffffffff16815260200190815260200160002066038d7ea4c68000600c54610a7f91906146f8565b908060018154018082558091505060019003906000526020600020016000909190919091505550565b3373ffffffffffffffffffffffffffffffffffffffff16600a60009054906101000a900473ffffffffffffffffffffffffffffffffffffffff1673ffffffffffffffffffffffffffffffffffffffff1614610b38576040517f08c379a0000000000000000000000000000000000000000000000000000000008152600401610b2f90614471565b60405180910390fd5b6010543373ffffffffffffffffffffffffffffffffffffffff16311015610b94576040517f08c379a0000000000000000000000000000000000000000000000000000000008152600401610b8b90614431565b60405180910390fd5b600a60009054906101000a900473ffffffffffffffffffffffffffffffffffffffff1673ffffffffffffffffffffffffffffffffffffffff16ff5b606060088054610bde90614890565b80601f0160208091040260200160405190810160405280929190818152602001828054610c0a90614890565b8015610c575780601f10610c2c57610100808354040283529160200191610c57565b820191906000526020600020905b815481529060010190602001808311610c3a57829003601f168201915b5050505050905090565b6000600560003373ffffffffffffffffffffffffffffffffffffffff1673ffffffffffffffffffffffffffffffffffffffff168152602001908152602001600020805490501180610cff5750600a60009054906101000a900473ffffffffffffffffffffffffffffffffffffffff1673ffffffffffffffffffffffffffffffffffffffff163373ffffffffffffffffffffffffffffffffffffffff16145b610d3e576040517f08c379a0000000000000000000000000000000000000000000000000000000008152600401610d3590614411565b60405180910390fd5b6001600482604051610d5091906142be565b908152602001604051809103902060009054906101000a900460ff1660ff1614158015610dac57506003600482604051610d8a91906142be565b908152602001604051809103902060009054906101000a900460ff1660ff1614155b610deb576040517f08c379a0000000000000000000000000000000000000000000000000000000008152600401610de290614451565b60405180910390fd5b6000600482604051610dfd91906142be565b908152602001604051809103902060009054906101000a900460ff1660ff1614156111b357600a60009054906101000a900473ffffffffffffffffffffffffffffffffffffffff1673ffffffffffffffffffffffffffffffffffffffff163373ffffffffffffffffffffffffffffffffffffffff161415610eb5576001600482604051610e8a91906142be565b908152602001604051809103902060006101000a81548160ff021916908360ff160217905550610f1e565b6003600482604051610ec791906142be565b908152602001604051809103902060006101000a81548160ff021916908360ff160217905550600e6000815480929190610f00906148c2565b9190505550600d6000815480929190610f18906148c2565b91905055505b600f81908060018154018082558091505060019003906000526020600020016000909190919091509080519060200190610f599291906137db565b506000600560003373ffffffffffffffffffffffffffffffffffffffff1673ffffffffffffffffffffffffffffffffffffffff16815260200190815260200160002080549050111561112d57600c54600560003373ffffffffffffffffffffffffffffffffffffffff1673ffffffffffffffffffffffffffffffffffffffff168152602001908152602001600020600081548110611020577f4e487b7100000000000000000000000000000000000000000000000000000000600052603260045260246000fd5b906000526020600020015411156110bf57600c54600560003373ffffffffffffffffffffffffffffffffffffffff1673ffffffffffffffffffffffffffffffffffffffff1681526020019081526020016000206000815481106110ac577f4e487b7100000000000000000000000000000000000000000000000000000000600052603260045260246000fd5b9060005260206000200181905550611128565b600560003373ffffffffffffffffffffffffffffffffffffffff1673ffffffffffffffffffffffffffffffffffffffff168152602001908152602001600020600c5490806001815401808255809150506001900390600052602060002001600090919091909150555b611196565b600560003373ffffffffffffffffffffffffffffffffffffffff1673ffffffffffffffffffffffffffffffffffffffff168152602001908152602001600020600c5490806001815401808255809150506001900390600052602060002001600090919091909150555b600c60008154809291906111a9906148c2565b9190505550611204565b60016004826040516111c591906142be565b908152602001604051809103902060006101000a81548160ff021916908360ff160217905550600d60008154809291906111fe90614866565b91905055505b50565b6000600c54905090565b8273ffffffffffffffffffffffffffffffffffffffff1660008083815260200190815260200160002060009054906101000a900473ffffffffffffffffffffffffffffffffffffffff1673ffffffffffffffffffffffffffffffffffffffff16146112b1576040517f08c379a00000000000000000000000000000000000000000000000000000000081526004016112a8906143f1565b60405180910390fd5b3460026000838152602001908152602001600020541115611307576040517f08c379a00000000000000000000000000000000000000000000000000000000081526004016112fe90614551565b60405180910390fd5b8273ffffffffffffffffffffffffffffffffffffffff166108fc349081150290604051600060405180830381858888f1935050505015801561134d573d6000803e3d6000fd5b506113598383836132c1565b8160008083815260200190815260200160002060006101000a81548173ffffffffffffffffffffffffffffffffffffffff021916908373ffffffffffffffffffffffffffffffffffffffff160217905550808273ffffffffffffffffffffffffffffffffffffffff168473ffffffffffffffffffffffffffffffffffffffff167fddf252ad1be2c89b69c2b068fc378daa952ba7f163c4a11628f55a4df523b3ef60405160405180910390a4505050565b6060600560008373ffffffffffffffffffffffffffffffffffffffff1673ffffffffffffffffffffffffffffffffffffffff16815260200190815260200160002080548060200260200160405190810160405280929190818152602001828054801561149557602002820191906000526020600020905b815481526020019060010190808311611481575b50505050509050919050565b6000600a60009054906101000a900473ffffffffffffffffffffffffffffffffffffffff16905090565b6060600980546114da90614890565b80601f016020809104026020016040519081016040528092919081815260200182805461150690614890565b80156115535780601f1061152857610100808354040283529160200191611553565b820191906000526020600020905b81548152906001019060200180831161153657829003601f168201915b5050505050905090565b60008060009050600061156f3361274b565b905060005b81518110156116b057611693600f8383815181106115bb577f4e487b7100000000000000000000000000000000000000000000000000000000600052603260045260246000fd5b6020026020010151815481106115fa577f4e487b7100000000000000000000000000000000000000000000000000000000600052603260045260246000fd5b90600052602060002001805461160f90614890565b80601f016020809104026020016040519081016040528092919081815260200182805461163b90614890565b80156116885780601f1061165d57610100808354040283529160200191611688565b820191906000526020600020905b81548152906001019060200180831161166b57829003601f168201915b505050505086613782565b1561169d57600192505b80806116a8906148c2565b915050611574565b508192505050919050565b60606001600083815260200190815260200160002080546116db90614890565b80601f016020809104026020016040519081016040528092919081815260200182805461170790614890565b80156117545780601f1061172957610100808354040283529160200191611754565b820191906000526020600020905b81548152906001019060200180831161173757829003601f168201915b50505050509050919050565b600080600083815260200190815260200160002060009054906101000a900473ffffffffffffffffffffffffffffffffffffffff169050919050565b60606000805b600b5481101561186557600115156003600083815260200190815260200160002060009054906101000a900460ff16151514801561183e57508373ffffffffffffffffffffffffffffffffffffffff1660008083815260200190815260200160002060009054906101000a900473ffffffffffffffffffffffffffffffffffffffff1673ffffffffffffffffffffffffffffffffffffffff1614155b1561185257818061184e906148c2565b9250505b808061185d906148c2565b9150506117a2565b5060008167ffffffffffffffff8111156118a8577f4e487b7100000000000000000000000000000000000000000000000000000000600052604160045260246000fd5b6040519080825280602002602001820160405280156118d65781602001602082028036833780820191505090505b5090506000915060005b600b548110156119e957600115156003600083815260200190815260200160002060009054906101000a900460ff16151514801561197c57508473ffffffffffffffffffffffffffffffffffffffff1660008083815260200190815260200160002060009054906101000a900473ffffffffffffffffffffffffffffffffffffffff1673ffffffffffffffffffffffffffffffffffffffff1614155b156119d657808284815181106119bb577f4e487b7100000000000000000000000000000000000000000000000000000000600052603260045260246000fd5b60200260200101818152505082806119d2906148c2565b9350505b80806119e1906148c2565b9150506118e0565b508092505050919050565b60603373ffffffffffffffffffffffffffffffffffffffff16600a60009054906101000a900473ffffffffffffffffffffffffffffffffffffffff1673ffffffffffffffffffffffffffffffffffffffff1614611a86576040517f08c379a0000000000000000000000000000000000000000000000000000000008152600401611a7d90614471565b60405180910390fd5b6010543373ffffffffffffffffffffffffffffffffffffffff16311015611ae2576040517f08c379a0000000000000000000000000000000000000000000000000000000008152600401611ad990614431565b60405180910390fd5b6000600d54600c54611af491906147a8565b67ffffffffffffffff811115611b33577f4e487b7100000000000000000000000000000000000000000000000000000000600052604160045260246000fd5b604051908082528060200260200182016040528015611b6657816020015b6060815260200190600190039081611b515790505b5090506000600f8054905090506000606060005b83811015611cc657600f8181548110611bbc577f4e487b7100000000000000000000000000000000000000000000000000000000600052603260045260246000fd5b906000526020600020018054611bd190614890565b80601f0160208091040260200160405190810160405280929190818152602001828054611bfd90614890565b8015611c4a5780601f10611c1f57610100808354040283529160200191611c4a565b820191906000526020600020905b815481529060010190602001808311611c2d57829003601f168201915b50505050509150611c5a82613073565b15611cb35781858481518110611c99577f4e487b7100000000000000000000000000000000000000000000000000000000600052603260045260246000fd5b60200260200101819052508280611caf906148c2565b9350505b8080611cbe906148c2565b915050611b7a565b508394505050505090565b611cda82612b6e565b611d19576040517f08c379a0000000000000000000000000000000000000000000000000000000008152600401611d10906144d1565b60405180910390fd5b611d2281613073565b611d2b57600080fd5b611d348161155d565b611d73576040517f08c379a0000000000000000000000000000000000000000000000000000000008152600401611d6a90614491565b60405180910390fd5b81600080600b54815260200190815260200160002060006101000a81548173ffffffffffffffffffffffffffffffffffffffff021916908373ffffffffffffffffffffffffffffffffffffffff1602179055506000600660008473ffffffffffffffffffffffffffffffffffffffff1673ffffffffffffffffffffffffffffffffffffffff168152602001908152602001600020600b5490806001815401808255809150506001900390600052602060002001600090919091909150556001600660008573ffffffffffffffffffffffffffffffffffffffff1673ffffffffffffffffffffffffffffffffffffffff16815260200190815260200160002080549050611e7f91906147a8565b90508060076000600b548152602001908152602001600020819055508160016000600b5481526020019081526020016000209080519060200190611ec49291906137db565b5060115460026000600b54815260200190815260200160002081905550600060036000600b54815260200190815260200160002060006101000a81548160ff021916908315150217905550600b6000815480929190611f22906148c2565b9190505550505050565b3373ffffffffffffffffffffffffffffffffffffffff16600a60009054906101000a900473ffffffffffffffffffffffffffffffffffffffff1673ffffffffffffffffffffffffffffffffffffffff1614611fbc576040517f08c379a0000000000000000000000000000000000000000000000000000000008152600401611fb390614471565b60405180910390fd5b6010543373ffffffffffffffffffffffffffffffffffffffff16311015612018576040517f08c379a000000000000000000000000000000000000000000000000000000000815260040161200f90614431565b60405180910390fd5b60008151905060005b818110156121d45760011515612076848381518110612069577f4e487b7100000000000000000000000000000000000000000000000000000000600052603260045260246000fd5b6020026020010151613073565b151514156120b9576040517f08c379a00000000000000000000000000000000000000000000000000000000081526004016120b090614531565b60405180910390fd5b600360048483815181106120f6577f4e487b7100000000000000000000000000000000000000000000000000000000600052603260045260246000fd5b602002602001015160405161210b91906142be565b908152602001604051809103902060009054906101000a900460ff1660ff16141561214957600e600081548092919061214390614866565b91905055505b60026004848381518110612186577f4e487b7100000000000000000000000000000000000000000000000000000000600052603260045260246000fd5b602002602001015160405161219b91906142be565b908152602001604051809103902060006101000a81548160ff021916908360ff16021790555080806121cc906148c2565b915050612021565b505050565b3373ffffffffffffffffffffffffffffffffffffffff16600a60009054906101000a900473ffffffffffffffffffffffffffffffffffffffff1673ffffffffffffffffffffffffffffffffffffffff1614612269576040517f08c379a000000000000000000000000000000000000000000000000000000000815260040161226090614471565b60405180910390fd5b6010543373ffffffffffffffffffffffffffffffffffffffff163110156122c5576040517f08c379a00000000000000000000000000000000000000000000000000000000081526004016122bc90614431565b60405180910390fd5b60008151905060005b818110156124095760036004848381518110612313577f4e487b7100000000000000000000000000000000000000000000000000000000600052603260045260246000fd5b602002602001015160405161232891906142be565b908152602001604051809103902060009054906101000a900460ff1660ff1614156123f6576001600484838151811061238a577f4e487b7100000000000000000000000000000000000000000000000000000000600052603260045260246000fd5b602002602001015160405161239f91906142be565b908152602001604051809103902060006101000a81548160ff021916908360ff160217905550600e60008154809291906123d890614866565b9190505550600d60008154809291906123f090614866565b91905055505b8080612401906148c2565b9150506122ce565b505050565b600030905090565b60603373ffffffffffffffffffffffffffffffffffffffff16600a60009054906101000a900473ffffffffffffffffffffffffffffffffffffffff1673ffffffffffffffffffffffffffffffffffffffff16146124a8576040517f08c379a000000000000000000000000000000000000000000000000000000000815260040161249f90614471565b60405180910390fd5b6010543373ffffffffffffffffffffffffffffffffffffffff16311015612504576040517f08c379a00000000000000000000000000000000000000000000000000000000081526004016124fb90614431565b60405180910390fd5b6000600e5467ffffffffffffffff811115612548577f4e487b7100000000000000000000000000000000000000000000000000000000600052604160045260246000fd5b60405190808252806020026020018201604052801561257b57816020015b60608152602001906001900390816125665790505b509050600080600f80549050905060005b818110156127415760036004600f83815481106125d2577f4e487b7100000000000000000000000000000000000000000000000000000000600052603260045260246000fd5b906000526020600020016040516125e991906142d5565b908152602001604051809103902060009054906101000a900460ff1660ff16141561272e57600f8181548110612648577f4e487b7100000000000000000000000000000000000000000000000000000000600052603260045260246000fd5b90600052602060002001805461265d90614890565b80601f016020809104026020016040519081016040528092919081815260200182805461268990614890565b80156126d65780601f106126ab576101008083540402835291602001916126d6565b820191906000526020600020905b8154815290600101906020018083116126b957829003601f168201915b5050505050848481518110612714577f4e487b7100000000000000000000000000000000000000000000000000000000600052603260045260246000fd5b6020026020010181905250828061272a906148c2565b9350505b8080612739906148c2565b91505061258c565b5082935050505090565b6060600080600560008573ffffffffffffffffffffffffffffffffffffffff1673ffffffffffffffffffffffffffffffffffffffff168152602001908152602001600020805490509050600081141561281757600067ffffffffffffffff8111156127df577f4e487b7100000000000000000000000000000000000000000000000000000000600052604160045260246000fd5b60405190808252806020026020018201604052801561280d5781602001602082028036833780820191505090505b5092505050612b69565b60005b818110156128cf57600c54600560008773ffffffffffffffffffffffffffffffffffffffff1673ffffffffffffffffffffffffffffffffffffffff168152602001908152602001600020828154811061289c577f4e487b7100000000000000000000000000000000000000000000000000000000600052603260045260246000fd5b906000526020600020015410156128bc5782806128b8906148c2565b9350505b80806128c7906148c2565b91505061281a565b508082141561296f57600560008573ffffffffffffffffffffffffffffffffffffffff1673ffffffffffffffffffffffffffffffffffffffff16815260200190815260200160002080548060200260200160405190810160405280929190818152602001828054801561296157602002820191906000526020600020905b81548152602001906001019080831161294d575b505050505092505050612b69565b60008267ffffffffffffffff8111156129b1577f4e487b7100000000000000000000000000000000000000000000000000000000600052604160045260246000fd5b6040519080825280602002602001820160405280156129df5781602001602082028036833780820191505090505b50905060005b82811015612b6157600c54600560008873ffffffffffffffffffffffffffffffffffffffff1673ffffffffffffffffffffffffffffffffffffffff1681526020019081526020016000208281548110612a67577f4e487b7100000000000000000000000000000000000000000000000000000000600052603260045260246000fd5b90600052602060002001541015612b4e57600560008773ffffffffffffffffffffffffffffffffffffffff1673ffffffffffffffffffffffffffffffffffffffff1681526020019081526020016000208181548110612aef577f4e487b7100000000000000000000000000000000000000000000000000000000600052603260045260246000fd5b9060005260206000200154828581518110612b33577f4e487b7100000000000000000000000000000000000000000000000000000000600052603260045260246000fd5b6020026020010181815250508380612b4a90614866565b9450505b8080612b59906148c2565b9150506129e5565b508093505050505b919050565b600080600560008473ffffffffffffffffffffffffffffffffffffffff1673ffffffffffffffffffffffffffffffffffffffff1681526020019081526020016000208054905014159050919050565b60016020528060005260406000206000915090508054612bdc90614890565b80601f0160208091040260200160405190810160405280929190818152602001828054612c0890614890565b8015612c555780601f10612c2a57610100808354040283529160200191612c55565b820191906000526020600020905b815481529060010190602001808311612c3857829003601f168201915b505050505081565b600060026000838152602001908152602001600020549050919050565b60026020528060005260406000206000915090505481565b60006003600083815260200190815260200160002060009054906101000a900460ff169050919050565b612cc581613073565b612d04576040517f08c379a0000000000000000000000000000000000000000000000000000000008152600401612cfb90614571565b60405180910390fd5b612d0d33612b6e565b612d4c576040517f08c379a0000000000000000000000000000000000000000000000000000000008152600401612d4390614511565b60405180910390fd5b33600080600b54815260200190815260200160002060006101000a81548173ffffffffffffffffffffffffffffffffffffffff021916908373ffffffffffffffffffffffffffffffffffffffff1602179055506000600660003373ffffffffffffffffffffffffffffffffffffffff1673ffffffffffffffffffffffffffffffffffffffff168152602001908152602001600020600b5490806001815401808255809150506001900390600052602060002001600090919091909150556001600660003373ffffffffffffffffffffffffffffffffffffffff1673ffffffffffffffffffffffffffffffffffffffff16815260200190815260200160002080549050612e5891906147a8565b90508060076000600b548152602001908152602001600020819055508160016000600b5481526020019081526020016000209080519060200190612e9d9291906137db565b5060115460026000600b54815260200190815260200160002081905550600060036000600b54815260200190815260200160002060006101000a81548160ff021916908315150217905550600b6000815480929190612efb906148c2565b91905055505050565b600115156003600083815260200190815260200160002060009054906101000a900460ff16151514612f6b576040517f08c379a0000000000000000000000000000000000000000000000000000000008152600401612f62906143d1565b60405180910390fd5b612fa860008083815260200190815260200160002060009054906101000a900473ffffffffffffffffffffffffffffffffffffffff163383611211565b60006003600083815260200190815260200160002060006101000a81548160ff02191690831515021790555050565b606080600660008473ffffffffffffffffffffffffffffffffffffffff1673ffffffffffffffffffffffffffffffffffffffff16815260200190815260200160002080548060200260200160405190810160405280929190818152602001828054801561306357602002820191906000526020600020905b81548152602001906001019080831161304f575b5050505050905080915050919050565b6000600160048360405161308791906142be565b908152602001604051809103902060009054906101000a900460ff1660ff16149050919050565b600080600660008473ffffffffffffffffffffffffffffffffffffffff1673ffffffffffffffffffffffffffffffffffffffff16815260200190815260200160002080549050905080915050919050565b3373ffffffffffffffffffffffffffffffffffffffff1660008083815260200190815260200160002060009054906101000a900473ffffffffffffffffffffffffffffffffffffffff1673ffffffffffffffffffffffffffffffffffffffff161461319f576040517f08c379a0000000000000000000000000000000000000000000000000000000008152600401613196906143b1565b60405180910390fd5b60016003600083815260200190815260200160002060006101000a81548160ff02191690831515021790555050565b6000600b54905090565b3373ffffffffffffffffffffffffffffffffffffffff1660008083815260200190815260200160002060009054906101000a900473ffffffffffffffffffffffffffffffffffffffff1673ffffffffffffffffffffffffffffffffffffffff1614613278576040517f08c379a000000000000000000000000000000000000000000000000000000000815260040161326f906144f1565b60405180910390fd5b60115482613286919061474e565b60026000838152602001908152602001600020819055505050565b60036020528060005260406000206000915054906101000a900460ff1681565b60008060076000848152602001908152602001600020549150600660008673ffffffffffffffffffffffffffffffffffffffff1673ffffffffffffffffffffffffffffffffffffffff16815260200190815260200160002080549050905060008167ffffffffffffffff811115613361577f4e487b7100000000000000000000000000000000000000000000000000000000600052604160045260246000fd5b60405190808252806020026020018201604052801561338f5781602001602082028036833780820191505090505b509050600660008773ffffffffffffffffffffffffffffffffffffffff1673ffffffffffffffffffffffffffffffffffffffff16815260200190815260200160002080548060200260200160405190810160405280929190818152602001828054801561341b57602002820191906000526020600020905b815481526020019060010190808311613407575b50505050509050600060018361343191906147a8565b67ffffffffffffffff811115613470577f4e487b7100000000000000000000000000000000000000000000000000000000600052604160045260246000fd5b60405190808252806020026020018201604052801561349e5781602001602082028036833780820191505090505b50905060005b84811015613545578281815181106134e5577f4e487b7100000000000000000000000000000000000000000000000000000000600052603260045260246000fd5b6020026020010151828281518110613526577f4e487b7100000000000000000000000000000000000000000000000000000000600052603260045260246000fd5b602002602001018181525050808061353d906148c2565b9150506134a4565b50600082519050600060018661355b91906146f8565b90505b8181101561360b5783818151811061359f577f4e487b7100000000000000000000000000000000000000000000000000000000600052603260045260246000fd5b6020026020010151836001836135b591906147a8565b815181106135ec577f4e487b7100000000000000000000000000000000000000000000000000000000600052603260045260246000fd5b6020026020010181815250508080613603906148c2565b91505061355e565b50600082519050818110613654576040517f08c379a000000000000000000000000000000000000000000000000000000000815260040161364b906144b1565b60405180910390fd5b82600660008b73ffffffffffffffffffffffffffffffffffffffff1673ffffffffffffffffffffffffffffffffffffffff16815260200190815260200160002090805190602001906136a7929190613861565b50600660008973ffffffffffffffffffffffffffffffffffffffff1673ffffffffffffffffffffffffffffffffffffffff1681526020019081526020016000208790806001815401808255809150506001900390600052602060002001600090919091909150556001600660008a73ffffffffffffffffffffffffffffffffffffffff1673ffffffffffffffffffffffffffffffffffffffff1681526020019081526020016000208054905061375d91906147a8565b9550856007600089815260200190815260200160002081905550505050505050505050565b60008160405160200161379591906142be565b60405160208183030381529060405280519060200120836040516020016137bc91906142be565b6040516020818303038152906040528051906020012014905092915050565b8280546137e790614890565b90600052602060002090601f0160209004810192826138095760008555613850565b82601f1061382257805160ff1916838001178555613850565b82800160010185558215613850579182015b8281111561384f578251825591602001919060010190613834565b5b50905061385d91906138ae565b5090565b82805482825590600052602060002090810192821561389d579160200282015b8281111561389c578251825591602001919060010190613881565b5b5090506138aa91906138ae565b5090565b5b808211156138c75760008160009055506001016138af565b5090565b60006138de6138d9846145dd565b6145ac565b9050808382526020820190508260005b8581101561391e578135850161390488826139a5565b8452602084019350602083019250506001810190506138ee565b5050509392505050565b600061393b61393684614609565b6145ac565b90508281526020810184848401111561395357600080fd5b61395e848285614824565b509392505050565b600081359050613975816149a9565b92915050565b600082601f83011261398c57600080fd5b813561399c8482602086016138cb565b91505092915050565b600082601f8301126139b657600080fd5b81356139c6848260208601613928565b91505092915050565b6000813590506139de816149c0565b92915050565b6000602082840312156139f657600080fd5b6000613a0484828501613966565b91505092915050565b600080600060608486031215613a2257600080fd5b6000613a3086828701613966565b9350506020613a4186828701613966565b9250506040613a52868287016139cf565b9150509250925092565b60008060408385031215613a6f57600080fd5b6000613a7d85828601613966565b925050602083013567ffffffffffffffff811115613a9a57600080fd5b613aa6858286016139a5565b9150509250929050565b600060208284031215613ac257600080fd5b600082013567ffffffffffffffff811115613adc57600080fd5b613ae88482850161397b565b91505092915050565b600060208284031215613b0357600080fd5b600082013567ffffffffffffffff811115613b1d57600080fd5b613b29848285016139a5565b91505092915050565b600060208284031215613b4457600080fd5b6000613b52848285016139cf565b91505092915050565b60008060408385031215613b6e57600080fd5b6000613b7c858286016139cf565b9250506020613b8d858286016139cf565b9150509250929050565b6000613ba38383613cb4565b905092915050565b6000613bb783836142a0565b60208301905092915050565b613bcc816147dc565b82525050565b6000613bdd8261466e565b613be781856146a9565b935083602082028501613bf985614639565b8060005b85811015613c355784840389528151613c168582613b97565b9450613c218361468f565b925060208a01995050600181019050613bfd565b50829750879550505050505092915050565b6000613c5282614679565b613c5c81856146ba565b9350613c6783614649565b8060005b83811015613c98578151613c7f8882613bab565b9750613c8a8361469c565b925050600181019050613c6b565b5085935050505092915050565b613cae816147ee565b82525050565b6000613cbf82614684565b613cc981856146cb565b9350613cd9818560208601614833565b613ce281614998565b840191505092915050565b6000613cf882614684565b613d0281856146dc565b9350613d12818560208601614833565b613d1b81614998565b840191505092915050565b6000613d3182614684565b613d3b81856146ed565b9350613d4b818560208601614833565b80840191505092915050565b60008154613d6481614890565b613d6e81866146ed565b94506001821660008114613d895760018114613d9a57613dcd565b60ff19831686528186019350613dcd565b613da385614659565b60005b83811015613dc557815481890152600182019150602081019050613da6565b838801955050505b50505092915050565b6000613de3601f836146dc565b91507f596f75206f6e6c792063616e2073656c6c20737475666620796f75206f776e006000830152602082019050919050565b6000613e236028836146dc565b91507f596f75206f6e6c792063616e20627579204e465473206d61726b65642061732060008301527f73656c6c61626c650000000000000000000000000000000000000000000000006020830152604082019050919050565b6000613e896024836146dc565b91507f4164647265737320646f6573206e6f7420686f6c64207370656369666963207460008301527f6f6b656e000000000000000000000000000000000000000000000000000000006020830152604082019050919050565b6000613eef6010836146dc565b91507f4e6f7420612044617461204f776e6572000000000000000000000000000000006000830152602082019050919050565b6000613f2f601d836146dc565b91507f506c656173652070726f76696465207375666669656e742046756e64730000006000830152602082019050919050565b6000613f6f6019836146dc565b91507f506f696e74657220697320616c726561647920696e20757365000000000000006000830152602082019050919050565b6000613faf6039836146dc565b91507f54686973204f7065726174696f6e2063616e206f6e6c7920626520616363657360008301527f7365642062792074686520636f6e7472616374206f776e6572000000000000006020830152604082019050919050565b6000614015601b836146dc565b91507f596f7520646f206e6f74206f776e207468697320706f696e74657200000000006000830152602082019050919050565b6000614055603e836146dc565b91507f41727261797320617265206f6620657175616c2073697a6520616e642073756760008301527f676573742074686174206e6f7468696e67206d7563682068617070656e6400006020830152604082019050919050565b60006140bb6018836146dc565b91507f4e6f204163636f756e74207769746820746869732048756200000000000000006000830152602082019050919050565b60006140fb6036836146dc565b91507f54686973204f7065726174696f6e2063616e206f6e6c7920626520616363657360008301527f7365642062792074686520746f6b656e206f776e6572000000000000000000006020830152604082019050919050565b6000614161602e836146dc565b91507f596f752068617665206e6f742073756666696369656e7420726967687473206660008301527f6f72207468697320616374696f6e0000000000000000000000000000000000006020830152604082019050919050565b60006141c7601c836146dc565b91507f506f696e74657220697320616c726561647920756e75736561626c65000000006000830152602082019050919050565b6000614207601f836146dc565b91507f506c656173652070726f766964652073756666696369656e742066756e6473006000830152602082019050919050565b6000614247602d836146dc565b91507f50726f766964656420506f696e74657220646f6573206e6f742065786973742060008301527f7769746820636f6e7472616374000000000000000000000000000000000000006020830152604082019050919050565b6142a98161481a565b82525050565b6142b88161481a565b82525050565b60006142ca8284613d26565b915081905092915050565b60006142e18284613d57565b915081905092915050565b60006020820190506143016000830184613bc3565b92915050565b600060408201905061431c6000830185613bc3565b61432960208301846142af565b9392505050565b6000602082019050818103600083015261434a8184613bd2565b905092915050565b6000602082019050818103600083015261436c8184613c47565b905092915050565b60006020820190506143896000830184613ca5565b92915050565b600060208201905081810360008301526143a98184613ced565b905092915050565b600060208201905081810360008301526143ca81613dd6565b9050919050565b600060208201905081810360008301526143ea81613e16565b9050919050565b6000602082019050818103600083015261440a81613e7c565b9050919050565b6000602082019050818103600083015261442a81613ee2565b9050919050565b6000602082019050818103600083015261444a81613f22565b9050919050565b6000602082019050818103600083015261446a81613f62565b9050919050565b6000602082019050818103600083015261448a81613fa2565b9050919050565b600060208201905081810360008301526144aa81614008565b9050919050565b600060208201905081810360008301526144ca81614048565b9050919050565b600060208201905081810360008301526144ea816140ae565b9050919050565b6000602082019050818103600083015261450a816140ee565b9050919050565b6000602082019050818103600083015261452a81614154565b9050919050565b6000602082019050818103600083015261454a816141ba565b9050919050565b6000602082019050818103600083015261456a816141fa565b9050919050565b6000602082019050818103600083015261458a8161423a565b9050919050565b60006020820190506145a660008301846142af565b92915050565b6000604051905081810181811067ffffffffffffffff821117156145d3576145d2614969565b5b8060405250919050565b600067ffffffffffffffff8211156145f8576145f7614969565b5b602082029050602081019050919050565b600067ffffffffffffffff82111561462457614623614969565b5b601f19601f8301169050602081019050919050565b6000819050602082019050919050565b6000819050602082019050919050565b60008190508160005260206000209050919050565b600081519050919050565b600081519050919050565b600081519050919050565b6000602082019050919050565b6000602082019050919050565b600082825260208201905092915050565b600082825260208201905092915050565b600082825260208201905092915050565b600082825260208201905092915050565b600081905092915050565b60006147038261481a565b915061470e8361481a565b9250827fffffffffffffffffffffffffffffffffffffffffffffffffffffffffffffffff038211156147435761474261490b565b5b828201905092915050565b60006147598261481a565b91506147648361481a565b9250817fffffffffffffffffffffffffffffffffffffffffffffffffffffffffffffffff048311821515161561479d5761479c61490b565b5b828202905092915050565b60006147b38261481a565b91506147be8361481a565b9250828210156147d1576147d061490b565b5b828203905092915050565b60006147e7826147fa565b9050919050565b60008115159050919050565b600073ffffffffffffffffffffffffffffffffffffffff82169050919050565b6000819050919050565b82818337600083830152505050565b60005b83811015614851578082015181840152602081019050614836565b83811115614860576000848401525b50505050565b60006148718261481a565b915060008214156148855761488461490b565b5b600182039050919050565b600060028204905060018216806148a857607f821691505b602082108114156148bc576148bb61493a565b5b50919050565b60006148cd8261481a565b91507fffffffffffffffffffffffffffffffffffffffffffffffffffffffffffffffff821415614900576148ff61490b565b5b600182019050919050565b7f4e487b7100000000000000000000000000000000000000000000000000000000600052601160045260246000fd5b7f4e487b7100000000000000000000000000000000000000000000000000000000600052602260045260246000fd5b7f4e487b7100000000000000000000000000000000000000000000000000000000600052604160045260246000fd5b6000601f19601f8301169050919050565b6149b2816147dc565b81146149bd57600080fd5b50565b6149c98161481a565b81146149d457600080fd5b5056fea2646970667358221220dbad39143ac38c57698c13f619b9122fbde9955aea110e3b3595b05157f71fd364736f6c63430008000033",
  "immutableReferences": {},
  "source": "// SPDX-License-Identifier: UNLICENSED\npragma solidity ^0.8.0;\n\ncontract nexyohub {\n//The actual NFT\n  mapping(uint => address) public owners;\n  mapping(uint => string) public pointers;\n  mapping(uint => uint) public prices;\n  mapping(uint => bool) public sellable;\n//Contract capabilities to make the app possible\n  mapping(string => uint8) private pointerExists; //Keeps Track of Pointer Status. 0 Does not exists, 1 Pointer is useable, 2 Pointer was revoked, 3 Pointer still needs Owner approval.\n  mapping(address => uint[]) private DataOwners;\n  mapping(address => uint[]) private OwnerShip; //Tracks NFT Ownership for fast ownership requests\n  mapping(uint => uint) private NFTArrayPos; //Tracks NFT postion in Ownership Array for fast ownership requests\n  string name_;\n  string sign_;\n  address payable owner;\n  uint token_id=0;\n  uint pointer_id=0;\n  uint pointer_uid=0;\n  uint pointerstoapprove=0;\n  string[] pointerarray;\n\n  uint _minstake=32000000000000000000;\n  uint stdPrice=1000000000000000000;\n\n  constructor(string memory _name) {\n    require(msg.sender.balance >= _minstake, 'Please provide suffient Funds');\n    name_=_name;\n    sign_='NXNFT';\n    owner=payable(msg.sender);\n  }\n\n  modifier onlyOwner {\n    require(owner==msg.sender, 'This Operation can only be accessed by the contract owner');\n    require(msg.sender.balance >= _minstake, 'Please provide suffient Funds');\n    _;\n  }\n\n  modifier onlyContract {\n    require(address(this)==msg.sender, 'The function you are trying to enter is prohibited');\n    _;\n  }\n\n  event Transfer(address indexed _from, address indexed _to, uint256 indexed _tokenId);\n  event Approval(address indexed _owner, address indexed _approved, uint256 indexed _tokenId);\n  event ApprovalForAll(address indexed _owner, address indexed _operator, bool _approved);\n  event contracttookmymoney(address thisContract, uint myMoney);\n\n  receive () external payable {\n      emit contracttookmymoney(address(this), msg.value);\n  }\n  //This sets the value to a key in the mapping pointerExists to one which represents the existens of a pointer. Furthermore the pointer it self is added to an array of pointers.\n  function makePointer (string memory pointer) public {\n      require(DataOwners[msg.sender].length>0 || msg.sender==owner, 'Not a Data Owner');\n      require(pointerExists[pointer]!=1 && pointerExists[pointer]!=3,'Pointer is already in use');\n      if (pointerExists[pointer]==0) {\n        if (msg.sender==owner) {\n          pointerExists[pointer]=1;\n        } else {\n          pointerExists[pointer]=3;\n          pointerstoapprove++;\n          pointer_uid++;\n        }\n        pointerarray.push(pointer);\n        if (DataOwners[msg.sender].length>0) {\n          if (DataOwners[msg.sender][0]>pointer_id) { //checks if first entry is approval entry\n            DataOwners[msg.sender][0]=pointer_id;\n          } else {\n            DataOwners[msg.sender].push(pointer_id);\n          }\n        } else {\n          DataOwners[msg.sender].push(pointer_id);\n        }\n        pointer_id++;\n      } else {\n        pointerExists[pointer]=1;\n        pointer_uid--;\n      }\n  }\n\n  function revokePointers (string[] memory pointers) public onlyOwner {\n    uint len=pointers.length;\n    for (uint i=0;i<len;i++) {\n      require(isPointerthere(pointers[i])!=true,'Pointer is already unuseable');\n      if(pointerExists[pointers[i]]==3) {\n        pointerstoapprove--;}\n      pointerExists[pointers[i]]=2;\n    }\n  }\n\n  function approvePointers (string[] memory pointers) public onlyOwner {\n    uint len=pointers.length;\n    for (uint i=0;i<len;i++) {\n      if(pointerExists[pointers[i]]==3){\n        pointerExists[pointers[i]]=1;\n        pointerstoapprove--;\n        pointer_uid--;\n      }\n    }\n  }\n\n  function mint_to (address newowner, string memory pointer) public {\n    require(isDataOwnerthere(newowner), 'No Account with this Hub');\n    require(isPointerthere(pointer));\n    require(doyouownPointer(pointer), 'You do not own this pointer');\n    owners[token_id]=newowner;\n    uint len;\n    OwnerShip[newowner].push(token_id);\n    len=OwnerShip[newowner].length-1;\n    NFTArrayPos[token_id]=len;\n    pointers[token_id]=pointer;\n    prices[token_id]=stdPrice;\n    sellable[token_id]=false;\n    token_id++;\n  }\n\n  function mint (string memory pointer) public {\n    require(isPointerthere(pointer), 'Provided Pointer does not exist with contract');\n    require(isDataOwnerthere(msg.sender), 'You have not sufficient rights for this action');\n    //require(doyouownPointer(pointer), 'You do not own this pointer');\n    owners[token_id]=msg.sender;\n    uint len;\n    OwnerShip[msg.sender].push(token_id);\n    len=OwnerShip[msg.sender].length-1;\n    NFTArrayPos[token_id]=len;\n    pointers[token_id]=pointer;\n    prices[token_id]=stdPrice;\n    sellable[token_id]=false;\n    token_id++;\n  }\n\n  function setPrice (uint cost, uint token) public {\n    require(owners[token]==msg.sender, 'This Operation can only be accessed by the token owner');\n    prices[token]=cost*stdPrice;\n  }\n\n  //Main transactional function. Manages all necessary Database entries regarding ownership\n  function transferFrom(address _from, address _to, uint _tokenId) public payable {\n    require(owners[_tokenId]==_from, 'Address does not hold specific token');\n    require(prices[_tokenId]<=msg.value, 'Please provide sufficient funds');\n    payable(_from).transfer(msg.value);\n    redoOwnerShipArray (_from,_to,_tokenId);\n    owners[_tokenId]=_to;\n    emit Transfer(_from, _to, _tokenId);\n  }\n\n  //this manages the OwnerShip mapping. If an ID drops from the array because coresponding token has a new owner this logic rebuilds the array.\n  function redoOwnerShipArray (address _from, address _to, uint _tokenId) internal {\n    uint pos;\n    uint arraylen;\n    pos=NFTArrayPos[_tokenId];\n    arraylen=OwnerShip[_from].length;\n    uint[] memory array=new uint[](arraylen);\n    array=OwnerShip[_from];\n    uint[] memory newarray=new uint[](arraylen-1);\n    for (uint i=0; i<pos; i++){\n      newarray[i]=array[i];\n    }\n    uint len;\n    len=array.length;\n    for (uint i=pos+1; i<len; i++){\n      newarray[i-1]=array[i];\n    }\n    uint newlen=newarray.length;\n    require(newlen<len,'Arrays are of equal size and suggest that nothing much happend');\n    OwnerShip[_from]=newarray;\n    OwnerShip[_to].push(_tokenId);\n    pos=OwnerShip[_to].length-1;\n    NFTArrayPos[_tokenId]=pos;\n  }\n\n  /*function redoOwnerShipArraypub (address _from, address _to, uint _tokenId) public {\n    redoOwnerShipArray (_from,_to,_tokenId);\n  }*/\n\n  function buy(uint _tokenid) external payable {\n    require(sellable[_tokenid]==true, \"You only can buy NFTs marked as sellable\");\n    transferFrom(owners[_tokenid], msg.sender, _tokenid);\n    sellable[_tokenid]=false; // Still a design choice where to put the sell inteaction\n  }\n\n  function sell(uint _tokenid) external {\n    require(owners[_tokenid]==msg.sender, \"You only can sell stuff you own\");\n    sellable[_tokenid]=true;\n  }\n\n  //this needs a redo since only the contract can sell tokens now. Using a parameter in external view is suboptimal\n  function buyableTokens(address sender) external view returns(uint[] memory) {\n    uint x=0;\n    for (uint i=0; i<token_id; i++) {\n      if (sellable[i]==true && owners[i]!=sender) {\n        x++;\n      }\n    }\n    uint[] memory newarray = new uint[](x);\n    x=0;\n    for (uint i=0; i<token_id; i++) {\n      if (sellable[i]==true && owners[i]!=sender) {\n        newarray[x]=i;\n        x++;\n      }\n    }\n    return newarray;\n  }\n\n  //returns the length of the OwnerShipArray coresponding to the address of the message sender.\n  function balance(address sender) external view returns (uint) {\n    uint len;\n    len=OwnerShip[sender].length;\n    return len;\n  }\n\n  //returns the token ids of the address given as parameter. Using a parameter in external view is suboptimal\n  function myTokens(address sender) external view returns(uint[] memory) {\n    uint[] memory array;\n    array=OwnerShip[sender];\n    return array;\n  }\n\n  //returns all pointers currently available\n  function useablePointers() external view onlyOwner returns (string[] memory) {\n    string[] memory somepointers= new string[](pointer_id-pointer_uid);\n    uint len=pointerarray.length;\n    uint x=0;\n    string memory point;\n    for (uint i=0; i<len; i++) {\n      point=pointerarray[i];\n      if (isPointerthere(point)) {\n        somepointers[x]=point;\n        x++;\n      }\n    }\n    return somepointers;\n  }\n\n  function priceOf(uint _tokenId) external view returns (uint) {\n    return prices[_tokenId];\n  }\n\n  function ownerOf(uint _tokenId) external view returns (address) {\n    return owners[_tokenId];\n  }\n\n  function pointerOf(uint _tokenId) external view returns (string memory) {\n    return pointers[_tokenId];\n  }\n\n  function tokensellable(uint _tokenId) external view returns (bool) {\n    return sellable[_tokenId];\n  }\n\n  function addDataOwner(address dataowner) external onlyOwner {\n    DataOwners[dataowner].push(pointer_id+10**15); //The offset used here is incredibly unelegant and should be replaced with a different mechanism\n  }\n\n  function whatownsDataOwner(address dataowner) public view returns(uint[] memory) {\n    uint x=0;\n    uint len=DataOwners[dataowner].length;\n    if (len==0) {\n      return new uint[](0);\n    } else {\n      for (uint i=0;i<len;i++) {\n        if (DataOwners[dataowner][i]<pointer_id){x++;}\n      }\n      if (x==len) {return DataOwners[dataowner];}\n      else{\n        uint[] memory pointer_ids= new uint[](x);\n        for (uint i=0;i<len;i++) {\n          if (DataOwners[dataowner][i]<pointer_id){\n            pointer_ids[x]=DataOwners[dataowner][i];\n            x--;\n          }\n        }\n        return pointer_ids;\n      }\n    }\n  }\n\n  function doyouownPointer(string memory pointer) public view returns(bool) { //should propably be internal\n    bool result=false;\n    uint[] memory valuables=whatownsDataOwner(msg.sender);\n    for(uint x=0; x<valuables.length; x++) {\n      if (compareStrings(pointerarray[valuables[x]],pointer)) {\n        result=true;\n      }\n    }\n    return result;\n  }\n\n  function dataowned(address ow) public view returns(uint[] memory) {\n    return DataOwners[ow];\n  }\n\n  function compareStrings(string memory s1, string memory s2) internal pure returns(bool){\n    return keccak256(abi.encodePacked(s1))==keccak256(abi.encodePacked(s2));\n  }\n\n  function whoisOwner() public view returns(address) {\n    return owner;\n  }\n\n  function PointerstoApprove () external onlyOwner returns(string[] memory) {\n    string[] memory variouspointers = new string[](pointerstoapprove);\n    uint pos=0;\n    uint len;\n    len=pointerarray.length;\n    for(uint x=0;x<len;x++) {\n      if (pointerExists[pointerarray[x]]==3) {\n        variouspointers[pos]=pointerarray[x];\n        pos++;\n      }\n    }\n    return variouspointers;\n  }\n\n  function isPointerthere (string memory pointer) public view returns (bool){\n    return pointerExists[pointer]==1;\n  }\n\n  function isDataOwnerthere (address dataowner) public view returns (bool){\n    return DataOwners[dataowner].length!=0;\n  }\n\n  function nextNFTid () public view returns(uint){\n    return token_id;\n  }\n\n  function nextPointerid () public view returns(uint){\n    return pointer_id;\n  }\n\n  function returnContractName () public view returns (string memory){\n    return name_;\n  }\n\n  function returnAddress () public view returns (address){\n    return address(this);\n  }\n\n  function returnSign () public view returns (string memory){\n    return sign_;\n  }\n\n  function terminate() public onlyOwner {\n    selfdestruct(owner);\n  }\n}\n",
  "sourcePath": "/home/ka/Desktop/nft-prototyp/contracts/nexyohub.sol",
  "compiler": {
    "name": "solc",
    "version": "0.8.0+commit.c7dfd78e.Emscripten.clang"
  },
  "schemaVersion": "3.3.4",
  "updatedAt": "2021-04-19T16:51:11.454Z",
  "networkType": "ethereum",
  "devdoc": {
    "kind": "dev",
    "methods": {},
    "version": 1
  },
  "userdoc": {
    "kind": "user",
    "methods": {},
    "version": 1
  }
}