{
  "contractName": "nexyohub",
  "abi": [
    {
      "inputs": [
        {
          "internalType": "string",
          "name": "_name",
          "type": "string"
        },
        {
          "internalType": "string",
          "name": "_sign",
          "type": "string"
        },
        {
          "internalType": "address",
          "name": "_transactcont",
          "type": "address"
        }
      ],
      "stateMutability": "nonpayable",
      "type": "constructor"
    },
    {
      "anonymous": false,
      "inputs": [
        {
          "indexed": true,
          "internalType": "address",
          "name": "_owner",
          "type": "address"
        },
        {
          "indexed": true,
          "internalType": "address",
          "name": "_approved",
          "type": "address"
        },
        {
          "indexed": true,
          "internalType": "uint256",
          "name": "_tokenId",
          "type": "uint256"
        }
      ],
      "name": "Approval",
      "type": "event"
    },
    {
      "anonymous": false,
      "inputs": [
        {
          "indexed": true,
          "internalType": "address",
          "name": "_owner",
          "type": "address"
        },
        {
          "indexed": true,
          "internalType": "address",
          "name": "_operator",
          "type": "address"
        },
        {
          "indexed": false,
          "internalType": "bool",
          "name": "_approved",
          "type": "bool"
        }
      ],
      "name": "ApprovalForAll",
      "type": "event"
    },
    {
      "anonymous": false,
      "inputs": [
        {
          "indexed": true,
          "internalType": "address",
          "name": "_from",
          "type": "address"
        },
        {
          "indexed": true,
          "internalType": "address",
          "name": "_to",
          "type": "address"
        },
        {
          "indexed": true,
          "internalType": "uint256",
          "name": "_tokenId",
          "type": "uint256"
        }
      ],
      "name": "Transfer",
      "type": "event"
    },
    {
      "anonymous": false,
      "inputs": [
        {
          "indexed": false,
          "internalType": "address",
          "name": "thisContract",
          "type": "address"
        },
        {
          "indexed": false,
          "internalType": "uint256",
          "name": "myMoney",
          "type": "uint256"
        }
      ],
      "name": "contracttookmymoney",
      "type": "event"
    },
    {
      "anonymous": false,
      "inputs": [
        {
          "indexed": true,
          "internalType": "address",
          "name": "_who",
          "type": "address"
        },
        {
          "indexed": true,
          "internalType": "address",
          "name": "_where",
          "type": "address"
        }
      ],
      "name": "create",
      "type": "event"
    },
    {
      "inputs": [
        {
          "internalType": "uint256",
          "name": "",
          "type": "uint256"
        }
      ],
      "name": "owners",
      "outputs": [
        {
          "internalType": "address",
          "name": "",
          "type": "address"
        }
      ],
      "stateMutability": "view",
      "type": "function",
      "constant": true
    },
    {
      "inputs": [
        {
          "internalType": "uint256",
          "name": "",
          "type": "uint256"
        }
      ],
      "name": "pointers",
      "outputs": [
        {
          "internalType": "string",
          "name": "",
          "type": "string"
        }
      ],
      "stateMutability": "view",
      "type": "function",
      "constant": true
    },
    {
      "inputs": [
        {
          "internalType": "uint256",
          "name": "",
          "type": "uint256"
        }
      ],
      "name": "prices",
      "outputs": [
        {
          "internalType": "uint256",
          "name": "",
          "type": "uint256"
        }
      ],
      "stateMutability": "view",
      "type": "function",
      "constant": true
    },
    {
      "inputs": [
        {
          "internalType": "uint256",
          "name": "",
          "type": "uint256"
        }
      ],
      "name": "sellable",
      "outputs": [
        {
          "internalType": "bool",
          "name": "",
          "type": "bool"
        }
      ],
      "stateMutability": "view",
      "type": "function",
      "constant": true
    },
    {
      "stateMutability": "payable",
      "type": "receive",
      "payable": true
    },
    {
      "inputs": [
        {
          "internalType": "string",
          "name": "pointer",
          "type": "string"
        }
      ],
      "name": "makePointer",
      "outputs": [],
      "stateMutability": "nonpayable",
      "type": "function"
    },
    {
      "inputs": [
        {
          "internalType": "string[]",
          "name": "_pointers",
          "type": "string[]"
        }
      ],
      "name": "revokePointers",
      "outputs": [],
      "stateMutability": "nonpayable",
      "type": "function"
    },
    {
      "inputs": [
        {
          "internalType": "string[]",
          "name": "_pointers",
          "type": "string[]"
        }
      ],
      "name": "approvePointers",
      "outputs": [],
      "stateMutability": "nonpayable",
      "type": "function"
    },
    {
      "inputs": [
        {
          "internalType": "address",
          "name": "newowner",
          "type": "address"
        },
        {
          "internalType": "string",
          "name": "pointer",
          "type": "string"
        },
        {
          "internalType": "uint256",
          "name": "_timeLock",
          "type": "uint256"
        }
      ],
      "name": "mint_to",
      "outputs": [],
      "stateMutability": "nonpayable",
      "type": "function"
    },
    {
      "inputs": [
        {
          "internalType": "string",
          "name": "pointer",
          "type": "string"
        }
      ],
      "name": "mint",
      "outputs": [],
      "stateMutability": "nonpayable",
      "type": "function"
    },
    {
      "inputs": [
        {
          "internalType": "string",
          "name": "pointer",
          "type": "string"
        },
        {
          "internalType": "bool",
          "name": "_resell",
          "type": "bool"
        },
        {
          "internalType": "uint256",
          "name": "_timeLock",
          "type": "uint256"
        },
        {
          "internalType": "bool",
          "name": "_sell",
          "type": "bool"
        }
      ],
      "name": "mintwithOptions",
      "outputs": [],
      "stateMutability": "nonpayable",
      "type": "function"
    },
    {
      "inputs": [
        {
          "internalType": "uint256",
          "name": "cost",
          "type": "uint256"
        },
        {
          "internalType": "uint256",
          "name": "token",
          "type": "uint256"
        }
      ],
      "name": "setPrice",
      "outputs": [],
      "stateMutability": "nonpayable",
      "type": "function"
    },
    {
      "inputs": [
        {
          "internalType": "uint256",
          "name": "_tokenid",
          "type": "uint256"
        },
        {
          "internalType": "bool",
          "name": "_resell",
          "type": "bool"
        },
        {
          "internalType": "uint256",
          "name": "_timeLock",
          "type": "uint256"
        }
      ],
      "name": "resellOptions",
      "outputs": [],
      "stateMutability": "nonpayable",
      "type": "function"
    },
    {
      "inputs": [
        {
          "internalType": "uint256",
          "name": "_tokenid",
          "type": "uint256"
        }
      ],
      "name": "sendback",
      "outputs": [],
      "stateMutability": "nonpayable",
      "type": "function"
    },
    {
      "inputs": [
        {
          "internalType": "address",
          "name": "_from",
          "type": "address"
        },
        {
          "internalType": "address",
          "name": "_to",
          "type": "address"
        },
        {
          "internalType": "uint256",
          "name": "_tokenId",
          "type": "uint256"
        }
      ],
      "name": "transferFrom",
      "outputs": [],
      "stateMutability": "payable",
      "type": "function",
      "payable": true
    },
    {
      "inputs": [
        {
          "internalType": "uint256",
          "name": "_tokenid",
          "type": "uint256"
        }
      ],
      "name": "buy",
      "outputs": [],
      "stateMutability": "payable",
      "type": "function",
      "payable": true
    },
    {
      "inputs": [
        {
          "internalType": "uint256",
          "name": "_tokenid",
          "type": "uint256"
        }
      ],
      "name": "sell",
      "outputs": [],
      "stateMutability": "nonpayable",
      "type": "function"
    },
    {
      "inputs": [
        {
          "internalType": "address",
          "name": "sender",
          "type": "address"
        }
      ],
      "name": "buyableTokens",
      "outputs": [
        {
          "internalType": "uint256[]",
          "name": "",
          "type": "uint256[]"
        }
      ],
      "stateMutability": "view",
      "type": "function",
      "constant": true
    },
    {
      "inputs": [
        {
          "internalType": "address",
          "name": "sender",
          "type": "address"
        }
      ],
      "name": "balance",
      "outputs": [
        {
          "internalType": "uint256",
          "name": "",
          "type": "uint256"
        }
      ],
      "stateMutability": "view",
      "type": "function",
      "constant": true
    },
    {
      "inputs": [
        {
          "internalType": "address",
          "name": "sender",
          "type": "address"
        }
      ],
      "name": "myTokens",
      "outputs": [
        {
          "internalType": "uint256[]",
          "name": "",
          "type": "uint256[]"
        }
      ],
      "stateMutability": "view",
      "type": "function",
      "constant": true
    },
    {
      "inputs": [],
      "name": "useablePointers",
      "outputs": [
        {
          "internalType": "string[]",
          "name": "",
          "type": "string[]"
        }
      ],
      "stateMutability": "view",
      "type": "function",
      "constant": true
    },
    {
      "inputs": [
        {
          "internalType": "address",
          "name": "dataowner",
          "type": "address"
        }
      ],
      "name": "whatownsDataOwner",
      "outputs": [
        {
          "internalType": "uint256[]",
          "name": "",
          "type": "uint256[]"
        }
      ],
      "stateMutability": "view",
      "type": "function",
      "constant": true
    },
    {
      "inputs": [
        {
          "internalType": "string",
          "name": "pointer",
          "type": "string"
        }
      ],
      "name": "doyouownPointer",
      "outputs": [
        {
          "internalType": "bool",
          "name": "",
          "type": "bool"
        }
      ],
      "stateMutability": "view",
      "type": "function",
      "constant": true
    },
    {
      "inputs": [
        {
          "internalType": "uint256",
          "name": "_tokenId",
          "type": "uint256"
        }
      ],
      "name": "priceOf",
      "outputs": [
        {
          "internalType": "uint256",
          "name": "",
          "type": "uint256"
        }
      ],
      "stateMutability": "view",
      "type": "function",
      "constant": true
    },
    {
      "inputs": [
        {
          "internalType": "uint256",
          "name": "_tokenId",
          "type": "uint256"
        }
      ],
      "name": "ownerOf",
      "outputs": [
        {
          "internalType": "address",
          "name": "",
          "type": "address"
        }
      ],
      "stateMutability": "view",
      "type": "function",
      "constant": true
    },
    {
      "inputs": [
        {
          "internalType": "uint256",
          "name": "_tokenId",
          "type": "uint256"
        }
      ],
      "name": "pointerOf",
      "outputs": [
        {
          "internalType": "string",
          "name": "",
          "type": "string"
        }
      ],
      "stateMutability": "view",
      "type": "function",
      "constant": true
    },
    {
      "inputs": [
        {
          "internalType": "uint256",
          "name": "_tokenId",
          "type": "uint256"
        }
      ],
      "name": "tokensellable",
      "outputs": [
        {
          "internalType": "bool",
          "name": "",
          "type": "bool"
        }
      ],
      "stateMutability": "view",
      "type": "function",
      "constant": true
    },
    {
      "inputs": [
        {
          "internalType": "uint256",
          "name": "_tokenId",
          "type": "uint256"
        }
      ],
      "name": "tokenresellable",
      "outputs": [
        {
          "internalType": "bool",
          "name": "",
          "type": "bool"
        }
      ],
      "stateMutability": "view",
      "type": "function",
      "constant": true
    },
    {
      "inputs": [
        {
          "internalType": "uint256",
          "name": "_tokenId",
          "type": "uint256"
        }
      ],
      "name": "tokenownable",
      "outputs": [
        {
          "internalType": "uint256",
          "name": "",
          "type": "uint256"
        }
      ],
      "stateMutability": "view",
      "type": "function",
      "constant": true
    },
    {
      "inputs": [
        {
          "internalType": "uint256",
          "name": "_tokenId",
          "type": "uint256"
        }
      ],
      "name": "tokenexpires",
      "outputs": [
        {
          "internalType": "uint256",
          "name": "",
          "type": "uint256"
        }
      ],
      "stateMutability": "view",
      "type": "function",
      "constant": true
    },
    {
      "inputs": [
        {
          "internalType": "address",
          "name": "dataowner",
          "type": "address"
        }
      ],
      "name": "addDataOwner",
      "outputs": [],
      "stateMutability": "nonpayable",
      "type": "function"
    },
    {
      "inputs": [
        {
          "internalType": "address",
          "name": "ow",
          "type": "address"
        }
      ],
      "name": "dataowned",
      "outputs": [
        {
          "internalType": "uint256[]",
          "name": "",
          "type": "uint256[]"
        }
      ],
      "stateMutability": "view",
      "type": "function",
      "constant": true
    },
    {
      "inputs": [],
      "name": "whoisOwner",
      "outputs": [
        {
          "internalType": "address",
          "name": "",
          "type": "address"
        }
      ],
      "stateMutability": "view",
      "type": "function",
      "constant": true
    },
    {
      "inputs": [],
      "name": "PointerstoApprove",
      "outputs": [
        {
          "internalType": "string[]",
          "name": "",
          "type": "string[]"
        }
      ],
      "stateMutability": "view",
      "type": "function",
      "constant": true
    },
    {
      "inputs": [
        {
          "internalType": "string",
          "name": "pointer",
          "type": "string"
        }
      ],
      "name": "isPointerthere",
      "outputs": [
        {
          "internalType": "bool",
          "name": "",
          "type": "bool"
        }
      ],
      "stateMutability": "view",
      "type": "function",
      "constant": true
    },
    {
      "inputs": [
        {
          "internalType": "address",
          "name": "dataowner",
          "type": "address"
        }
      ],
      "name": "isDataOwnerthere",
      "outputs": [
        {
          "internalType": "bool",
          "name": "",
          "type": "bool"
        }
      ],
      "stateMutability": "view",
      "type": "function",
      "constant": true
    },
    {
      "inputs": [],
      "name": "nextNFTid",
      "outputs": [
        {
          "internalType": "uint256",
          "name": "",
          "type": "uint256"
        }
      ],
      "stateMutability": "view",
      "type": "function",
      "constant": true
    },
    {
      "inputs": [],
      "name": "nextPointerid",
      "outputs": [
        {
          "internalType": "uint256",
          "name": "",
          "type": "uint256"
        }
      ],
      "stateMutability": "view",
      "type": "function",
      "constant": true
    },
    {
      "inputs": [],
      "name": "returnContractName",
      "outputs": [
        {
          "internalType": "string",
          "name": "",
          "type": "string"
        }
      ],
      "stateMutability": "view",
      "type": "function",
      "constant": true
    },
    {
      "inputs": [],
      "name": "returnParentAddress",
      "outputs": [
        {
          "internalType": "address",
          "name": "",
          "type": "address"
        }
      ],
      "stateMutability": "view",
      "type": "function",
      "constant": true
    },
    {
      "inputs": [],
      "name": "returnAddress",
      "outputs": [
        {
          "internalType": "address",
          "name": "",
          "type": "address"
        }
      ],
      "stateMutability": "view",
      "type": "function",
      "constant": true
    },
    {
      "inputs": [],
      "name": "returnSign",
      "outputs": [
        {
          "internalType": "string",
          "name": "",
          "type": "string"
        }
      ],
      "stateMutability": "view",
      "type": "function",
      "constant": true
    },
    {
      "inputs": [],
      "name": "terminate",
      "outputs": [],
      "stateMutability": "nonpayable",
      "type": "function"
    }
  ],
  "bytecode": "0x60806040526000600f556000601055600060115560006012556801bc16d674ec800000601555670de0b6b3a76400006016553480156200003e57600080fd5b50604051620062c4380380620062c48339818101604052810190620000649190620003cc565b6015543373ffffffffffffffffffffffffffffffffffffffff16311015620000c3576040517f08c379a0000000000000000000000000000000000000000000000000000000008152600401620000ba90620004c4565b60405180910390fd5b82600b9080519060200190620000db92919062000293565b5081600c9080519060200190620000f492919062000293565b5080600d60006101000a81548173ffffffffffffffffffffffffffffffffffffffff021916908373ffffffffffffffffffffffffffffffffffffffff16021790555033600e60006101000a81548173ffffffffffffffffffffffffffffffffffffffff021916908373ffffffffffffffffffffffffffffffffffffffff1602179055506000600d60009054906101000a900473ffffffffffffffffffffffffffffffffffffffff1690508073ffffffffffffffffffffffffffffffffffffffff16639165c396306040518263ffffffff1660e01b8152600401620001d99190620004a7565b600060405180830381600087803b158015620001f457600080fd5b505af115801562000209573d6000803e3d6000fd5b505050503073ffffffffffffffffffffffffffffffffffffffff16600e60009054906101000a900473ffffffffffffffffffffffffffffffffffffffff1673ffffffffffffffffffffffffffffffffffffffff167f3e68680a366966a568196cfecd42e08689bbc4738578bc61fd6fbf14dc7db18460405160405180910390a35050505062000676565b828054620002a190620005c8565b90600052602060002090601f016020900481019282620002c5576000855562000311565b82601f10620002e057805160ff191683800117855562000311565b8280016001018555821562000311579182015b8281111562000310578251825591602001919060010190620002f3565b5b50905062000320919062000324565b5090565b5b808211156200033f57600081600090555060010162000325565b5090565b60006200035a62000354846200051a565b620004e6565b9050828152602081018484840111156200037357600080fd5b6200038084828562000592565b509392505050565b60008151905062000399816200065c565b92915050565b600082601f830112620003b157600080fd5b8151620003c384826020860162000343565b91505092915050565b600080600060608486031215620003e257600080fd5b600084015167ffffffffffffffff811115620003fd57600080fd5b6200040b868287016200039f565b935050602084015167ffffffffffffffff8111156200042957600080fd5b62000437868287016200039f565b92505060406200044a8682870162000388565b9150509250925092565b6200045f816200055e565b82525050565b600062000474601d836200054d565b91507f506c656173652070726f76696465207375666669656e742046756e64730000006000830152602082019050919050565b6000602082019050620004be600083018462000454565b92915050565b60006020820190508181036000830152620004df8162000465565b9050919050565b6000604051905081810181811067ffffffffffffffff8211171562000510576200050f6200062d565b5b8060405250919050565b600067ffffffffffffffff8211156200053857620005376200062d565b5b601f19601f8301169050602081019050919050565b600082825260208201905092915050565b60006200056b8262000572565b9050919050565b600073ffffffffffffffffffffffffffffffffffffffff82169050919050565b60005b83811015620005b257808201518184015260208101905062000595565b83811115620005c2576000848401525b50505050565b60006002820490506001821680620005e157607f821691505b60208210811415620005f857620005f7620005fe565b5b50919050565b7f4e487b7100000000000000000000000000000000000000000000000000000000600052602260045260246000fd5b7f4e487b7100000000000000000000000000000000000000000000000000000000600052604160045260246000fd5b62000667816200055e565b81146200067357600080fd5b50565b615c3e80620006866000396000f3fe6080604052600436106102555760003560e01c80639c05c7ca11610139578063d96a094a116100b6578063e4849b321161007a578063e4849b3214610996578063f1e63680146109bf578063f6928dee146109ea578063f7d9757714610a27578063fb3a5d6d14610a50578063ff7be29e14610a7957610295565b8063d96a094a14610898578063dc1df3f6146108b4578063de179819146108f1578063e285497b1461091c578063e3d670d71461095957610295565b8063b9186d7d116100fd578063b9186d7d1461078f578063bc31c1c1146107cc578063c10e7cc214610809578063ce1534c114610846578063d85d3d271461086f57610295565b80639c05c7ca14610684578063ad9c4627146106af578063b3142005146106ec578063b61ca76714610729578063b6ab43e61461075257610295565b80632eae62dc116101d257806363cad13f1161019657806363cad13f146105625780637b94a2a11461059f5780637ce4d23a146105dc5780637e282682146106075780638956f3d414610630578063943640c31461065957610295565b80632eae62dc14610455578063305f16f4146104805780633348cc0a146104ab57806345912d97146104e85780636352211e1461052557610295565b8063218f7d6e11610219578063218f7d6e1461037f57806321ea7fd3146103a857806323b872dd146103d35780632abc3344146103ef5780632b5ba5ab1461041857610295565b8063025e7c271461029a578063090d4388146102d75780630c08bf881461030057806314feb3cb146103175780631bac031a1461034257610295565b36610295577f4e2ced4d2c3ee1a077c8c313167e6d86b8fe49c37f9d00e5ed1f37265d50be6a303460405161028b929190615501565b60405180910390a1005b600080fd5b3480156102a657600080fd5b506102c160048036038101906102bc9190614c9d565b610ab6565b6040516102ce91906154e6565b60405180910390f35b3480156102e357600080fd5b506102fe60048036038101906102f99190614ac1565b610ae9565b005b34801561030c57600080fd5b50610315610c52565b005b34801561032357600080fd5b5061032c610d79565b6040516103399190615589565b60405180910390f35b34801561034e57600080fd5b5061036960048036038101906103649190614c9d565b610e0b565b60405161037691906157ab565b60405180910390f35b34801561038b57600080fd5b506103a660048036038101906103a19190614be1565b610e28565b005b3480156103b457600080fd5b506103bd611431565b6040516103ca91906157ab565b60405180910390f35b6103ed60048036038101906103e89190614aea565b61143b565b005b3480156103fb57600080fd5b5061041660048036038101906104119190614b39565b61163d565b005b34801561042457600080fd5b5061043f600480360381019061043a9190614ac1565b61190f565b60405161044c919061554c565b60405180910390f35b34801561046157600080fd5b5061046a6119a6565b60405161047791906154e6565b60405180910390f35b34801561048c57600080fd5b506104956119d0565b6040516104a29190615589565b60405180910390f35b3480156104b757600080fd5b506104d260048036038101906104cd9190614be1565b611a62565b6040516104df919061556e565b60405180910390f35b3480156104f457600080fd5b5061050f600480360381019061050a9190614c9d565b611bc0565b60405161051c9190615589565b60405180910390f35b34801561053157600080fd5b5061054c60048036038101906105479190614c9d565b611c65565b60405161055991906154e6565b60405180910390f35b34801561056e57600080fd5b5061058960048036038101906105849190614c9d565b611ca1565b604051610596919061556e565b60405180910390f35b3480156105ab57600080fd5b506105c660048036038101906105c19190614ac1565b611ccb565b6040516105d3919061554c565b60405180910390f35b3480156105e857600080fd5b506105f1611f23565b6040516105fe919061552a565b60405180910390f35b34801561061357600080fd5b5061062e60048036038101906106299190614ba0565b612114565b005b34801561063c57600080fd5b5061065760048036038101906106529190614ba0565b6123c1565b005b34801561066557600080fd5b5061066e6125f6565b60405161067b91906154e6565b60405180910390f35b34801561069057600080fd5b506106996125fe565b6040516106a6919061552a565b60405180910390f35b3480156106bb57600080fd5b506106d660048036038101906106d19190614ac1565b612933565b6040516106e3919061554c565b60405180910390f35b3480156106f857600080fd5b50610713600480360381019061070e9190614ac1565b612d56565b604051610720919061556e565b60405180910390f35b34801561073557600080fd5b50610750600480360381019061074b9190614cc6565b612da5565b005b34801561075e57600080fd5b5061077960048036038101906107749190614c9d565b612eaa565b6040516107869190615589565b60405180910390f35b34801561079b57600080fd5b506107b660048036038101906107b19190614c9d565b612f4a565b6040516107c391906157ab565b60405180910390f35b3480156107d857600080fd5b506107f360048036038101906107ee9190614c9d565b612f67565b60405161080091906157ab565b60405180910390f35b34801561081557600080fd5b50610830600480360381019061082b9190614c9d565b612f7f565b60405161083d919061556e565b60405180910390f35b34801561085257600080fd5b5061086d60048036038101906108689190614c9d565b612fa9565b005b34801561087b57600080fd5b5061089660048036038101906108919190614be1565b61321d565b005b6108b260048036038101906108ad9190614c9d565b6134f6565b005b3480156108c057600080fd5b506108db60048036038101906108d69190614ac1565b61361b565b6040516108e8919061554c565b60405180910390f35b3480156108fd57600080fd5b50610906613b88565b60405161091391906154e6565b60405180910390f35b34801561092857600080fd5b50610943600480360381019061093e9190614be1565b613bb2565b604051610950919061556e565b60405180910390f35b34801561096557600080fd5b50610980600480360381019061097b9190614ac1565b613bed565b60405161098d91906157ab565b60405180910390f35b3480156109a257600080fd5b506109bd60048036038101906109b89190614c9d565b613c3e565b005b3480156109cb57600080fd5b506109d4613e1d565b6040516109e191906157ab565b60405180910390f35b3480156109f657600080fd5b50610a116004803603810190610a0c9190614c9d565b613e27565b604051610a1e91906157ab565b60405180910390f35b348015610a3357600080fd5b50610a4e6004803603810190610a499190614d15565b613e44565b005b348015610a5c57600080fd5b50610a776004803603810190610a729190614c22565b613f0d565b005b348015610a8557600080fd5b50610aa06004803603810190610a9b9190614c9d565b6141f6565b604051610aad919061556e565b60405180910390f35b60006020528060005260406000206000915054906101000a900473ffffffffffffffffffffffffffffffffffffffff1681565b3373ffffffffffffffffffffffffffffffffffffffff16600e60009054906101000a900473ffffffffffffffffffffffffffffffffffffffff1673ffffffffffffffffffffffffffffffffffffffff1614610b79576040517f08c379a0000000000000000000000000000000000000000000000000000000008152600401610b709061566b565b60405180910390fd5b6015543373ffffffffffffffffffffffffffffffffffffffff16311015610bd5576040517f08c379a0000000000000000000000000000000000000000000000000000000008152600401610bcc9061564b565b60405180910390fd5b600860008273ffffffffffffffffffffffffffffffffffffffff1673ffffffffffffffffffffffffffffffffffffffff16815260200190815260200160002066038d7ea4c68000601054610c299190615912565b908060018154018082558091505060019003906000526020600020016000909190919091505550565b3373ffffffffffffffffffffffffffffffffffffffff16600e60009054906101000a900473ffffffffffffffffffffffffffffffffffffffff1673ffffffffffffffffffffffffffffffffffffffff1614610ce2576040517f08c379a0000000000000000000000000000000000000000000000000000000008152600401610cd99061566b565b60405180910390fd5b6015543373ffffffffffffffffffffffffffffffffffffffff16311015610d3e576040517f08c379a0000000000000000000000000000000000000000000000000000000008152600401610d359061564b565b60405180910390fd5b600e60009054906101000a900473ffffffffffffffffffffffffffffffffffffffff1673ffffffffffffffffffffffffffffffffffffffff16ff5b6060600b8054610d8890615aaa565b80601f0160208091040260200160405190810160405280929190818152602001828054610db490615aaa565b8015610e015780601f10610dd657610100808354040283529160200191610e01565b820191906000526020600020905b815481529060010190602001808311610de457829003601f168201915b5050505050905090565b600060056000838152602001908152602001600020549050919050565b6000600860003373ffffffffffffffffffffffffffffffffffffffff1673ffffffffffffffffffffffffffffffffffffffff168152602001908152602001600020805490501180610ec65750600e60009054906101000a900473ffffffffffffffffffffffffffffffffffffffff1673ffffffffffffffffffffffffffffffffffffffff163373ffffffffffffffffffffffffffffffffffffffff16145b610f05576040517f08c379a0000000000000000000000000000000000000000000000000000000008152600401610efc9061560b565b60405180910390fd5b6001600782604051610f1791906154b8565b908152602001604051809103902060009054906101000a900460ff1660ff1614158015610f7357506003600782604051610f5191906154b8565b908152602001604051809103902060009054906101000a900460ff1660ff1614155b610fb2576040517f08c379a0000000000000000000000000000000000000000000000000000000008152600401610fa99061562b565b60405180910390fd5b6000600782604051610fc491906154b8565b908152602001604051809103902060009054906101000a900460ff1660ff1614156113dd57600e60009054906101000a900473ffffffffffffffffffffffffffffffffffffffff1673ffffffffffffffffffffffffffffffffffffffff163373ffffffffffffffffffffffffffffffffffffffff16141561107c57600160078260405161105191906154b8565b908152602001604051809103902060006101000a81548160ff021916908360ff1602179055506110e5565b600360078260405161108e91906154b8565b908152602001604051809103902060006101000a81548160ff021916908360ff160217905550601260008154809291906110c790615adc565b9190505550601160008154809291906110df90615adc565b91905055505b6013819080600181540180825580915050600190039060005260206000200160009091909190915090805190602001906111209291906148a3565b506014339080600181540180825580915050600190039060005260206000200160009091909190916101000a81548173ffffffffffffffffffffffffffffffffffffffff021916908373ffffffffffffffffffffffffffffffffffffffff1602179055506000600860003373ffffffffffffffffffffffffffffffffffffffff1673ffffffffffffffffffffffffffffffffffffffff16815260200190815260200160002080549050111561135757601054600860003373ffffffffffffffffffffffffffffffffffffffff1673ffffffffffffffffffffffffffffffffffffffff16815260200190815260200160002060008154811061124a577f4e487b7100000000000000000000000000000000000000000000000000000000600052603260045260246000fd5b906000526020600020015411156112e957601054600860003373ffffffffffffffffffffffffffffffffffffffff1673ffffffffffffffffffffffffffffffffffffffff1681526020019081526020016000206000815481106112d6577f4e487b7100000000000000000000000000000000000000000000000000000000600052603260045260246000fd5b9060005260206000200181905550611352565b600860003373ffffffffffffffffffffffffffffffffffffffff1673ffffffffffffffffffffffffffffffffffffffff16815260200190815260200160002060105490806001815401808255809150506001900390600052602060002001600090919091909150555b6113c0565b600860003373ffffffffffffffffffffffffffffffffffffffff1673ffffffffffffffffffffffffffffffffffffffff16815260200190815260200160002060105490806001815401808255809150506001900390600052602060002001600090919091909150555b601060008154809291906113d390615adc565b919050555061142e565b60016007826040516113ef91906154b8565b908152602001604051809103902060006101000a81548160ff021916908360ff1602179055506011600081548092919061142890615a80565b91905055505b50565b6000601054905090565b8273ffffffffffffffffffffffffffffffffffffffff1660008083815260200190815260200160002060009054906101000a900473ffffffffffffffffffffffffffffffffffffffff1673ffffffffffffffffffffffffffffffffffffffff16146114db576040517f08c379a00000000000000000000000000000000000000000000000000000000081526004016114d2906155eb565b60405180910390fd5b3460026000838152602001908152602001600020541115611531576040517f08c379a00000000000000000000000000000000000000000000000000000000081526004016115289061576b565b60405180910390fd5b60003414611581578273ffffffffffffffffffffffffffffffffffffffff166108fc349081150290604051600060405180830381858888f1935050505015801561157f573d6000803e3d6000fd5b505b61158c838383614216565b8160008083815260200190815260200160002060006101000a81548173ffffffffffffffffffffffffffffffffffffffff021916908373ffffffffffffffffffffffffffffffffffffffff160217905550808273ffffffffffffffffffffffffffffffffffffffff168473ffffffffffffffffffffffffffffffffffffffff167fddf252ad1be2c89b69c2b068fc378daa952ba7f163c4a11628f55a4df523b3ef60405160405180910390a4505050565b61164633612d56565b611685576040517f08c379a000000000000000000000000000000000000000000000000000000000815260040161167c906156cb565b60405180910390fd5b61168e82613bb2565b61169757600080fd5b6116a082611a62565b6116df576040517f08c379a00000000000000000000000000000000000000000000000000000000081526004016116d69061568b565b60405180910390fd5b82600080600f54815260200190815260200160002060006101000a81548173ffffffffffffffffffffffffffffffffffffffff021916908373ffffffffffffffffffffffffffffffffffffffff1602179055506000600960008573ffffffffffffffffffffffffffffffffffffffff1673ffffffffffffffffffffffffffffffffffffffff168152602001908152602001600020600f5490806001815401808255809150506001900390600052602060002001600090919091909150556001600960008673ffffffffffffffffffffffffffffffffffffffff1673ffffffffffffffffffffffffffffffffffffffff168152602001908152602001600020805490506117eb91906159c2565b905080600a6000600f548152602001908152602001600020819055508260016000600f54815260200190815260200160002090805190602001906118309291906148a3565b5060165460026000600f54815260200190815260200160002081905550600160046000600f54815260200190815260200160002060006101000a81548160ff021916908315150217905550600060036000600f54815260200190815260200160002060006101000a81548160ff021916908315150217905550600082146118f1578160056000600f5481526020019081526020016000208190555081426118d79190615912565b60066000600f548152602001908152602001600020819055505b600f600081548092919061190490615adc565b919050555050505050565b6060600860008373ffffffffffffffffffffffffffffffffffffffff1673ffffffffffffffffffffffffffffffffffffffff16815260200190815260200160002080548060200260200160405190810160405280929190818152602001828054801561199a57602002820191906000526020600020905b815481526020019060010190808311611986575b50505050509050919050565b6000600e60009054906101000a900473ffffffffffffffffffffffffffffffffffffffff16905090565b6060600c80546119df90615aaa565b80601f0160208091040260200160405190810160405280929190818152602001828054611a0b90615aaa565b8015611a585780601f10611a2d57610100808354040283529160200191611a58565b820191906000526020600020905b815481529060010190602001808311611a3b57829003601f168201915b5050505050905090565b600080600090506000611a7433612933565b905060005b8151811015611bb557611b986013838381518110611ac0577f4e487b7100000000000000000000000000000000000000000000000000000000600052603260045260246000fd5b602002602001015181548110611aff577f4e487b7100000000000000000000000000000000000000000000000000000000600052603260045260246000fd5b906000526020600020018054611b1490615aaa565b80601f0160208091040260200160405190810160405280929190818152602001828054611b4090615aaa565b8015611b8d5780601f10611b6257610100808354040283529160200191611b8d565b820191906000526020600020905b815481529060010190602001808311611b7057829003601f168201915b5050505050866146d7565b15611ba257600192505b8080611bad90615adc565b915050611a79565b508192505050919050565b6060600160008381526020019081526020016000208054611be090615aaa565b80601f0160208091040260200160405190810160405280929190818152602001828054611c0c90615aaa565b8015611c595780601f10611c2e57610100808354040283529160200191611c59565b820191906000526020600020905b815481529060010190602001808311611c3c57829003601f168201915b50505050509050919050565b600080600083815260200190815260200160002060009054906101000a900473ffffffffffffffffffffffffffffffffffffffff169050919050565b60006004600083815260200190815260200160002060009054906101000a900460ff169050919050565b60606000805b600f54811015611d9457600115156003600083815260200190815260200160002060009054906101000a900460ff161515148015611d6d57508373ffffffffffffffffffffffffffffffffffffffff1660008083815260200190815260200160002060009054906101000a900473ffffffffffffffffffffffffffffffffffffffff1673ffffffffffffffffffffffffffffffffffffffff1614155b15611d81578180611d7d90615adc565b9250505b8080611d8c90615adc565b915050611cd1565b5060008167ffffffffffffffff811115611dd7577f4e487b7100000000000000000000000000000000000000000000000000000000600052604160045260246000fd5b604051908082528060200260200182016040528015611e055781602001602082028036833780820191505090505b5090506000915060005b600f54811015611f1857600115156003600083815260200190815260200160002060009054906101000a900460ff161515148015611eab57508473ffffffffffffffffffffffffffffffffffffffff1660008083815260200190815260200160002060009054906101000a900473ffffffffffffffffffffffffffffffffffffffff1673ffffffffffffffffffffffffffffffffffffffff1614155b15611f055780828481518110611eea577f4e487b7100000000000000000000000000000000000000000000000000000000600052603260045260246000fd5b6020026020010181815250508280611f0190615adc565b9350505b8080611f1090615adc565b915050611e0f565b508092505050919050565b60606000601154601054611f3791906159c2565b67ffffffffffffffff811115611f76577f4e487b7100000000000000000000000000000000000000000000000000000000600052604160045260246000fd5b604051908082528060200260200182016040528015611fa957816020015b6060815260200190600190039081611f945790505b509050600060138054905090506000606060005b838110156121095760138181548110611fff577f4e487b7100000000000000000000000000000000000000000000000000000000600052603260045260246000fd5b90600052602060002001805461201490615aaa565b80601f016020809104026020016040519081016040528092919081815260200182805461204090615aaa565b801561208d5780601f106120625761010080835404028352916020019161208d565b820191906000526020600020905b81548152906001019060200180831161207057829003601f168201915b5050505050915061209d82613bb2565b156120f657818584815181106120dc577f4e487b7100000000000000000000000000000000000000000000000000000000600052603260045260246000fd5b602002602001018190525082806120f290615adc565b9350505b808061210190615adc565b915050611fbd565b508394505050505090565b3373ffffffffffffffffffffffffffffffffffffffff16600e60009054906101000a900473ffffffffffffffffffffffffffffffffffffffff1673ffffffffffffffffffffffffffffffffffffffff16146121a4576040517f08c379a000000000000000000000000000000000000000000000000000000000815260040161219b9061566b565b60405180910390fd5b6015543373ffffffffffffffffffffffffffffffffffffffff16311015612200576040517f08c379a00000000000000000000000000000000000000000000000000000000081526004016121f79061564b565b60405180910390fd5b60008151905060005b818110156123bc576001151561225e848381518110612251577f4e487b7100000000000000000000000000000000000000000000000000000000600052603260045260246000fd5b6020026020010151613bb2565b151514156122a1576040517f08c379a00000000000000000000000000000000000000000000000000000000081526004016122989061574b565b60405180910390fd5b600360078483815181106122de577f4e487b7100000000000000000000000000000000000000000000000000000000600052603260045260246000fd5b60200260200101516040516122f391906154b8565b908152602001604051809103902060009054906101000a900460ff1660ff161415612331576012600081548092919061232b90615a80565b91905055505b6002600784838151811061236e577f4e487b7100000000000000000000000000000000000000000000000000000000600052603260045260246000fd5b602002602001015160405161238391906154b8565b908152602001604051809103902060006101000a81548160ff021916908360ff16021790555080806123b490615adc565b915050612209565b505050565b3373ffffffffffffffffffffffffffffffffffffffff16600e60009054906101000a900473ffffffffffffffffffffffffffffffffffffffff1673ffffffffffffffffffffffffffffffffffffffff1614612451576040517f08c379a00000000000000000000000000000000000000000000000000000000081526004016124489061566b565b60405180910390fd5b6015543373ffffffffffffffffffffffffffffffffffffffff163110156124ad576040517f08c379a00000000000000000000000000000000000000000000000000000000081526004016124a49061564b565b60405180910390fd5b60008151905060005b818110156125f157600360078483815181106124fb577f4e487b7100000000000000000000000000000000000000000000000000000000600052603260045260246000fd5b602002602001015160405161251091906154b8565b908152602001604051809103902060009054906101000a900460ff1660ff1614156125de5760016007848381518110612572577f4e487b7100000000000000000000000000000000000000000000000000000000600052603260045260246000fd5b602002602001015160405161258791906154b8565b908152602001604051809103902060006101000a81548160ff021916908360ff160217905550601260008154809291906125c090615a80565b9190505550601160008154809291906125d890615a80565b91905055505b80806125e990615adc565b9150506124b6565b505050565b600030905090565b60603373ffffffffffffffffffffffffffffffffffffffff16600e60009054906101000a900473ffffffffffffffffffffffffffffffffffffffff1673ffffffffffffffffffffffffffffffffffffffff1614612690576040517f08c379a00000000000000000000000000000000000000000000000000000000081526004016126879061566b565b60405180910390fd5b6015543373ffffffffffffffffffffffffffffffffffffffff163110156126ec576040517f08c379a00000000000000000000000000000000000000000000000000000000081526004016126e39061564b565b60405180910390fd5b600060125467ffffffffffffffff811115612730577f4e487b7100000000000000000000000000000000000000000000000000000000600052604160045260246000fd5b60405190808252806020026020018201604052801561276357816020015b606081526020019060019003908161274e5790505b509050600080601380549050905060005b818110156129295760036007601383815481106127ba577f4e487b7100000000000000000000000000000000000000000000000000000000600052603260045260246000fd5b906000526020600020016040516127d191906154cf565b908152602001604051809103902060009054906101000a900460ff1660ff1614156129165760138181548110612830577f4e487b7100000000000000000000000000000000000000000000000000000000600052603260045260246000fd5b90600052602060002001805461284590615aaa565b80601f016020809104026020016040519081016040528092919081815260200182805461287190615aaa565b80156128be5780601f10612893576101008083540402835291602001916128be565b820191906000526020600020905b8154815290600101906020018083116128a157829003601f168201915b50505050508484815181106128fc577f4e487b7100000000000000000000000000000000000000000000000000000000600052603260045260246000fd5b6020026020010181905250828061291290615adc565b9350505b808061292190615adc565b915050612774565b5082935050505090565b6060600080600860008573ffffffffffffffffffffffffffffffffffffffff1673ffffffffffffffffffffffffffffffffffffffff16815260200190815260200160002080549050905060008114156129ff57600067ffffffffffffffff8111156129c7577f4e487b7100000000000000000000000000000000000000000000000000000000600052604160045260246000fd5b6040519080825280602002602001820160405280156129f55781602001602082028036833780820191505090505b5092505050612d51565b60005b81811015612ab757601054600860008773ffffffffffffffffffffffffffffffffffffffff1673ffffffffffffffffffffffffffffffffffffffff1681526020019081526020016000208281548110612a84577f4e487b7100000000000000000000000000000000000000000000000000000000600052603260045260246000fd5b90600052602060002001541015612aa4578280612aa090615adc565b9350505b8080612aaf90615adc565b915050612a02565b5080821415612b5757600860008573ffffffffffffffffffffffffffffffffffffffff1673ffffffffffffffffffffffffffffffffffffffff168152602001908152602001600020805480602002602001604051908101604052809291908181526020018280548015612b4957602002820191906000526020600020905b815481526020019060010190808311612b35575b505050505092505050612d51565b60008267ffffffffffffffff811115612b99577f4e487b7100000000000000000000000000000000000000000000000000000000600052604160045260246000fd5b604051908082528060200260200182016040528015612bc75781602001602082028036833780820191505090505b50905060005b82811015612d4957601054600860008873ffffffffffffffffffffffffffffffffffffffff1673ffffffffffffffffffffffffffffffffffffffff1681526020019081526020016000208281548110612c4f577f4e487b7100000000000000000000000000000000000000000000000000000000600052603260045260246000fd5b90600052602060002001541015612d3657600860008773ffffffffffffffffffffffffffffffffffffffff1673ffffffffffffffffffffffffffffffffffffffff1681526020019081526020016000208181548110612cd7577f4e487b7100000000000000000000000000000000000000000000000000000000600052603260045260246000fd5b9060005260206000200154828581518110612d1b577f4e487b7100000000000000000000000000000000000000000000000000000000600052603260045260246000fd5b6020026020010181815250508380612d3290615a80565b9450505b8080612d4190615adc565b915050612bcd565b508093505050505b919050565b600080600860008473ffffffffffffffffffffffffffffffffffffffff1673ffffffffffffffffffffffffffffffffffffffff1681526020019081526020016000208054905014159050919050565b612e49600160008581526020019081526020016000208054612dc690615aaa565b80601f0160208091040260200160405190810160405280929190818152602001828054612df290615aaa565b8015612e3f5780601f10612e1457610100808354040283529160200191612e3f565b820191906000526020600020905b815481529060010190602001808311612e2257829003601f168201915b5050505050611a62565b612e5257600080fd5b81612e845781156004600085815260200190815260200160002060006101000a81548160ff0219169083151502179055505b60008114612ea5578060056000858152602001908152602001600020819055505b505050565b60016020528060005260406000206000915090508054612ec990615aaa565b80601f0160208091040260200160405190810160405280929190818152602001828054612ef590615aaa565b8015612f425780601f10612f1757610100808354040283529160200191612f42565b820191906000526020600020905b815481529060010190602001808311612f2557829003601f168201915b505050505081565b600060026000838152602001908152602001600020549050919050565b60026020528060005260406000206000915090505481565b60006003600083815260200190815260200160002060009054906101000a900460ff169050919050565b600061305160016000600f5481526020019081526020016000208054612fce90615aaa565b80601f0160208091040260200160405190810160405280929190818152602001828054612ffa90615aaa565b80156130475780601f1061301c57610100808354040283529160200191613047565b820191906000526020600020905b81548152906001019060200180831161302a57829003601f168201915b5050505050614730565b905060008083815260200190815260200160002060009054906101000a900473ffffffffffffffffffffffffffffffffffffffff1673ffffffffffffffffffffffffffffffffffffffff163373ffffffffffffffffffffffffffffffffffffffff16148061310c5750600e60009054906101000a900473ffffffffffffffffffffffffffffffffffffffff1673ffffffffffffffffffffffffffffffffffffffff163373ffffffffffffffffffffffffffffffffffffffff16145b8061314257508073ffffffffffffffffffffffffffffffffffffffff163373ffffffffffffffffffffffffffffffffffffffff16145b801561318157504260056000848152602001908152602001600020541080156131805750600060056000600f54815260200190815260200160002054115b5b6131c0576040517f08c379a00000000000000000000000000000000000000000000000000000000081526004016131b79061570b565b60405180910390fd5b600060026000848152602001908152602001600020549050600060026000600f548152602001908152602001600020819055506131fe33838561143b565b8060026000600f54815260200190815260200160002081905550505050565b61322681613bb2565b613265576040517f08c379a000000000000000000000000000000000000000000000000000000000815260040161325c9061578b565b60405180910390fd5b61326e33612d56565b6132ad576040517f08c379a00000000000000000000000000000000000000000000000000000000081526004016132a49061572b565b60405180910390fd5b6132b681611a62565b6132f5576040517f08c379a00000000000000000000000000000000000000000000000000000000081526004016132ec9061568b565b60405180910390fd5b33600080600f54815260200190815260200160002060006101000a81548173ffffffffffffffffffffffffffffffffffffffff021916908373ffffffffffffffffffffffffffffffffffffffff1602179055506000600960003373ffffffffffffffffffffffffffffffffffffffff1673ffffffffffffffffffffffffffffffffffffffff168152602001908152602001600020600f5490806001815401808255809150506001900390600052602060002001600090919091909150556001600960003373ffffffffffffffffffffffffffffffffffffffff1673ffffffffffffffffffffffffffffffffffffffff1681526020019081526020016000208054905061340191906159c2565b905080600a6000600f548152602001908152602001600020819055508160016000600f54815260200190815260200160002090805190602001906134469291906148a3565b5060165460026000600f54815260200190815260200160002081905550600060036000600f54815260200190815260200160002060006101000a81548160ff021916908315150217905550600060046000600f54815260200190815260200160002060006101000a81548160ff021916908315150217905550600060056000600f54815260200190815260200160002081905550600f60008154809291906134ed90615adc565b91905055505050565b600115156003600083815260200190815260200160002060009054906101000a900460ff1615151461355d576040517f08c379a0000000000000000000000000000000000000000000000000000000008152600401613554906155cb565b60405180910390fd5b61359a60008083815260200190815260200160002060009054906101000a900473ffffffffffffffffffffffffffffffffffffffff16338361143b565b60006005600083815260200190815260200160002054146135ec576005600082815260200190815260200160002054426135d49190615912565b60066000838152602001908152602001600020819055505b60006003600083815260200190815260200160002060006101000a81548160ff02191690831515021790555050565b60606000600960008473ffffffffffffffffffffffffffffffffffffffff1673ffffffffffffffffffffffffffffffffffffffff1681526020019081526020016000208054905090506000811115613aeb576000805b8281101561380757600060066000600960008973ffffffffffffffffffffffffffffffffffffffff1673ffffffffffffffffffffffffffffffffffffffff16815260200190815260200160002084815481106136f6577f4e487b7100000000000000000000000000000000000000000000000000000000600052603260045260246000fd5b906000526020600020015481526020019081526020016000205414806137b057504260066000600960008973ffffffffffffffffffffffffffffffffffffffff1673ffffffffffffffffffffffffffffffffffffffff1681526020019081526020016000208481548110613793577f4e487b7100000000000000000000000000000000000000000000000000000000600052603260045260246000fd5b906000526020600020015481526020019081526020016000205410155b806137e05750600115156004600083815260200190815260200160002060009054906101000a900460ff16151515145b156137f45781806137f090615adc565b9250505b80806137ff90615adc565b915050613671565b5060008167ffffffffffffffff81111561384a577f4e487b7100000000000000000000000000000000000000000000000000000000600052604160045260246000fd5b6040519080825280602002602001820160405280156138785781602001602082028036833780820191505090505b5090506000915060005b83811015613adf57600060066000600960008a73ffffffffffffffffffffffffffffffffffffffff1673ffffffffffffffffffffffffffffffffffffffff1681526020019081526020016000208481548110613907577f4e487b7100000000000000000000000000000000000000000000000000000000600052603260045260246000fd5b906000526020600020015481526020019081526020016000205414806139c157504260066000600960008a73ffffffffffffffffffffffffffffffffffffffff1673ffffffffffffffffffffffffffffffffffffffff16815260200190815260200160002084815481106139a4577f4e487b7100000000000000000000000000000000000000000000000000000000600052603260045260246000fd5b906000526020600020015481526020019081526020016000205410155b806139f15750600115156004600083815260200190815260200160002060009054906101000a900460ff16151515145b15613acc57600960008773ffffffffffffffffffffffffffffffffffffffff1673ffffffffffffffffffffffffffffffffffffffff1681526020019081526020016000208181548110613a6d577f4e487b7100000000000000000000000000000000000000000000000000000000600052603260045260246000fd5b9060005260206000200154828481518110613ab1577f4e487b7100000000000000000000000000000000000000000000000000000000600052603260045260246000fd5b6020026020010181815250508280613ac890615adc565b9350505b8080613ad790615adc565b915050613882565b50809350505050613b83565b6000600960008573ffffffffffffffffffffffffffffffffffffffff1673ffffffffffffffffffffffffffffffffffffffff168152602001908152602001600020805480602002602001604051908101604052809291908181526020018280548015613b7657602002820191906000526020600020905b815481526020019060010190808311613b62575b5050505050905080925050505b919050565b6000600d60009054906101000a900473ffffffffffffffffffffffffffffffffffffffff16905090565b60006001600783604051613bc691906154b8565b908152602001604051809103902060009054906101000a900460ff1660ff16149050919050565b600080600960008473ffffffffffffffffffffffffffffffffffffffff1673ffffffffffffffffffffffffffffffffffffffff16815260200190815260200160002080549050905080915050919050565b3373ffffffffffffffffffffffffffffffffffffffff1660008083815260200190815260200160002060009054906101000a900473ffffffffffffffffffffffffffffffffffffffff1673ffffffffffffffffffffffffffffffffffffffff1614613cde576040517f08c379a0000000000000000000000000000000000000000000000000000000008152600401613cd5906155ab565b60405180910390fd5b613d82600160008381526020019081526020016000208054613cff90615aaa565b80601f0160208091040260200160405190810160405280929190818152602001828054613d2b90615aaa565b8015613d785780601f10613d4d57610100808354040283529160200191613d78565b820191906000526020600020905b815481529060010190602001808311613d5b57829003601f168201915b5050505050611a62565b613dee57600015156004600083815260200190815260200160002060009054906101000a900460ff16151514613ded576040517f08c379a0000000000000000000000000000000000000000000000000000000008152600401613de4906155ab565b60405180910390fd5b5b60016003600083815260200190815260200160002060006101000a81548160ff02191690831515021790555050565b6000600f54905090565b600060066000838152602001908152602001600020549050919050565b3373ffffffffffffffffffffffffffffffffffffffff1660008083815260200190815260200160002060009054906101000a900473ffffffffffffffffffffffffffffffffffffffff1673ffffffffffffffffffffffffffffffffffffffff1614613ee4576040517f08c379a0000000000000000000000000000000000000000000000000000000008152600401613edb906156eb565b60405180910390fd5b60165482613ef29190615968565b60026000838152602001908152602001600020819055505050565b613f1684613bb2565b613f55576040517f08c379a0000000000000000000000000000000000000000000000000000000008152600401613f4c9061578b565b60405180910390fd5b613f5e33612d56565b613f9d576040517f08c379a0000000000000000000000000000000000000000000000000000000008152600401613f949061572b565b60405180910390fd5b613fa684611a62565b613fe5576040517f08c379a0000000000000000000000000000000000000000000000000000000008152600401613fdc9061568b565b60405180910390fd5b33600080600f54815260200190815260200160002060006101000a81548173ffffffffffffffffffffffffffffffffffffffff021916908373ffffffffffffffffffffffffffffffffffffffff1602179055506000600960003373ffffffffffffffffffffffffffffffffffffffff1673ffffffffffffffffffffffffffffffffffffffff168152602001908152602001600020600f5490806001815401808255809150506001900390600052602060002001600090919091909150556001600960003373ffffffffffffffffffffffffffffffffffffffff1673ffffffffffffffffffffffffffffffffffffffff168152602001908152602001600020805490506140f191906159c2565b905080600a6000600f548152602001908152602001600020819055508460016000600f54815260200190815260200160002090805190602001906141369291906148a3565b5060165460026000600f548152602001908152602001600020819055508160036000600f54815260200190815260200160002060006101000a81548160ff021916908315150217905550836141b457831560046000600f54815260200190815260200160002060006101000a81548160ff0219169083151502179055505b600083146141d7578260056000600f548152602001908152602001600020819055505b600f60008154809291906141ea90615adc565b91905055505050505050565b60036020528060005260406000206000915054906101000a900460ff1681565b600080600a6000848152602001908152602001600020549150600960008673ffffffffffffffffffffffffffffffffffffffff1673ffffffffffffffffffffffffffffffffffffffff16815260200190815260200160002080549050905060008167ffffffffffffffff8111156142b6577f4e487b7100000000000000000000000000000000000000000000000000000000600052604160045260246000fd5b6040519080825280602002602001820160405280156142e45781602001602082028036833780820191505090505b509050600960008773ffffffffffffffffffffffffffffffffffffffff1673ffffffffffffffffffffffffffffffffffffffff16815260200190815260200160002080548060200260200160405190810160405280929190818152602001828054801561437057602002820191906000526020600020905b81548152602001906001019080831161435c575b50505050509050600060018361438691906159c2565b67ffffffffffffffff8111156143c5577f4e487b7100000000000000000000000000000000000000000000000000000000600052604160045260246000fd5b6040519080825280602002602001820160405280156143f35781602001602082028036833780820191505090505b50905060005b8481101561449a5782818151811061443a577f4e487b7100000000000000000000000000000000000000000000000000000000600052603260045260246000fd5b602002602001015182828151811061447b577f4e487b7100000000000000000000000000000000000000000000000000000000600052603260045260246000fd5b602002602001018181525050808061449290615adc565b9150506143f9565b5060008251905060006001866144b09190615912565b90505b81811015614560578381815181106144f4577f4e487b7100000000000000000000000000000000000000000000000000000000600052603260045260246000fd5b60200260200101518360018361450a91906159c2565b81518110614541577f4e487b7100000000000000000000000000000000000000000000000000000000600052603260045260246000fd5b602002602001018181525050808061455890615adc565b9150506144b3565b506000825190508181106145a9576040517f08c379a00000000000000000000000000000000000000000000000000000000081526004016145a0906156ab565b60405180910390fd5b82600960008b73ffffffffffffffffffffffffffffffffffffffff1673ffffffffffffffffffffffffffffffffffffffff16815260200190815260200160002090805190602001906145fc929190614929565b50600960008973ffffffffffffffffffffffffffffffffffffffff1673ffffffffffffffffffffffffffffffffffffffff1681526020019081526020016000208790806001815401808255809150506001900390600052602060002001600090919091909150556001600960008a73ffffffffffffffffffffffffffffffffffffffff1673ffffffffffffffffffffffffffffffffffffffff168152602001908152602001600020805490506146b291906159c2565b955085600a600089815260200190815260200160002081905550505050505050505050565b6000816040516020016146ea91906154b8565b604051602081830303815290604052805190602001208360405160200161471191906154b8565b6040516020818303038152906040528051906020012014905092915050565b6000806000601380549050905060005b818110156148975761481e60138281548110614785577f4e487b7100000000000000000000000000000000000000000000000000000000600052603260045260246000fd5b90600052602060002001805461479a90615aaa565b80601f01602080910402602001604051908101604052809291908181526020018280546147c690615aaa565b80156148135780601f106147e857610100808354040283529160200191614813565b820191906000526020600020905b8154815290600101906020018083116147f657829003601f168201915b5050505050866146d7565b15614892576014818154811061485d577f4e487b7100000000000000000000000000000000000000000000000000000000600052603260045260246000fd5b9060005260206000200160009054906101000a900473ffffffffffffffffffffffffffffffffffffffff16935050505061489e565b614740565b5081925050505b919050565b8280546148af90615aaa565b90600052602060002090601f0160209004810192826148d15760008555614918565b82601f106148ea57805160ff1916838001178555614918565b82800160010185558215614918579182015b828111156149175782518255916020019190600101906148fc565b5b5090506149259190614976565b5090565b828054828255906000526020600020908101928215614965579160200282015b82811115614964578251825591602001919060010190614949565b5b5090506149729190614976565b5090565b5b8082111561498f576000816000905550600101614977565b5090565b60006149a66149a1846157f7565b6157c6565b9050808382526020820190508260005b858110156149e657813585016149cc8882614a82565b8452602084019350602083019250506001810190506149b6565b5050509392505050565b6000614a036149fe84615823565b6157c6565b905082815260208101848484011115614a1b57600080fd5b614a26848285615a3e565b509392505050565b600081359050614a3d81615bc3565b92915050565b600082601f830112614a5457600080fd5b8135614a64848260208601614993565b91505092915050565b600081359050614a7c81615bda565b92915050565b600082601f830112614a9357600080fd5b8135614aa38482602086016149f0565b91505092915050565b600081359050614abb81615bf1565b92915050565b600060208284031215614ad357600080fd5b6000614ae184828501614a2e565b91505092915050565b600080600060608486031215614aff57600080fd5b6000614b0d86828701614a2e565b9350506020614b1e86828701614a2e565b9250506040614b2f86828701614aac565b9150509250925092565b600080600060608486031215614b4e57600080fd5b6000614b5c86828701614a2e565b935050602084013567ffffffffffffffff811115614b7957600080fd5b614b8586828701614a82565b9250506040614b9686828701614aac565b9150509250925092565b600060208284031215614bb257600080fd5b600082013567ffffffffffffffff811115614bcc57600080fd5b614bd884828501614a43565b91505092915050565b600060208284031215614bf357600080fd5b600082013567ffffffffffffffff811115614c0d57600080fd5b614c1984828501614a82565b91505092915050565b60008060008060808587031215614c3857600080fd5b600085013567ffffffffffffffff811115614c5257600080fd5b614c5e87828801614a82565b9450506020614c6f87828801614a6d565b9350506040614c8087828801614aac565b9250506060614c9187828801614a6d565b91505092959194509250565b600060208284031215614caf57600080fd5b6000614cbd84828501614aac565b91505092915050565b600080600060608486031215614cdb57600080fd5b6000614ce986828701614aac565b9350506020614cfa86828701614a6d565b9250506040614d0b86828701614aac565b9150509250925092565b60008060408385031215614d2857600080fd5b6000614d3685828601614aac565b9250506020614d4785828601614aac565b9150509250929050565b6000614d5d8383614e6e565b905092915050565b6000614d71838361549a565b60208301905092915050565b614d86816159f6565b82525050565b6000614d9782615888565b614da181856158c3565b935083602082028501614db385615853565b8060005b85811015614def5784840389528151614dd08582614d51565b9450614ddb836158a9565b925060208a01995050600181019050614db7565b50829750879550505050505092915050565b6000614e0c82615893565b614e1681856158d4565b9350614e2183615863565b8060005b83811015614e52578151614e398882614d65565b9750614e44836158b6565b925050600181019050614e25565b5085935050505092915050565b614e6881615a08565b82525050565b6000614e798261589e565b614e8381856158e5565b9350614e93818560208601615a4d565b614e9c81615bb2565b840191505092915050565b6000614eb28261589e565b614ebc81856158f6565b9350614ecc818560208601615a4d565b614ed581615bb2565b840191505092915050565b6000614eeb8261589e565b614ef58185615907565b9350614f05818560208601615a4d565b80840191505092915050565b60008154614f1e81615aaa565b614f288186615907565b94506001821660008114614f435760018114614f5457614f87565b60ff19831686528186019350614f87565b614f5d85615873565b60005b83811015614f7f57815481890152600182019150602081019050614f60565b838801955050505b50505092915050565b6000614f9d601f836158f6565b91507f596f75206f6e6c792063616e2073656c6c20737475666620796f75206f776e006000830152602082019050919050565b6000614fdd6028836158f6565b91507f596f75206f6e6c792063616e20627579204e465473206d61726b65642061732060008301527f73656c6c61626c650000000000000000000000000000000000000000000000006020830152604082019050919050565b60006150436024836158f6565b91507f4164647265737320646f6573206e6f7420686f6c64207370656369666963207460008301527f6f6b656e000000000000000000000000000000000000000000000000000000006020830152604082019050919050565b60006150a96010836158f6565b91507f4e6f7420612044617461204f776e6572000000000000000000000000000000006000830152602082019050919050565b60006150e96019836158f6565b91507f506f696e74657220697320616c726561647920696e20757365000000000000006000830152602082019050919050565b6000615129601f836158f6565b91507f506c656173652070726f766964652073756666696369656e742046756e6473006000830152602082019050919050565b60006151696039836158f6565b91507f54686973204f7065726174696f6e2063616e206f6e6c7920626520616363657360008301527f7365642062792074686520636f6e7472616374206f776e6572000000000000006020830152604082019050919050565b60006151cf601b836158f6565b91507f596f7520646f206e6f74206f776e207468697320706f696e74657200000000006000830152602082019050919050565b600061520f603e836158f6565b91507f41727261797320617265206f6620657175616c2073697a6520616e642073756760008301527f676573742074686174206e6f7468696e67206d7563682068617070656e6400006020830152604082019050919050565b60006152756018836158f6565b91507f4e6f204163636f756e74207769746820746869732048756200000000000000006000830152602082019050919050565b60006152b56036836158f6565b91507f54686973204f7065726174696f6e2063616e206f6e6c7920626520616363657360008301527f7365642062792074686520546f6b656e204f776e6572000000000000000000006020830152604082019050919050565b600061531b601c836158f6565b91507f52657475726e20796f7572206f776e20546f6b656e2c2050756e6b21000000006000830152602082019050919050565b600061535b602e836158f6565b91507f596f752068617665206e6f742073756666696369656e7420726967687473206660008301527f6f72207468697320616374696f6e0000000000000000000000000000000000006020830152604082019050919050565b60006153c1601c836158f6565b91507f506f696e74657220697320616c726561647920756e75736561626c65000000006000830152602082019050919050565b6000615401601f836158f6565b91507f506c656173652070726f766964652073756666696369656e742066756e6473006000830152602082019050919050565b6000615441602d836158f6565b91507f50726f766964656420506f696e74657220646f6573206e6f742065786973742060008301527f7769746820636f6e7472616374000000000000000000000000000000000000006020830152604082019050919050565b6154a381615a34565b82525050565b6154b281615a34565b82525050565b60006154c48284614ee0565b915081905092915050565b60006154db8284614f11565b915081905092915050565b60006020820190506154fb6000830184614d7d565b92915050565b60006040820190506155166000830185614d7d565b61552360208301846154a9565b9392505050565b600060208201905081810360008301526155448184614d8c565b905092915050565b600060208201905081810360008301526155668184614e01565b905092915050565b60006020820190506155836000830184614e5f565b92915050565b600060208201905081810360008301526155a38184614ea7565b905092915050565b600060208201905081810360008301526155c481614f90565b9050919050565b600060208201905081810360008301526155e481614fd0565b9050919050565b6000602082019050818103600083015261560481615036565b9050919050565b600060208201905081810360008301526156248161509c565b9050919050565b60006020820190508181036000830152615644816150dc565b9050919050565b600060208201905081810360008301526156648161511c565b9050919050565b600060208201905081810360008301526156848161515c565b9050919050565b600060208201905081810360008301526156a4816151c2565b9050919050565b600060208201905081810360008301526156c481615202565b9050919050565b600060208201905081810360008301526156e481615268565b9050919050565b60006020820190508181036000830152615704816152a8565b9050919050565b600060208201905081810360008301526157248161530e565b9050919050565b600060208201905081810360008301526157448161534e565b9050919050565b60006020820190508181036000830152615764816153b4565b9050919050565b60006020820190508181036000830152615784816153f4565b9050919050565b600060208201905081810360008301526157a481615434565b9050919050565b60006020820190506157c060008301846154a9565b92915050565b6000604051905081810181811067ffffffffffffffff821117156157ed576157ec615b83565b5b8060405250919050565b600067ffffffffffffffff82111561581257615811615b83565b5b602082029050602081019050919050565b600067ffffffffffffffff82111561583e5761583d615b83565b5b601f19601f8301169050602081019050919050565b6000819050602082019050919050565b6000819050602082019050919050565b60008190508160005260206000209050919050565b600081519050919050565b600081519050919050565b600081519050919050565b6000602082019050919050565b6000602082019050919050565b600082825260208201905092915050565b600082825260208201905092915050565b600082825260208201905092915050565b600082825260208201905092915050565b600081905092915050565b600061591d82615a34565b915061592883615a34565b9250827fffffffffffffffffffffffffffffffffffffffffffffffffffffffffffffffff0382111561595d5761595c615b25565b5b828201905092915050565b600061597382615a34565b915061597e83615a34565b9250817fffffffffffffffffffffffffffffffffffffffffffffffffffffffffffffffff04831182151516156159b7576159b6615b25565b5b828202905092915050565b60006159cd82615a34565b91506159d883615a34565b9250828210156159eb576159ea615b25565b5b828203905092915050565b6000615a0182615a14565b9050919050565b60008115159050919050565b600073ffffffffffffffffffffffffffffffffffffffff82169050919050565b6000819050919050565b82818337600083830152505050565b60005b83811015615a6b578082015181840152602081019050615a50565b83811115615a7a576000848401525b50505050565b6000615a8b82615a34565b91506000821415615a9f57615a9e615b25565b5b600182039050919050565b60006002820490506001821680615ac257607f821691505b60208210811415615ad657615ad5615b54565b5b50919050565b6000615ae782615a34565b91507fffffffffffffffffffffffffffffffffffffffffffffffffffffffffffffffff821415615b1a57615b19615b25565b5b600182019050919050565b7f4e487b7100000000000000000000000000000000000000000000000000000000600052601160045260246000fd5b7f4e487b7100000000000000000000000000000000000000000000000000000000600052602260045260246000fd5b7f4e487b7100000000000000000000000000000000000000000000000000000000600052604160045260246000fd5b6000601f19601f8301169050919050565b615bcc816159f6565b8114615bd757600080fd5b50565b615be381615a08565b8114615bee57600080fd5b50565b615bfa81615a34565b8114615c0557600080fd5b5056fea2646970667358221220fd71d82d9060d28b9692298819e9a77d8814cd33d01619700fa583214f5e06ac64736f6c63430008000033",
  "immutableReferences": {},
  "source": "// SPDX-License-Identifier: UNLICENSED\npragma solidity ^0.8.0;\n\nimport \"./boysintheband.sol\";\n\ncontract nexyohub {\n//The actual NFT\n  mapping(uint => address) public owners;\n  mapping(uint => string) public pointers;\n  mapping(uint => uint) public prices;\n  mapping(uint => bool) public sellable;\n//Contract capabilities to make the app possible\n  mapping(uint => bool) private resell;\n  mapping(uint => uint) private clock;\n  mapping(uint => uint) private expirer;\n  mapping(string => uint8) private pointerExists; //Keeps Track of Pointer Status. 0 Does not exists, 1 Pointer is useable, 2 Pointer was revoked, 3 Pointer still needs Owner approval.\n  mapping(address => uint[]) private DataOwners; //Tracks the Pointers owned by a specific address\n  mapping(address => uint[]) private OwnerShip; //Tracks NFT Ownership for fast ownership requests\n  mapping(uint => uint) private NFTArrayPos; //Tracks NFT postion in Ownership Array for fast ownership requests\n  string name_;\n  string sign_;\n  address parentaddress;\n  address payable owner;\n  uint token_id=0;\n  uint pointer_id=0;\n  uint pointer_uid=0;\n  uint pointerstoapprove=0;\n  string[] pointerarray; //I don't like how this is structured. It really needs a rework!\n  address[] PointerOwners; //Same here! Also this makes it practacally impossible to use a revoked Pointer by another User...\n\n  uint _minstake=32000000000000000000;\n  uint stdPrice=1000000000000000000;\n\n  constructor(string memory _name, string memory _sign, address _transactcont) { //sign_ will get an option too!\n    require(msg.sender.balance >= _minstake, 'Please provide suffient Funds');\n    name_=_name;\n    sign_=_sign;\n    parentaddress=_transactcont;\n    owner=payable(msg.sender);\n    nexyotransact bitb=nexyotransact(parentaddress);\n    bitb.addhub(address(this));\n    emit create(owner, address(this));\n  }\n\n  modifier onlyOwner {\n    require(owner==msg.sender, 'This Operation can only be accessed by the contract owner');\n    require(msg.sender.balance >= _minstake, 'Please provide sufficient Funds');\n    _;\n  }\n\n  modifier onlyContract {\n    require(address(this)==msg.sender, 'The function you are trying to enter is prohibited');\n    _;\n  }\n  event create(address indexed _who, address indexed _where);\n  event Transfer(address indexed _from, address indexed _to, uint256 indexed _tokenId);\n  event Approval(address indexed _owner, address indexed _approved, uint256 indexed _tokenId);\n  event ApprovalForAll(address indexed _owner, address indexed _operator, bool _approved);\n  event contracttookmymoney(address thisContract, uint myMoney);\n\n  receive () external payable {\n      emit contracttookmymoney(address(this), msg.value);\n  }\n  //This sets the value to a key in the mapping pointerExists to one which represents the existens of a pointer. Furthermore the pointer it self is added to an array of pointers.\n  function makePointer (string memory pointer) public {\n      require(DataOwners[msg.sender].length>0 || msg.sender==owner, 'Not a Data Owner');\n      require(pointerExists[pointer]!=1 && pointerExists[pointer]!=3,'Pointer is already in use');\n      if (pointerExists[pointer]==0) {\n        if (msg.sender==owner) {\n          pointerExists[pointer]=1;\n        } else {\n          pointerExists[pointer]=3;\n          pointerstoapprove++;\n          pointer_uid++;\n        }\n        pointerarray.push(pointer);\n        PointerOwners.push(msg.sender);\n        if (DataOwners[msg.sender].length>0) {\n          if (DataOwners[msg.sender][0]>pointer_id) { //checks if first entry is approval entry\n            DataOwners[msg.sender][0]=pointer_id;\n          } else {\n            DataOwners[msg.sender].push(pointer_id);\n          }\n        } else {\n          DataOwners[msg.sender].push(pointer_id);\n        }\n        pointer_id++;\n      } else {\n        pointerExists[pointer]=1;\n        pointer_uid--;\n      }\n  }\n\n  function revokePointers (string[] memory _pointers) public onlyOwner {\n    uint len=_pointers.length;\n    for (uint i=0;i<len;i++) {\n      require(isPointerthere(_pointers[i])!=true,'Pointer is already unuseable'); //this seems stupid and i forgot what i was thinking\n      if(pointerExists[_pointers[i]]==3) {\n        pointerstoapprove--;}\n      pointerExists[_pointers[i]]=2;\n    }\n  }\n\n  function approvePointers (string[] memory _pointers) public onlyOwner {\n    uint len=_pointers.length;\n    for (uint i=0;i<len;i++) {\n      if(pointerExists[_pointers[i]]==3){\n        pointerExists[_pointers[i]]=1;\n        pointerstoapprove--;\n        pointer_uid--;\n      }\n    }\n  }\n\n  function mint_to (address newowner, string memory pointer, uint _timeLock) public {\n    require(isDataOwnerthere(msg.sender), 'No Account with this Hub');\n    require(isPointerthere(pointer));\n    require(doyouownPointer(pointer), 'You do not own this pointer');\n    owners[token_id]=newowner;\n    uint len;\n    OwnerShip[newowner].push(token_id);\n    len=OwnerShip[newowner].length-1;\n    NFTArrayPos[token_id]=len;\n    pointers[token_id]=pointer;\n    prices[token_id]=stdPrice;\n    resell[token_id]=true;\n    sellable[token_id]=false;\n    if (_timeLock!=0) {\n      clock[token_id]=_timeLock;\n      expirer[token_id]=block.timestamp+_timeLock;\n    }\n    token_id++;\n  }\n\n  function mint (string memory pointer) public {\n    require(isPointerthere(pointer), 'Provided Pointer does not exist with contract');\n    require(isDataOwnerthere(msg.sender), 'You have not sufficient rights for this action');\n    require(doyouownPointer(pointer), 'You do not own this pointer');\n    owners[token_id]=msg.sender;\n    uint len;\n    OwnerShip[msg.sender].push(token_id);\n    len=OwnerShip[msg.sender].length-1;\n    NFTArrayPos[token_id]=len;\n    pointers[token_id]=pointer;\n    prices[token_id]=stdPrice;\n    sellable[token_id]=false;\n    resell[token_id]=false;\n    clock[token_id]=0;\n    token_id++;\n  }\n\n  function mintwithOptions (string memory pointer, bool _resell, uint _timeLock, bool _sell) public {\n    require(isPointerthere(pointer), 'Provided Pointer does not exist with contract');\n    require(isDataOwnerthere(msg.sender), 'You have not sufficient rights for this action');\n    require(doyouownPointer(pointer), 'You do not own this pointer');\n    owners[token_id]=msg.sender;\n    uint len;\n    OwnerShip[msg.sender].push(token_id);\n    len=OwnerShip[msg.sender].length-1;\n    NFTArrayPos[token_id]=len;\n    pointers[token_id]=pointer;\n    prices[token_id]=stdPrice;\n    sellable[token_id]=_sell;\n    if (!_resell) {\n      resell[token_id]=!_resell;\n    }\n    if (_timeLock!=0) {\n      clock[token_id]=_timeLock;\n    }\n    token_id++;\n  }\n\n  function setPrice (uint cost, uint token) public {\n    require(owners[token]==msg.sender, 'This Operation can only be accessed by the Token Owner');\n    prices[token]=cost*stdPrice;\n  }\n\n  function resellOptions(uint _tokenid, bool _resell, uint _timeLock) external {\n    require(doyouownPointer(pointers[_tokenid]));\n    if (!_resell) {\n      resell[_tokenid]=!_resell;\n    }\n    if (_timeLock!=0) {\n      clock[_tokenid]=_timeLock;\n    }\n  }\n\n  function sendback (uint _tokenid) external {\n    address sendbackaddress=whoownsPointer(pointers[token_id]);\n    require((msg.sender==owners[_tokenid] || msg.sender==owner || msg.sender==sendbackaddress) && (clock[_tokenid]<block.timestamp && clock[token_id]>0), 'Return your own Token, Punk!');\n    uint oldprice=prices[_tokenid];\n    prices[token_id]=0;\n    transferFrom(msg.sender,sendbackaddress,_tokenid);\n    prices[token_id]=oldprice;\n  }\n\n  //Main transactional function. Manages all necessary Database entries regarding ownership\n  function transferFrom(address _from, address _to, uint _tokenId) public payable {\n    require(owners[_tokenId]==_from, 'Address does not hold specific token'); //_from being an option is insecure af!\n    require(prices[_tokenId]<=msg.value, 'Please provide sufficient funds');\n    if (msg.value!=0) {payable(_from).transfer(msg.value);}\n    redoOwnerShipArray (_from,_to,_tokenId);\n    owners[_tokenId]=_to;\n    emit Transfer(_from, _to, _tokenId);\n  }\n\n  //this manages the OwnerShip mapping. If an ID drops from the array because coresponding token has a new owner this logic rebuilds the array.\n  function redoOwnerShipArray (address _from, address _to, uint _tokenId) internal {\n    uint pos;\n    uint arraylen;\n    pos=NFTArrayPos[_tokenId];\n    arraylen=OwnerShip[_from].length;\n    uint[] memory array=new uint[](arraylen);\n    array=OwnerShip[_from];\n    uint[] memory newarray=new uint[](arraylen-1);\n    for (uint i=0; i<pos; i++){\n      newarray[i]=array[i];\n    }\n    uint len;\n    len=array.length;\n    for (uint i=pos+1; i<len; i++){\n      newarray[i-1]=array[i];\n    }\n    uint newlen=newarray.length;\n    require(newlen<len,'Arrays are of equal size and suggest that nothing much happend');\n    OwnerShip[_from]=newarray;\n    OwnerShip[_to].push(_tokenId);\n    pos=OwnerShip[_to].length-1;\n    NFTArrayPos[_tokenId]=pos;\n  }\n\n  /*function redoOwnerShipArraypub (address _from, address _to, uint _tokenId) public {\n    redoOwnerShipArray (_from,_to,_tokenId);\n  }*/\n\n  function buy(uint _tokenid) external payable {\n    require(sellable[_tokenid]==true, \"You only can buy NFTs marked as sellable\");\n    transferFrom(owners[_tokenid], msg.sender, _tokenid);\n    if (clock[_tokenid]!=0) {expirer[_tokenid]=block.timestamp+clock[_tokenid];}\n    sellable[_tokenid]=false; // Still a design choice where to put the sell interaction\n  }\n\n  function sell(uint _tokenid) external {\n    require(owners[_tokenid]==msg.sender, \"You only can sell stuff you own\");\n    if (!doyouownPointer(pointers[_tokenid])) {require(resell[_tokenid]==false, \"You only can sell stuff you own\");}\n    sellable[_tokenid]=true;\n  }\n\n  //this needs a redo since only the contract can sell tokens block.timestamp. Using a parameter in external view is suboptimal\n  function buyableTokens(address sender) external view returns(uint[] memory) {\n    uint x=0;\n    for (uint i=0; i<token_id; i++) {\n      if (sellable[i]==true && owners[i]!=sender) {\n        x++;\n      }\n    }\n    uint[] memory newarray = new uint[](x);\n    x=0;\n    for (uint i=0; i<token_id; i++) {\n      if (sellable[i]==true && owners[i]!=sender) {\n        newarray[x]=i;\n        x++;\n      }\n    }\n    return newarray;\n  }\n\n  //returns the length of the OwnerShipArray coresponding to the address of the message sender.\n  function balance(address sender) external view returns (uint) {\n    uint len;\n    len=OwnerShip[sender].length;\n    return len;\n  }\n\n  //returns the token ids of the address given as parameter. Using a parameter in external view is suboptimal\n  function myTokens(address sender) external view returns(uint[] memory) {\n    uint len=OwnerShip[sender].length;\n    if (len>0) {\n      uint x=0;\n      for (uint i=0; i<len; i++) {\n        if ((expirer[OwnerShip[sender][i]]==0 || expirer[OwnerShip[sender][i]]>=block.timestamp) || !resell[i]==true) {\n          x++;\n        }\n      }\n      uint[] memory array = new uint[](x);\n      x=0;\n      for (uint i=0; i<len; i++) {\n        if ((expirer[OwnerShip[sender][i]]==0 || expirer[OwnerShip[sender][i]]>=block.timestamp) || !resell[i]==true) {\n          array[x]=OwnerShip[sender][i];\n          x++;\n        }\n      }\n      return array;\n    } else {\n      uint[] memory array = OwnerShip[sender];\n      return array;\n    }\n  }\n\n  //returns all pointers currently available\n  function useablePointers() external view returns (string[] memory) {\n    string[] memory somepointers= new string[](pointer_id-pointer_uid);\n    uint len=pointerarray.length;\n    uint x=0;\n    string memory point;\n    for (uint i=0; i<len; i++) {\n      point=pointerarray[i];\n      if (isPointerthere(point)) {\n        somepointers[x]=point;\n        x++;\n      }\n    }\n    return somepointers;\n  }\n\n  function whatownsDataOwner(address dataowner) public view returns(uint[] memory) {\n    uint x=0;\n    uint len=DataOwners[dataowner].length;\n    if (len==0) {\n      return new uint[](0);\n    } else {\n      for (uint i=0;i<len;i++) {\n        if (DataOwners[dataowner][i]<pointer_id){x++;}\n      }\n      if (x==len) {return DataOwners[dataowner];}\n      else{\n        uint[] memory pointer_ids= new uint[](x);\n        for (uint i=0;i<len;i++) {\n          if (DataOwners[dataowner][i]<pointer_id){\n            pointer_ids[x]=DataOwners[dataowner][i];\n            x--;\n          }\n        }\n        return pointer_ids;\n      }\n    }\n  }\n\n  function doyouownPointer(string memory pointer) public view returns(bool) { //should propably be internal\n    bool result=false;\n    uint[] memory valuables=whatownsDataOwner(msg.sender);\n    for(uint x=0; x<valuables.length; x++) {\n      if (compareStrings(pointerarray[valuables[x]],pointer)) {\n        result=true;\n      }\n    }\n    return result;\n  }\n\n    function priceOf(uint _tokenId) external view returns (uint) {\n      return prices[_tokenId];\n    }\n\n    function ownerOf(uint _tokenId) external view returns (address) {\n      return owners[_tokenId];\n    }\n\n    function pointerOf(uint _tokenId) external view returns (string memory) {\n      return pointers[_tokenId];\n    }\n\n    function tokensellable(uint _tokenId) external view returns (bool) {\n      return sellable[_tokenId];\n    }\n\n    function tokenresellable(uint _tokenId) external view returns (bool) {\n      return resell[_tokenId];\n    }\n\n    function tokenownable(uint _tokenId) external view returns (uint) {\n      return clock[_tokenId];\n    }\n\n    function tokenexpires(uint _tokenId) external view returns (uint) {\n      return expirer[_tokenId];\n    }\n\n  function addDataOwner(address dataowner) external onlyOwner {\n    DataOwners[dataowner].push(pointer_id+10**15); //The offset used here is incredibly unelegant and should be replaced with a different mechanism\n  }\n\n  function dataowned(address ow) public view returns(uint[] memory) {\n    return DataOwners[ow];\n  }\n\n  function compareStrings(string memory s1, string memory s2) internal pure returns(bool){\n    return keccak256(abi.encodePacked(s1))==keccak256(abi.encodePacked(s2));\n  }\n\n  function whoisOwner() public view returns(address) {\n    return owner;\n  }\n\n  function PointerstoApprove () external onlyOwner view returns(string[] memory) {\n    string[] memory variouspointers = new string[](pointerstoapprove);\n    uint pos=0;\n    uint len;\n    len=pointerarray.length;\n    for(uint x=0;x<len;x++) {\n      if (pointerExists[pointerarray[x]]==3) {\n        variouspointers[pos]=pointerarray[x];\n        pos++;\n      }\n    }\n    return variouspointers;\n  }\n\n  function isPointerthere (string memory pointer) public view returns (bool) {\n    return pointerExists[pointer]==1;\n  }\n\n  function isDataOwnerthere (address dataowner) public view returns (bool) {\n    return DataOwners[dataowner].length!=0;\n  }\n\n  function whoownsPointer (string memory _pointer) internal view returns (address) {\n    address emptyreturn;\n    uint len=pointerarray.length;\n    for (uint i=0; i<len;) {\n      if (compareStrings(pointerarray[i],_pointer)) {\n        return PointerOwners[i];\n      }\n    }\n    return emptyreturn; //in the front end check for empty address\n  }\n\n  function nextNFTid () public view returns(uint){\n    return token_id;\n  }\n\n  function nextPointerid () public view returns(uint){\n    return pointer_id;\n  }\n\n  function returnContractName () public view returns (string memory){\n    return name_;\n  }\n\n  function returnParentAddress () public view returns (address){\n    return parentaddress;\n  }\n\n  function returnAddress () public view returns (address){\n    return address(this);\n  }\n\n  function returnSign () public view returns (string memory){\n    return sign_;\n  }\n\n  function terminate() public onlyOwner {\n    selfdestruct(owner);\n  }\n}\n",
  "sourcePath": "/home/ka/Desktop/nft-prototyp/contracts/nexyohub.sol",
  "compiler": {
    "name": "solc",
    "version": "0.8.0+commit.c7dfd78e.Emscripten.clang"
  },
  "schemaVersion": "3.3.4",
  "updatedAt": "2021-05-31T15:09:57.802Z",
  "networkType": "ethereum",
  "devdoc": {
    "kind": "dev",
    "methods": {},
    "version": 1
  },
  "userdoc": {
    "kind": "user",
    "methods": {},
    "version": 1
  }
}