{
  "contractName": "nexyohub",
  "abi": [
    {
      "inputs": [
        {
          "internalType": "string",
          "name": "_name",
          "type": "string"
        }
      ],
      "stateMutability": "nonpayable",
      "type": "constructor"
    },
    {
      "anonymous": false,
      "inputs": [
        {
          "indexed": true,
          "internalType": "address",
          "name": "_owner",
          "type": "address"
        },
        {
          "indexed": true,
          "internalType": "address",
          "name": "_approved",
          "type": "address"
        },
        {
          "indexed": true,
          "internalType": "uint256",
          "name": "_tokenId",
          "type": "uint256"
        }
      ],
      "name": "Approval",
      "type": "event"
    },
    {
      "anonymous": false,
      "inputs": [
        {
          "indexed": true,
          "internalType": "address",
          "name": "_owner",
          "type": "address"
        },
        {
          "indexed": true,
          "internalType": "address",
          "name": "_operator",
          "type": "address"
        },
        {
          "indexed": false,
          "internalType": "bool",
          "name": "_approved",
          "type": "bool"
        }
      ],
      "name": "ApprovalForAll",
      "type": "event"
    },
    {
      "anonymous": false,
      "inputs": [
        {
          "indexed": true,
          "internalType": "address",
          "name": "_from",
          "type": "address"
        },
        {
          "indexed": true,
          "internalType": "address",
          "name": "_to",
          "type": "address"
        },
        {
          "indexed": true,
          "internalType": "uint256",
          "name": "_tokenId",
          "type": "uint256"
        }
      ],
      "name": "Transfer",
      "type": "event"
    },
    {
      "anonymous": false,
      "inputs": [
        {
          "indexed": false,
          "internalType": "address",
          "name": "thisContract",
          "type": "address"
        },
        {
          "indexed": false,
          "internalType": "uint256",
          "name": "myMoney",
          "type": "uint256"
        }
      ],
      "name": "contracttookmymoney",
      "type": "event"
    },
    {
      "inputs": [
        {
          "internalType": "uint256",
          "name": "",
          "type": "uint256"
        }
      ],
      "name": "owners",
      "outputs": [
        {
          "internalType": "address",
          "name": "",
          "type": "address"
        }
      ],
      "stateMutability": "view",
      "type": "function",
      "constant": true
    },
    {
      "inputs": [
        {
          "internalType": "uint256",
          "name": "",
          "type": "uint256"
        }
      ],
      "name": "pointers",
      "outputs": [
        {
          "internalType": "string",
          "name": "",
          "type": "string"
        }
      ],
      "stateMutability": "view",
      "type": "function",
      "constant": true
    },
    {
      "inputs": [
        {
          "internalType": "uint256",
          "name": "",
          "type": "uint256"
        }
      ],
      "name": "prices",
      "outputs": [
        {
          "internalType": "uint256",
          "name": "",
          "type": "uint256"
        }
      ],
      "stateMutability": "view",
      "type": "function",
      "constant": true
    },
    {
      "inputs": [
        {
          "internalType": "uint256",
          "name": "",
          "type": "uint256"
        }
      ],
      "name": "sellable",
      "outputs": [
        {
          "internalType": "bool",
          "name": "",
          "type": "bool"
        }
      ],
      "stateMutability": "view",
      "type": "function",
      "constant": true
    },
    {
      "stateMutability": "payable",
      "type": "receive",
      "payable": true
    },
    {
      "inputs": [
        {
          "internalType": "string",
          "name": "pointer",
          "type": "string"
        }
      ],
      "name": "makePointer",
      "outputs": [],
      "stateMutability": "nonpayable",
      "type": "function"
    },
    {
      "inputs": [
        {
          "internalType": "string",
          "name": "pointer",
          "type": "string"
        }
      ],
      "name": "revokePointer",
      "outputs": [],
      "stateMutability": "nonpayable",
      "type": "function"
    },
    {
      "inputs": [
        {
          "internalType": "string[]",
          "name": "pointers",
          "type": "string[]"
        }
      ],
      "name": "approvePointers",
      "outputs": [],
      "stateMutability": "nonpayable",
      "type": "function"
    },
    {
      "inputs": [
        {
          "internalType": "address",
          "name": "newowner",
          "type": "address"
        },
        {
          "internalType": "string",
          "name": "pointer",
          "type": "string"
        }
      ],
      "name": "mint_to",
      "outputs": [],
      "stateMutability": "nonpayable",
      "type": "function"
    },
    {
      "inputs": [
        {
          "internalType": "string",
          "name": "pointer",
          "type": "string"
        }
      ],
      "name": "mint",
      "outputs": [],
      "stateMutability": "nonpayable",
      "type": "function"
    },
    {
      "inputs": [
        {
          "internalType": "uint256",
          "name": "cost",
          "type": "uint256"
        },
        {
          "internalType": "uint256",
          "name": "token",
          "type": "uint256"
        }
      ],
      "name": "setPrice",
      "outputs": [],
      "stateMutability": "nonpayable",
      "type": "function"
    },
    {
      "inputs": [
        {
          "internalType": "address",
          "name": "_from",
          "type": "address"
        },
        {
          "internalType": "address",
          "name": "_to",
          "type": "address"
        },
        {
          "internalType": "uint256",
          "name": "_tokenId",
          "type": "uint256"
        }
      ],
      "name": "transferFrom",
      "outputs": [],
      "stateMutability": "payable",
      "type": "function",
      "payable": true
    },
    {
      "inputs": [
        {
          "internalType": "uint256",
          "name": "_tokenid",
          "type": "uint256"
        }
      ],
      "name": "buy",
      "outputs": [],
      "stateMutability": "payable",
      "type": "function",
      "payable": true
    },
    {
      "inputs": [
        {
          "internalType": "address",
          "name": "sender",
          "type": "address"
        }
      ],
      "name": "buyableTokens",
      "outputs": [
        {
          "internalType": "uint256[]",
          "name": "",
          "type": "uint256[]"
        }
      ],
      "stateMutability": "view",
      "type": "function",
      "constant": true
    },
    {
      "inputs": [
        {
          "internalType": "address",
          "name": "sender",
          "type": "address"
        }
      ],
      "name": "balance",
      "outputs": [
        {
          "internalType": "uint256",
          "name": "",
          "type": "uint256"
        }
      ],
      "stateMutability": "view",
      "type": "function",
      "constant": true
    },
    {
      "inputs": [
        {
          "internalType": "address",
          "name": "sender",
          "type": "address"
        }
      ],
      "name": "myTokens",
      "outputs": [
        {
          "internalType": "uint256[]",
          "name": "",
          "type": "uint256[]"
        }
      ],
      "stateMutability": "view",
      "type": "function",
      "constant": true
    },
    {
      "inputs": [],
      "name": "useablePointers",
      "outputs": [
        {
          "internalType": "string[]",
          "name": "",
          "type": "string[]"
        }
      ],
      "stateMutability": "view",
      "type": "function",
      "constant": true
    },
    {
      "inputs": [
        {
          "internalType": "uint256",
          "name": "_tokenId",
          "type": "uint256"
        }
      ],
      "name": "priceOf",
      "outputs": [
        {
          "internalType": "uint256",
          "name": "",
          "type": "uint256"
        }
      ],
      "stateMutability": "view",
      "type": "function",
      "constant": true
    },
    {
      "inputs": [
        {
          "internalType": "uint256",
          "name": "_tokenId",
          "type": "uint256"
        }
      ],
      "name": "ownerOf",
      "outputs": [
        {
          "internalType": "address",
          "name": "",
          "type": "address"
        }
      ],
      "stateMutability": "view",
      "type": "function",
      "constant": true
    },
    {
      "inputs": [
        {
          "internalType": "uint256",
          "name": "_tokenId",
          "type": "uint256"
        }
      ],
      "name": "pointerOf",
      "outputs": [
        {
          "internalType": "string",
          "name": "",
          "type": "string"
        }
      ],
      "stateMutability": "view",
      "type": "function",
      "constant": true
    },
    {
      "inputs": [
        {
          "internalType": "address",
          "name": "dataowner",
          "type": "address"
        }
      ],
      "name": "addDataOwner",
      "outputs": [],
      "stateMutability": "nonpayable",
      "type": "function"
    },
    {
      "inputs": [
        {
          "internalType": "address",
          "name": "dataowner",
          "type": "address"
        }
      ],
      "name": "whatownsDataOwner",
      "outputs": [
        {
          "internalType": "uint256[]",
          "name": "",
          "type": "uint256[]"
        }
      ],
      "stateMutability": "view",
      "type": "function",
      "constant": true
    },
    {
      "inputs": [
        {
          "internalType": "string",
          "name": "pointer",
          "type": "string"
        }
      ],
      "name": "doyouownPointer",
      "outputs": [
        {
          "internalType": "bool",
          "name": "",
          "type": "bool"
        }
      ],
      "stateMutability": "view",
      "type": "function",
      "constant": true
    },
    {
      "inputs": [
        {
          "internalType": "address",
          "name": "ow",
          "type": "address"
        }
      ],
      "name": "dataowned",
      "outputs": [
        {
          "internalType": "uint256[]",
          "name": "",
          "type": "uint256[]"
        }
      ],
      "stateMutability": "view",
      "type": "function",
      "constant": true
    },
    {
      "inputs": [],
      "name": "whoisOwner",
      "outputs": [
        {
          "internalType": "address",
          "name": "",
          "type": "address"
        }
      ],
      "stateMutability": "view",
      "type": "function",
      "constant": true
    },
    {
      "inputs": [],
      "name": "PointerstoApprove",
      "outputs": [
        {
          "internalType": "string[]",
          "name": "",
          "type": "string[]"
        }
      ],
      "stateMutability": "nonpayable",
      "type": "function"
    },
    {
      "inputs": [
        {
          "internalType": "string",
          "name": "pointer",
          "type": "string"
        }
      ],
      "name": "isPointerthere",
      "outputs": [
        {
          "internalType": "bool",
          "name": "",
          "type": "bool"
        }
      ],
      "stateMutability": "view",
      "type": "function",
      "constant": true
    },
    {
      "inputs": [
        {
          "internalType": "address",
          "name": "dataowner",
          "type": "address"
        }
      ],
      "name": "isDataOwnerthere",
      "outputs": [
        {
          "internalType": "bool",
          "name": "",
          "type": "bool"
        }
      ],
      "stateMutability": "view",
      "type": "function",
      "constant": true
    },
    {
      "inputs": [],
      "name": "nextNFTid",
      "outputs": [
        {
          "internalType": "uint256",
          "name": "",
          "type": "uint256"
        }
      ],
      "stateMutability": "view",
      "type": "function",
      "constant": true
    },
    {
      "inputs": [],
      "name": "nextPointerid",
      "outputs": [
        {
          "internalType": "uint256",
          "name": "",
          "type": "uint256"
        }
      ],
      "stateMutability": "view",
      "type": "function",
      "constant": true
    },
    {
      "inputs": [],
      "name": "returnContractName",
      "outputs": [
        {
          "internalType": "string",
          "name": "",
          "type": "string"
        }
      ],
      "stateMutability": "view",
      "type": "function",
      "constant": true
    },
    {
      "inputs": [],
      "name": "returnAddress",
      "outputs": [
        {
          "internalType": "address",
          "name": "",
          "type": "address"
        }
      ],
      "stateMutability": "view",
      "type": "function",
      "constant": true
    },
    {
      "inputs": [],
      "name": "returnSign",
      "outputs": [
        {
          "internalType": "string",
          "name": "",
          "type": "string"
        }
      ],
      "stateMutability": "view",
      "type": "function",
      "constant": true
    },
    {
      "inputs": [],
      "name": "terminate",
      "outputs": [],
      "stateMutability": "nonpayable",
      "type": "function"
    }
  ],
  "bytecode": "0x60806040526000600b556000600c556000600d556000600e556801bc16d674ec800000601055670de0b6b3a76400006011553480156200003e57600080fd5b5060405162004b7d38038062004b7d833981810160405281019062000064919062000294565b6010543373ffffffffffffffffffffffffffffffffffffffff16311015620000c3576040517f08c379a0000000000000000000000000000000000000000000000000000000008152600401620000ba906200031b565b60405180910390fd5b8060089080519060200190620000db92919062000172565b506040518060400160405280600581526020017f4e584e4654000000000000000000000000000000000000000000000000000000815250600990805190602001906200012992919062000172565b5033600a60006101000a81548173ffffffffffffffffffffffffffffffffffffffff021916908373ffffffffffffffffffffffffffffffffffffffff160217905550506200047f565b8280546200018090620003eb565b90600052602060002090601f016020900481019282620001a45760008555620001f0565b82601f10620001bf57805160ff1916838001178555620001f0565b82800160010185558215620001f0579182015b82811115620001ef578251825591602001919060010190620001d2565b5b509050620001ff919062000203565b5090565b5b808211156200021e57600081600090555060010162000204565b5090565b600062000239620002338462000371565b6200033d565b9050828152602081018484840111156200025257600080fd5b6200025f848285620003b5565b509392505050565b600082601f8301126200027957600080fd5b81516200028b84826020860162000222565b91505092915050565b600060208284031215620002a757600080fd5b600082015167ffffffffffffffff811115620002c257600080fd5b620002d08482850162000267565b91505092915050565b6000620002e8601d83620003a4565b91507f506c656173652070726f76696465207375666669656e742046756e64730000006000830152602082019050919050565b600060208201905081810360008301526200033681620002d9565b9050919050565b6000604051905081810181811067ffffffffffffffff8211171562000367576200036662000450565b5b8060405250919050565b600067ffffffffffffffff8211156200038f576200038e62000450565b5b601f19601f8301169050602081019050919050565b600082825260208201905092915050565b60005b83811015620003d5578082015181840152602081019050620003b8565b83811115620003e5576000848401525b50505050565b600060028204905060018216806200040457607f821691505b602082108114156200041b576200041a62000421565b5b50919050565b7f4e487b7100000000000000000000000000000000000000000000000000000000600052602260045260246000fd5b7f4e487b7100000000000000000000000000000000000000000000000000000000600052604160045260246000fd5b6146ee806200048f6000396000f3fe6080604052600436106101f25760003560e01c80637d8178351161010d578063bc31c1c1116100a0578063e285497b1161006f578063e285497b14610785578063e3d670d7146107c2578063f1e63680146107ff578063f7d975771461082a578063ff7be29e1461085357610232565b8063bc31c1c1146106c6578063d85d3d2714610703578063d96a094a1461072c578063dc1df3f61461074857610232565b8063ad9c4627116100dc578063ad9c4627146105d2578063b31420051461060f578063b6ab43e61461064c578063b9186d7d1461068957610232565b80637d8178351461052a5780638956f3d414610553578063943640c31461057c5780639c05c7ca146105a757610232565b80632b5ba5ab1161018557806345912d971161015457806345912d97146104485780636352211e146104855780637b94a2a1146104c25780637ce4d23a146104ff57610232565b80632b5ba5ab146103785780632eae62dc146103b5578063305f16f4146103e05780633348cc0a1461040b57610232565b8063218f7d6e116101c1578063218f7d6e146102df57806321ea7fd31461030857806321f172951461033357806323b872dd1461035c57610232565b8063025e7c2714610237578063090d4388146102745780630c08bf881461029d57806314feb3cb146102b457610232565b36610232577f4e2ced4d2c3ee1a077c8c313167e6d86b8fe49c37f9d00e5ed1f37265d50be6a3034604051610228929190614008565b60405180910390a1005b600080fd5b34801561024357600080fd5b5061025e60048036038101906102599190613873565b610890565b60405161026b9190613fed565b60405180910390f35b34801561028057600080fd5b5061029b60048036038101906102969190613725565b6108c3565b005b3480156102a957600080fd5b506102b2610a2c565b005b3480156102c057600080fd5b506102c9610b53565b6040516102d69190614090565b60405180910390f35b3480156102eb57600080fd5b5061030660048036038101906103019190613832565b610be5565b005b34801561031457600080fd5b5061031d61118b565b60405161032a9190614272565b60405180910390f35b34801561033f57600080fd5b5061035a60048036038101906103559190613832565b611195565b005b6103766004803603810190610371919061374e565b611324565b005b34801561038457600080fd5b5061039f600480360381019061039a9190613725565b61151d565b6040516103ac9190614053565b60405180910390f35b3480156103c157600080fd5b506103ca6115b4565b6040516103d79190613fed565b60405180910390f35b3480156103ec57600080fd5b506103f56115de565b6040516104029190614090565b60405180910390f35b34801561041757600080fd5b50610432600480360381019061042d9190613832565b611670565b60405161043f9190614075565b60405180910390f35b34801561045457600080fd5b5061046f600480360381019061046a9190613873565b6117ce565b60405161047c9190614090565b60405180910390f35b34801561049157600080fd5b506104ac60048036038101906104a79190613873565b611873565b6040516104b99190613fed565b60405180910390f35b3480156104ce57600080fd5b506104e960048036038101906104e49190613725565b6118af565b6040516104f69190614053565b60405180910390f35b34801561050b57600080fd5b50610514611b07565b6040516105219190614031565b60405180910390f35b34801561053657600080fd5b50610551600480360381019061054c919061379d565b611de4565b005b34801561055f57600080fd5b5061057a600480360381019061057591906137f1565b61203f565b005b34801561058857600080fd5b50610591612274565b60405161059e9190613fed565b60405180910390f35b3480156105b357600080fd5b506105bc61227c565b6040516105c99190614031565b60405180910390f35b3480156105de57600080fd5b506105f960048036038101906105f49190613725565b6125b1565b6040516106069190614053565b60405180910390f35b34801561061b57600080fd5b5061063660048036038101906106319190613725565b6129d4565b6040516106439190614075565b60405180910390f35b34801561065857600080fd5b50610673600480360381019061066e9190613873565b612a23565b6040516106809190614090565b60405180910390f35b34801561069557600080fd5b506106b060048036038101906106ab9190613873565b612ac3565b6040516106bd9190614272565b60405180910390f35b3480156106d257600080fd5b506106ed60048036038101906106e89190613873565b612ae0565b6040516106fa9190614272565b60405180910390f35b34801561070f57600080fd5b5061072a60048036038101906107259190613832565b612af8565b005b61074660048036038101906107419190613873565b612d40565b005b34801561075457600080fd5b5061076f600480360381019061076a9190613725565b612de7565b60405161077c9190614053565b60405180910390f35b34801561079157600080fd5b506107ac60048036038101906107a79190613832565b612e83565b6040516107b99190614075565b60405180910390f35b3480156107ce57600080fd5b506107e960048036038101906107e49190613725565b612ebe565b6040516107f69190614272565b60405180910390f35b34801561080b57600080fd5b50610814612f0f565b6040516108219190614272565b60405180910390f35b34801561083657600080fd5b50610851600480360381019061084c919061389c565b612f19565b005b34801561085f57600080fd5b5061087a60048036038101906108759190613873565b612fe2565b6040516108879190614075565b60405180910390f35b60006020528060005260406000206000915054906101000a900473ffffffffffffffffffffffffffffffffffffffff1681565b3373ffffffffffffffffffffffffffffffffffffffff16600a60009054906101000a900473ffffffffffffffffffffffffffffffffffffffff1673ffffffffffffffffffffffffffffffffffffffff1614610953576040517f08c379a000000000000000000000000000000000000000000000000000000000815260040161094a90614152565b60405180910390fd5b6010543373ffffffffffffffffffffffffffffffffffffffff163110156109af576040517f08c379a00000000000000000000000000000000000000000000000000000000081526004016109a690614112565b60405180910390fd5b600560008273ffffffffffffffffffffffffffffffffffffffff1673ffffffffffffffffffffffffffffffffffffffff16815260200190815260200160002066038d7ea4c68000600c54610a0391906143d9565b908060018154018082558091505060019003906000526020600020016000909190919091505550565b3373ffffffffffffffffffffffffffffffffffffffff16600a60009054906101000a900473ffffffffffffffffffffffffffffffffffffffff1673ffffffffffffffffffffffffffffffffffffffff1614610abc576040517f08c379a0000000000000000000000000000000000000000000000000000000008152600401610ab390614152565b60405180910390fd5b6010543373ffffffffffffffffffffffffffffffffffffffff16311015610b18576040517f08c379a0000000000000000000000000000000000000000000000000000000008152600401610b0f90614112565b60405180910390fd5b600a60009054906101000a900473ffffffffffffffffffffffffffffffffffffffff1673ffffffffffffffffffffffffffffffffffffffff16ff5b606060088054610b6290614571565b80601f0160208091040260200160405190810160405280929190818152602001828054610b8e90614571565b8015610bdb5780601f10610bb057610100808354040283529160200191610bdb565b820191906000526020600020905b815481529060010190602001808311610bbe57829003601f168201915b5050505050905090565b6000600560003373ffffffffffffffffffffffffffffffffffffffff1673ffffffffffffffffffffffffffffffffffffffff168152602001908152602001600020805490501180610c835750600a60009054906101000a900473ffffffffffffffffffffffffffffffffffffffff1673ffffffffffffffffffffffffffffffffffffffff163373ffffffffffffffffffffffffffffffffffffffff16145b610cc2576040517f08c379a0000000000000000000000000000000000000000000000000000000008152600401610cb9906140f2565b60405180910390fd5b6001600482604051610cd49190613fbf565b908152602001604051809103902060009054906101000a900460ff1660ff1614158015610d3057506003600482604051610d0e9190613fbf565b908152602001604051809103902060009054906101000a900460ff1660ff1614155b610d6f576040517f08c379a0000000000000000000000000000000000000000000000000000000008152600401610d6690614132565b60405180910390fd5b6000600482604051610d819190613fbf565b908152602001604051809103902060009054906101000a900460ff1660ff16141561113757600a60009054906101000a900473ffffffffffffffffffffffffffffffffffffffff1673ffffffffffffffffffffffffffffffffffffffff163373ffffffffffffffffffffffffffffffffffffffff161415610e39576001600482604051610e0e9190613fbf565b908152602001604051809103902060006101000a81548160ff021916908360ff160217905550610ea2565b6003600482604051610e4b9190613fbf565b908152602001604051809103902060006101000a81548160ff021916908360ff160217905550600e6000815480929190610e84906145a3565b9190505550600d6000815480929190610e9c906145a3565b91905055505b600f81908060018154018082558091505060019003906000526020600020016000909190919091509080519060200190610edd92919061351c565b506000600560003373ffffffffffffffffffffffffffffffffffffffff1673ffffffffffffffffffffffffffffffffffffffff1681526020019081526020016000208054905011156110b157600c54600560003373ffffffffffffffffffffffffffffffffffffffff1673ffffffffffffffffffffffffffffffffffffffff168152602001908152602001600020600081548110610fa4577f4e487b7100000000000000000000000000000000000000000000000000000000600052603260045260246000fd5b9060005260206000200154111561104357600c54600560003373ffffffffffffffffffffffffffffffffffffffff1673ffffffffffffffffffffffffffffffffffffffff168152602001908152602001600020600081548110611030577f4e487b7100000000000000000000000000000000000000000000000000000000600052603260045260246000fd5b90600052602060002001819055506110ac565b600560003373ffffffffffffffffffffffffffffffffffffffff1673ffffffffffffffffffffffffffffffffffffffff168152602001908152602001600020600c5490806001815401808255809150506001900390600052602060002001600090919091909150555b61111a565b600560003373ffffffffffffffffffffffffffffffffffffffff1673ffffffffffffffffffffffffffffffffffffffff168152602001908152602001600020600c5490806001815401808255809150506001900390600052602060002001600090919091909150555b600c600081548092919061112d906145a3565b9190505550611188565b60016004826040516111499190613fbf565b908152602001604051809103902060006101000a81548160ff021916908360ff160217905550600d600081548092919061118290614547565b91905055505b50565b6000600b54905090565b3373ffffffffffffffffffffffffffffffffffffffff16600a60009054906101000a900473ffffffffffffffffffffffffffffffffffffffff1673ffffffffffffffffffffffffffffffffffffffff1614611225576040517f08c379a000000000000000000000000000000000000000000000000000000000815260040161121c90614152565b60405180910390fd5b6010543373ffffffffffffffffffffffffffffffffffffffff16311015611281576040517f08c379a000000000000000000000000000000000000000000000000000000000815260040161127890614112565b60405180910390fd5b6001151561128e82612e83565b151514156112d1576040517f08c379a00000000000000000000000000000000000000000000000000000000081526004016112c890614212565b60405180910390fd5b60026004826040516112e39190613fbf565b908152602001604051809103902060006101000a81548160ff021916908360ff160217905550600d600081548092919061131c906145a3565b919050555050565b8273ffffffffffffffffffffffffffffffffffffffff1660008083815260200190815260200160002060009054906101000a900473ffffffffffffffffffffffffffffffffffffffff1673ffffffffffffffffffffffffffffffffffffffff16146113c4576040517f08c379a00000000000000000000000000000000000000000000000000000000081526004016113bb906140d2565b60405180910390fd5b346002600083815260200190815260200160002054111561141a576040517f08c379a000000000000000000000000000000000000000000000000000000000815260040161141190614232565b60405180910390fd5b8273ffffffffffffffffffffffffffffffffffffffff166108fc349081150290604051600060405180830381858888f19350505050158015611460573d6000803e3d6000fd5b5061146c838383613002565b8160008083815260200190815260200160002060006101000a81548173ffffffffffffffffffffffffffffffffffffffff021916908373ffffffffffffffffffffffffffffffffffffffff160217905550808273ffffffffffffffffffffffffffffffffffffffff168473ffffffffffffffffffffffffffffffffffffffff167fddf252ad1be2c89b69c2b068fc378daa952ba7f163c4a11628f55a4df523b3ef60405160405180910390a4505050565b6060600560008373ffffffffffffffffffffffffffffffffffffffff1673ffffffffffffffffffffffffffffffffffffffff1681526020019081526020016000208054806020026020016040519081016040528092919081815260200182805480156115a857602002820191906000526020600020905b815481526020019060010190808311611594575b50505050509050919050565b6000600a60009054906101000a900473ffffffffffffffffffffffffffffffffffffffff16905090565b6060600980546115ed90614571565b80601f016020809104026020016040519081016040528092919081815260200182805461161990614571565b80156116665780601f1061163b57610100808354040283529160200191611666565b820191906000526020600020905b81548152906001019060200180831161164957829003601f168201915b5050505050905090565b600080600090506000611682336125b1565b905060005b81518110156117c3576117a6600f8383815181106116ce577f4e487b7100000000000000000000000000000000000000000000000000000000600052603260045260246000fd5b60200260200101518154811061170d577f4e487b7100000000000000000000000000000000000000000000000000000000600052603260045260246000fd5b90600052602060002001805461172290614571565b80601f016020809104026020016040519081016040528092919081815260200182805461174e90614571565b801561179b5780601f106117705761010080835404028352916020019161179b565b820191906000526020600020905b81548152906001019060200180831161177e57829003601f168201915b5050505050866134c3565b156117b057600192505b80806117bb906145a3565b915050611687565b508192505050919050565b60606001600083815260200190815260200160002080546117ee90614571565b80601f016020809104026020016040519081016040528092919081815260200182805461181a90614571565b80156118675780601f1061183c57610100808354040283529160200191611867565b820191906000526020600020905b81548152906001019060200180831161184a57829003601f168201915b50505050509050919050565b600080600083815260200190815260200160002060009054906101000a900473ffffffffffffffffffffffffffffffffffffffff169050919050565b60606000805b600b5481101561197857600115156003600083815260200190815260200160002060009054906101000a900460ff16151514801561195157508373ffffffffffffffffffffffffffffffffffffffff1660008083815260200190815260200160002060009054906101000a900473ffffffffffffffffffffffffffffffffffffffff1673ffffffffffffffffffffffffffffffffffffffff1614155b15611965578180611961906145a3565b9250505b8080611970906145a3565b9150506118b5565b5060008167ffffffffffffffff8111156119bb577f4e487b7100000000000000000000000000000000000000000000000000000000600052604160045260246000fd5b6040519080825280602002602001820160405280156119e95781602001602082028036833780820191505090505b5090506000915060005b600b54811015611afc57600115156003600083815260200190815260200160002060009054906101000a900460ff161515148015611a8f57508473ffffffffffffffffffffffffffffffffffffffff1660008083815260200190815260200160002060009054906101000a900473ffffffffffffffffffffffffffffffffffffffff1673ffffffffffffffffffffffffffffffffffffffff1614155b15611ae95780828481518110611ace577f4e487b7100000000000000000000000000000000000000000000000000000000600052603260045260246000fd5b6020026020010181815250508280611ae5906145a3565b9350505b8080611af4906145a3565b9150506119f3565b508092505050919050565b60603373ffffffffffffffffffffffffffffffffffffffff16600a60009054906101000a900473ffffffffffffffffffffffffffffffffffffffff1673ffffffffffffffffffffffffffffffffffffffff1614611b99576040517f08c379a0000000000000000000000000000000000000000000000000000000008152600401611b9090614152565b60405180910390fd5b6010543373ffffffffffffffffffffffffffffffffffffffff16311015611bf5576040517f08c379a0000000000000000000000000000000000000000000000000000000008152600401611bec90614112565b60405180910390fd5b6000600d54600c54611c079190614489565b67ffffffffffffffff811115611c46577f4e487b7100000000000000000000000000000000000000000000000000000000600052604160045260246000fd5b604051908082528060200260200182016040528015611c7957816020015b6060815260200190600190039081611c645790505b5090506000600f8054905090506000606060005b83811015611dd957600f8181548110611ccf577f4e487b7100000000000000000000000000000000000000000000000000000000600052603260045260246000fd5b906000526020600020018054611ce490614571565b80601f0160208091040260200160405190810160405280929190818152602001828054611d1090614571565b8015611d5d5780601f10611d3257610100808354040283529160200191611d5d565b820191906000526020600020905b815481529060010190602001808311611d4057829003601f168201915b50505050509150611d6d82612e83565b15611dc65781858481518110611dac577f4e487b7100000000000000000000000000000000000000000000000000000000600052603260045260246000fd5b60200260200101819052508280611dc2906145a3565b9350505b8080611dd1906145a3565b915050611c8d565b508394505050505090565b611ded826129d4565b611e2c576040517f08c379a0000000000000000000000000000000000000000000000000000000008152600401611e23906141b2565b60405180910390fd5b611e3581612e83565b611e3e57600080fd5b611e4781611670565b611e86576040517f08c379a0000000000000000000000000000000000000000000000000000000008152600401611e7d90614172565b60405180910390fd5b81600080600b54815260200190815260200160002060006101000a81548173ffffffffffffffffffffffffffffffffffffffff021916908373ffffffffffffffffffffffffffffffffffffffff1602179055506000600660008473ffffffffffffffffffffffffffffffffffffffff1673ffffffffffffffffffffffffffffffffffffffff168152602001908152602001600020600b5490806001815401808255809150506001900390600052602060002001600090919091909150556001600660008573ffffffffffffffffffffffffffffffffffffffff1673ffffffffffffffffffffffffffffffffffffffff16815260200190815260200160002080549050611f929190614489565b90508060076000600b548152602001908152602001600020819055508160016000600b5481526020019081526020016000209080519060200190611fd792919061351c565b5060115460026000600b54815260200190815260200160002081905550600060036000600b54815260200190815260200160002060006101000a81548160ff021916908315150217905550600b6000815480929190612035906145a3565b9190505550505050565b3373ffffffffffffffffffffffffffffffffffffffff16600a60009054906101000a900473ffffffffffffffffffffffffffffffffffffffff1673ffffffffffffffffffffffffffffffffffffffff16146120cf576040517f08c379a00000000000000000000000000000000000000000000000000000000081526004016120c690614152565b60405180910390fd5b6010543373ffffffffffffffffffffffffffffffffffffffff1631101561212b576040517f08c379a000000000000000000000000000000000000000000000000000000000815260040161212290614112565b60405180910390fd5b60008151905060005b8181101561226f5760036004848381518110612179577f4e487b7100000000000000000000000000000000000000000000000000000000600052603260045260246000fd5b602002602001015160405161218e9190613fbf565b908152602001604051809103902060009054906101000a900460ff1660ff16141561225c57600160048483815181106121f0577f4e487b7100000000000000000000000000000000000000000000000000000000600052603260045260246000fd5b60200260200101516040516122059190613fbf565b908152602001604051809103902060006101000a81548160ff021916908360ff160217905550600e600081548092919061223e90614547565b9190505550600d600081548092919061225690614547565b91905055505b8080612267906145a3565b915050612134565b505050565b600030905090565b60603373ffffffffffffffffffffffffffffffffffffffff16600a60009054906101000a900473ffffffffffffffffffffffffffffffffffffffff1673ffffffffffffffffffffffffffffffffffffffff161461230e576040517f08c379a000000000000000000000000000000000000000000000000000000000815260040161230590614152565b60405180910390fd5b6010543373ffffffffffffffffffffffffffffffffffffffff1631101561236a576040517f08c379a000000000000000000000000000000000000000000000000000000000815260040161236190614112565b60405180910390fd5b6000600e5467ffffffffffffffff8111156123ae577f4e487b7100000000000000000000000000000000000000000000000000000000600052604160045260246000fd5b6040519080825280602002602001820160405280156123e157816020015b60608152602001906001900390816123cc5790505b509050600080600f80549050905060005b818110156125a75760036004600f8381548110612438577f4e487b7100000000000000000000000000000000000000000000000000000000600052603260045260246000fd5b9060005260206000200160405161244f9190613fd6565b908152602001604051809103902060009054906101000a900460ff1660ff16141561259457600f81815481106124ae577f4e487b7100000000000000000000000000000000000000000000000000000000600052603260045260246000fd5b9060005260206000200180546124c390614571565b80601f01602080910402602001604051908101604052809291908181526020018280546124ef90614571565b801561253c5780601f106125115761010080835404028352916020019161253c565b820191906000526020600020905b81548152906001019060200180831161251f57829003601f168201915b505050505084848151811061257a577f4e487b7100000000000000000000000000000000000000000000000000000000600052603260045260246000fd5b60200260200101819052508280612590906145a3565b9350505b808061259f906145a3565b9150506123f2565b5082935050505090565b6060600080600560008573ffffffffffffffffffffffffffffffffffffffff1673ffffffffffffffffffffffffffffffffffffffff168152602001908152602001600020805490509050600081141561267d57600067ffffffffffffffff811115612645577f4e487b7100000000000000000000000000000000000000000000000000000000600052604160045260246000fd5b6040519080825280602002602001820160405280156126735781602001602082028036833780820191505090505b50925050506129cf565b60005b8181101561273557600c54600560008773ffffffffffffffffffffffffffffffffffffffff1673ffffffffffffffffffffffffffffffffffffffff1681526020019081526020016000208281548110612702577f4e487b7100000000000000000000000000000000000000000000000000000000600052603260045260246000fd5b9060005260206000200154101561272257828061271e906145a3565b9350505b808061272d906145a3565b915050612680565b50808214156127d557600560008573ffffffffffffffffffffffffffffffffffffffff1673ffffffffffffffffffffffffffffffffffffffff1681526020019081526020016000208054806020026020016040519081016040528092919081815260200182805480156127c757602002820191906000526020600020905b8154815260200190600101908083116127b3575b5050505050925050506129cf565b60008267ffffffffffffffff811115612817577f4e487b7100000000000000000000000000000000000000000000000000000000600052604160045260246000fd5b6040519080825280602002602001820160405280156128455781602001602082028036833780820191505090505b50905060005b828110156129c757600c54600560008873ffffffffffffffffffffffffffffffffffffffff1673ffffffffffffffffffffffffffffffffffffffff16815260200190815260200160002082815481106128cd577f4e487b7100000000000000000000000000000000000000000000000000000000600052603260045260246000fd5b906000526020600020015410156129b457600560008773ffffffffffffffffffffffffffffffffffffffff1673ffffffffffffffffffffffffffffffffffffffff1681526020019081526020016000208181548110612955577f4e487b7100000000000000000000000000000000000000000000000000000000600052603260045260246000fd5b9060005260206000200154828581518110612999577f4e487b7100000000000000000000000000000000000000000000000000000000600052603260045260246000fd5b60200260200101818152505083806129b090614547565b9450505b80806129bf906145a3565b91505061284b565b508093505050505b919050565b600080600560008473ffffffffffffffffffffffffffffffffffffffff1673ffffffffffffffffffffffffffffffffffffffff1681526020019081526020016000208054905014159050919050565b60016020528060005260406000206000915090508054612a4290614571565b80601f0160208091040260200160405190810160405280929190818152602001828054612a6e90614571565b8015612abb5780601f10612a9057610100808354040283529160200191612abb565b820191906000526020600020905b815481529060010190602001808311612a9e57829003601f168201915b505050505081565b600060026000838152602001908152602001600020549050919050565b60026020528060005260406000206000915090505481565b612b0181612e83565b612b40576040517f08c379a0000000000000000000000000000000000000000000000000000000008152600401612b3790614252565b60405180910390fd5b612b49336129d4565b612b88576040517f08c379a0000000000000000000000000000000000000000000000000000000008152600401612b7f906141f2565b60405180910390fd5b33600080600b54815260200190815260200160002060006101000a81548173ffffffffffffffffffffffffffffffffffffffff021916908373ffffffffffffffffffffffffffffffffffffffff1602179055506000600660003373ffffffffffffffffffffffffffffffffffffffff1673ffffffffffffffffffffffffffffffffffffffff168152602001908152602001600020600b5490806001815401808255809150506001900390600052602060002001600090919091909150556001600660003373ffffffffffffffffffffffffffffffffffffffff1673ffffffffffffffffffffffffffffffffffffffff16815260200190815260200160002080549050612c949190614489565b90508060076000600b548152602001908152602001600020819055508160016000600b5481526020019081526020016000209080519060200190612cd992919061351c565b5060115460026000600b54815260200190815260200160002081905550600160036000600b54815260200190815260200160002060006101000a81548160ff021916908315150217905550600b6000815480929190612d37906145a3565b91905055505050565b600115156003600083815260200190815260200160002060009054906101000a900460ff16151514612da7576040517f08c379a0000000000000000000000000000000000000000000000000000000008152600401612d9e906140b2565b60405180910390fd5b612de460008083815260200190815260200160002060009054906101000a900473ffffffffffffffffffffffffffffffffffffffff163383611324565b50565b606080600660008473ffffffffffffffffffffffffffffffffffffffff1673ffffffffffffffffffffffffffffffffffffffff168152602001908152602001600020805480602002602001604051908101604052809291908181526020018280548015612e7357602002820191906000526020600020905b815481526020019060010190808311612e5f575b5050505050905080915050919050565b60006001600483604051612e979190613fbf565b908152602001604051809103902060009054906101000a900460ff1660ff16149050919050565b600080600660008473ffffffffffffffffffffffffffffffffffffffff1673ffffffffffffffffffffffffffffffffffffffff16815260200190815260200160002080549050905080915050919050565b6000600b54905090565b3373ffffffffffffffffffffffffffffffffffffffff1660008083815260200190815260200160002060009054906101000a900473ffffffffffffffffffffffffffffffffffffffff1673ffffffffffffffffffffffffffffffffffffffff1614612fb9576040517f08c379a0000000000000000000000000000000000000000000000000000000008152600401612fb0906141d2565b60405180910390fd5b60115482612fc7919061442f565b60026000838152602001908152602001600020819055505050565b60036020528060005260406000206000915054906101000a900460ff1681565b60008060076000848152602001908152602001600020549150600660008673ffffffffffffffffffffffffffffffffffffffff1673ffffffffffffffffffffffffffffffffffffffff16815260200190815260200160002080549050905060008167ffffffffffffffff8111156130a2577f4e487b7100000000000000000000000000000000000000000000000000000000600052604160045260246000fd5b6040519080825280602002602001820160405280156130d05781602001602082028036833780820191505090505b509050600660008773ffffffffffffffffffffffffffffffffffffffff1673ffffffffffffffffffffffffffffffffffffffff16815260200190815260200160002080548060200260200160405190810160405280929190818152602001828054801561315c57602002820191906000526020600020905b815481526020019060010190808311613148575b5050505050905060006001836131729190614489565b67ffffffffffffffff8111156131b1577f4e487b7100000000000000000000000000000000000000000000000000000000600052604160045260246000fd5b6040519080825280602002602001820160405280156131df5781602001602082028036833780820191505090505b50905060005b8481101561328657828181518110613226577f4e487b7100000000000000000000000000000000000000000000000000000000600052603260045260246000fd5b6020026020010151828281518110613267577f4e487b7100000000000000000000000000000000000000000000000000000000600052603260045260246000fd5b602002602001018181525050808061327e906145a3565b9150506131e5565b50600082519050600060018661329c91906143d9565b90505b8181101561334c578381815181106132e0577f4e487b7100000000000000000000000000000000000000000000000000000000600052603260045260246000fd5b6020026020010151836001836132f69190614489565b8151811061332d577f4e487b7100000000000000000000000000000000000000000000000000000000600052603260045260246000fd5b6020026020010181815250508080613344906145a3565b91505061329f565b50600082519050818110613395576040517f08c379a000000000000000000000000000000000000000000000000000000000815260040161338c90614192565b60405180910390fd5b82600660008b73ffffffffffffffffffffffffffffffffffffffff1673ffffffffffffffffffffffffffffffffffffffff16815260200190815260200160002090805190602001906133e89291906135a2565b50600660008973ffffffffffffffffffffffffffffffffffffffff1673ffffffffffffffffffffffffffffffffffffffff1681526020019081526020016000208790806001815401808255809150506001900390600052602060002001600090919091909150556001600660008a73ffffffffffffffffffffffffffffffffffffffff1673ffffffffffffffffffffffffffffffffffffffff1681526020019081526020016000208054905061349e9190614489565b9550856007600089815260200190815260200160002081905550505050505050505050565b6000816040516020016134d69190613fbf565b60405160208183030381529060405280519060200120836040516020016134fd9190613fbf565b6040516020818303038152906040528051906020012014905092915050565b82805461352890614571565b90600052602060002090601f01602090048101928261354a5760008555613591565b82601f1061356357805160ff1916838001178555613591565b82800160010185558215613591579182015b82811115613590578251825591602001919060010190613575565b5b50905061359e91906135ef565b5090565b8280548282559060005260206000209081019282156135de579160200282015b828111156135dd5782518255916020019190600101906135c2565b5b5090506135eb91906135ef565b5090565b5b808211156136085760008160009055506001016135f0565b5090565b600061361f61361a846142be565b61428d565b9050808382526020820190508260005b8581101561365f578135850161364588826136e6565b84526020840193506020830192505060018101905061362f565b5050509392505050565b600061367c613677846142ea565b61428d565b90508281526020810184848401111561369457600080fd5b61369f848285614505565b509392505050565b6000813590506136b68161468a565b92915050565b600082601f8301126136cd57600080fd5b81356136dd84826020860161360c565b91505092915050565b600082601f8301126136f757600080fd5b8135613707848260208601613669565b91505092915050565b60008135905061371f816146a1565b92915050565b60006020828403121561373757600080fd5b6000613745848285016136a7565b91505092915050565b60008060006060848603121561376357600080fd5b6000613771868287016136a7565b9350506020613782868287016136a7565b925050604061379386828701613710565b9150509250925092565b600080604083850312156137b057600080fd5b60006137be858286016136a7565b925050602083013567ffffffffffffffff8111156137db57600080fd5b6137e7858286016136e6565b9150509250929050565b60006020828403121561380357600080fd5b600082013567ffffffffffffffff81111561381d57600080fd5b613829848285016136bc565b91505092915050565b60006020828403121561384457600080fd5b600082013567ffffffffffffffff81111561385e57600080fd5b61386a848285016136e6565b91505092915050565b60006020828403121561388557600080fd5b600061389384828501613710565b91505092915050565b600080604083850312156138af57600080fd5b60006138bd85828601613710565b92505060206138ce85828601613710565b9150509250929050565b60006138e483836139f5565b905092915050565b60006138f88383613fa1565b60208301905092915050565b61390d816144bd565b82525050565b600061391e8261434f565b613928818561438a565b93508360208202850161393a8561431a565b8060005b85811015613976578484038952815161395785826138d8565b945061396283614370565b925060208a0199505060018101905061393e565b50829750879550505050505092915050565b60006139938261435a565b61399d818561439b565b93506139a88361432a565b8060005b838110156139d95781516139c088826138ec565b97506139cb8361437d565b9250506001810190506139ac565b5085935050505092915050565b6139ef816144cf565b82525050565b6000613a0082614365565b613a0a81856143ac565b9350613a1a818560208601614514565b613a2381614679565b840191505092915050565b6000613a3982614365565b613a4381856143bd565b9350613a53818560208601614514565b613a5c81614679565b840191505092915050565b6000613a7282614365565b613a7c81856143ce565b9350613a8c818560208601614514565b80840191505092915050565b60008154613aa581614571565b613aaf81866143ce565b94506001821660008114613aca5760018114613adb57613b0e565b60ff19831686528186019350613b0e565b613ae48561433a565b60005b83811015613b0657815481890152600182019150602081019050613ae7565b838801955050505b50505092915050565b6000613b246028836143bd565b91507f596f75206f6e6c792063616e20627579204e465473206d61726b65642061732060008301527f73656c6c61626c650000000000000000000000000000000000000000000000006020830152604082019050919050565b6000613b8a6024836143bd565b91507f4164647265737320646f6573206e6f7420686f6c64207370656369666963207460008301527f6f6b656e000000000000000000000000000000000000000000000000000000006020830152604082019050919050565b6000613bf06010836143bd565b91507f4e6f7420612044617461204f776e6572000000000000000000000000000000006000830152602082019050919050565b6000613c30601d836143bd565b91507f506c656173652070726f76696465207375666669656e742046756e64730000006000830152602082019050919050565b6000613c706019836143bd565b91507f506f696e74657220697320616c726561647920696e20757365000000000000006000830152602082019050919050565b6000613cb06039836143bd565b91507f54686973204f7065726174696f6e2063616e206f6e6c7920626520616363657360008301527f7365642062792074686520636f6e7472616374206f776e6572000000000000006020830152604082019050919050565b6000613d16601b836143bd565b91507f596f7520646f206e6f74206f776e207468697320706f696e74657200000000006000830152602082019050919050565b6000613d56603e836143bd565b91507f41727261797320617265206f6620657175616c2073697a6520616e642073756760008301527f676573742074686174206e6f7468696e67206d7563682068617070656e6400006020830152604082019050919050565b6000613dbc6018836143bd565b91507f4e6f204163636f756e74207769746820746869732048756200000000000000006000830152602082019050919050565b6000613dfc6036836143bd565b91507f54686973204f7065726174696f6e2063616e206f6e6c7920626520616363657360008301527f7365642062792074686520746f6b656e206f776e6572000000000000000000006020830152604082019050919050565b6000613e62602e836143bd565b91507f596f752068617665206e6f742073756666696369656e7420726967687473206660008301527f6f72207468697320616374696f6e0000000000000000000000000000000000006020830152604082019050919050565b6000613ec8601c836143bd565b91507f506f696e74657220697320616c726561647920756e75736561626c65000000006000830152602082019050919050565b6000613f08601f836143bd565b91507f506c656173652070726f766964652073756666696369656e742066756e6473006000830152602082019050919050565b6000613f48602d836143bd565b91507f50726f766964656420506f696e74657220646f6573206e6f742065786973742060008301527f7769746820636f6e7472616374000000000000000000000000000000000000006020830152604082019050919050565b613faa816144fb565b82525050565b613fb9816144fb565b82525050565b6000613fcb8284613a67565b915081905092915050565b6000613fe28284613a98565b915081905092915050565b60006020820190506140026000830184613904565b92915050565b600060408201905061401d6000830185613904565b61402a6020830184613fb0565b9392505050565b6000602082019050818103600083015261404b8184613913565b905092915050565b6000602082019050818103600083015261406d8184613988565b905092915050565b600060208201905061408a60008301846139e6565b92915050565b600060208201905081810360008301526140aa8184613a2e565b905092915050565b600060208201905081810360008301526140cb81613b17565b9050919050565b600060208201905081810360008301526140eb81613b7d565b9050919050565b6000602082019050818103600083015261410b81613be3565b9050919050565b6000602082019050818103600083015261412b81613c23565b9050919050565b6000602082019050818103600083015261414b81613c63565b9050919050565b6000602082019050818103600083015261416b81613ca3565b9050919050565b6000602082019050818103600083015261418b81613d09565b9050919050565b600060208201905081810360008301526141ab81613d49565b9050919050565b600060208201905081810360008301526141cb81613daf565b9050919050565b600060208201905081810360008301526141eb81613def565b9050919050565b6000602082019050818103600083015261420b81613e55565b9050919050565b6000602082019050818103600083015261422b81613ebb565b9050919050565b6000602082019050818103600083015261424b81613efb565b9050919050565b6000602082019050818103600083015261426b81613f3b565b9050919050565b60006020820190506142876000830184613fb0565b92915050565b6000604051905081810181811067ffffffffffffffff821117156142b4576142b361464a565b5b8060405250919050565b600067ffffffffffffffff8211156142d9576142d861464a565b5b602082029050602081019050919050565b600067ffffffffffffffff8211156143055761430461464a565b5b601f19601f8301169050602081019050919050565b6000819050602082019050919050565b6000819050602082019050919050565b60008190508160005260206000209050919050565b600081519050919050565b600081519050919050565b600081519050919050565b6000602082019050919050565b6000602082019050919050565b600082825260208201905092915050565b600082825260208201905092915050565b600082825260208201905092915050565b600082825260208201905092915050565b600081905092915050565b60006143e4826144fb565b91506143ef836144fb565b9250827fffffffffffffffffffffffffffffffffffffffffffffffffffffffffffffffff03821115614424576144236145ec565b5b828201905092915050565b600061443a826144fb565b9150614445836144fb565b9250817fffffffffffffffffffffffffffffffffffffffffffffffffffffffffffffffff048311821515161561447e5761447d6145ec565b5b828202905092915050565b6000614494826144fb565b915061449f836144fb565b9250828210156144b2576144b16145ec565b5b828203905092915050565b60006144c8826144db565b9050919050565b60008115159050919050565b600073ffffffffffffffffffffffffffffffffffffffff82169050919050565b6000819050919050565b82818337600083830152505050565b60005b83811015614532578082015181840152602081019050614517565b83811115614541576000848401525b50505050565b6000614552826144fb565b91506000821415614566576145656145ec565b5b600182039050919050565b6000600282049050600182168061458957607f821691505b6020821081141561459d5761459c61461b565b5b50919050565b60006145ae826144fb565b91507fffffffffffffffffffffffffffffffffffffffffffffffffffffffffffffffff8214156145e1576145e06145ec565b5b600182019050919050565b7f4e487b7100000000000000000000000000000000000000000000000000000000600052601160045260246000fd5b7f4e487b7100000000000000000000000000000000000000000000000000000000600052602260045260246000fd5b7f4e487b7100000000000000000000000000000000000000000000000000000000600052604160045260246000fd5b6000601f19601f8301169050919050565b614693816144bd565b811461469e57600080fd5b50565b6146aa816144fb565b81146146b557600080fd5b5056fea2646970667358221220381c82751b75e9c2c74b110668a99505f5ad97cf5ac669ce3290afabbe37de8464736f6c63430008000033",
  "immutableReferences": {},
  "source": "// SPDX-License-Identifier: UNLICENSED\npragma solidity ^0.8.0;\n\ncontract nexyohub {\n//The actual NFT\n  mapping(uint => address) public owners;\n  mapping(uint => string) public pointers;\n  mapping(uint => uint) public prices;\n  mapping(uint => bool) public sellable;\n//Contract capabilities to make the app possible\n  mapping(string => uint8) private pointerExists; //Keeps Track of Pointer Status. 0 Does not exists, 1 Pointer is useable, 2 Pointer was revoked, 3 Pointer still needs Owner approval.\n  mapping(address => uint[]) private DataOwners;\n  mapping(address => uint[]) private OwnerShip; //Tracks NFT Ownership for fast ownership requests\n  mapping(uint => uint) private NFTArrayPos; //Tracks NFT postion in Ownership Array for fast ownership requests\n  string name_;\n  string sign_;\n  address payable owner;\n  uint token_id=0;\n  uint pointer_id=0;\n  uint pointer_uid=0;\n  uint pointerstoapprove=0;\n  string[] pointerarray;\n\n  uint _minstake=32000000000000000000;\n  uint stdPrice=1000000000000000000;\n\n  constructor(string memory _name) {\n    require(msg.sender.balance >= _minstake, 'Please provide suffient Funds');\n    name_=_name;\n    sign_='NXNFT';\n    owner=payable(msg.sender);\n  }\n\n  modifier onlyOwner {\n    require(owner==msg.sender, 'This Operation can only be accessed by the contract owner');\n    require(msg.sender.balance >= _minstake, 'Please provide suffient Funds');\n    _;\n  }\n\n  modifier onlyContract {\n    require(address(this)==msg.sender, 'The function you are trying to enter is prohibited');\n    _;\n  }\n\n  event Transfer(address indexed _from, address indexed _to, uint256 indexed _tokenId);\n  event Approval(address indexed _owner, address indexed _approved, uint256 indexed _tokenId);\n  event ApprovalForAll(address indexed _owner, address indexed _operator, bool _approved);\n  event contracttookmymoney(address thisContract, uint myMoney);\n\n  receive () external payable {\n      emit contracttookmymoney(address(this), msg.value);\n  }\n  //This sets the value to a key in the mapping pointerExists to one which represents the existens of a pointer. Furthermore the pointer it self is added to an array of pointers.\n  function makePointer (string memory pointer) public {\n      require(DataOwners[msg.sender].length>0 || msg.sender==owner, 'Not a Data Owner');\n      require(pointerExists[pointer]!=1 && pointerExists[pointer]!=3,'Pointer is already in use');\n      if (pointerExists[pointer]==0) {\n        if (msg.sender==owner) {\n          pointerExists[pointer]=1;\n        } else {\n          pointerExists[pointer]=3;\n          pointerstoapprove++;\n          pointer_uid++;\n        }\n        pointerarray.push(pointer);\n        if (DataOwners[msg.sender].length>0) {\n          if (DataOwners[msg.sender][0]>pointer_id) { //checks if first entry is approval entry\n            DataOwners[msg.sender][0]=pointer_id;\n          } else {\n            DataOwners[msg.sender].push(pointer_id);\n          }\n        } else {\n          DataOwners[msg.sender].push(pointer_id);\n        }\n        pointer_id++;\n      } else {\n        pointerExists[pointer]=1;\n        pointer_uid--;\n      }\n  }\n\n  function revokePointer (string memory pointer) public onlyOwner {\n    require(isPointerthere(pointer)!=true,'Pointer is already unuseable');\n    pointerExists[pointer]=2;\n    pointer_uid++;\n  }\n\n  function approvePointers (string[] memory pointers) public onlyOwner {\n    uint len=pointers.length;\n    for (uint i=0;i<len;i++) {\n      if(pointerExists[pointers[i]]==3){\n        pointerExists[pointers[i]]=1;\n        pointerstoapprove--;\n        pointer_uid--;\n      }\n    }\n  }\n\n  function mint_to (address newowner, string memory pointer) public {\n    require(isDataOwnerthere(newowner), 'No Account with this Hub');\n    require(isPointerthere(pointer));\n    require(doyouownPointer(pointer), 'You do not own this pointer');\n    owners[token_id]=newowner;\n    uint len;\n    OwnerShip[newowner].push(token_id);\n    len=OwnerShip[newowner].length-1;\n    NFTArrayPos[token_id]=len;\n    pointers[token_id]=pointer;\n    prices[token_id]=stdPrice;\n    sellable[token_id]=false;\n    token_id++;\n  }\n\n  function mint (string memory pointer) public {\n    require(isPointerthere(pointer), 'Provided Pointer does not exist with contract');\n    require(isDataOwnerthere(msg.sender), 'You have not sufficient rights for this action');\n    //require(doyouownPointer(pointer), 'You do not own this pointer');\n    owners[token_id]=msg.sender;\n    uint len;\n    OwnerShip[msg.sender].push(token_id);\n    len=OwnerShip[msg.sender].length-1;\n    NFTArrayPos[token_id]=len;\n    pointers[token_id]=pointer;\n    prices[token_id]=stdPrice;\n    sellable[token_id]=true;\n    token_id++;\n  }\n\n  function setPrice (uint cost, uint token) public {\n    require(owners[token]==msg.sender, 'This Operation can only be accessed by the token owner');\n    prices[token]=cost*stdPrice;\n  }\n\n  //Main transactional function. Manages all necessary Database entries regarding ownership\n  function transferFrom(address _from, address _to, uint _tokenId) public payable {\n    require(owners[_tokenId]==_from, 'Address does not hold specific token');\n    require(prices[_tokenId]<=msg.value, 'Please provide sufficient funds');\n    payable(_from).transfer(msg.value);\n    redoOwnerShipArray (_from,_to,_tokenId);\n    owners[_tokenId]=_to;\n    emit Transfer(_from, _to, _tokenId);\n  }\n\n  //this manages the OwnerShip mapping. If an ID drops from the array because coresponding token has a new owner this logic rebuilds the array.\n  function redoOwnerShipArray (address _from, address _to, uint _tokenId) internal {\n    uint pos;\n    uint arraylen;\n    pos=NFTArrayPos[_tokenId];\n    arraylen=OwnerShip[_from].length;\n    uint[] memory array=new uint[](arraylen);\n    array=OwnerShip[_from];\n    uint[] memory newarray=new uint[](arraylen-1);\n    for (uint i=0; i<pos; i++){\n      newarray[i]=array[i];\n    }\n    uint len;\n    len=array.length;\n    for (uint i=pos+1; i<len; i++){\n      newarray[i-1]=array[i];\n    }\n    uint newlen=newarray.length;\n    require(newlen<len,'Arrays are of equal size and suggest that nothing much happend');\n    OwnerShip[_from]=newarray;\n    OwnerShip[_to].push(_tokenId);\n    pos=OwnerShip[_to].length-1;\n    NFTArrayPos[_tokenId]=pos;\n  }\n\n  /*function redoOwnerShipArraypub (address _from, address _to, uint _tokenId) public {\n    redoOwnerShipArray (_from,_to,_tokenId);\n  }*/\n\n  function buy(uint _tokenid) external payable {\n    require(sellable[_tokenid]==true, \"You only can buy NFTs marked as sellable\");\n    transferFrom(owners[_tokenid], msg.sender, _tokenid);\n  }\n\n  //this needs a redo since only the contract can sell tokens now. Using a parameter in external view is suboptimal\n  function buyableTokens(address sender) external view returns(uint[] memory) {\n    uint x=0;\n    for (uint i=0; i<token_id; i++) {\n      if (sellable[i]==true && owners[i]!=sender) {\n        x++;\n      }\n    }\n    uint[] memory newarray = new uint[](x);\n    x=0;\n    for (uint i=0; i<token_id; i++) {\n      if (sellable[i]==true && owners[i]!=sender) {\n        newarray[x]=i;\n        x++;\n      }\n    }\n    return newarray;\n  }\n\n  //returns the length of the OwnerShipArray coresponding to the address of the message sender.\n  function balance(address sender) external view returns (uint) {\n    uint len;\n    len=OwnerShip[sender].length;\n    return len;\n  }\n\n  //returns the token ids of the address given as parameter. Using a parameter in external view is suboptimal\n  function myTokens(address sender) external view returns(uint[] memory) {\n    uint[] memory array;\n    array=OwnerShip[sender];\n    return array;\n  }\n\n  //returns all pointers currently available\n  function useablePointers() external view onlyOwner returns (string[] memory) {\n    string[] memory somepointers= new string[](pointer_id-pointer_uid);\n    uint len=pointerarray.length;\n    uint x=0;\n    string memory point;\n    for (uint i=0; i<len; i++) {\n      point=pointerarray[i];\n      if (isPointerthere(point)) {\n        somepointers[x]=point;\n        x++;\n      }\n    }\n    return somepointers;\n  }\n\n  function priceOf(uint _tokenId) external view returns (uint) {\n    return prices[_tokenId];\n  }\n\n  function ownerOf(uint _tokenId) external view returns (address) {\n    return owners[_tokenId];\n  }\n\n  function pointerOf(uint _tokenId) external view returns (string memory) {\n    return pointers[_tokenId];\n  }\n\n  function addDataOwner(address dataowner) external onlyOwner {\n    DataOwners[dataowner].push(pointer_id+10**15); //The offset used here is incredibly unelegant and should be replaced with a different mechanism\n  }\n\n  function whatownsDataOwner(address dataowner) public view returns(uint[] memory) {\n    uint x=0;\n    uint len=DataOwners[dataowner].length;\n    if (len==0) {\n      return new uint[](0);\n    } else {\n      for (uint i=0;i<len;i++) {\n        if (DataOwners[dataowner][i]<pointer_id){x++;}\n      }\n      if (x==len) {return DataOwners[dataowner];}\n      else{\n        uint[] memory pointer_ids= new uint[](x);\n        for (uint i=0;i<len;i++) {\n          if (DataOwners[dataowner][i]<pointer_id){\n            pointer_ids[x]=DataOwners[dataowner][i];\n            x--;\n          }\n        }\n        return pointer_ids;\n      }\n    }\n  }\n\n  function doyouownPointer(string memory pointer) public view returns(bool) { //should propably be internal\n    bool result=false;\n    uint[] memory valuables=whatownsDataOwner(msg.sender);\n    for(uint x=0; x<valuables.length; x++) {\n      if (compareStrings(pointerarray[valuables[x]],pointer)) {\n        result=true;\n      }\n    }\n    return result;\n  }\n\n  function dataowned(address ow) public view returns(uint[] memory) {\n    return DataOwners[ow];\n  }\n\n  function compareStrings(string memory s1, string memory s2) internal pure returns(bool){\n    return keccak256(abi.encodePacked(s1))==keccak256(abi.encodePacked(s2));\n  }\n\n  function whoisOwner() public view returns(address) {\n    return owner;\n  }\n\n  function PointerstoApprove () external onlyOwner returns(string[] memory) {\n    string[] memory variouspointers = new string[](pointerstoapprove);\n    uint pos=0;\n    uint len;\n    len=pointerarray.length;\n    for(uint x=0;x<len;x++) {\n      if (pointerExists[pointerarray[x]]==3) {\n        variouspointers[pos]=pointerarray[x];\n        pos++;\n      }\n    }\n    return variouspointers;\n  }\n\n  function isPointerthere (string memory pointer) public view returns (bool){\n    return pointerExists[pointer]==1;\n  }\n\n  function isDataOwnerthere (address dataowner) public view returns (bool){\n    return DataOwners[dataowner].length!=0;\n  }\n\n  function nextNFTid () public view returns(uint){\n    return token_id;\n  }\n\n  function nextPointerid () public view returns(uint){\n    return token_id;\n  }\n\n  function returnContractName () public view returns (string memory){\n    return name_;\n  }\n\n  function returnAddress () public view returns (address){\n    return address(this);\n  }\n\n  function returnSign () public view returns (string memory){\n    return sign_;\n  }\n\n  function terminate() public onlyOwner {\n    selfdestruct(owner);\n  }\n}\n",
  "sourcePath": "/home/ka/Desktop/nft-prototyp/contracts/nexyohub.sol",
  "compiler": {
    "name": "solc",
    "version": "0.8.0+commit.c7dfd78e.Emscripten.clang"
  },
  "schemaVersion": "3.3.4",
  "updatedAt": "2021-04-12T18:15:26.597Z",
  "networkType": "ethereum",
  "devdoc": {
    "kind": "dev",
    "methods": {},
    "version": 1
  },
  "userdoc": {
    "kind": "user",
    "methods": {},
    "version": 1
  }
}