{
  "contractName": "nexyohub",
  "abi": [
    {
      "inputs": [
        {
          "internalType": "string",
          "name": "_name",
          "type": "string"
        }
      ],
      "stateMutability": "nonpayable",
      "type": "constructor"
    },
    {
      "anonymous": false,
      "inputs": [
        {
          "indexed": true,
          "internalType": "address",
          "name": "_owner",
          "type": "address"
        },
        {
          "indexed": true,
          "internalType": "address",
          "name": "_approved",
          "type": "address"
        },
        {
          "indexed": true,
          "internalType": "uint256",
          "name": "_tokenId",
          "type": "uint256"
        }
      ],
      "name": "Approval",
      "type": "event"
    },
    {
      "anonymous": false,
      "inputs": [
        {
          "indexed": true,
          "internalType": "address",
          "name": "_owner",
          "type": "address"
        },
        {
          "indexed": true,
          "internalType": "address",
          "name": "_operator",
          "type": "address"
        },
        {
          "indexed": false,
          "internalType": "bool",
          "name": "_approved",
          "type": "bool"
        }
      ],
      "name": "ApprovalForAll",
      "type": "event"
    },
    {
      "anonymous": false,
      "inputs": [
        {
          "indexed": true,
          "internalType": "address",
          "name": "_from",
          "type": "address"
        },
        {
          "indexed": true,
          "internalType": "address",
          "name": "_to",
          "type": "address"
        },
        {
          "indexed": true,
          "internalType": "uint256",
          "name": "_tokenId",
          "type": "uint256"
        }
      ],
      "name": "Transfer",
      "type": "event"
    },
    {
      "anonymous": false,
      "inputs": [
        {
          "indexed": false,
          "internalType": "address",
          "name": "thisContract",
          "type": "address"
        },
        {
          "indexed": false,
          "internalType": "uint256",
          "name": "myMoney",
          "type": "uint256"
        }
      ],
      "name": "contracttookmymoney",
      "type": "event"
    },
    {
      "inputs": [
        {
          "internalType": "uint256",
          "name": "",
          "type": "uint256"
        }
      ],
      "name": "owners",
      "outputs": [
        {
          "internalType": "address",
          "name": "",
          "type": "address"
        }
      ],
      "stateMutability": "view",
      "type": "function",
      "constant": true
    },
    {
      "inputs": [
        {
          "internalType": "uint256",
          "name": "",
          "type": "uint256"
        }
      ],
      "name": "pointers",
      "outputs": [
        {
          "internalType": "string",
          "name": "",
          "type": "string"
        }
      ],
      "stateMutability": "view",
      "type": "function",
      "constant": true
    },
    {
      "inputs": [
        {
          "internalType": "uint256",
          "name": "",
          "type": "uint256"
        }
      ],
      "name": "prices",
      "outputs": [
        {
          "internalType": "uint256",
          "name": "",
          "type": "uint256"
        }
      ],
      "stateMutability": "view",
      "type": "function",
      "constant": true
    },
    {
      "inputs": [
        {
          "internalType": "uint256",
          "name": "",
          "type": "uint256"
        }
      ],
      "name": "sellable",
      "outputs": [
        {
          "internalType": "bool",
          "name": "",
          "type": "bool"
        }
      ],
      "stateMutability": "view",
      "type": "function",
      "constant": true
    },
    {
      "stateMutability": "payable",
      "type": "receive",
      "payable": true
    },
    {
      "inputs": [
        {
          "internalType": "string",
          "name": "pointer",
          "type": "string"
        }
      ],
      "name": "makePointer",
      "outputs": [],
      "stateMutability": "nonpayable",
      "type": "function"
    },
    {
      "inputs": [
        {
          "internalType": "string",
          "name": "pointer",
          "type": "string"
        }
      ],
      "name": "revokePointer",
      "outputs": [],
      "stateMutability": "nonpayable",
      "type": "function"
    },
    {
      "inputs": [
        {
          "internalType": "string[]",
          "name": "pointers",
          "type": "string[]"
        }
      ],
      "name": "approvePointers",
      "outputs": [],
      "stateMutability": "nonpayable",
      "type": "function"
    },
    {
      "inputs": [
        {
          "internalType": "address",
          "name": "newowner",
          "type": "address"
        },
        {
          "internalType": "string",
          "name": "pointer",
          "type": "string"
        }
      ],
      "name": "mint_to",
      "outputs": [],
      "stateMutability": "nonpayable",
      "type": "function"
    },
    {
      "inputs": [
        {
          "internalType": "string",
          "name": "pointer",
          "type": "string"
        }
      ],
      "name": "mint",
      "outputs": [],
      "stateMutability": "nonpayable",
      "type": "function"
    },
    {
      "inputs": [
        {
          "internalType": "uint256",
          "name": "cost",
          "type": "uint256"
        },
        {
          "internalType": "uint256",
          "name": "token",
          "type": "uint256"
        }
      ],
      "name": "setPrice",
      "outputs": [],
      "stateMutability": "nonpayable",
      "type": "function"
    },
    {
      "inputs": [
        {
          "internalType": "address",
          "name": "_from",
          "type": "address"
        },
        {
          "internalType": "address",
          "name": "_to",
          "type": "address"
        },
        {
          "internalType": "uint256",
          "name": "_tokenId",
          "type": "uint256"
        }
      ],
      "name": "transferFrom",
      "outputs": [],
      "stateMutability": "payable",
      "type": "function",
      "payable": true
    },
    {
      "inputs": [
        {
          "internalType": "uint256",
          "name": "_tokenid",
          "type": "uint256"
        }
      ],
      "name": "buy",
      "outputs": [],
      "stateMutability": "payable",
      "type": "function",
      "payable": true
    },
    {
      "inputs": [
        {
          "internalType": "uint256",
          "name": "_tokenid",
          "type": "uint256"
        }
      ],
      "name": "sell",
      "outputs": [],
      "stateMutability": "nonpayable",
      "type": "function"
    },
    {
      "inputs": [
        {
          "internalType": "address",
          "name": "sender",
          "type": "address"
        }
      ],
      "name": "buyableTokens",
      "outputs": [
        {
          "internalType": "uint256[]",
          "name": "",
          "type": "uint256[]"
        }
      ],
      "stateMutability": "view",
      "type": "function",
      "constant": true
    },
    {
      "inputs": [
        {
          "internalType": "address",
          "name": "sender",
          "type": "address"
        }
      ],
      "name": "balance",
      "outputs": [
        {
          "internalType": "uint256",
          "name": "",
          "type": "uint256"
        }
      ],
      "stateMutability": "view",
      "type": "function",
      "constant": true
    },
    {
      "inputs": [
        {
          "internalType": "address",
          "name": "sender",
          "type": "address"
        }
      ],
      "name": "myTokens",
      "outputs": [
        {
          "internalType": "uint256[]",
          "name": "",
          "type": "uint256[]"
        }
      ],
      "stateMutability": "view",
      "type": "function",
      "constant": true
    },
    {
      "inputs": [],
      "name": "useablePointers",
      "outputs": [
        {
          "internalType": "string[]",
          "name": "",
          "type": "string[]"
        }
      ],
      "stateMutability": "view",
      "type": "function",
      "constant": true
    },
    {
      "inputs": [
        {
          "internalType": "uint256",
          "name": "_tokenId",
          "type": "uint256"
        }
      ],
      "name": "priceOf",
      "outputs": [
        {
          "internalType": "uint256",
          "name": "",
          "type": "uint256"
        }
      ],
      "stateMutability": "view",
      "type": "function",
      "constant": true
    },
    {
      "inputs": [
        {
          "internalType": "uint256",
          "name": "_tokenId",
          "type": "uint256"
        }
      ],
      "name": "ownerOf",
      "outputs": [
        {
          "internalType": "address",
          "name": "",
          "type": "address"
        }
      ],
      "stateMutability": "view",
      "type": "function",
      "constant": true
    },
    {
      "inputs": [
        {
          "internalType": "uint256",
          "name": "_tokenId",
          "type": "uint256"
        }
      ],
      "name": "pointerOf",
      "outputs": [
        {
          "internalType": "string",
          "name": "",
          "type": "string"
        }
      ],
      "stateMutability": "view",
      "type": "function",
      "constant": true
    },
    {
      "inputs": [
        {
          "internalType": "uint256",
          "name": "_tokenId",
          "type": "uint256"
        }
      ],
      "name": "tokensellable",
      "outputs": [
        {
          "internalType": "bool",
          "name": "",
          "type": "bool"
        }
      ],
      "stateMutability": "view",
      "type": "function",
      "constant": true
    },
    {
      "inputs": [
        {
          "internalType": "address",
          "name": "dataowner",
          "type": "address"
        }
      ],
      "name": "addDataOwner",
      "outputs": [],
      "stateMutability": "nonpayable",
      "type": "function"
    },
    {
      "inputs": [
        {
          "internalType": "address",
          "name": "dataowner",
          "type": "address"
        }
      ],
      "name": "whatownsDataOwner",
      "outputs": [
        {
          "internalType": "uint256[]",
          "name": "",
          "type": "uint256[]"
        }
      ],
      "stateMutability": "view",
      "type": "function",
      "constant": true
    },
    {
      "inputs": [
        {
          "internalType": "string",
          "name": "pointer",
          "type": "string"
        }
      ],
      "name": "doyouownPointer",
      "outputs": [
        {
          "internalType": "bool",
          "name": "",
          "type": "bool"
        }
      ],
      "stateMutability": "view",
      "type": "function",
      "constant": true
    },
    {
      "inputs": [
        {
          "internalType": "address",
          "name": "ow",
          "type": "address"
        }
      ],
      "name": "dataowned",
      "outputs": [
        {
          "internalType": "uint256[]",
          "name": "",
          "type": "uint256[]"
        }
      ],
      "stateMutability": "view",
      "type": "function",
      "constant": true
    },
    {
      "inputs": [],
      "name": "whoisOwner",
      "outputs": [
        {
          "internalType": "address",
          "name": "",
          "type": "address"
        }
      ],
      "stateMutability": "view",
      "type": "function",
      "constant": true
    },
    {
      "inputs": [],
      "name": "PointerstoApprove",
      "outputs": [
        {
          "internalType": "string[]",
          "name": "",
          "type": "string[]"
        }
      ],
      "stateMutability": "nonpayable",
      "type": "function"
    },
    {
      "inputs": [
        {
          "internalType": "string",
          "name": "pointer",
          "type": "string"
        }
      ],
      "name": "isPointerthere",
      "outputs": [
        {
          "internalType": "bool",
          "name": "",
          "type": "bool"
        }
      ],
      "stateMutability": "view",
      "type": "function",
      "constant": true
    },
    {
      "inputs": [
        {
          "internalType": "address",
          "name": "dataowner",
          "type": "address"
        }
      ],
      "name": "isDataOwnerthere",
      "outputs": [
        {
          "internalType": "bool",
          "name": "",
          "type": "bool"
        }
      ],
      "stateMutability": "view",
      "type": "function",
      "constant": true
    },
    {
      "inputs": [],
      "name": "nextNFTid",
      "outputs": [
        {
          "internalType": "uint256",
          "name": "",
          "type": "uint256"
        }
      ],
      "stateMutability": "view",
      "type": "function",
      "constant": true
    },
    {
      "inputs": [],
      "name": "nextPointerid",
      "outputs": [
        {
          "internalType": "uint256",
          "name": "",
          "type": "uint256"
        }
      ],
      "stateMutability": "view",
      "type": "function",
      "constant": true
    },
    {
      "inputs": [],
      "name": "returnContractName",
      "outputs": [
        {
          "internalType": "string",
          "name": "",
          "type": "string"
        }
      ],
      "stateMutability": "view",
      "type": "function",
      "constant": true
    },
    {
      "inputs": [],
      "name": "returnAddress",
      "outputs": [
        {
          "internalType": "address",
          "name": "",
          "type": "address"
        }
      ],
      "stateMutability": "view",
      "type": "function",
      "constant": true
    },
    {
      "inputs": [],
      "name": "returnSign",
      "outputs": [
        {
          "internalType": "string",
          "name": "",
          "type": "string"
        }
      ],
      "stateMutability": "view",
      "type": "function",
      "constant": true
    },
    {
      "inputs": [],
      "name": "terminate",
      "outputs": [],
      "stateMutability": "nonpayable",
      "type": "function"
    }
  ],
  "bytecode": "0x60806040526000600b556000600c556000600d556000600e556801bc16d674ec800000601055670de0b6b3a76400006011553480156200003e57600080fd5b5060405162004d7e38038062004d7e833981810160405281019062000064919062000294565b6010543373ffffffffffffffffffffffffffffffffffffffff16311015620000c3576040517f08c379a0000000000000000000000000000000000000000000000000000000008152600401620000ba906200031b565b60405180910390fd5b8060089080519060200190620000db92919062000172565b506040518060400160405280600581526020017f4e584e4654000000000000000000000000000000000000000000000000000000815250600990805190602001906200012992919062000172565b5033600a60006101000a81548173ffffffffffffffffffffffffffffffffffffffff021916908373ffffffffffffffffffffffffffffffffffffffff160217905550506200047f565b8280546200018090620003eb565b90600052602060002090601f016020900481019282620001a45760008555620001f0565b82601f10620001bf57805160ff1916838001178555620001f0565b82800160010185558215620001f0579182015b82811115620001ef578251825591602001919060010190620001d2565b5b509050620001ff919062000203565b5090565b5b808211156200021e57600081600090555060010162000204565b5090565b600062000239620002338462000371565b6200033d565b9050828152602081018484840111156200025257600080fd5b6200025f848285620003b5565b509392505050565b600082601f8301126200027957600080fd5b81516200028b84826020860162000222565b91505092915050565b600060208284031215620002a757600080fd5b600082015167ffffffffffffffff811115620002c257600080fd5b620002d08482850162000267565b91505092915050565b6000620002e8601d83620003a4565b91507f506c656173652070726f76696465207375666669656e742046756e64730000006000830152602082019050919050565b600060208201905081810360008301526200033681620002d9565b9050919050565b6000604051905081810181811067ffffffffffffffff8211171562000367576200036662000450565b5b8060405250919050565b600067ffffffffffffffff8211156200038f576200038e62000450565b5b601f19601f8301169050602081019050919050565b600082825260208201905092915050565b60005b83811015620003d5578082015181840152602081019050620003b8565b83811115620003e5576000848401525b50505050565b600060028204905060018216806200040457607f821691505b602082108114156200041b576200041a62000421565b5b50919050565b7f4e487b7100000000000000000000000000000000000000000000000000000000600052602260045260246000fd5b7f4e487b7100000000000000000000000000000000000000000000000000000000600052604160045260246000fd5b6148ef806200048f6000396000f3fe6080604052600436106102085760003560e01c80638956f3d411610118578063d85d3d27116100a0578063e3d670d71161006f578063e3d670d714610815578063e4849b3214610852578063f1e636801461087b578063f7d97577146108a6578063ff7be29e146108cf57610248565b8063d85d3d2714610756578063d96a094a1461077f578063dc1df3f61461079b578063e285497b146107d857610248565b8063b3142005116100e7578063b314200514610625578063b6ab43e614610662578063b9186d7d1461069f578063bc31c1c1146106dc578063c10e7cc21461071957610248565b80638956f3d414610569578063943640c3146105925780639c05c7ca146105bd578063ad9c4627146105e857610248565b80632b5ba5ab1161019b57806345912d971161016a57806345912d971461045e5780636352211e1461049b5780637b94a2a1146104d85780637ce4d23a146105155780637d8178351461054057610248565b80632b5ba5ab1461038e5780632eae62dc146103cb578063305f16f4146103f65780633348cc0a1461042157610248565b8063218f7d6e116101d7578063218f7d6e146102f557806321ea7fd31461031e57806321f172951461034957806323b872dd1461037257610248565b8063025e7c271461024d578063090d43881461028a5780630c08bf88146102b357806314feb3cb146102ca57610248565b36610248577f4e2ced4d2c3ee1a077c8c313167e6d86b8fe49c37f9d00e5ed1f37265d50be6a303460405161023e9291906141e9565b60405180910390a1005b600080fd5b34801561025957600080fd5b50610274600480360381019061026f9190613a14565b61090c565b60405161028191906141ce565b60405180910390f35b34801561029657600080fd5b506102b160048036038101906102ac91906138c6565b61093f565b005b3480156102bf57600080fd5b506102c8610aa8565b005b3480156102d657600080fd5b506102df610bcf565b6040516102ec9190614271565b60405180910390f35b34801561030157600080fd5b5061031c600480360381019061031791906139d3565b610c61565b005b34801561032a57600080fd5b50610333611207565b6040516103409190614473565b60405180910390f35b34801561035557600080fd5b50610370600480360381019061036b91906139d3565b611211565b005b61038c600480360381019061038791906138ef565b6113a0565b005b34801561039a57600080fd5b506103b560048036038101906103b091906138c6565b611599565b6040516103c29190614234565b60405180910390f35b3480156103d757600080fd5b506103e0611630565b6040516103ed91906141ce565b60405180910390f35b34801561040257600080fd5b5061040b61165a565b6040516104189190614271565b60405180910390f35b34801561042d57600080fd5b50610448600480360381019061044391906139d3565b6116ec565b6040516104559190614256565b60405180910390f35b34801561046a57600080fd5b5061048560048036038101906104809190613a14565b61184a565b6040516104929190614271565b60405180910390f35b3480156104a757600080fd5b506104c260048036038101906104bd9190613a14565b6118ef565b6040516104cf91906141ce565b60405180910390f35b3480156104e457600080fd5b506104ff60048036038101906104fa91906138c6565b61192b565b60405161050c9190614234565b60405180910390f35b34801561052157600080fd5b5061052a611b83565b6040516105379190614212565b60405180910390f35b34801561054c57600080fd5b506105676004803603810190610562919061393e565b611e60565b005b34801561057557600080fd5b50610590600480360381019061058b9190613992565b6120bb565b005b34801561059e57600080fd5b506105a76122f0565b6040516105b491906141ce565b60405180910390f35b3480156105c957600080fd5b506105d26122f8565b6040516105df9190614212565b60405180910390f35b3480156105f457600080fd5b5061060f600480360381019061060a91906138c6565b61262d565b60405161061c9190614234565b60405180910390f35b34801561063157600080fd5b5061064c600480360381019061064791906138c6565b612a50565b6040516106599190614256565b60405180910390f35b34801561066e57600080fd5b5061068960048036038101906106849190613a14565b612a9f565b6040516106969190614271565b60405180910390f35b3480156106ab57600080fd5b506106c660048036038101906106c19190613a14565b612b3f565b6040516106d39190614473565b60405180910390f35b3480156106e857600080fd5b5061070360048036038101906106fe9190613a14565b612b5c565b6040516107109190614473565b60405180910390f35b34801561072557600080fd5b50610740600480360381019061073b9190613a14565b612b74565b60405161074d9190614256565b60405180910390f35b34801561076257600080fd5b5061077d600480360381019061077891906139d3565b612b9e565b005b61079960048036038101906107949190613a14565b612de6565b005b3480156107a757600080fd5b506107c260048036038101906107bd91906138c6565b612eb9565b6040516107cf9190614234565b60405180910390f35b3480156107e457600080fd5b506107ff60048036038101906107fa91906139d3565b612f55565b60405161080c9190614256565b60405180910390f35b34801561082157600080fd5b5061083c600480360381019061083791906138c6565b612f90565b6040516108499190614473565b60405180910390f35b34801561085e57600080fd5b5061087960048036038101906108749190613a14565b612fe1565b005b34801561088757600080fd5b506108906130b0565b60405161089d9190614473565b60405180910390f35b3480156108b257600080fd5b506108cd60048036038101906108c89190613a3d565b6130ba565b005b3480156108db57600080fd5b506108f660048036038101906108f19190613a14565b613183565b6040516109039190614256565b60405180910390f35b60006020528060005260406000206000915054906101000a900473ffffffffffffffffffffffffffffffffffffffff1681565b3373ffffffffffffffffffffffffffffffffffffffff16600a60009054906101000a900473ffffffffffffffffffffffffffffffffffffffff1673ffffffffffffffffffffffffffffffffffffffff16146109cf576040517f08c379a00000000000000000000000000000000000000000000000000000000081526004016109c690614353565b60405180910390fd5b6010543373ffffffffffffffffffffffffffffffffffffffff16311015610a2b576040517f08c379a0000000000000000000000000000000000000000000000000000000008152600401610a2290614313565b60405180910390fd5b600560008273ffffffffffffffffffffffffffffffffffffffff1673ffffffffffffffffffffffffffffffffffffffff16815260200190815260200160002066038d7ea4c68000600c54610a7f91906145da565b908060018154018082558091505060019003906000526020600020016000909190919091505550565b3373ffffffffffffffffffffffffffffffffffffffff16600a60009054906101000a900473ffffffffffffffffffffffffffffffffffffffff1673ffffffffffffffffffffffffffffffffffffffff1614610b38576040517f08c379a0000000000000000000000000000000000000000000000000000000008152600401610b2f90614353565b60405180910390fd5b6010543373ffffffffffffffffffffffffffffffffffffffff16311015610b94576040517f08c379a0000000000000000000000000000000000000000000000000000000008152600401610b8b90614313565b60405180910390fd5b600a60009054906101000a900473ffffffffffffffffffffffffffffffffffffffff1673ffffffffffffffffffffffffffffffffffffffff16ff5b606060088054610bde90614772565b80601f0160208091040260200160405190810160405280929190818152602001828054610c0a90614772565b8015610c575780601f10610c2c57610100808354040283529160200191610c57565b820191906000526020600020905b815481529060010190602001808311610c3a57829003601f168201915b5050505050905090565b6000600560003373ffffffffffffffffffffffffffffffffffffffff1673ffffffffffffffffffffffffffffffffffffffff168152602001908152602001600020805490501180610cff5750600a60009054906101000a900473ffffffffffffffffffffffffffffffffffffffff1673ffffffffffffffffffffffffffffffffffffffff163373ffffffffffffffffffffffffffffffffffffffff16145b610d3e576040517f08c379a0000000000000000000000000000000000000000000000000000000008152600401610d35906142f3565b60405180910390fd5b6001600482604051610d5091906141a0565b908152602001604051809103902060009054906101000a900460ff1660ff1614158015610dac57506003600482604051610d8a91906141a0565b908152602001604051809103902060009054906101000a900460ff1660ff1614155b610deb576040517f08c379a0000000000000000000000000000000000000000000000000000000008152600401610de290614333565b60405180910390fd5b6000600482604051610dfd91906141a0565b908152602001604051809103902060009054906101000a900460ff1660ff1614156111b357600a60009054906101000a900473ffffffffffffffffffffffffffffffffffffffff1673ffffffffffffffffffffffffffffffffffffffff163373ffffffffffffffffffffffffffffffffffffffff161415610eb5576001600482604051610e8a91906141a0565b908152602001604051809103902060006101000a81548160ff021916908360ff160217905550610f1e565b6003600482604051610ec791906141a0565b908152602001604051809103902060006101000a81548160ff021916908360ff160217905550600e6000815480929190610f00906147a4565b9190505550600d6000815480929190610f18906147a4565b91905055505b600f81908060018154018082558091505060019003906000526020600020016000909190919091509080519060200190610f599291906136bd565b506000600560003373ffffffffffffffffffffffffffffffffffffffff1673ffffffffffffffffffffffffffffffffffffffff16815260200190815260200160002080549050111561112d57600c54600560003373ffffffffffffffffffffffffffffffffffffffff1673ffffffffffffffffffffffffffffffffffffffff168152602001908152602001600020600081548110611020577f4e487b7100000000000000000000000000000000000000000000000000000000600052603260045260246000fd5b906000526020600020015411156110bf57600c54600560003373ffffffffffffffffffffffffffffffffffffffff1673ffffffffffffffffffffffffffffffffffffffff1681526020019081526020016000206000815481106110ac577f4e487b7100000000000000000000000000000000000000000000000000000000600052603260045260246000fd5b9060005260206000200181905550611128565b600560003373ffffffffffffffffffffffffffffffffffffffff1673ffffffffffffffffffffffffffffffffffffffff168152602001908152602001600020600c5490806001815401808255809150506001900390600052602060002001600090919091909150555b611196565b600560003373ffffffffffffffffffffffffffffffffffffffff1673ffffffffffffffffffffffffffffffffffffffff168152602001908152602001600020600c5490806001815401808255809150506001900390600052602060002001600090919091909150555b600c60008154809291906111a9906147a4565b9190505550611204565b60016004826040516111c591906141a0565b908152602001604051809103902060006101000a81548160ff021916908360ff160217905550600d60008154809291906111fe90614748565b91905055505b50565b6000600c54905090565b3373ffffffffffffffffffffffffffffffffffffffff16600a60009054906101000a900473ffffffffffffffffffffffffffffffffffffffff1673ffffffffffffffffffffffffffffffffffffffff16146112a1576040517f08c379a000000000000000000000000000000000000000000000000000000000815260040161129890614353565b60405180910390fd5b6010543373ffffffffffffffffffffffffffffffffffffffff163110156112fd576040517f08c379a00000000000000000000000000000000000000000000000000000000081526004016112f490614313565b60405180910390fd5b6001151561130a82612f55565b1515141561134d576040517f08c379a000000000000000000000000000000000000000000000000000000000815260040161134490614413565b60405180910390fd5b600260048260405161135f91906141a0565b908152602001604051809103902060006101000a81548160ff021916908360ff160217905550600d6000815480929190611398906147a4565b919050555050565b8273ffffffffffffffffffffffffffffffffffffffff1660008083815260200190815260200160002060009054906101000a900473ffffffffffffffffffffffffffffffffffffffff1673ffffffffffffffffffffffffffffffffffffffff1614611440576040517f08c379a0000000000000000000000000000000000000000000000000000000008152600401611437906142d3565b60405180910390fd5b3460026000838152602001908152602001600020541115611496576040517f08c379a000000000000000000000000000000000000000000000000000000000815260040161148d90614433565b60405180910390fd5b8273ffffffffffffffffffffffffffffffffffffffff166108fc349081150290604051600060405180830381858888f193505050501580156114dc573d6000803e3d6000fd5b506114e88383836131a3565b8160008083815260200190815260200160002060006101000a81548173ffffffffffffffffffffffffffffffffffffffff021916908373ffffffffffffffffffffffffffffffffffffffff160217905550808273ffffffffffffffffffffffffffffffffffffffff168473ffffffffffffffffffffffffffffffffffffffff167fddf252ad1be2c89b69c2b068fc378daa952ba7f163c4a11628f55a4df523b3ef60405160405180910390a4505050565b6060600560008373ffffffffffffffffffffffffffffffffffffffff1673ffffffffffffffffffffffffffffffffffffffff16815260200190815260200160002080548060200260200160405190810160405280929190818152602001828054801561162457602002820191906000526020600020905b815481526020019060010190808311611610575b50505050509050919050565b6000600a60009054906101000a900473ffffffffffffffffffffffffffffffffffffffff16905090565b60606009805461166990614772565b80601f016020809104026020016040519081016040528092919081815260200182805461169590614772565b80156116e25780601f106116b7576101008083540402835291602001916116e2565b820191906000526020600020905b8154815290600101906020018083116116c557829003601f168201915b5050505050905090565b6000806000905060006116fe3361262d565b905060005b815181101561183f57611822600f83838151811061174a577f4e487b7100000000000000000000000000000000000000000000000000000000600052603260045260246000fd5b602002602001015181548110611789577f4e487b7100000000000000000000000000000000000000000000000000000000600052603260045260246000fd5b90600052602060002001805461179e90614772565b80601f01602080910402602001604051908101604052809291908181526020018280546117ca90614772565b80156118175780601f106117ec57610100808354040283529160200191611817565b820191906000526020600020905b8154815290600101906020018083116117fa57829003601f168201915b505050505086613664565b1561182c57600192505b8080611837906147a4565b915050611703565b508192505050919050565b606060016000838152602001908152602001600020805461186a90614772565b80601f016020809104026020016040519081016040528092919081815260200182805461189690614772565b80156118e35780601f106118b8576101008083540402835291602001916118e3565b820191906000526020600020905b8154815290600101906020018083116118c657829003601f168201915b50505050509050919050565b600080600083815260200190815260200160002060009054906101000a900473ffffffffffffffffffffffffffffffffffffffff169050919050565b60606000805b600b548110156119f457600115156003600083815260200190815260200160002060009054906101000a900460ff1615151480156119cd57508373ffffffffffffffffffffffffffffffffffffffff1660008083815260200190815260200160002060009054906101000a900473ffffffffffffffffffffffffffffffffffffffff1673ffffffffffffffffffffffffffffffffffffffff1614155b156119e15781806119dd906147a4565b9250505b80806119ec906147a4565b915050611931565b5060008167ffffffffffffffff811115611a37577f4e487b7100000000000000000000000000000000000000000000000000000000600052604160045260246000fd5b604051908082528060200260200182016040528015611a655781602001602082028036833780820191505090505b5090506000915060005b600b54811015611b7857600115156003600083815260200190815260200160002060009054906101000a900460ff161515148015611b0b57508473ffffffffffffffffffffffffffffffffffffffff1660008083815260200190815260200160002060009054906101000a900473ffffffffffffffffffffffffffffffffffffffff1673ffffffffffffffffffffffffffffffffffffffff1614155b15611b655780828481518110611b4a577f4e487b7100000000000000000000000000000000000000000000000000000000600052603260045260246000fd5b6020026020010181815250508280611b61906147a4565b9350505b8080611b70906147a4565b915050611a6f565b508092505050919050565b60603373ffffffffffffffffffffffffffffffffffffffff16600a60009054906101000a900473ffffffffffffffffffffffffffffffffffffffff1673ffffffffffffffffffffffffffffffffffffffff1614611c15576040517f08c379a0000000000000000000000000000000000000000000000000000000008152600401611c0c90614353565b60405180910390fd5b6010543373ffffffffffffffffffffffffffffffffffffffff16311015611c71576040517f08c379a0000000000000000000000000000000000000000000000000000000008152600401611c6890614313565b60405180910390fd5b6000600d54600c54611c83919061468a565b67ffffffffffffffff811115611cc2577f4e487b7100000000000000000000000000000000000000000000000000000000600052604160045260246000fd5b604051908082528060200260200182016040528015611cf557816020015b6060815260200190600190039081611ce05790505b5090506000600f8054905090506000606060005b83811015611e5557600f8181548110611d4b577f4e487b7100000000000000000000000000000000000000000000000000000000600052603260045260246000fd5b906000526020600020018054611d6090614772565b80601f0160208091040260200160405190810160405280929190818152602001828054611d8c90614772565b8015611dd95780601f10611dae57610100808354040283529160200191611dd9565b820191906000526020600020905b815481529060010190602001808311611dbc57829003601f168201915b50505050509150611de982612f55565b15611e425781858481518110611e28577f4e487b7100000000000000000000000000000000000000000000000000000000600052603260045260246000fd5b60200260200101819052508280611e3e906147a4565b9350505b8080611e4d906147a4565b915050611d09565b508394505050505090565b611e6982612a50565b611ea8576040517f08c379a0000000000000000000000000000000000000000000000000000000008152600401611e9f906143b3565b60405180910390fd5b611eb181612f55565b611eba57600080fd5b611ec3816116ec565b611f02576040517f08c379a0000000000000000000000000000000000000000000000000000000008152600401611ef990614373565b60405180910390fd5b81600080600b54815260200190815260200160002060006101000a81548173ffffffffffffffffffffffffffffffffffffffff021916908373ffffffffffffffffffffffffffffffffffffffff1602179055506000600660008473ffffffffffffffffffffffffffffffffffffffff1673ffffffffffffffffffffffffffffffffffffffff168152602001908152602001600020600b5490806001815401808255809150506001900390600052602060002001600090919091909150556001600660008573ffffffffffffffffffffffffffffffffffffffff1673ffffffffffffffffffffffffffffffffffffffff1681526020019081526020016000208054905061200e919061468a565b90508060076000600b548152602001908152602001600020819055508160016000600b54815260200190815260200160002090805190602001906120539291906136bd565b5060115460026000600b54815260200190815260200160002081905550600060036000600b54815260200190815260200160002060006101000a81548160ff021916908315150217905550600b60008154809291906120b1906147a4565b9190505550505050565b3373ffffffffffffffffffffffffffffffffffffffff16600a60009054906101000a900473ffffffffffffffffffffffffffffffffffffffff1673ffffffffffffffffffffffffffffffffffffffff161461214b576040517f08c379a000000000000000000000000000000000000000000000000000000000815260040161214290614353565b60405180910390fd5b6010543373ffffffffffffffffffffffffffffffffffffffff163110156121a7576040517f08c379a000000000000000000000000000000000000000000000000000000000815260040161219e90614313565b60405180910390fd5b60008151905060005b818110156122eb57600360048483815181106121f5577f4e487b7100000000000000000000000000000000000000000000000000000000600052603260045260246000fd5b602002602001015160405161220a91906141a0565b908152602001604051809103902060009054906101000a900460ff1660ff1614156122d8576001600484838151811061226c577f4e487b7100000000000000000000000000000000000000000000000000000000600052603260045260246000fd5b602002602001015160405161228191906141a0565b908152602001604051809103902060006101000a81548160ff021916908360ff160217905550600e60008154809291906122ba90614748565b9190505550600d60008154809291906122d290614748565b91905055505b80806122e3906147a4565b9150506121b0565b505050565b600030905090565b60603373ffffffffffffffffffffffffffffffffffffffff16600a60009054906101000a900473ffffffffffffffffffffffffffffffffffffffff1673ffffffffffffffffffffffffffffffffffffffff161461238a576040517f08c379a000000000000000000000000000000000000000000000000000000000815260040161238190614353565b60405180910390fd5b6010543373ffffffffffffffffffffffffffffffffffffffff163110156123e6576040517f08c379a00000000000000000000000000000000000000000000000000000000081526004016123dd90614313565b60405180910390fd5b6000600e5467ffffffffffffffff81111561242a577f4e487b7100000000000000000000000000000000000000000000000000000000600052604160045260246000fd5b60405190808252806020026020018201604052801561245d57816020015b60608152602001906001900390816124485790505b509050600080600f80549050905060005b818110156126235760036004600f83815481106124b4577f4e487b7100000000000000000000000000000000000000000000000000000000600052603260045260246000fd5b906000526020600020016040516124cb91906141b7565b908152602001604051809103902060009054906101000a900460ff1660ff16141561261057600f818154811061252a577f4e487b7100000000000000000000000000000000000000000000000000000000600052603260045260246000fd5b90600052602060002001805461253f90614772565b80601f016020809104026020016040519081016040528092919081815260200182805461256b90614772565b80156125b85780601f1061258d576101008083540402835291602001916125b8565b820191906000526020600020905b81548152906001019060200180831161259b57829003601f168201915b50505050508484815181106125f6577f4e487b7100000000000000000000000000000000000000000000000000000000600052603260045260246000fd5b6020026020010181905250828061260c906147a4565b9350505b808061261b906147a4565b91505061246e565b5082935050505090565b6060600080600560008573ffffffffffffffffffffffffffffffffffffffff1673ffffffffffffffffffffffffffffffffffffffff16815260200190815260200160002080549050905060008114156126f957600067ffffffffffffffff8111156126c1577f4e487b7100000000000000000000000000000000000000000000000000000000600052604160045260246000fd5b6040519080825280602002602001820160405280156126ef5781602001602082028036833780820191505090505b5092505050612a4b565b60005b818110156127b157600c54600560008773ffffffffffffffffffffffffffffffffffffffff1673ffffffffffffffffffffffffffffffffffffffff168152602001908152602001600020828154811061277e577f4e487b7100000000000000000000000000000000000000000000000000000000600052603260045260246000fd5b9060005260206000200154101561279e57828061279a906147a4565b9350505b80806127a9906147a4565b9150506126fc565b508082141561285157600560008573ffffffffffffffffffffffffffffffffffffffff1673ffffffffffffffffffffffffffffffffffffffff16815260200190815260200160002080548060200260200160405190810160405280929190818152602001828054801561284357602002820191906000526020600020905b81548152602001906001019080831161282f575b505050505092505050612a4b565b60008267ffffffffffffffff811115612893577f4e487b7100000000000000000000000000000000000000000000000000000000600052604160045260246000fd5b6040519080825280602002602001820160405280156128c15781602001602082028036833780820191505090505b50905060005b82811015612a4357600c54600560008873ffffffffffffffffffffffffffffffffffffffff1673ffffffffffffffffffffffffffffffffffffffff1681526020019081526020016000208281548110612949577f4e487b7100000000000000000000000000000000000000000000000000000000600052603260045260246000fd5b90600052602060002001541015612a3057600560008773ffffffffffffffffffffffffffffffffffffffff1673ffffffffffffffffffffffffffffffffffffffff16815260200190815260200160002081815481106129d1577f4e487b7100000000000000000000000000000000000000000000000000000000600052603260045260246000fd5b9060005260206000200154828581518110612a15577f4e487b7100000000000000000000000000000000000000000000000000000000600052603260045260246000fd5b6020026020010181815250508380612a2c90614748565b9450505b8080612a3b906147a4565b9150506128c7565b508093505050505b919050565b600080600560008473ffffffffffffffffffffffffffffffffffffffff1673ffffffffffffffffffffffffffffffffffffffff1681526020019081526020016000208054905014159050919050565b60016020528060005260406000206000915090508054612abe90614772565b80601f0160208091040260200160405190810160405280929190818152602001828054612aea90614772565b8015612b375780601f10612b0c57610100808354040283529160200191612b37565b820191906000526020600020905b815481529060010190602001808311612b1a57829003601f168201915b505050505081565b600060026000838152602001908152602001600020549050919050565b60026020528060005260406000206000915090505481565b60006003600083815260200190815260200160002060009054906101000a900460ff169050919050565b612ba781612f55565b612be6576040517f08c379a0000000000000000000000000000000000000000000000000000000008152600401612bdd90614453565b60405180910390fd5b612bef33612a50565b612c2e576040517f08c379a0000000000000000000000000000000000000000000000000000000008152600401612c25906143f3565b60405180910390fd5b33600080600b54815260200190815260200160002060006101000a81548173ffffffffffffffffffffffffffffffffffffffff021916908373ffffffffffffffffffffffffffffffffffffffff1602179055506000600660003373ffffffffffffffffffffffffffffffffffffffff1673ffffffffffffffffffffffffffffffffffffffff168152602001908152602001600020600b5490806001815401808255809150506001900390600052602060002001600090919091909150556001600660003373ffffffffffffffffffffffffffffffffffffffff1673ffffffffffffffffffffffffffffffffffffffff16815260200190815260200160002080549050612d3a919061468a565b90508060076000600b548152602001908152602001600020819055508160016000600b5481526020019081526020016000209080519060200190612d7f9291906136bd565b5060115460026000600b54815260200190815260200160002081905550600060036000600b54815260200190815260200160002060006101000a81548160ff021916908315150217905550600b6000815480929190612ddd906147a4565b91905055505050565b600115156003600083815260200190815260200160002060009054906101000a900460ff16151514612e4d576040517f08c379a0000000000000000000000000000000000000000000000000000000008152600401612e44906142b3565b60405180910390fd5b612e8a60008083815260200190815260200160002060009054906101000a900473ffffffffffffffffffffffffffffffffffffffff1633836113a0565b60006003600083815260200190815260200160002060006101000a81548160ff02191690831515021790555050565b606080600660008473ffffffffffffffffffffffffffffffffffffffff1673ffffffffffffffffffffffffffffffffffffffff168152602001908152602001600020805480602002602001604051908101604052809291908181526020018280548015612f4557602002820191906000526020600020905b815481526020019060010190808311612f31575b5050505050905080915050919050565b60006001600483604051612f6991906141a0565b908152602001604051809103902060009054906101000a900460ff1660ff16149050919050565b600080600660008473ffffffffffffffffffffffffffffffffffffffff1673ffffffffffffffffffffffffffffffffffffffff16815260200190815260200160002080549050905080915050919050565b3373ffffffffffffffffffffffffffffffffffffffff1660008083815260200190815260200160002060009054906101000a900473ffffffffffffffffffffffffffffffffffffffff1673ffffffffffffffffffffffffffffffffffffffff1614613081576040517f08c379a000000000000000000000000000000000000000000000000000000000815260040161307890614293565b60405180910390fd5b60016003600083815260200190815260200160002060006101000a81548160ff02191690831515021790555050565b6000600b54905090565b3373ffffffffffffffffffffffffffffffffffffffff1660008083815260200190815260200160002060009054906101000a900473ffffffffffffffffffffffffffffffffffffffff1673ffffffffffffffffffffffffffffffffffffffff161461315a576040517f08c379a0000000000000000000000000000000000000000000000000000000008152600401613151906143d3565b60405180910390fd5b601154826131689190614630565b60026000838152602001908152602001600020819055505050565b60036020528060005260406000206000915054906101000a900460ff1681565b60008060076000848152602001908152602001600020549150600660008673ffffffffffffffffffffffffffffffffffffffff1673ffffffffffffffffffffffffffffffffffffffff16815260200190815260200160002080549050905060008167ffffffffffffffff811115613243577f4e487b7100000000000000000000000000000000000000000000000000000000600052604160045260246000fd5b6040519080825280602002602001820160405280156132715781602001602082028036833780820191505090505b509050600660008773ffffffffffffffffffffffffffffffffffffffff1673ffffffffffffffffffffffffffffffffffffffff1681526020019081526020016000208054806020026020016040519081016040528092919081815260200182805480156132fd57602002820191906000526020600020905b8154815260200190600101908083116132e9575b505050505090506000600183613313919061468a565b67ffffffffffffffff811115613352577f4e487b7100000000000000000000000000000000000000000000000000000000600052604160045260246000fd5b6040519080825280602002602001820160405280156133805781602001602082028036833780820191505090505b50905060005b84811015613427578281815181106133c7577f4e487b7100000000000000000000000000000000000000000000000000000000600052603260045260246000fd5b6020026020010151828281518110613408577f4e487b7100000000000000000000000000000000000000000000000000000000600052603260045260246000fd5b602002602001018181525050808061341f906147a4565b915050613386565b50600082519050600060018661343d91906145da565b90505b818110156134ed57838181518110613481577f4e487b7100000000000000000000000000000000000000000000000000000000600052603260045260246000fd5b602002602001015183600183613497919061468a565b815181106134ce577f4e487b7100000000000000000000000000000000000000000000000000000000600052603260045260246000fd5b60200260200101818152505080806134e5906147a4565b915050613440565b50600082519050818110613536576040517f08c379a000000000000000000000000000000000000000000000000000000000815260040161352d90614393565b60405180910390fd5b82600660008b73ffffffffffffffffffffffffffffffffffffffff1673ffffffffffffffffffffffffffffffffffffffff1681526020019081526020016000209080519060200190613589929190613743565b50600660008973ffffffffffffffffffffffffffffffffffffffff1673ffffffffffffffffffffffffffffffffffffffff1681526020019081526020016000208790806001815401808255809150506001900390600052602060002001600090919091909150556001600660008a73ffffffffffffffffffffffffffffffffffffffff1673ffffffffffffffffffffffffffffffffffffffff1681526020019081526020016000208054905061363f919061468a565b9550856007600089815260200190815260200160002081905550505050505050505050565b60008160405160200161367791906141a0565b604051602081830303815290604052805190602001208360405160200161369e91906141a0565b6040516020818303038152906040528051906020012014905092915050565b8280546136c990614772565b90600052602060002090601f0160209004810192826136eb5760008555613732565b82601f1061370457805160ff1916838001178555613732565b82800160010185558215613732579182015b82811115613731578251825591602001919060010190613716565b5b50905061373f9190613790565b5090565b82805482825590600052602060002090810192821561377f579160200282015b8281111561377e578251825591602001919060010190613763565b5b50905061378c9190613790565b5090565b5b808211156137a9576000816000905550600101613791565b5090565b60006137c06137bb846144bf565b61448e565b9050808382526020820190508260005b8581101561380057813585016137e68882613887565b8452602084019350602083019250506001810190506137d0565b5050509392505050565b600061381d613818846144eb565b61448e565b90508281526020810184848401111561383557600080fd5b613840848285614706565b509392505050565b6000813590506138578161488b565b92915050565b600082601f83011261386e57600080fd5b813561387e8482602086016137ad565b91505092915050565b600082601f83011261389857600080fd5b81356138a884826020860161380a565b91505092915050565b6000813590506138c0816148a2565b92915050565b6000602082840312156138d857600080fd5b60006138e684828501613848565b91505092915050565b60008060006060848603121561390457600080fd5b600061391286828701613848565b935050602061392386828701613848565b9250506040613934868287016138b1565b9150509250925092565b6000806040838503121561395157600080fd5b600061395f85828601613848565b925050602083013567ffffffffffffffff81111561397c57600080fd5b61398885828601613887565b9150509250929050565b6000602082840312156139a457600080fd5b600082013567ffffffffffffffff8111156139be57600080fd5b6139ca8482850161385d565b91505092915050565b6000602082840312156139e557600080fd5b600082013567ffffffffffffffff8111156139ff57600080fd5b613a0b84828501613887565b91505092915050565b600060208284031215613a2657600080fd5b6000613a34848285016138b1565b91505092915050565b60008060408385031215613a5057600080fd5b6000613a5e858286016138b1565b9250506020613a6f858286016138b1565b9150509250929050565b6000613a858383613b96565b905092915050565b6000613a998383614182565b60208301905092915050565b613aae816146be565b82525050565b6000613abf82614550565b613ac9818561458b565b935083602082028501613adb8561451b565b8060005b85811015613b175784840389528151613af88582613a79565b9450613b0383614571565b925060208a01995050600181019050613adf565b50829750879550505050505092915050565b6000613b348261455b565b613b3e818561459c565b9350613b498361452b565b8060005b83811015613b7a578151613b618882613a8d565b9750613b6c8361457e565b925050600181019050613b4d565b5085935050505092915050565b613b90816146d0565b82525050565b6000613ba182614566565b613bab81856145ad565b9350613bbb818560208601614715565b613bc48161487a565b840191505092915050565b6000613bda82614566565b613be481856145be565b9350613bf4818560208601614715565b613bfd8161487a565b840191505092915050565b6000613c1382614566565b613c1d81856145cf565b9350613c2d818560208601614715565b80840191505092915050565b60008154613c4681614772565b613c5081866145cf565b94506001821660008114613c6b5760018114613c7c57613caf565b60ff19831686528186019350613caf565b613c858561453b565b60005b83811015613ca757815481890152600182019150602081019050613c88565b838801955050505b50505092915050565b6000613cc5601f836145be565b91507f596f75206f6e6c792063616e2073656c6c20737475666620796f75206f776e006000830152602082019050919050565b6000613d056028836145be565b91507f596f75206f6e6c792063616e20627579204e465473206d61726b65642061732060008301527f73656c6c61626c650000000000000000000000000000000000000000000000006020830152604082019050919050565b6000613d6b6024836145be565b91507f4164647265737320646f6573206e6f7420686f6c64207370656369666963207460008301527f6f6b656e000000000000000000000000000000000000000000000000000000006020830152604082019050919050565b6000613dd16010836145be565b91507f4e6f7420612044617461204f776e6572000000000000000000000000000000006000830152602082019050919050565b6000613e11601d836145be565b91507f506c656173652070726f76696465207375666669656e742046756e64730000006000830152602082019050919050565b6000613e516019836145be565b91507f506f696e74657220697320616c726561647920696e20757365000000000000006000830152602082019050919050565b6000613e916039836145be565b91507f54686973204f7065726174696f6e2063616e206f6e6c7920626520616363657360008301527f7365642062792074686520636f6e7472616374206f776e6572000000000000006020830152604082019050919050565b6000613ef7601b836145be565b91507f596f7520646f206e6f74206f776e207468697320706f696e74657200000000006000830152602082019050919050565b6000613f37603e836145be565b91507f41727261797320617265206f6620657175616c2073697a6520616e642073756760008301527f676573742074686174206e6f7468696e67206d7563682068617070656e6400006020830152604082019050919050565b6000613f9d6018836145be565b91507f4e6f204163636f756e74207769746820746869732048756200000000000000006000830152602082019050919050565b6000613fdd6036836145be565b91507f54686973204f7065726174696f6e2063616e206f6e6c7920626520616363657360008301527f7365642062792074686520746f6b656e206f776e6572000000000000000000006020830152604082019050919050565b6000614043602e836145be565b91507f596f752068617665206e6f742073756666696369656e7420726967687473206660008301527f6f72207468697320616374696f6e0000000000000000000000000000000000006020830152604082019050919050565b60006140a9601c836145be565b91507f506f696e74657220697320616c726561647920756e75736561626c65000000006000830152602082019050919050565b60006140e9601f836145be565b91507f506c656173652070726f766964652073756666696369656e742066756e6473006000830152602082019050919050565b6000614129602d836145be565b91507f50726f766964656420506f696e74657220646f6573206e6f742065786973742060008301527f7769746820636f6e7472616374000000000000000000000000000000000000006020830152604082019050919050565b61418b816146fc565b82525050565b61419a816146fc565b82525050565b60006141ac8284613c08565b915081905092915050565b60006141c38284613c39565b915081905092915050565b60006020820190506141e36000830184613aa5565b92915050565b60006040820190506141fe6000830185613aa5565b61420b6020830184614191565b9392505050565b6000602082019050818103600083015261422c8184613ab4565b905092915050565b6000602082019050818103600083015261424e8184613b29565b905092915050565b600060208201905061426b6000830184613b87565b92915050565b6000602082019050818103600083015261428b8184613bcf565b905092915050565b600060208201905081810360008301526142ac81613cb8565b9050919050565b600060208201905081810360008301526142cc81613cf8565b9050919050565b600060208201905081810360008301526142ec81613d5e565b9050919050565b6000602082019050818103600083015261430c81613dc4565b9050919050565b6000602082019050818103600083015261432c81613e04565b9050919050565b6000602082019050818103600083015261434c81613e44565b9050919050565b6000602082019050818103600083015261436c81613e84565b9050919050565b6000602082019050818103600083015261438c81613eea565b9050919050565b600060208201905081810360008301526143ac81613f2a565b9050919050565b600060208201905081810360008301526143cc81613f90565b9050919050565b600060208201905081810360008301526143ec81613fd0565b9050919050565b6000602082019050818103600083015261440c81614036565b9050919050565b6000602082019050818103600083015261442c8161409c565b9050919050565b6000602082019050818103600083015261444c816140dc565b9050919050565b6000602082019050818103600083015261446c8161411c565b9050919050565b60006020820190506144886000830184614191565b92915050565b6000604051905081810181811067ffffffffffffffff821117156144b5576144b461484b565b5b8060405250919050565b600067ffffffffffffffff8211156144da576144d961484b565b5b602082029050602081019050919050565b600067ffffffffffffffff8211156145065761450561484b565b5b601f19601f8301169050602081019050919050565b6000819050602082019050919050565b6000819050602082019050919050565b60008190508160005260206000209050919050565b600081519050919050565b600081519050919050565b600081519050919050565b6000602082019050919050565b6000602082019050919050565b600082825260208201905092915050565b600082825260208201905092915050565b600082825260208201905092915050565b600082825260208201905092915050565b600081905092915050565b60006145e5826146fc565b91506145f0836146fc565b9250827fffffffffffffffffffffffffffffffffffffffffffffffffffffffffffffffff03821115614625576146246147ed565b5b828201905092915050565b600061463b826146fc565b9150614646836146fc565b9250817fffffffffffffffffffffffffffffffffffffffffffffffffffffffffffffffff048311821515161561467f5761467e6147ed565b5b828202905092915050565b6000614695826146fc565b91506146a0836146fc565b9250828210156146b3576146b26147ed565b5b828203905092915050565b60006146c9826146dc565b9050919050565b60008115159050919050565b600073ffffffffffffffffffffffffffffffffffffffff82169050919050565b6000819050919050565b82818337600083830152505050565b60005b83811015614733578082015181840152602081019050614718565b83811115614742576000848401525b50505050565b6000614753826146fc565b91506000821415614767576147666147ed565b5b600182039050919050565b6000600282049050600182168061478a57607f821691505b6020821081141561479e5761479d61481c565b5b50919050565b60006147af826146fc565b91507fffffffffffffffffffffffffffffffffffffffffffffffffffffffffffffffff8214156147e2576147e16147ed565b5b600182019050919050565b7f4e487b7100000000000000000000000000000000000000000000000000000000600052601160045260246000fd5b7f4e487b7100000000000000000000000000000000000000000000000000000000600052602260045260246000fd5b7f4e487b7100000000000000000000000000000000000000000000000000000000600052604160045260246000fd5b6000601f19601f8301169050919050565b614894816146be565b811461489f57600080fd5b50565b6148ab816146fc565b81146148b657600080fd5b5056fea264697066735822122028514185b24bdc10836cbfbd2e3f8d0a18bc0ee92fd34656d486a679445b697964736f6c63430008000033",
  "immutableReferences": {},
  "source": "// SPDX-License-Identifier: UNLICENSED\npragma solidity ^0.8.0;\n\ncontract nexyohub {\n//The actual NFT\n  mapping(uint => address) public owners;\n  mapping(uint => string) public pointers;\n  mapping(uint => uint) public prices;\n  mapping(uint => bool) public sellable;\n//Contract capabilities to make the app possible\n  mapping(string => uint8) private pointerExists; //Keeps Track of Pointer Status. 0 Does not exists, 1 Pointer is useable, 2 Pointer was revoked, 3 Pointer still needs Owner approval.\n  mapping(address => uint[]) private DataOwners;\n  mapping(address => uint[]) private OwnerShip; //Tracks NFT Ownership for fast ownership requests\n  mapping(uint => uint) private NFTArrayPos; //Tracks NFT postion in Ownership Array for fast ownership requests\n  string name_;\n  string sign_;\n  address payable owner;\n  uint token_id=0;\n  uint pointer_id=0;\n  uint pointer_uid=0;\n  uint pointerstoapprove=0;\n  string[] pointerarray;\n\n  uint _minstake=32000000000000000000;\n  uint stdPrice=1000000000000000000;\n\n  constructor(string memory _name) {\n    require(msg.sender.balance >= _minstake, 'Please provide suffient Funds');\n    name_=_name;\n    sign_='NXNFT';\n    owner=payable(msg.sender);\n  }\n\n  modifier onlyOwner {\n    require(owner==msg.sender, 'This Operation can only be accessed by the contract owner');\n    require(msg.sender.balance >= _minstake, 'Please provide suffient Funds');\n    _;\n  }\n\n  modifier onlyContract {\n    require(address(this)==msg.sender, 'The function you are trying to enter is prohibited');\n    _;\n  }\n\n  event Transfer(address indexed _from, address indexed _to, uint256 indexed _tokenId);\n  event Approval(address indexed _owner, address indexed _approved, uint256 indexed _tokenId);\n  event ApprovalForAll(address indexed _owner, address indexed _operator, bool _approved);\n  event contracttookmymoney(address thisContract, uint myMoney);\n\n  receive () external payable {\n      emit contracttookmymoney(address(this), msg.value);\n  }\n  //This sets the value to a key in the mapping pointerExists to one which represents the existens of a pointer. Furthermore the pointer it self is added to an array of pointers.\n  function makePointer (string memory pointer) public {\n      require(DataOwners[msg.sender].length>0 || msg.sender==owner, 'Not a Data Owner');\n      require(pointerExists[pointer]!=1 && pointerExists[pointer]!=3,'Pointer is already in use');\n      if (pointerExists[pointer]==0) {\n        if (msg.sender==owner) {\n          pointerExists[pointer]=1;\n        } else {\n          pointerExists[pointer]=3;\n          pointerstoapprove++;\n          pointer_uid++;\n        }\n        pointerarray.push(pointer);\n        if (DataOwners[msg.sender].length>0) {\n          if (DataOwners[msg.sender][0]>pointer_id) { //checks if first entry is approval entry\n            DataOwners[msg.sender][0]=pointer_id;\n          } else {\n            DataOwners[msg.sender].push(pointer_id);\n          }\n        } else {\n          DataOwners[msg.sender].push(pointer_id);\n        }\n        pointer_id++;\n      } else {\n        pointerExists[pointer]=1;\n        pointer_uid--;\n      }\n  }\n\n  function revokePointer (string memory pointer) public onlyOwner {\n    require(isPointerthere(pointer)!=true,'Pointer is already unuseable');\n    pointerExists[pointer]=2;\n    pointer_uid++;\n  }\n\n  function approvePointers (string[] memory pointers) public onlyOwner {\n    uint len=pointers.length;\n    for (uint i=0;i<len;i++) {\n      if(pointerExists[pointers[i]]==3){\n        pointerExists[pointers[i]]=1;\n        pointerstoapprove--;\n        pointer_uid--;\n      }\n    }\n  }\n\n  function mint_to (address newowner, string memory pointer) public {\n    require(isDataOwnerthere(newowner), 'No Account with this Hub');\n    require(isPointerthere(pointer));\n    require(doyouownPointer(pointer), 'You do not own this pointer');\n    owners[token_id]=newowner;\n    uint len;\n    OwnerShip[newowner].push(token_id);\n    len=OwnerShip[newowner].length-1;\n    NFTArrayPos[token_id]=len;\n    pointers[token_id]=pointer;\n    prices[token_id]=stdPrice;\n    sellable[token_id]=false;\n    token_id++;\n  }\n\n  function mint (string memory pointer) public {\n    require(isPointerthere(pointer), 'Provided Pointer does not exist with contract');\n    require(isDataOwnerthere(msg.sender), 'You have not sufficient rights for this action');\n    //require(doyouownPointer(pointer), 'You do not own this pointer');\n    owners[token_id]=msg.sender;\n    uint len;\n    OwnerShip[msg.sender].push(token_id);\n    len=OwnerShip[msg.sender].length-1;\n    NFTArrayPos[token_id]=len;\n    pointers[token_id]=pointer;\n    prices[token_id]=stdPrice;\n    sellable[token_id]=false;\n    token_id++;\n  }\n\n  function setPrice (uint cost, uint token) public {\n    require(owners[token]==msg.sender, 'This Operation can only be accessed by the token owner');\n    prices[token]=cost*stdPrice;\n  }\n\n  //Main transactional function. Manages all necessary Database entries regarding ownership\n  function transferFrom(address _from, address _to, uint _tokenId) public payable {\n    require(owners[_tokenId]==_from, 'Address does not hold specific token');\n    require(prices[_tokenId]<=msg.value, 'Please provide sufficient funds');\n    payable(_from).transfer(msg.value);\n    redoOwnerShipArray (_from,_to,_tokenId);\n    owners[_tokenId]=_to;\n    emit Transfer(_from, _to, _tokenId);\n  }\n\n  //this manages the OwnerShip mapping. If an ID drops from the array because coresponding token has a new owner this logic rebuilds the array.\n  function redoOwnerShipArray (address _from, address _to, uint _tokenId) internal {\n    uint pos;\n    uint arraylen;\n    pos=NFTArrayPos[_tokenId];\n    arraylen=OwnerShip[_from].length;\n    uint[] memory array=new uint[](arraylen);\n    array=OwnerShip[_from];\n    uint[] memory newarray=new uint[](arraylen-1);\n    for (uint i=0; i<pos; i++){\n      newarray[i]=array[i];\n    }\n    uint len;\n    len=array.length;\n    for (uint i=pos+1; i<len; i++){\n      newarray[i-1]=array[i];\n    }\n    uint newlen=newarray.length;\n    require(newlen<len,'Arrays are of equal size and suggest that nothing much happend');\n    OwnerShip[_from]=newarray;\n    OwnerShip[_to].push(_tokenId);\n    pos=OwnerShip[_to].length-1;\n    NFTArrayPos[_tokenId]=pos;\n  }\n\n  /*function redoOwnerShipArraypub (address _from, address _to, uint _tokenId) public {\n    redoOwnerShipArray (_from,_to,_tokenId);\n  }*/\n\n  function buy(uint _tokenid) external payable {\n    require(sellable[_tokenid]==true, \"You only can buy NFTs marked as sellable\");\n    transferFrom(owners[_tokenid], msg.sender, _tokenid);\n    sellable[_tokenid]=false; // Still a design choice where to put the sell inteaction\n  }\n\n  function sell(uint _tokenid) external {\n    require(owners[_tokenid]==msg.sender, \"You only can sell stuff you own\");\n    sellable[_tokenid]=true;\n  }\n\n  //this needs a redo since only the contract can sell tokens now. Using a parameter in external view is suboptimal\n  function buyableTokens(address sender) external view returns(uint[] memory) {\n    uint x=0;\n    for (uint i=0; i<token_id; i++) {\n      if (sellable[i]==true && owners[i]!=sender) {\n        x++;\n      }\n    }\n    uint[] memory newarray = new uint[](x);\n    x=0;\n    for (uint i=0; i<token_id; i++) {\n      if (sellable[i]==true && owners[i]!=sender) {\n        newarray[x]=i;\n        x++;\n      }\n    }\n    return newarray;\n  }\n\n  //returns the length of the OwnerShipArray coresponding to the address of the message sender.\n  function balance(address sender) external view returns (uint) {\n    uint len;\n    len=OwnerShip[sender].length;\n    return len;\n  }\n\n  //returns the token ids of the address given as parameter. Using a parameter in external view is suboptimal\n  function myTokens(address sender) external view returns(uint[] memory) {\n    uint[] memory array;\n    array=OwnerShip[sender];\n    return array;\n  }\n\n  //returns all pointers currently available\n  function useablePointers() external view onlyOwner returns (string[] memory) {\n    string[] memory somepointers= new string[](pointer_id-pointer_uid);\n    uint len=pointerarray.length;\n    uint x=0;\n    string memory point;\n    for (uint i=0; i<len; i++) {\n      point=pointerarray[i];\n      if (isPointerthere(point)) {\n        somepointers[x]=point;\n        x++;\n      }\n    }\n    return somepointers;\n  }\n\n  function priceOf(uint _tokenId) external view returns (uint) {\n    return prices[_tokenId];\n  }\n\n  function ownerOf(uint _tokenId) external view returns (address) {\n    return owners[_tokenId];\n  }\n\n  function pointerOf(uint _tokenId) external view returns (string memory) {\n    return pointers[_tokenId];\n  }\n\n  function tokensellable(uint _tokenId) external view returns (bool) {\n    return sellable[_tokenId];\n  }\n\n  function addDataOwner(address dataowner) external onlyOwner {\n    DataOwners[dataowner].push(pointer_id+10**15); //The offset used here is incredibly unelegant and should be replaced with a different mechanism\n  }\n\n  function whatownsDataOwner(address dataowner) public view returns(uint[] memory) {\n    uint x=0;\n    uint len=DataOwners[dataowner].length;\n    if (len==0) {\n      return new uint[](0);\n    } else {\n      for (uint i=0;i<len;i++) {\n        if (DataOwners[dataowner][i]<pointer_id){x++;}\n      }\n      if (x==len) {return DataOwners[dataowner];}\n      else{\n        uint[] memory pointer_ids= new uint[](x);\n        for (uint i=0;i<len;i++) {\n          if (DataOwners[dataowner][i]<pointer_id){\n            pointer_ids[x]=DataOwners[dataowner][i];\n            x--;\n          }\n        }\n        return pointer_ids;\n      }\n    }\n  }\n\n  function doyouownPointer(string memory pointer) public view returns(bool) { //should propably be internal\n    bool result=false;\n    uint[] memory valuables=whatownsDataOwner(msg.sender);\n    for(uint x=0; x<valuables.length; x++) {\n      if (compareStrings(pointerarray[valuables[x]],pointer)) {\n        result=true;\n      }\n    }\n    return result;\n  }\n\n  function dataowned(address ow) public view returns(uint[] memory) {\n    return DataOwners[ow];\n  }\n\n  function compareStrings(string memory s1, string memory s2) internal pure returns(bool){\n    return keccak256(abi.encodePacked(s1))==keccak256(abi.encodePacked(s2));\n  }\n\n  function whoisOwner() public view returns(address) {\n    return owner;\n  }\n\n  function PointerstoApprove () external onlyOwner returns(string[] memory) {\n    string[] memory variouspointers = new string[](pointerstoapprove);\n    uint pos=0;\n    uint len;\n    len=pointerarray.length;\n    for(uint x=0;x<len;x++) {\n      if (pointerExists[pointerarray[x]]==3) {\n        variouspointers[pos]=pointerarray[x];\n        pos++;\n      }\n    }\n    return variouspointers;\n  }\n\n  function isPointerthere (string memory pointer) public view returns (bool){\n    return pointerExists[pointer]==1;\n  }\n\n  function isDataOwnerthere (address dataowner) public view returns (bool){\n    return DataOwners[dataowner].length!=0;\n  }\n\n  function nextNFTid () public view returns(uint){\n    return token_id;\n  }\n\n  function nextPointerid () public view returns(uint){\n    return pointer_id;\n  }\n\n  function returnContractName () public view returns (string memory){\n    return name_;\n  }\n\n  function returnAddress () public view returns (address){\n    return address(this);\n  }\n\n  function returnSign () public view returns (string memory){\n    return sign_;\n  }\n\n  function terminate() public onlyOwner {\n    selfdestruct(owner);\n  }\n}\n",
  "sourcePath": "/home/ka/Desktop/nft-prototyp/contracts/nexyohub.sol",
  "compiler": {
    "name": "solc",
    "version": "0.8.0+commit.c7dfd78e.Emscripten.clang"
  },
  "schemaVersion": "3.3.4",
  "updatedAt": "2021-04-16T14:32:33.235Z",
  "networkType": "ethereum",
  "devdoc": {
    "kind": "dev",
    "methods": {},
    "version": 1
  },
  "userdoc": {
    "kind": "user",
    "methods": {},
    "version": 1
  }
}