{
  "contractName": "nexyohub",
  "abi": [
    {
      "inputs": [
        {
          "internalType": "string",
          "name": "_name",
          "type": "string"
        }
      ],
      "payable": false,
      "stateMutability": "nonpayable",
      "type": "constructor"
    },
    {
      "constant": true,
      "inputs": [
        {
          "internalType": "uint256",
          "name": "",
          "type": "uint256"
        }
      ],
      "name": "owners",
      "outputs": [
        {
          "internalType": "address",
          "name": "",
          "type": "address"
        }
      ],
      "payable": false,
      "stateMutability": "view",
      "type": "function"
    },
    {
      "constant": true,
      "inputs": [
        {
          "internalType": "uint256",
          "name": "",
          "type": "uint256"
        }
      ],
      "name": "pointers",
      "outputs": [
        {
          "internalType": "string",
          "name": "",
          "type": "string"
        }
      ],
      "payable": false,
      "stateMutability": "view",
      "type": "function"
    },
    {
      "constant": false,
      "inputs": [
        {
          "internalType": "string",
          "name": "pointer",
          "type": "string"
        }
      ],
      "name": "makePointer",
      "outputs": [],
      "payable": false,
      "stateMutability": "nonpayable",
      "type": "function"
    },
    {
      "constant": false,
      "inputs": [
        {
          "internalType": "string",
          "name": "pointer",
          "type": "string"
        }
      ],
      "name": "revokePointer",
      "outputs": [],
      "payable": false,
      "stateMutability": "nonpayable",
      "type": "function"
    },
    {
      "constant": false,
      "inputs": [
        {
          "internalType": "address",
          "name": "newowner",
          "type": "address"
        },
        {
          "internalType": "string",
          "name": "pointer",
          "type": "string"
        }
      ],
      "name": "mint_to",
      "outputs": [],
      "payable": false,
      "stateMutability": "nonpayable",
      "type": "function"
    },
    {
      "constant": false,
      "inputs": [
        {
          "internalType": "string",
          "name": "pointer",
          "type": "string"
        }
      ],
      "name": "mint",
      "outputs": [],
      "payable": false,
      "stateMutability": "nonpayable",
      "type": "function"
    },
    {
      "constant": false,
      "inputs": [
        {
          "internalType": "address",
          "name": "dataowner",
          "type": "address"
        }
      ],
      "name": "addDataOwner",
      "outputs": [],
      "payable": false,
      "stateMutability": "nonpayable",
      "type": "function"
    },
    {
      "constant": false,
      "inputs": [],
      "name": "terminate",
      "outputs": [],
      "payable": false,
      "stateMutability": "nonpayable",
      "type": "function"
    }
  ],
  "bytecode": "0x60806040526801bc16d674ec80000060005560006008553480156200002357600080fd5b50604051620014f5380380620014f5833981810160405260208110156200004957600080fd5b81019080805160405193929190846401000000008211156200006a57600080fd5b838201915060208201858111156200008157600080fd5b82518660018202830111640100000000821117156200009f57600080fd5b8083526020830192505050908051906020019080838360005b83811015620000d5578082015181840152602081019050620000b8565b50505050905090810190601f168015620001035780820380516001836020036101000a031916815260200191505b506040525050506000543373ffffffffffffffffffffffffffffffffffffffff163110156200019a576040517f08c379a000000000000000000000000000000000000000000000000000000000815260040180806020018281038252601d8152602001807f506c656173652070726f76696465207375666669656e742046756e647300000081525060200191505060405180910390fd5b8060059080519060200190620001b2929190620002a1565b506040518060400160405280600581526020017f4e584e46540000000000000000000000000000000000000000000000000000008152506006908051906020019062000200929190620002a1565b5033600760006101000a81548173ffffffffffffffffffffffffffffffffffffffff021916908373ffffffffffffffffffffffffffffffffffffffff1602179055506001600260003073ffffffffffffffffffffffffffffffffffffffff1673ffffffffffffffffffffffffffffffffffffffff16815260200190815260200160002060006101000a81548160ff0219169083151502179055505062000350565b828054600181600116156101000203166002900490600052602060002090601f016020900481019282601f10620002e457805160ff191683800117855562000315565b8280016001018555821562000315579182015b8281111562000314578251825591602001919060010190620002f7565b5b50905062000324919062000328565b5090565b6200034d91905b80821115620003495760008160009055506001016200032f565b5090565b90565b61119580620003606000396000f3fe608060405234801561001057600080fd5b50600436106100885760003560e01c806321f172951161005b57806321f17295146102045780637d817835146102bf578063b6ab43e61461039a578063d85d3d271461044157610088565b8063025e7c271461008d578063090d4388146100fb5780630c08bf881461013f578063218f7d6e14610149575b600080fd5b6100b9600480360360208110156100a357600080fd5b81019080803590602001909291905050506104fc565b604051808273ffffffffffffffffffffffffffffffffffffffff1673ffffffffffffffffffffffffffffffffffffffff16815260200191505060405180910390f35b61013d6004803603602081101561011157600080fd5b81019080803573ffffffffffffffffffffffffffffffffffffffff16906020019092919050505061052f565b005b6101476106bf565b005b6102026004803603602081101561015f57600080fd5b810190808035906020019064010000000081111561017c57600080fd5b82018360208201111561018e57600080fd5b803590602001918460018302840111640100000000831117156101b057600080fd5b91908080601f016020809104026020016040519081016040528093929190818152602001838380828437600081840152601f19601f82011690508083019250505050505050919291929050505061082f565b005b6102bd6004803603602081101561021a57600080fd5b810190808035906020019064010000000081111561023757600080fd5b82018360208201111561024957600080fd5b8035906020019184600183028401116401000000008311171561026b57600080fd5b91908080601f016020809104026020016040519081016040528093929190818152602001838380828437600081840152601f19601f8201169050808301925050505050505091929192905050506109e8565b005b610398600480360360408110156102d557600080fd5b81019080803573ffffffffffffffffffffffffffffffffffffffff1690602001909291908035906020019064010000000081111561031257600080fd5b82018360208201111561032457600080fd5b8035906020019184600183028401116401000000008311171561034657600080fd5b91908080601f016020809104026020016040519081016040528093929190818152602001838380828437600081840152601f19601f820116905080830192505050505050509192919290505050610ba2565b005b6103c6600480360360208110156103b057600080fd5b8101908080359060200190929190505050610d83565b6040518080602001828103825283818151815260200191508051906020019080838360005b838110156104065780820151818401526020810190506103eb565b50505050905090810190601f1680156104335780820380516001836020036101000a031916815260200191505b509250505060405180910390f35b6104fa6004803603602081101561045757600080fd5b810190808035906020019064010000000081111561047457600080fd5b82018360208201111561048657600080fd5b803590602001918460018302840111640100000000831117156104a857600080fd5b91908080601f016020809104026020016040519081016040528093929190818152602001838380828437600081840152601f19601f820116905080830192505050505050509192919290505050610e33565b005b60036020528060005260406000206000915054906101000a900473ffffffffffffffffffffffffffffffffffffffff1681565b3373ffffffffffffffffffffffffffffffffffffffff16600760009054906101000a900473ffffffffffffffffffffffffffffffffffffffff1673ffffffffffffffffffffffffffffffffffffffff16146105d5576040517f08c379a00000000000000000000000000000000000000000000000000000000081526004018080602001828103825260398152602001806111286039913960400191505060405180910390fd5b6000543373ffffffffffffffffffffffffffffffffffffffff16311015610664576040517f08c379a000000000000000000000000000000000000000000000000000000000815260040180806020018281038252601d8152602001807f506c656173652070726f76696465207375666669656e742046756e647300000081525060200191505060405180910390fd5b6001600260008373ffffffffffffffffffffffffffffffffffffffff1673ffffffffffffffffffffffffffffffffffffffff16815260200190815260200160002060006101000a81548160ff02191690831515021790555050565b3373ffffffffffffffffffffffffffffffffffffffff16600760009054906101000a900473ffffffffffffffffffffffffffffffffffffffff1673ffffffffffffffffffffffffffffffffffffffff1614610765576040517f08c379a00000000000000000000000000000000000000000000000000000000081526004018080602001828103825260398152602001806111286039913960400191505060405180910390fd5b6000543373ffffffffffffffffffffffffffffffffffffffff163110156107f4576040517f08c379a000000000000000000000000000000000000000000000000000000000815260040180806020018281038252601d8152602001807f506c656173652070726f76696465207375666669656e742046756e647300000081525060200191505060405180910390fd5b600760009054906101000a900473ffffffffffffffffffffffffffffffffffffffff1673ffffffffffffffffffffffffffffffffffffffff16ff5b3373ffffffffffffffffffffffffffffffffffffffff16600760009054906101000a900473ffffffffffffffffffffffffffffffffffffffff1673ffffffffffffffffffffffffffffffffffffffff16146108d5576040517f08c379a00000000000000000000000000000000000000000000000000000000081526004018080602001828103825260398152602001806111286039913960400191505060405180910390fd5b6000543373ffffffffffffffffffffffffffffffffffffffff16311015610964576040517f08c379a000000000000000000000000000000000000000000000000000000000815260040180806020018281038252601d8152602001807f506c656173652070726f76696465207375666669656e742046756e647300000081525060200191505060405180910390fd5b600180826040518082805190602001908083835b6020831061099b5780518252602082019150602081019050602083039250610978565b6001836020036101000a038019825116818451168082178552505050505050905001915050908152602001604051809103902060006101000a81548160ff02191690831515021790555050565b3373ffffffffffffffffffffffffffffffffffffffff16600760009054906101000a900473ffffffffffffffffffffffffffffffffffffffff1673ffffffffffffffffffffffffffffffffffffffff1614610a8e576040517f08c379a00000000000000000000000000000000000000000000000000000000081526004018080602001828103825260398152602001806111286039913960400191505060405180910390fd5b6000543373ffffffffffffffffffffffffffffffffffffffff16311015610b1d576040517f08c379a000000000000000000000000000000000000000000000000000000000815260040180806020018281038252601d8152602001807f506c656173652070726f76696465207375666669656e742046756e647300000081525060200191505060405180910390fd5b60006001826040518082805190602001908083835b60208310610b555780518252602082019150602081019050602083039250610b32565b6001836020036101000a038019825116818451168082178552505050505050905001915050908152602001604051809103902060006101000a81548160ff02191690831515021790555050565b60011515600260008473ffffffffffffffffffffffffffffffffffffffff1673ffffffffffffffffffffffffffffffffffffffff16815260200190815260200160002060009054906101000a900460ff16151514610c68576040517f08c379a00000000000000000000000000000000000000000000000000000000081526004018080602001828103825260188152602001807f4e6f204163636f756e742077697468207468697320487562000000000000000081525060200191505060405180910390fd5b600115156001826040518082805190602001908083835b60208310610ca25780518252602082019150602081019050602083039250610c7f565b6001836020036101000a038019825116818451168082178552505050505050905001915050908152602001604051809103902060009054906101000a900460ff16151514610cef57600080fd5b8160036000600854815260200190815260200160002060006101000a81548173ffffffffffffffffffffffffffffffffffffffff021916908373ffffffffffffffffffffffffffffffffffffffff160217905550806004600060085481526020019081526020016000209080519060200190610d6c929190611082565b506008600081548092919060010191905055505050565b60046020528060005260406000206000915090508054600181600116156101000203166002900480601f016020809104026020016040519081016040528092919081815260200182805460018160011615610100020316600290048015610e2b5780601f10610e0057610100808354040283529160200191610e2b565b820191906000526020600020905b815481529060010190602001808311610e0e57829003601f168201915b505050505081565b3373ffffffffffffffffffffffffffffffffffffffff16600760009054906101000a900473ffffffffffffffffffffffffffffffffffffffff1673ffffffffffffffffffffffffffffffffffffffff1614610ed9576040517f08c379a00000000000000000000000000000000000000000000000000000000081526004018080602001828103825260398152602001806111286039913960400191505060405180910390fd5b6000543373ffffffffffffffffffffffffffffffffffffffff16311015610f68576040517f08c379a000000000000000000000000000000000000000000000000000000000815260040180806020018281038252601d8152602001807f506c656173652070726f76696465207375666669656e742046756e647300000081525060200191505060405180910390fd5b600115156001826040518082805190602001908083835b60208310610fa25780518252602082019150602081019050602083039250610f7f565b6001836020036101000a038019825116818451168082178552505050505050905001915050908152602001604051809103902060009054906101000a900460ff16151514610fef57600080fd5b3060036000600854815260200190815260200160002060006101000a81548173ffffffffffffffffffffffffffffffffffffffff021916908373ffffffffffffffffffffffffffffffffffffffff16021790555080600460006008548152602001908152602001600020908051906020019061106c929190611082565b5060086000815480929190600101919050555050565b828054600181600116156101000203166002900490600052602060002090601f016020900481019282601f106110c357805160ff19168380011785556110f1565b828001600101855582156110f1579182015b828111156110f05782518255916020019190600101906110d5565b5b5090506110fe9190611102565b5090565b61112491905b80821115611120576000816000905550600101611108565b5090565b9056fe54686973204f7065726174696f6e2063616e206f6e6c792062652061636365737365642062792074686520636f6e7472616374206f776e6572a265627a7a723158207c364f9bceabf20bdddd84424259795b717818148514e06a52e8dc0476c401f364736f6c63430005100032",
  "source": "pragma solidity ^0.5.16;\n\ncontract nexyohub {\n  uint _minstake = 32000000000000000000;\n  mapping(string => bool) private pointerExists;\n  mapping(address => bool) private DataOwners;\n  mapping(uint => address) public owners;\n  mapping(uint => string) public pointers;\n  string name_;\n  string sign_;\n  address payable owner;\n  uint token_id=0;\n\n  constructor(string memory _name) public {\n    require(msg.sender.balance >= _minstake, 'Please provide suffient Funds');\n    name_=_name;\n    sign_='NXNFT';\n    owner=msg.sender;\n    DataOwners[address(this)]=true;\n  }\n\n  modifier onlyOwner {\n    require(owner==msg.sender, 'This Operation can only be accessed by the contract owner');\n    require(msg.sender.balance >= _minstake, 'Please provide suffient Funds');\n    _;\n  }\n  function makePointer (string memory pointer) public onlyOwner {\n    pointerExists[pointer]=true;\n  }\n\n  function revokePointer (string memory pointer) public onlyOwner {\n    pointerExists[pointer]=false;\n  }\n\n  function mint_to (address newowner, string memory pointer) public {\n    require(DataOwners[newowner]==true, 'No Account with this Hub');\n    require(pointerExists[pointer]==true);\n    owners[token_id]=newowner;\n    pointers[token_id]=pointer;\n    token_id++;\n  }\n\n  function mint (string memory pointer) public onlyOwner {\n    require(pointerExists[pointer]==true);\n    owners[token_id]=address(this);\n    pointers[token_id]=pointer;\n    token_id++;\n  }\n\n  function addDataOwner(address dataowner) public onlyOwner {\n    DataOwners[dataowner]=true;\n  }\n  function terminate() public onlyOwner {\n    selfdestruct(owner);\n  }\n}\n",
  "sourcePath": "/home/noone/Desktop/nexyo/contracts/nexyohub.sol",
  "compiler": {
    "name": "solc",
    "version": "0.5.16+commit.9c3226ce.Emscripten.clang"
  },
  "schemaVersion": "3.3.4",
  "updatedAt": "2021-03-14T18:13:50.233Z",
  "devdoc": {
    "methods": {}
  },
  "userdoc": {
    "methods": {}
  }
}